{
  "contracts/fishOracle.sol": {
    "FISHOracle": {
      "abi": [
        {
          "inputs": [],
          "name": "FISH",
          "outputs": [
            {
              "internalType": "address",
              "name": "",
              "type": "address"
            }
          ],
          "stateMutability": "view",
          "type": "function"
        },
        {
          "inputs": [],
          "name": "FISH_USDC",
          "outputs": [
            {
              "internalType": "contract IUniswapV2Pair",
              "name": "",
              "type": "address"
            }
          ],
          "stateMutability": "view",
          "type": "function"
        },
        {
          "inputs": [],
          "name": "PERIOD",
          "outputs": [
            {
              "internalType": "uint256",
              "name": "",
              "type": "uint256"
            }
          ],
          "stateMutability": "view",
          "type": "function"
        },
        {
          "inputs": [
            {
              "internalType": "uint32",
              "name": "blockTimestamp",
              "type": "uint32"
            }
          ],
          "name": "_get",
          "outputs": [
            {
              "internalType": "uint256",
              "name": "",
              "type": "uint256"
            }
          ],
          "stateMutability": "view",
          "type": "function"
        },
        {
          "inputs": [
            {
              "internalType": "bytes",
              "name": "data",
              "type": "bytes"
            }
          ],
          "name": "get",
          "outputs": [
            {
              "internalType": "bool",
              "name": "",
              "type": "bool"
            },
            {
              "internalType": "uint256",
              "name": "",
              "type": "uint256"
            }
          ],
          "stateMutability": "nonpayable",
          "type": "function"
        },
        {
          "inputs": [
            {
              "internalType": "contract IUniswapV2Pair",
              "name": "_FISH_USDC",
              "type": "address"
            },
            {
              "internalType": "address",
              "name": "_FISH",
              "type": "address"
            }
          ],
          "name": "initialize",
          "outputs": [],
          "stateMutability": "nonpayable",
          "type": "function"
        },
        {
          "inputs": [
            {
              "internalType": "bytes",
              "name": "",
              "type": "bytes"
            }
          ],
          "name": "name",
          "outputs": [
            {
              "internalType": "string",
              "name": "",
              "type": "string"
            }
          ],
          "stateMutability": "view",
          "type": "function"
        },
        {
          "inputs": [],
          "name": "pairInfo",
          "outputs": [
            {
              "internalType": "uint256",
              "name": "priceCumulativeLast",
              "type": "uint256"
            },
            {
              "internalType": "uint32",
              "name": "blockTimestampLast",
              "type": "uint32"
            },
            {
              "internalType": "uint144",
              "name": "priceAverage",
              "type": "uint144"
            }
          ],
          "stateMutability": "view",
          "type": "function"
        },
        {
          "inputs": [
            {
              "internalType": "bytes",
              "name": "data",
              "type": "bytes"
            }
          ],
          "name": "peek",
          "outputs": [
            {
              "internalType": "bool",
              "name": "",
              "type": "bool"
            },
            {
              "internalType": "uint256",
              "name": "",
              "type": "uint256"
            }
          ],
          "stateMutability": "view",
          "type": "function"
        },
        {
          "inputs": [
            {
              "internalType": "bytes",
              "name": "data",
              "type": "bytes"
            }
          ],
          "name": "peekSpot",
          "outputs": [
            {
              "internalType": "uint256",
              "name": "rate",
              "type": "uint256"
            }
          ],
          "stateMutability": "view",
          "type": "function"
        },
        {
          "inputs": [
            {
              "internalType": "bytes",
              "name": "",
              "type": "bytes"
            }
          ],
          "name": "symbol",
          "outputs": [
            {
              "internalType": "string",
              "name": "",
              "type": "string"
            }
          ],
          "stateMutability": "view",
          "type": "function"
        }
      ],
      "devdoc": {
        "kind": "dev",
        "methods": {},
        "version": 1
      },
      "evm": {
        "bytecode": {
          "linkReferences": {},
          "object": "608060405234801561001057600080fd5b50611125806100206000396000f3fe608060405234801561001057600080fd5b50600436106100a95760003560e01c8063d39bbef011610071578063d39bbef014610129578063d568866c1461013c578063d6d7d5251461014f578063eeb8a8d314610170578063fc2a5b1d14610183578063ffcff32c1461019a576100a9565b8063485cc955146100ae5780634a0972a3146100c35780634d032d8d146100e1578063b4d1d79514610101578063c699c4d614610109575b600080fd5b6100c16100bc366004610d51565b6101a2565b005b6100cb610263565b6040516100d89190610e03565b60405180910390f35b6100f46100ef366004610de7565b610278565b6040516100d89190610fee565b6100f46105b9565b61011c610117366004610ce4565b6105be565b6040516100d89190610e27565b6100f4610137366004610ce4565b6105e0565b61011c61014a366004610ce4565b610780565b61016261015d366004610ce4565b6107ac565b6040516100d8929190610e17565b61016261017e366004610ce4565b610933565b61018b610a17565b6040516100d893929190610ff7565b6100cb610a39565b600054610100900460ff16806101bb575060005460ff16155b6101e05760405162461bcd60e51b81526004016101d790610efb565b60405180910390fd5b600054610100900460ff1615801561020b576000805460ff1961ff0019909116610100171660011790555b6000805462010000600160b01b031916620100006001600160a01b038681169190910291909117909155600180546001600160a01b031916918416919091179055801561025e576000805461ff00191690555b505050565b6000546201000090046001600160a01b031681565b600080600080600060029054906101000a90046001600160a01b03166001600160a01b0316630902f1ac6040518163ffffffff1660e01b815260040160606040518083038186803b1580156102cc57600080fd5b505afa1580156102e0573d6000803e3d6000fd5b505050506040513d601f19601f820116820180604052508101906103049190610d89565b92509250925060008060029054906101000a90046001600160a01b03166001600160a01b0316630dfe16816040518163ffffffff1660e01b815260040160206040518083038186803b15801561035957600080fd5b505afa15801561036d573d6000803e3d6000fd5b505050506040513d601f19601f820116820180604052508101906103919190610cc8565b6001546001600160a01b0390811691161461043157600060029054906101000a90046001600160a01b03166001600160a01b0316635a3d54936040518163ffffffff1660e01b815260040160206040518083038186803b1580156103f457600080fd5b505afa158015610408573d6000803e3d6000fd5b505050506040513d601f19601f8201168201806040525081019061042c9190610dcf565b6104b7565b600060029054906101000a90046001600160a01b03166001600160a01b0316635909c0d56040518163ffffffff1660e01b815260040160206040518083038186803b15801561047f57600080fd5b505afa158015610493573d6000803e3d6000fd5b505050506040513d601f19601f820116820180604052508101906104b79190610dcf565b9050600060029054906101000a90046001600160a01b03166001600160a01b0316630dfe16816040518163ffffffff1660e01b815260040160206040518083038186803b15801561050757600080fd5b505afa15801561051b573d6000803e3d6000fd5b505050506040513d601f19601f8201168201806040525081019061053f9190610cc8565b6001546001600160a01b0390811691161461055b57838361055e565b82845b909450925061056d828761108a565b63ffffffff1661058f856001600160701b0316856001600160701b0316610a48565b516105a391906001600160e01b0316611054565b6105ad908261101c565b9450505050505b919050565b603c81565b60408051808201909152600481526308c92a6960e31b60208201525b92915050565b60008060008060029054906101000a90046001600160a01b03166001600160a01b0316630902f1ac6040518163ffffffff1660e01b815260040160606040518083038186803b15801561063257600080fd5b505afa158015610646573d6000803e3d6000fd5b505050506040513d601f19601f8201168201806040525081019061066a9190610d89565b506001600160701b031691506001600160701b03169150600060029054906101000a90046001600160a01b03166001600160a01b0316630dfe16816040518163ffffffff1660e01b815260040160206040518083038186803b1580156106cf57600080fd5b505afa1580156106e3573d6000803e3d6000fd5b505050506040513d601f19601f820116820180604052508101906107079190610cc8565b6001546001600160a01b03908116911614610723578181610726565b80825b909250905061075a8161074184670de0b6b3a7640000610b02565b61074b9190611034565b670de0b6b3a764000090610b02565b610777906f29c30f1029939b146664242d97d9f64960361b611034565b95945050505050565b505060408051808201909152601081526f464953485f55534443204f7261636c6560801b602082015290565b6003546000908190429063ffffffff166107ee576003805463ffffffff191663ffffffff83161790556107de81610278565b600255506000915081905061092c565b6003546000906108049063ffffffff168361108a565b9050603c8163ffffffff1610156108365750506003546001925064010000000090046001600160901b0316905061092c565b600061084183610278565b90506108b0610898610893670de0b6b3a764000060405180602001604052808763ffffffff16600260000154886108789190611073565b6108829190611034565b6001600160e01b0316905290610b42565b610ba9565b670de0b6b3a7640000906001600160901b0316610b02565b6108cd906f29c30f1029939b146664242d97d9f64960361b611034565b6003805463ffffffff90951663ffffffff196001600160901b0393841664010000000090810275ffffffffffffffffffffffffffffffffffff000000001990981697909717161790819055600292909255600195509290049091169150505b9250929050565b6003546000908190429063ffffffff1661095457600080925092505061092c565b60035460009061096a9063ffffffff168361108a565b9050603c8163ffffffff16101561099c5750506003546001925064010000000090046001600160901b0316905061092c565b60006109a783610278565b905060006109e0610898610893670de0b6b3a764000060405180602001604052808863ffffffff16600260000154896108789190611073565b6109fd906f29c30f1029939b146664242d97d9f64960361b611034565b600196506001600160901b03169450505050509250929050565b60025460035463ffffffff81169064010000000090046001600160901b031683565b6001546001600160a01b031681565b610a50610c8c565b60008211610a705760405162461bcd60e51b81526004016101d790610f80565b82610a8a57506040805160208101909152600081526105da565b6001600160901b038311610af1576000610aa883607086901b611034565b90506001600160e01b03811115610ad15760405162461bcd60e51b81526004016101d790610f49565b6040518060200160405280826001600160e01b03168152509150506105da565b6000610aa884600160701b85610bb0565b6000811580610b2657508282610b188183611054565b9250610b249083611034565b145b6105da5760405162461bcd60e51b81526004016101d790610fb7565b610b4a610c9e565b6000821580610b78575083516001600160e01b031683610b6a8183611054565b9250610b769083611034565b145b610b945760405162461bcd60e51b81526004016101d790610ec4565b60408051602081019091529081529392505050565b5160701c90565b6000808060001985870986860292508281109083900303905080610bf95760008411610bee5760405162461bcd60e51b81526004016101d790610e7a565b508290049050610c85565b808411610c0557600080fd5b600084868809808403938111909203919050600085610c268119600161101c565b16958690049560008181038290046001018581029290960491909101949150610c50876003611054565b600290811888810282030280890282030280890282030280890282030280890282030280890290910302949094029450505050505b9392505050565b60408051602081019091526000815290565b6040518060200160405280600081525090565b80516001600160701b03811681146105b457600080fd5b600060208284031215610cd9578081fd5b8151610c85816110c5565b60008060208385031215610cf6578081fd5b823567ffffffffffffffff80821115610d0d578283fd5b818501915085601f830112610d20578283fd5b813581811115610d2e578384fd5b866020828501011115610d3f578384fd5b60209290920196919550909350505050565b60008060408385031215610d63578182fd5b8235610d6e816110c5565b91506020830135610d7e816110c5565b809150509250929050565b600080600060608486031215610d9d578081fd5b610da684610cb1565b9250610db460208501610cb1565b91506040840151610dc4816110dd565b809150509250925092565b600060208284031215610de0578081fd5b5051919050565b600060208284031215610df8578081fd5b8135610c85816110dd565b6001600160a01b0391909116815260200190565b9115158252602082015260400190565b6000602080835283518082850152825b81811015610e5357858101830151858201604001528201610e37565b81811115610e645783604083870101525b50601f01601f1916929092016040019392505050565b6020808252602a908201527f46756c6c4d6174683a2064656e6f6d696e61746f722073686f756c6420626520604082015269036b7b932903d32b937960b51b606082015260800190565b60208082526019908201527f4669786564506f696e743a3a6d756c3a206f766572666c6f7700000000000000604082015260600190565b6020808252602e908201527f496e697469616c697a61626c653a20636f6e747261637420697320616c72656160408201526d191e481a5b9a5d1a585b1a5e995960921b606082015260800190565b6020808252601e908201527f4669786564506f696e743a3a6672616374696f6e3a206f766572666c6f770000604082015260600190565b6020808252601e908201527f4669786564506f696e743a3a6672616374696f6e3a2064697620627920300000604082015260600190565b60208082526018908201527f426f72696e674d6174683a204d756c204f766572666c6f770000000000000000604082015260600190565b90815260200190565b92835263ffffffff9190911660208301526001600160901b0316604082015260600190565b6000821982111561102f5761102f6110af565b500190565b60008261104f57634e487b7160e01b81526012600452602481fd5b500490565b600081600019048311821515161561106e5761106e6110af565b500290565b600082821015611085576110856110af565b500390565b600063ffffffff838116908316818110156110a7576110a76110af565b039392505050565b634e487b7160e01b600052601160045260246000fd5b6001600160a01b03811681146110da57600080fd5b50565b63ffffffff811681146110da57600080fdfea2646970667358221220a89b5a9992f5e79c8076ec7cd1ac0eb7b61d6d2a74317201d20bb0903830463064736f6c63430008000033",
          "opcodes": "PUSH1 0x80 PUSH1 0x40 MSTORE CALLVALUE DUP1 ISZERO PUSH2 0x10 JUMPI PUSH1 0x0 DUP1 REVERT JUMPDEST POP PUSH2 0x1125 DUP1 PUSH2 0x20 PUSH1 0x0 CODECOPY PUSH1 0x0 RETURN INVALID PUSH1 0x80 PUSH1 0x40 MSTORE CALLVALUE DUP1 ISZERO PUSH2 0x10 JUMPI PUSH1 0x0 DUP1 REVERT JUMPDEST POP PUSH1 0x4 CALLDATASIZE LT PUSH2 0xA9 JUMPI PUSH1 0x0 CALLDATALOAD PUSH1 0xE0 SHR DUP1 PUSH4 0xD39BBEF0 GT PUSH2 0x71 JUMPI DUP1 PUSH4 0xD39BBEF0 EQ PUSH2 0x129 JUMPI DUP1 PUSH4 0xD568866C EQ PUSH2 0x13C JUMPI DUP1 PUSH4 0xD6D7D525 EQ PUSH2 0x14F JUMPI DUP1 PUSH4 0xEEB8A8D3 EQ PUSH2 0x170 JUMPI DUP1 PUSH4 0xFC2A5B1D EQ PUSH2 0x183 JUMPI DUP1 PUSH4 0xFFCFF32C EQ PUSH2 0x19A JUMPI PUSH2 0xA9 JUMP JUMPDEST DUP1 PUSH4 0x485CC955 EQ PUSH2 0xAE JUMPI DUP1 PUSH4 0x4A0972A3 EQ PUSH2 0xC3 JUMPI DUP1 PUSH4 0x4D032D8D EQ PUSH2 0xE1 JUMPI DUP1 PUSH4 0xB4D1D795 EQ PUSH2 0x101 JUMPI DUP1 PUSH4 0xC699C4D6 EQ PUSH2 0x109 JUMPI JUMPDEST PUSH1 0x0 DUP1 REVERT JUMPDEST PUSH2 0xC1 PUSH2 0xBC CALLDATASIZE PUSH1 0x4 PUSH2 0xD51 JUMP JUMPDEST PUSH2 0x1A2 JUMP JUMPDEST STOP JUMPDEST PUSH2 0xCB PUSH2 0x263 JUMP JUMPDEST PUSH1 0x40 MLOAD PUSH2 0xD8 SWAP2 SWAP1 PUSH2 0xE03 JUMP JUMPDEST PUSH1 0x40 MLOAD DUP1 SWAP2 SUB SWAP1 RETURN JUMPDEST PUSH2 0xF4 PUSH2 0xEF CALLDATASIZE PUSH1 0x4 PUSH2 0xDE7 JUMP JUMPDEST PUSH2 0x278 JUMP JUMPDEST PUSH1 0x40 MLOAD PUSH2 0xD8 SWAP2 SWAP1 PUSH2 0xFEE JUMP JUMPDEST PUSH2 0xF4 PUSH2 0x5B9 JUMP JUMPDEST PUSH2 0x11C PUSH2 0x117 CALLDATASIZE PUSH1 0x4 PUSH2 0xCE4 JUMP JUMPDEST PUSH2 0x5BE JUMP JUMPDEST PUSH1 0x40 MLOAD PUSH2 0xD8 SWAP2 SWAP1 PUSH2 0xE27 JUMP JUMPDEST PUSH2 0xF4 PUSH2 0x137 CALLDATASIZE PUSH1 0x4 PUSH2 0xCE4 JUMP JUMPDEST PUSH2 0x5E0 JUMP JUMPDEST PUSH2 0x11C PUSH2 0x14A CALLDATASIZE PUSH1 0x4 PUSH2 0xCE4 JUMP JUMPDEST PUSH2 0x780 JUMP JUMPDEST PUSH2 0x162 PUSH2 0x15D CALLDATASIZE PUSH1 0x4 PUSH2 0xCE4 JUMP JUMPDEST PUSH2 0x7AC JUMP JUMPDEST PUSH1 0x40 MLOAD PUSH2 0xD8 SWAP3 SWAP2 SWAP1 PUSH2 0xE17 JUMP JUMPDEST PUSH2 0x162 PUSH2 0x17E CALLDATASIZE PUSH1 0x4 PUSH2 0xCE4 JUMP JUMPDEST PUSH2 0x933 JUMP JUMPDEST PUSH2 0x18B PUSH2 0xA17 JUMP JUMPDEST PUSH1 0x40 MLOAD PUSH2 0xD8 SWAP4 SWAP3 SWAP2 SWAP1 PUSH2 0xFF7 JUMP JUMPDEST PUSH2 0xCB PUSH2 0xA39 JUMP JUMPDEST PUSH1 0x0 SLOAD PUSH2 0x100 SWAP1 DIV PUSH1 0xFF AND DUP1 PUSH2 0x1BB JUMPI POP PUSH1 0x0 SLOAD PUSH1 0xFF AND ISZERO JUMPDEST PUSH2 0x1E0 JUMPI PUSH1 0x40 MLOAD PUSH3 0x461BCD PUSH1 0xE5 SHL DUP2 MSTORE PUSH1 0x4 ADD PUSH2 0x1D7 SWAP1 PUSH2 0xEFB JUMP JUMPDEST PUSH1 0x40 MLOAD DUP1 SWAP2 SUB SWAP1 REVERT JUMPDEST PUSH1 0x0 SLOAD PUSH2 0x100 SWAP1 DIV PUSH1 0xFF AND ISZERO DUP1 ISZERO PUSH2 0x20B JUMPI PUSH1 0x0 DUP1 SLOAD PUSH1 0xFF NOT PUSH2 0xFF00 NOT SWAP1 SWAP2 AND PUSH2 0x100 OR AND PUSH1 0x1 OR SWAP1 SSTORE JUMPDEST PUSH1 0x0 DUP1 SLOAD PUSH3 0x10000 PUSH1 0x1 PUSH1 0xB0 SHL SUB NOT AND PUSH3 0x10000 PUSH1 0x1 PUSH1 0x1 PUSH1 0xA0 SHL SUB DUP7 DUP2 AND SWAP2 SWAP1 SWAP2 MUL SWAP2 SWAP1 SWAP2 OR SWAP1 SWAP2 SSTORE PUSH1 0x1 DUP1 SLOAD PUSH1 0x1 PUSH1 0x1 PUSH1 0xA0 SHL SUB NOT AND SWAP2 DUP5 AND SWAP2 SWAP1 SWAP2 OR SWAP1 SSTORE DUP1 ISZERO PUSH2 0x25E JUMPI PUSH1 0x0 DUP1 SLOAD PUSH2 0xFF00 NOT AND SWAP1 SSTORE JUMPDEST POP POP POP JUMP JUMPDEST PUSH1 0x0 SLOAD PUSH3 0x10000 SWAP1 DIV PUSH1 0x1 PUSH1 0x1 PUSH1 0xA0 SHL SUB AND DUP2 JUMP JUMPDEST PUSH1 0x0 DUP1 PUSH1 0x0 DUP1 PUSH1 0x0 PUSH1 0x2 SWAP1 SLOAD SWAP1 PUSH2 0x100 EXP SWAP1 DIV PUSH1 0x1 PUSH1 0x1 PUSH1 0xA0 SHL SUB AND PUSH1 0x1 PUSH1 0x1 PUSH1 0xA0 SHL SUB AND PUSH4 0x902F1AC PUSH1 0x40 MLOAD DUP2 PUSH4 0xFFFFFFFF AND PUSH1 0xE0 SHL DUP2 MSTORE PUSH1 0x4 ADD PUSH1 0x60 PUSH1 0x40 MLOAD DUP1 DUP4 SUB DUP2 DUP7 DUP1 EXTCODESIZE ISZERO DUP1 ISZERO PUSH2 0x2CC JUMPI PUSH1 0x0 DUP1 REVERT JUMPDEST POP GAS STATICCALL ISZERO DUP1 ISZERO PUSH2 0x2E0 JUMPI RETURNDATASIZE PUSH1 0x0 DUP1 RETURNDATACOPY RETURNDATASIZE PUSH1 0x0 REVERT JUMPDEST POP POP POP POP PUSH1 0x40 MLOAD RETURNDATASIZE PUSH1 0x1F NOT PUSH1 0x1F DUP3 ADD AND DUP3 ADD DUP1 PUSH1 0x40 MSTORE POP DUP2 ADD SWAP1 PUSH2 0x304 SWAP2 SWAP1 PUSH2 0xD89 JUMP JUMPDEST SWAP3 POP SWAP3 POP SWAP3 POP PUSH1 0x0 DUP1 PUSH1 0x2 SWAP1 SLOAD SWAP1 PUSH2 0x100 EXP SWAP1 DIV PUSH1 0x1 PUSH1 0x1 PUSH1 0xA0 SHL SUB AND PUSH1 0x1 PUSH1 0x1 PUSH1 0xA0 SHL SUB AND PUSH4 0xDFE1681 PUSH1 0x40 MLOAD DUP2 PUSH4 0xFFFFFFFF AND PUSH1 0xE0 SHL DUP2 MSTORE PUSH1 0x4 ADD PUSH1 0x20 PUSH1 0x40 MLOAD DUP1 DUP4 SUB DUP2 DUP7 DUP1 EXTCODESIZE ISZERO DUP1 ISZERO PUSH2 0x359 JUMPI PUSH1 0x0 DUP1 REVERT JUMPDEST POP GAS STATICCALL ISZERO DUP1 ISZERO PUSH2 0x36D JUMPI RETURNDATASIZE PUSH1 0x0 DUP1 RETURNDATACOPY RETURNDATASIZE PUSH1 0x0 REVERT JUMPDEST POP POP POP POP PUSH1 0x40 MLOAD RETURNDATASIZE PUSH1 0x1F NOT PUSH1 0x1F DUP3 ADD AND DUP3 ADD DUP1 PUSH1 0x40 MSTORE POP DUP2 ADD SWAP1 PUSH2 0x391 SWAP2 SWAP1 PUSH2 0xCC8 JUMP JUMPDEST PUSH1 0x1 SLOAD PUSH1 0x1 PUSH1 0x1 PUSH1 0xA0 SHL SUB SWAP1 DUP2 AND SWAP2 AND EQ PUSH2 0x431 JUMPI PUSH1 0x0 PUSH1 0x2 SWAP1 SLOAD SWAP1 PUSH2 0x100 EXP SWAP1 DIV PUSH1 0x1 PUSH1 0x1 PUSH1 0xA0 SHL SUB AND PUSH1 0x1 PUSH1 0x1 PUSH1 0xA0 SHL SUB AND PUSH4 0x5A3D5493 PUSH1 0x40 MLOAD DUP2 PUSH4 0xFFFFFFFF AND PUSH1 0xE0 SHL DUP2 MSTORE PUSH1 0x4 ADD PUSH1 0x20 PUSH1 0x40 MLOAD DUP1 DUP4 SUB DUP2 DUP7 DUP1 EXTCODESIZE ISZERO DUP1 ISZERO PUSH2 0x3F4 JUMPI PUSH1 0x0 DUP1 REVERT JUMPDEST POP GAS STATICCALL ISZERO DUP1 ISZERO PUSH2 0x408 JUMPI RETURNDATASIZE PUSH1 0x0 DUP1 RETURNDATACOPY RETURNDATASIZE PUSH1 0x0 REVERT JUMPDEST POP POP POP POP PUSH1 0x40 MLOAD RETURNDATASIZE PUSH1 0x1F NOT PUSH1 0x1F DUP3 ADD AND DUP3 ADD DUP1 PUSH1 0x40 MSTORE POP DUP2 ADD SWAP1 PUSH2 0x42C SWAP2 SWAP1 PUSH2 0xDCF JUMP JUMPDEST PUSH2 0x4B7 JUMP JUMPDEST PUSH1 0x0 PUSH1 0x2 SWAP1 SLOAD SWAP1 PUSH2 0x100 EXP SWAP1 DIV PUSH1 0x1 PUSH1 0x1 PUSH1 0xA0 SHL SUB AND PUSH1 0x1 PUSH1 0x1 PUSH1 0xA0 SHL SUB AND PUSH4 0x5909C0D5 PUSH1 0x40 MLOAD DUP2 PUSH4 0xFFFFFFFF AND PUSH1 0xE0 SHL DUP2 MSTORE PUSH1 0x4 ADD PUSH1 0x20 PUSH1 0x40 MLOAD DUP1 DUP4 SUB DUP2 DUP7 DUP1 EXTCODESIZE ISZERO DUP1 ISZERO PUSH2 0x47F JUMPI PUSH1 0x0 DUP1 REVERT JUMPDEST POP GAS STATICCALL ISZERO DUP1 ISZERO PUSH2 0x493 JUMPI RETURNDATASIZE PUSH1 0x0 DUP1 RETURNDATACOPY RETURNDATASIZE PUSH1 0x0 REVERT JUMPDEST POP POP POP POP PUSH1 0x40 MLOAD RETURNDATASIZE PUSH1 0x1F NOT PUSH1 0x1F DUP3 ADD AND DUP3 ADD DUP1 PUSH1 0x40 MSTORE POP DUP2 ADD SWAP1 PUSH2 0x4B7 SWAP2 SWAP1 PUSH2 0xDCF JUMP JUMPDEST SWAP1 POP PUSH1 0x0 PUSH1 0x2 SWAP1 SLOAD SWAP1 PUSH2 0x100 EXP SWAP1 DIV PUSH1 0x1 PUSH1 0x1 PUSH1 0xA0 SHL SUB AND PUSH1 0x1 PUSH1 0x1 PUSH1 0xA0 SHL SUB AND PUSH4 0xDFE1681 PUSH1 0x40 MLOAD DUP2 PUSH4 0xFFFFFFFF AND PUSH1 0xE0 SHL DUP2 MSTORE PUSH1 0x4 ADD PUSH1 0x20 PUSH1 0x40 MLOAD DUP1 DUP4 SUB DUP2 DUP7 DUP1 EXTCODESIZE ISZERO DUP1 ISZERO PUSH2 0x507 JUMPI PUSH1 0x0 DUP1 REVERT JUMPDEST POP GAS STATICCALL ISZERO DUP1 ISZERO PUSH2 0x51B JUMPI RETURNDATASIZE PUSH1 0x0 DUP1 RETURNDATACOPY RETURNDATASIZE PUSH1 0x0 REVERT JUMPDEST POP POP POP POP PUSH1 0x40 MLOAD RETURNDATASIZE PUSH1 0x1F NOT PUSH1 0x1F DUP3 ADD AND DUP3 ADD DUP1 PUSH1 0x40 MSTORE POP DUP2 ADD SWAP1 PUSH2 0x53F SWAP2 SWAP1 PUSH2 0xCC8 JUMP JUMPDEST PUSH1 0x1 SLOAD PUSH1 0x1 PUSH1 0x1 PUSH1 0xA0 SHL SUB SWAP1 DUP2 AND SWAP2 AND EQ PUSH2 0x55B JUMPI DUP4 DUP4 PUSH2 0x55E JUMP JUMPDEST DUP3 DUP5 JUMPDEST SWAP1 SWAP5 POP SWAP3 POP PUSH2 0x56D DUP3 DUP8 PUSH2 0x108A JUMP JUMPDEST PUSH4 0xFFFFFFFF AND PUSH2 0x58F DUP6 PUSH1 0x1 PUSH1 0x1 PUSH1 0x70 SHL SUB AND DUP6 PUSH1 0x1 PUSH1 0x1 PUSH1 0x70 SHL SUB AND PUSH2 0xA48 JUMP JUMPDEST MLOAD PUSH2 0x5A3 SWAP2 SWAP1 PUSH1 0x1 PUSH1 0x1 PUSH1 0xE0 SHL SUB AND PUSH2 0x1054 JUMP JUMPDEST PUSH2 0x5AD SWAP1 DUP3 PUSH2 0x101C JUMP JUMPDEST SWAP5 POP POP POP POP POP JUMPDEST SWAP2 SWAP1 POP JUMP JUMPDEST PUSH1 0x3C DUP2 JUMP JUMPDEST PUSH1 0x40 DUP1 MLOAD DUP1 DUP3 ADD SWAP1 SWAP2 MSTORE PUSH1 0x4 DUP2 MSTORE PUSH4 0x8C92A69 PUSH1 0xE3 SHL PUSH1 0x20 DUP3 ADD MSTORE JUMPDEST SWAP3 SWAP2 POP POP JUMP JUMPDEST PUSH1 0x0 DUP1 PUSH1 0x0 DUP1 PUSH1 0x2 SWAP1 SLOAD SWAP1 PUSH2 0x100 EXP SWAP1 DIV PUSH1 0x1 PUSH1 0x1 PUSH1 0xA0 SHL SUB AND PUSH1 0x1 PUSH1 0x1 PUSH1 0xA0 SHL SUB AND PUSH4 0x902F1AC PUSH1 0x40 MLOAD DUP2 PUSH4 0xFFFFFFFF AND PUSH1 0xE0 SHL DUP2 MSTORE PUSH1 0x4 ADD PUSH1 0x60 PUSH1 0x40 MLOAD DUP1 DUP4 SUB DUP2 DUP7 DUP1 EXTCODESIZE ISZERO DUP1 ISZERO PUSH2 0x632 JUMPI PUSH1 0x0 DUP1 REVERT JUMPDEST POP GAS STATICCALL ISZERO DUP1 ISZERO PUSH2 0x646 JUMPI RETURNDATASIZE PUSH1 0x0 DUP1 RETURNDATACOPY RETURNDATASIZE PUSH1 0x0 REVERT JUMPDEST POP POP POP POP PUSH1 0x40 MLOAD RETURNDATASIZE PUSH1 0x1F NOT PUSH1 0x1F DUP3 ADD AND DUP3 ADD DUP1 PUSH1 0x40 MSTORE POP DUP2 ADD SWAP1 PUSH2 0x66A SWAP2 SWAP1 PUSH2 0xD89 JUMP JUMPDEST POP PUSH1 0x1 PUSH1 0x1 PUSH1 0x70 SHL SUB AND SWAP2 POP PUSH1 0x1 PUSH1 0x1 PUSH1 0x70 SHL SUB AND SWAP2 POP PUSH1 0x0 PUSH1 0x2 SWAP1 SLOAD SWAP1 PUSH2 0x100 EXP SWAP1 DIV PUSH1 0x1 PUSH1 0x1 PUSH1 0xA0 SHL SUB AND PUSH1 0x1 PUSH1 0x1 PUSH1 0xA0 SHL SUB AND PUSH4 0xDFE1681 PUSH1 0x40 MLOAD DUP2 PUSH4 0xFFFFFFFF AND PUSH1 0xE0 SHL DUP2 MSTORE PUSH1 0x4 ADD PUSH1 0x20 PUSH1 0x40 MLOAD DUP1 DUP4 SUB DUP2 DUP7 DUP1 EXTCODESIZE ISZERO DUP1 ISZERO PUSH2 0x6CF JUMPI PUSH1 0x0 DUP1 REVERT JUMPDEST POP GAS STATICCALL ISZERO DUP1 ISZERO PUSH2 0x6E3 JUMPI RETURNDATASIZE PUSH1 0x0 DUP1 RETURNDATACOPY RETURNDATASIZE PUSH1 0x0 REVERT JUMPDEST POP POP POP POP PUSH1 0x40 MLOAD RETURNDATASIZE PUSH1 0x1F NOT PUSH1 0x1F DUP3 ADD AND DUP3 ADD DUP1 PUSH1 0x40 MSTORE POP DUP2 ADD SWAP1 PUSH2 0x707 SWAP2 SWAP1 PUSH2 0xCC8 JUMP JUMPDEST PUSH1 0x1 SLOAD PUSH1 0x1 PUSH1 0x1 PUSH1 0xA0 SHL SUB SWAP1 DUP2 AND SWAP2 AND EQ PUSH2 0x723 JUMPI DUP2 DUP2 PUSH2 0x726 JUMP JUMPDEST DUP1 DUP3 JUMPDEST SWAP1 SWAP3 POP SWAP1 POP PUSH2 0x75A DUP2 PUSH2 0x741 DUP5 PUSH8 0xDE0B6B3A7640000 PUSH2 0xB02 JUMP JUMPDEST PUSH2 0x74B SWAP2 SWAP1 PUSH2 0x1034 JUMP JUMPDEST PUSH8 0xDE0B6B3A7640000 SWAP1 PUSH2 0xB02 JUMP JUMPDEST PUSH2 0x777 SWAP1 PUSH16 0x29C30F1029939B146664242D97D9F649 PUSH1 0x36 SHL PUSH2 0x1034 JUMP JUMPDEST SWAP6 SWAP5 POP POP POP POP POP JUMP JUMPDEST POP POP PUSH1 0x40 DUP1 MLOAD DUP1 DUP3 ADD SWAP1 SWAP2 MSTORE PUSH1 0x10 DUP2 MSTORE PUSH16 0x464953485F55534443204F7261636C65 PUSH1 0x80 SHL PUSH1 0x20 DUP3 ADD MSTORE SWAP1 JUMP JUMPDEST PUSH1 0x3 SLOAD PUSH1 0x0 SWAP1 DUP2 SWAP1 TIMESTAMP SWAP1 PUSH4 0xFFFFFFFF AND PUSH2 0x7EE JUMPI PUSH1 0x3 DUP1 SLOAD PUSH4 0xFFFFFFFF NOT AND PUSH4 0xFFFFFFFF DUP4 AND OR SWAP1 SSTORE PUSH2 0x7DE DUP2 PUSH2 0x278 JUMP JUMPDEST PUSH1 0x2 SSTORE POP PUSH1 0x0 SWAP2 POP DUP2 SWAP1 POP PUSH2 0x92C JUMP JUMPDEST PUSH1 0x3 SLOAD PUSH1 0x0 SWAP1 PUSH2 0x804 SWAP1 PUSH4 0xFFFFFFFF AND DUP4 PUSH2 0x108A JUMP JUMPDEST SWAP1 POP PUSH1 0x3C DUP2 PUSH4 0xFFFFFFFF AND LT ISZERO PUSH2 0x836 JUMPI POP POP PUSH1 0x3 SLOAD PUSH1 0x1 SWAP3 POP PUSH5 0x100000000 SWAP1 DIV PUSH1 0x1 PUSH1 0x1 PUSH1 0x90 SHL SUB AND SWAP1 POP PUSH2 0x92C JUMP JUMPDEST PUSH1 0x0 PUSH2 0x841 DUP4 PUSH2 0x278 JUMP JUMPDEST SWAP1 POP PUSH2 0x8B0 PUSH2 0x898 PUSH2 0x893 PUSH8 0xDE0B6B3A7640000 PUSH1 0x40 MLOAD DUP1 PUSH1 0x20 ADD PUSH1 0x40 MSTORE DUP1 DUP8 PUSH4 0xFFFFFFFF AND PUSH1 0x2 PUSH1 0x0 ADD SLOAD DUP9 PUSH2 0x878 SWAP2 SWAP1 PUSH2 0x1073 JUMP JUMPDEST PUSH2 0x882 SWAP2 SWAP1 PUSH2 0x1034 JUMP JUMPDEST PUSH1 0x1 PUSH1 0x1 PUSH1 0xE0 SHL SUB AND SWAP1 MSTORE SWAP1 PUSH2 0xB42 JUMP JUMPDEST PUSH2 0xBA9 JUMP JUMPDEST PUSH8 0xDE0B6B3A7640000 SWAP1 PUSH1 0x1 PUSH1 0x1 PUSH1 0x90 SHL SUB AND PUSH2 0xB02 JUMP JUMPDEST PUSH2 0x8CD SWAP1 PUSH16 0x29C30F1029939B146664242D97D9F649 PUSH1 0x36 SHL PUSH2 0x1034 JUMP JUMPDEST PUSH1 0x3 DUP1 SLOAD PUSH4 0xFFFFFFFF SWAP1 SWAP6 AND PUSH4 0xFFFFFFFF NOT PUSH1 0x1 PUSH1 0x1 PUSH1 0x90 SHL SUB SWAP4 DUP5 AND PUSH5 0x100000000 SWAP1 DUP2 MUL PUSH22 0xFFFFFFFFFFFFFFFFFFFFFFFFFFFFFFFFFFFF00000000 NOT SWAP1 SWAP9 AND SWAP8 SWAP1 SWAP8 OR AND OR SWAP1 DUP2 SWAP1 SSTORE PUSH1 0x2 SWAP3 SWAP1 SWAP3 SSTORE PUSH1 0x1 SWAP6 POP SWAP3 SWAP1 DIV SWAP1 SWAP2 AND SWAP2 POP POP JUMPDEST SWAP3 POP SWAP3 SWAP1 POP JUMP JUMPDEST PUSH1 0x3 SLOAD PUSH1 0x0 SWAP1 DUP2 SWAP1 TIMESTAMP SWAP1 PUSH4 0xFFFFFFFF AND PUSH2 0x954 JUMPI PUSH1 0x0 DUP1 SWAP3 POP SWAP3 POP POP PUSH2 0x92C JUMP JUMPDEST PUSH1 0x3 SLOAD PUSH1 0x0 SWAP1 PUSH2 0x96A SWAP1 PUSH4 0xFFFFFFFF AND DUP4 PUSH2 0x108A JUMP JUMPDEST SWAP1 POP PUSH1 0x3C DUP2 PUSH4 0xFFFFFFFF AND LT ISZERO PUSH2 0x99C JUMPI POP POP PUSH1 0x3 SLOAD PUSH1 0x1 SWAP3 POP PUSH5 0x100000000 SWAP1 DIV PUSH1 0x1 PUSH1 0x1 PUSH1 0x90 SHL SUB AND SWAP1 POP PUSH2 0x92C JUMP JUMPDEST PUSH1 0x0 PUSH2 0x9A7 DUP4 PUSH2 0x278 JUMP JUMPDEST SWAP1 POP PUSH1 0x0 PUSH2 0x9E0 PUSH2 0x898 PUSH2 0x893 PUSH8 0xDE0B6B3A7640000 PUSH1 0x40 MLOAD DUP1 PUSH1 0x20 ADD PUSH1 0x40 MSTORE DUP1 DUP9 PUSH4 0xFFFFFFFF AND PUSH1 0x2 PUSH1 0x0 ADD SLOAD DUP10 PUSH2 0x878 SWAP2 SWAP1 PUSH2 0x1073 JUMP JUMPDEST PUSH2 0x9FD SWAP1 PUSH16 0x29C30F1029939B146664242D97D9F649 PUSH1 0x36 SHL PUSH2 0x1034 JUMP JUMPDEST PUSH1 0x1 SWAP7 POP PUSH1 0x1 PUSH1 0x1 PUSH1 0x90 SHL SUB AND SWAP5 POP POP POP POP POP SWAP3 POP SWAP3 SWAP1 POP JUMP JUMPDEST PUSH1 0x2 SLOAD PUSH1 0x3 SLOAD PUSH4 0xFFFFFFFF DUP2 AND SWAP1 PUSH5 0x100000000 SWAP1 DIV PUSH1 0x1 PUSH1 0x1 PUSH1 0x90 SHL SUB AND DUP4 JUMP JUMPDEST PUSH1 0x1 SLOAD PUSH1 0x1 PUSH1 0x1 PUSH1 0xA0 SHL SUB AND DUP2 JUMP JUMPDEST PUSH2 0xA50 PUSH2 0xC8C JUMP JUMPDEST PUSH1 0x0 DUP3 GT PUSH2 0xA70 JUMPI PUSH1 0x40 MLOAD PUSH3 0x461BCD PUSH1 0xE5 SHL DUP2 MSTORE PUSH1 0x4 ADD PUSH2 0x1D7 SWAP1 PUSH2 0xF80 JUMP JUMPDEST DUP3 PUSH2 0xA8A JUMPI POP PUSH1 0x40 DUP1 MLOAD PUSH1 0x20 DUP2 ADD SWAP1 SWAP2 MSTORE PUSH1 0x0 DUP2 MSTORE PUSH2 0x5DA JUMP JUMPDEST PUSH1 0x1 PUSH1 0x1 PUSH1 0x90 SHL SUB DUP4 GT PUSH2 0xAF1 JUMPI PUSH1 0x0 PUSH2 0xAA8 DUP4 PUSH1 0x70 DUP7 SWAP1 SHL PUSH2 0x1034 JUMP JUMPDEST SWAP1 POP PUSH1 0x1 PUSH1 0x1 PUSH1 0xE0 SHL SUB DUP2 GT ISZERO PUSH2 0xAD1 JUMPI PUSH1 0x40 MLOAD PUSH3 0x461BCD PUSH1 0xE5 SHL DUP2 MSTORE PUSH1 0x4 ADD PUSH2 0x1D7 SWAP1 PUSH2 0xF49 JUMP JUMPDEST PUSH1 0x40 MLOAD DUP1 PUSH1 0x20 ADD PUSH1 0x40 MSTORE DUP1 DUP3 PUSH1 0x1 PUSH1 0x1 PUSH1 0xE0 SHL SUB AND DUP2 MSTORE POP SWAP2 POP POP PUSH2 0x5DA JUMP JUMPDEST PUSH1 0x0 PUSH2 0xAA8 DUP5 PUSH1 0x1 PUSH1 0x70 SHL DUP6 PUSH2 0xBB0 JUMP JUMPDEST PUSH1 0x0 DUP2 ISZERO DUP1 PUSH2 0xB26 JUMPI POP DUP3 DUP3 PUSH2 0xB18 DUP2 DUP4 PUSH2 0x1054 JUMP JUMPDEST SWAP3 POP PUSH2 0xB24 SWAP1 DUP4 PUSH2 0x1034 JUMP JUMPDEST EQ JUMPDEST PUSH2 0x5DA JUMPI PUSH1 0x40 MLOAD PUSH3 0x461BCD PUSH1 0xE5 SHL DUP2 MSTORE PUSH1 0x4 ADD PUSH2 0x1D7 SWAP1 PUSH2 0xFB7 JUMP JUMPDEST PUSH2 0xB4A PUSH2 0xC9E JUMP JUMPDEST PUSH1 0x0 DUP3 ISZERO DUP1 PUSH2 0xB78 JUMPI POP DUP4 MLOAD PUSH1 0x1 PUSH1 0x1 PUSH1 0xE0 SHL SUB AND DUP4 PUSH2 0xB6A DUP2 DUP4 PUSH2 0x1054 JUMP JUMPDEST SWAP3 POP PUSH2 0xB76 SWAP1 DUP4 PUSH2 0x1034 JUMP JUMPDEST EQ JUMPDEST PUSH2 0xB94 JUMPI PUSH1 0x40 MLOAD PUSH3 0x461BCD PUSH1 0xE5 SHL DUP2 MSTORE PUSH1 0x4 ADD PUSH2 0x1D7 SWAP1 PUSH2 0xEC4 JUMP JUMPDEST PUSH1 0x40 DUP1 MLOAD PUSH1 0x20 DUP2 ADD SWAP1 SWAP2 MSTORE SWAP1 DUP2 MSTORE SWAP4 SWAP3 POP POP POP JUMP JUMPDEST MLOAD PUSH1 0x70 SHR SWAP1 JUMP JUMPDEST PUSH1 0x0 DUP1 DUP1 PUSH1 0x0 NOT DUP6 DUP8 MULMOD DUP7 DUP7 MUL SWAP3 POP DUP3 DUP2 LT SWAP1 DUP4 SWAP1 SUB SUB SWAP1 POP DUP1 PUSH2 0xBF9 JUMPI PUSH1 0x0 DUP5 GT PUSH2 0xBEE JUMPI PUSH1 0x40 MLOAD PUSH3 0x461BCD PUSH1 0xE5 SHL DUP2 MSTORE PUSH1 0x4 ADD PUSH2 0x1D7 SWAP1 PUSH2 0xE7A JUMP JUMPDEST POP DUP3 SWAP1 DIV SWAP1 POP PUSH2 0xC85 JUMP JUMPDEST DUP1 DUP5 GT PUSH2 0xC05 JUMPI PUSH1 0x0 DUP1 REVERT JUMPDEST PUSH1 0x0 DUP5 DUP7 DUP9 MULMOD DUP1 DUP5 SUB SWAP4 DUP2 GT SWAP1 SWAP3 SUB SWAP2 SWAP1 POP PUSH1 0x0 DUP6 PUSH2 0xC26 DUP2 NOT PUSH1 0x1 PUSH2 0x101C JUMP JUMPDEST AND SWAP6 DUP7 SWAP1 DIV SWAP6 PUSH1 0x0 DUP2 DUP2 SUB DUP3 SWAP1 DIV PUSH1 0x1 ADD DUP6 DUP2 MUL SWAP3 SWAP1 SWAP7 DIV SWAP2 SWAP1 SWAP2 ADD SWAP5 SWAP2 POP PUSH2 0xC50 DUP8 PUSH1 0x3 PUSH2 0x1054 JUMP JUMPDEST PUSH1 0x2 SWAP1 DUP2 XOR DUP9 DUP2 MUL DUP3 SUB MUL DUP1 DUP10 MUL DUP3 SUB MUL DUP1 DUP10 MUL DUP3 SUB MUL DUP1 DUP10 MUL DUP3 SUB MUL DUP1 DUP10 MUL DUP3 SUB MUL DUP1 DUP10 MUL SWAP1 SWAP2 SUB MUL SWAP5 SWAP1 SWAP5 MUL SWAP5 POP POP POP POP POP JUMPDEST SWAP4 SWAP3 POP POP POP JUMP JUMPDEST PUSH1 0x40 DUP1 MLOAD PUSH1 0x20 DUP2 ADD SWAP1 SWAP2 MSTORE PUSH1 0x0 DUP2 MSTORE SWAP1 JUMP JUMPDEST PUSH1 0x40 MLOAD DUP1 PUSH1 0x20 ADD PUSH1 0x40 MSTORE DUP1 PUSH1 0x0 DUP2 MSTORE POP SWAP1 JUMP JUMPDEST DUP1 MLOAD PUSH1 0x1 PUSH1 0x1 PUSH1 0x70 SHL SUB DUP2 AND DUP2 EQ PUSH2 0x5B4 JUMPI PUSH1 0x0 DUP1 REVERT JUMPDEST PUSH1 0x0 PUSH1 0x20 DUP3 DUP5 SUB SLT ISZERO PUSH2 0xCD9 JUMPI DUP1 DUP2 REVERT JUMPDEST DUP2 MLOAD PUSH2 0xC85 DUP2 PUSH2 0x10C5 JUMP JUMPDEST PUSH1 0x0 DUP1 PUSH1 0x20 DUP4 DUP6 SUB SLT ISZERO PUSH2 0xCF6 JUMPI DUP1 DUP2 REVERT JUMPDEST DUP3 CALLDATALOAD PUSH8 0xFFFFFFFFFFFFFFFF DUP1 DUP3 GT ISZERO PUSH2 0xD0D JUMPI DUP3 DUP4 REVERT JUMPDEST DUP2 DUP6 ADD SWAP2 POP DUP6 PUSH1 0x1F DUP4 ADD SLT PUSH2 0xD20 JUMPI DUP3 DUP4 REVERT JUMPDEST DUP2 CALLDATALOAD DUP2 DUP2 GT ISZERO PUSH2 0xD2E JUMPI DUP4 DUP5 REVERT JUMPDEST DUP7 PUSH1 0x20 DUP3 DUP6 ADD ADD GT ISZERO PUSH2 0xD3F JUMPI DUP4 DUP5 REVERT JUMPDEST PUSH1 0x20 SWAP3 SWAP1 SWAP3 ADD SWAP7 SWAP2 SWAP6 POP SWAP1 SWAP4 POP POP POP POP JUMP JUMPDEST PUSH1 0x0 DUP1 PUSH1 0x40 DUP4 DUP6 SUB SLT ISZERO PUSH2 0xD63 JUMPI DUP2 DUP3 REVERT JUMPDEST DUP3 CALLDATALOAD PUSH2 0xD6E DUP2 PUSH2 0x10C5 JUMP JUMPDEST SWAP2 POP PUSH1 0x20 DUP4 ADD CALLDATALOAD PUSH2 0xD7E DUP2 PUSH2 0x10C5 JUMP JUMPDEST DUP1 SWAP2 POP POP SWAP3 POP SWAP3 SWAP1 POP JUMP JUMPDEST PUSH1 0x0 DUP1 PUSH1 0x0 PUSH1 0x60 DUP5 DUP7 SUB SLT ISZERO PUSH2 0xD9D JUMPI DUP1 DUP2 REVERT JUMPDEST PUSH2 0xDA6 DUP5 PUSH2 0xCB1 JUMP JUMPDEST SWAP3 POP PUSH2 0xDB4 PUSH1 0x20 DUP6 ADD PUSH2 0xCB1 JUMP JUMPDEST SWAP2 POP PUSH1 0x40 DUP5 ADD MLOAD PUSH2 0xDC4 DUP2 PUSH2 0x10DD JUMP JUMPDEST DUP1 SWAP2 POP POP SWAP3 POP SWAP3 POP SWAP3 JUMP JUMPDEST PUSH1 0x0 PUSH1 0x20 DUP3 DUP5 SUB SLT ISZERO PUSH2 0xDE0 JUMPI DUP1 DUP2 REVERT JUMPDEST POP MLOAD SWAP2 SWAP1 POP JUMP JUMPDEST PUSH1 0x0 PUSH1 0x20 DUP3 DUP5 SUB SLT ISZERO PUSH2 0xDF8 JUMPI DUP1 DUP2 REVERT JUMPDEST DUP2 CALLDATALOAD PUSH2 0xC85 DUP2 PUSH2 0x10DD JUMP JUMPDEST PUSH1 0x1 PUSH1 0x1 PUSH1 0xA0 SHL SUB SWAP2 SWAP1 SWAP2 AND DUP2 MSTORE PUSH1 0x20 ADD SWAP1 JUMP JUMPDEST SWAP2 ISZERO ISZERO DUP3 MSTORE PUSH1 0x20 DUP3 ADD MSTORE PUSH1 0x40 ADD SWAP1 JUMP JUMPDEST PUSH1 0x0 PUSH1 0x20 DUP1 DUP4 MSTORE DUP4 MLOAD DUP1 DUP3 DUP6 ADD MSTORE DUP3 JUMPDEST DUP2 DUP2 LT ISZERO PUSH2 0xE53 JUMPI DUP6 DUP2 ADD DUP4 ADD MLOAD DUP6 DUP3 ADD PUSH1 0x40 ADD MSTORE DUP3 ADD PUSH2 0xE37 JUMP JUMPDEST DUP2 DUP2 GT ISZERO PUSH2 0xE64 JUMPI DUP4 PUSH1 0x40 DUP4 DUP8 ADD ADD MSTORE JUMPDEST POP PUSH1 0x1F ADD PUSH1 0x1F NOT AND SWAP3 SWAP1 SWAP3 ADD PUSH1 0x40 ADD SWAP4 SWAP3 POP POP POP JUMP JUMPDEST PUSH1 0x20 DUP1 DUP3 MSTORE PUSH1 0x2A SWAP1 DUP3 ADD MSTORE PUSH32 0x46756C6C4D6174683A2064656E6F6D696E61746F722073686F756C6420626520 PUSH1 0x40 DUP3 ADD MSTORE PUSH10 0x36B7B932903D32B9379 PUSH1 0xB5 SHL PUSH1 0x60 DUP3 ADD MSTORE PUSH1 0x80 ADD SWAP1 JUMP JUMPDEST PUSH1 0x20 DUP1 DUP3 MSTORE PUSH1 0x19 SWAP1 DUP3 ADD MSTORE PUSH32 0x4669786564506F696E743A3A6D756C3A206F766572666C6F7700000000000000 PUSH1 0x40 DUP3 ADD MSTORE PUSH1 0x60 ADD SWAP1 JUMP JUMPDEST PUSH1 0x20 DUP1 DUP3 MSTORE PUSH1 0x2E SWAP1 DUP3 ADD MSTORE PUSH32 0x496E697469616C697A61626C653A20636F6E747261637420697320616C726561 PUSH1 0x40 DUP3 ADD MSTORE PUSH14 0x191E481A5B9A5D1A585B1A5E9959 PUSH1 0x92 SHL PUSH1 0x60 DUP3 ADD MSTORE PUSH1 0x80 ADD SWAP1 JUMP JUMPDEST PUSH1 0x20 DUP1 DUP3 MSTORE PUSH1 0x1E SWAP1 DUP3 ADD MSTORE PUSH32 0x4669786564506F696E743A3A6672616374696F6E3A206F766572666C6F770000 PUSH1 0x40 DUP3 ADD MSTORE PUSH1 0x60 ADD SWAP1 JUMP JUMPDEST PUSH1 0x20 DUP1 DUP3 MSTORE PUSH1 0x1E SWAP1 DUP3 ADD MSTORE PUSH32 0x4669786564506F696E743A3A6672616374696F6E3A2064697620627920300000 PUSH1 0x40 DUP3 ADD MSTORE PUSH1 0x60 ADD SWAP1 JUMP JUMPDEST PUSH1 0x20 DUP1 DUP3 MSTORE PUSH1 0x18 SWAP1 DUP3 ADD MSTORE PUSH32 0x426F72696E674D6174683A204D756C204F766572666C6F770000000000000000 PUSH1 0x40 DUP3 ADD MSTORE PUSH1 0x60 ADD SWAP1 JUMP JUMPDEST SWAP1 DUP2 MSTORE PUSH1 0x20 ADD SWAP1 JUMP JUMPDEST SWAP3 DUP4 MSTORE PUSH4 0xFFFFFFFF SWAP2 SWAP1 SWAP2 AND PUSH1 0x20 DUP4 ADD MSTORE PUSH1 0x1 PUSH1 0x1 PUSH1 0x90 SHL SUB AND PUSH1 0x40 DUP3 ADD MSTORE PUSH1 0x60 ADD SWAP1 JUMP JUMPDEST PUSH1 0x0 DUP3 NOT DUP3 GT ISZERO PUSH2 0x102F JUMPI PUSH2 0x102F PUSH2 0x10AF JUMP JUMPDEST POP ADD SWAP1 JUMP JUMPDEST PUSH1 0x0 DUP3 PUSH2 0x104F JUMPI PUSH4 0x4E487B71 PUSH1 0xE0 SHL DUP2 MSTORE PUSH1 0x12 PUSH1 0x4 MSTORE PUSH1 0x24 DUP2 REVERT JUMPDEST POP DIV SWAP1 JUMP JUMPDEST PUSH1 0x0 DUP2 PUSH1 0x0 NOT DIV DUP4 GT DUP3 ISZERO ISZERO AND ISZERO PUSH2 0x106E JUMPI PUSH2 0x106E PUSH2 0x10AF JUMP JUMPDEST POP MUL SWAP1 JUMP JUMPDEST PUSH1 0x0 DUP3 DUP3 LT ISZERO PUSH2 0x1085 JUMPI PUSH2 0x1085 PUSH2 0x10AF JUMP JUMPDEST POP SUB SWAP1 JUMP JUMPDEST PUSH1 0x0 PUSH4 0xFFFFFFFF DUP4 DUP2 AND SWAP1 DUP4 AND DUP2 DUP2 LT ISZERO PUSH2 0x10A7 JUMPI PUSH2 0x10A7 PUSH2 0x10AF JUMP JUMPDEST SUB SWAP4 SWAP3 POP POP POP JUMP JUMPDEST PUSH4 0x4E487B71 PUSH1 0xE0 SHL PUSH1 0x0 MSTORE PUSH1 0x11 PUSH1 0x4 MSTORE PUSH1 0x24 PUSH1 0x0 REVERT JUMPDEST PUSH1 0x1 PUSH1 0x1 PUSH1 0xA0 SHL SUB DUP2 AND DUP2 EQ PUSH2 0x10DA JUMPI PUSH1 0x0 DUP1 REVERT JUMPDEST POP JUMP JUMPDEST PUSH4 0xFFFFFFFF DUP2 AND DUP2 EQ PUSH2 0x10DA JUMPI PUSH1 0x0 DUP1 REVERT INVALID LOG2 PUSH5 0x6970667358 0x22 SLT KECCAK256 0xA8 SWAP12 GAS SWAP10 SWAP3 CREATE2 0xE7 SWAP13 DUP1 PUSH23 0xEC7CD1AC0EB7B61D6D2A74317201D20BB0903830463064 PUSH20 0x6F6C634300080000330000000000000000000000 "
        },
        "gasEstimates": {
          "creation": {
            "codeDepositCost": "877800",
            "executionCost": "916",
            "totalCost": "878716"
          },
          "external": {
            "FISH()": "1180",
            "FISH_USDC()": "1104",
            "PERIOD()": "295",
            "_get(uint32)": "infinite",
            "get(bytes)": "infinite",
            "initialize(address,address)": "infinite",
            "name(bytes)": "infinite",
            "pairInfo()": "2029",
            "peek(bytes)": "infinite",
            "peekSpot(bytes)": "infinite",
            "symbol(bytes)": "infinite"
          }
        },
        "methodIdentifiers": {
          "FISH()": "ffcff32c",
          "FISH_USDC()": "4a0972a3",
          "PERIOD()": "b4d1d795",
          "_get(uint32)": "4d032d8d",
          "get(bytes)": "d6d7d525",
          "initialize(address,address)": "485cc955",
          "name(bytes)": "d568866c",
          "pairInfo()": "fc2a5b1d",
          "peek(bytes)": "eeb8a8d3",
          "peekSpot(bytes)": "d39bbef0",
          "symbol(bytes)": "c699c4d6"
        }
      },
      "storageLayout": {
        "storage": [
          {
            "astId": 4,
            "contract": "contracts/fishOracle.sol:FISHOracle",
            "label": "_initialized",
            "offset": 0,
            "slot": "0",
            "type": "t_bool"
          },
          {
            "astId": 7,
            "contract": "contracts/fishOracle.sol:FISHOracle",
            "label": "_initializing",
            "offset": 1,
            "slot": "0",
            "type": "t_bool"
          },
          {
            "astId": 537,
            "contract": "contracts/fishOracle.sol:FISHOracle",
            "label": "FISH_USDC",
            "offset": 2,
            "slot": "0",
            "type": "t_contract(IUniswapV2Pair)359"
          },
          {
            "astId": 539,
            "contract": "contracts/fishOracle.sol:FISHOracle",
            "label": "FISH",
            "offset": 0,
            "slot": "1",
            "type": "t_address"
          },
          {
            "astId": 568,
            "contract": "contracts/fishOracle.sol:FISHOracle",
            "label": "pairInfo",
            "offset": 0,
            "slot": "2",
            "type": "t_struct(PairInfo)565_storage"
          }
        ],
        "types": {
          "t_address": {
            "encoding": "inplace",
            "label": "address",
            "numberOfBytes": "20"
          },
          "t_bool": {
            "encoding": "inplace",
            "label": "bool",
            "numberOfBytes": "1"
          },
          "t_contract(IUniswapV2Pair)359": {
            "encoding": "inplace",
            "label": "contract IUniswapV2Pair",
            "numberOfBytes": "20"
          },
          "t_struct(PairInfo)565_storage": {
            "encoding": "inplace",
            "label": "struct FISHOracle.PairInfo",
            "members": [
              {
                "astId": 560,
                "contract": "contracts/fishOracle.sol:FISHOracle",
                "label": "priceCumulativeLast",
                "offset": 0,
                "slot": "0",
                "type": "t_uint256"
              },
              {
                "astId": 562,
                "contract": "contracts/fishOracle.sol:FISHOracle",
                "label": "blockTimestampLast",
                "offset": 0,
                "slot": "1",
                "type": "t_uint32"
              },
              {
                "astId": 564,
                "contract": "contracts/fishOracle.sol:FISHOracle",
                "label": "priceAverage",
                "offset": 4,
                "slot": "1",
                "type": "t_uint144"
              }
            ],
            "numberOfBytes": "64"
          },
          "t_uint144": {
            "encoding": "inplace",
            "label": "uint144",
            "numberOfBytes": "18"
          },
          "t_uint256": {
            "encoding": "inplace",
            "label": "uint256",
            "numberOfBytes": "32"
          },
          "t_uint32": {
            "encoding": "inplace",
            "label": "uint32",
            "numberOfBytes": "4"
          }
        }
      },
      "userdoc": {
        "kind": "user",
        "methods": {},
        "version": 1
      }
    }
  }
}