{
  "_format": "hh-sol-artifact-1",
  "contractName": "usdcBuyNftLogic",
  "sourceName": "contracts/usdcBuyNFTLogic.sol",
  "abi": [
    {
      "anonymous": false,
      "inputs": [
        {
          "indexed": true,
          "internalType": "address",
          "name": "previousOwner",
          "type": "address"
        },
        {
          "indexed": true,
          "internalType": "address",
          "name": "newOwner",
          "type": "address"
        }
      ],
      "name": "OwnershipTransferred",
      "type": "event"
    },
    {
      "inputs": [],
      "name": "FISH",
      "outputs": [
        {
          "internalType": "contract IFISH",
          "name": "",
          "type": "address"
        }
      ],
      "stateMutability": "view",
      "type": "function"
    },
    {
      "inputs": [],
      "name": "FISHNFT",
      "outputs": [
        {
          "internalType": "contract IFISHNFT",
          "name": "",
          "type": "address"
        }
      ],
      "stateMutability": "view",
      "type": "function"
    },
    {
      "inputs": [],
      "name": "Factory",
      "outputs": [
        {
          "internalType": "contract IUniswapV2Factory",
          "name": "",
          "type": "address"
        }
      ],
      "stateMutability": "view",
      "type": "function"
    },
    {
      "inputs": [],
      "name": "PRECISION",
      "outputs": [
        {
          "internalType": "uint256",
          "name": "",
          "type": "uint256"
        }
      ],
      "stateMutability": "view",
      "type": "function"
    },
    {
      "inputs": [],
      "name": "ROI",
      "outputs": [
        {
          "internalType": "uint256",
          "name": "",
          "type": "uint256"
        }
      ],
      "stateMutability": "view",
      "type": "function"
    },
    {
      "inputs": [],
      "name": "Router",
      "outputs": [
        {
          "internalType": "contract IUniswapV2Router02",
          "name": "",
          "type": "address"
        }
      ],
      "stateMutability": "view",
      "type": "function"
    },
    {
      "inputs": [],
      "name": "TargetROI",
      "outputs": [
        {
          "internalType": "uint256",
          "name": "",
          "type": "uint256"
        }
      ],
      "stateMutability": "view",
      "type": "function"
    },
    {
      "inputs": [],
      "name": "USDC",
      "outputs": [
        {
          "internalType": "contract IERC20Upgradeable",
          "name": "",
          "type": "address"
        }
      ],
      "stateMutability": "view",
      "type": "function"
    },
    {
      "inputs": [],
      "name": "addLiquidityOpen",
      "outputs": [
        {
          "internalType": "bool",
          "name": "",
          "type": "bool"
        }
      ],
      "stateMutability": "view",
      "type": "function"
    },
    {
      "inputs": [
        {
          "internalType": "uint256",
          "name": "_amt",
          "type": "uint256"
        }
      ],
      "name": "buyNft",
      "outputs": [
        {
          "internalType": "bool",
          "name": "",
          "type": "bool"
        }
      ],
      "stateMutability": "nonpayable",
      "type": "function"
    },
    {
      "inputs": [],
      "name": "dev",
      "outputs": [
        {
          "internalType": "address",
          "name": "",
          "type": "address"
        }
      ],
      "stateMutability": "view",
      "type": "function"
    },
    {
      "inputs": [],
      "name": "direction",
      "outputs": [
        {
          "internalType": "uint256",
          "name": "",
          "type": "uint256"
        }
      ],
      "stateMutability": "view",
      "type": "function"
    },
    {
      "inputs": [],
      "name": "exchangeRate",
      "outputs": [
        {
          "internalType": "uint256",
          "name": "",
          "type": "uint256"
        }
      ],
      "stateMutability": "view",
      "type": "function"
    },
    {
      "inputs": [
        {
          "internalType": "contract IFISH",
          "name": "_FISH",
          "type": "address"
        },
        {
          "internalType": "contract IFISHNFT",
          "name": "_FISHNFT",
          "type": "address"
        },
        {
          "internalType": "contract IUniswapV2Factory",
          "name": "_Factory",
          "type": "address"
        },
        {
          "internalType": "contract IUniswapV2Router02",
          "name": "_Router",
          "type": "address"
        },
        {
          "internalType": "address",
          "name": "_multiSignature",
          "type": "address"
        },
        {
          "internalType": "address",
          "name": "_multiSignatureToSToken",
          "type": "address"
        },
        {
          "internalType": "address",
          "name": "_dev",
          "type": "address"
        },
        {
          "internalType": "address",
          "name": "_op",
          "type": "address"
        },
        {
          "internalType": "address",
          "name": "_sFISH",
          "type": "address"
        },
        {
          "internalType": "contract IOracle",
          "name": "_oracle",
          "type": "address"
        },
        {
          "internalType": "contract IERC20Upgradeable",
          "name": "_USDC",
          "type": "address"
        }
      ],
      "name": "initialize",
      "outputs": [],
      "stateMutability": "nonpayable",
      "type": "function"
    },
    {
      "inputs": [],
      "name": "maxSellAmt",
      "outputs": [
        {
          "internalType": "uint256",
          "name": "",
          "type": "uint256"
        }
      ],
      "stateMutability": "view",
      "type": "function"
    },
    {
      "inputs": [],
      "name": "multiSignature",
      "outputs": [
        {
          "internalType": "address",
          "name": "",
          "type": "address"
        }
      ],
      "stateMutability": "view",
      "type": "function"
    },
    {
      "inputs": [],
      "name": "multiSignatureToSToken",
      "outputs": [
        {
          "internalType": "address",
          "name": "",
          "type": "address"
        }
      ],
      "stateMutability": "view",
      "type": "function"
    },
    {
      "inputs": [],
      "name": "op",
      "outputs": [
        {
          "internalType": "address",
          "name": "",
          "type": "address"
        }
      ],
      "stateMutability": "view",
      "type": "function"
    },
    {
      "inputs": [],
      "name": "oracle",
      "outputs": [
        {
          "internalType": "contract IOracle",
          "name": "",
          "type": "address"
        }
      ],
      "stateMutability": "view",
      "type": "function"
    },
    {
      "inputs": [],
      "name": "oracleData",
      "outputs": [
        {
          "internalType": "bytes",
          "name": "",
          "type": "bytes"
        }
      ],
      "stateMutability": "view",
      "type": "function"
    },
    {
      "inputs": [],
      "name": "owner",
      "outputs": [
        {
          "internalType": "address",
          "name": "",
          "type": "address"
        }
      ],
      "stateMutability": "view",
      "type": "function"
    },
    {
      "inputs": [],
      "name": "peekSpot",
      "outputs": [
        {
          "internalType": "uint256",
          "name": "",
          "type": "uint256"
        }
      ],
      "stateMutability": "view",
      "type": "function"
    },
    {
      "inputs": [],
      "name": "price",
      "outputs": [
        {
          "internalType": "uint256",
          "name": "",
          "type": "uint256"
        }
      ],
      "stateMutability": "view",
      "type": "function"
    },
    {
      "inputs": [],
      "name": "renounceOwnership",
      "outputs": [],
      "stateMutability": "nonpayable",
      "type": "function"
    },
    {
      "inputs": [],
      "name": "sFISH",
      "outputs": [
        {
          "internalType": "address",
          "name": "",
          "type": "address"
        }
      ],
      "stateMutability": "view",
      "type": "function"
    },
    {
      "inputs": [
        {
          "internalType": "bool",
          "name": "_bool",
          "type": "bool"
        }
      ],
      "name": "setAddLiquidityOpen",
      "outputs": [
        {
          "internalType": "bool",
          "name": "",
          "type": "bool"
        }
      ],
      "stateMutability": "nonpayable",
      "type": "function"
    },
    {
      "inputs": [
        {
          "internalType": "address",
          "name": "_dev",
          "type": "address"
        }
      ],
      "name": "setDev",
      "outputs": [
        {
          "internalType": "bool",
          "name": "",
          "type": "bool"
        }
      ],
      "stateMutability": "nonpayable",
      "type": "function"
    },
    {
      "inputs": [
        {
          "internalType": "uint256",
          "name": "_val",
          "type": "uint256"
        }
      ],
      "name": "setDirection",
      "outputs": [
        {
          "internalType": "bool",
          "name": "",
          "type": "bool"
        }
      ],
      "stateMutability": "nonpayable",
      "type": "function"
    },
    {
      "inputs": [
        {
          "internalType": "uint256",
          "name": "_val",
          "type": "uint256"
        }
      ],
      "name": "setMaxSellAmt",
      "outputs": [
        {
          "internalType": "bool",
          "name": "",
          "type": "bool"
        }
      ],
      "stateMutability": "nonpayable",
      "type": "function"
    },
    {
      "inputs": [
        {
          "internalType": "address",
          "name": "_multiSignature",
          "type": "address"
        }
      ],
      "name": "setMultiSignature",
      "outputs": [
        {
          "internalType": "bool",
          "name": "",
          "type": "bool"
        }
      ],
      "stateMutability": "nonpayable",
      "type": "function"
    },
    {
      "inputs": [
        {
          "internalType": "address",
          "name": "_multiSignatureToSToken",
          "type": "address"
        }
      ],
      "name": "setMultiSignatureToSToken",
      "outputs": [
        {
          "internalType": "bool",
          "name": "",
          "type": "bool"
        }
      ],
      "stateMutability": "nonpayable",
      "type": "function"
    },
    {
      "inputs": [
        {
          "internalType": "address",
          "name": "_op",
          "type": "address"
        }
      ],
      "name": "setOp",
      "outputs": [
        {
          "internalType": "bool",
          "name": "",
          "type": "bool"
        }
      ],
      "stateMutability": "nonpayable",
      "type": "function"
    },
    {
      "inputs": [
        {
          "internalType": "contract IOracle",
          "name": "_newOracle",
          "type": "address"
        },
        {
          "internalType": "bytes",
          "name": "_newOracleData",
          "type": "bytes"
        }
      ],
      "name": "setOracle",
      "outputs": [
        {
          "internalType": "bool",
          "name": "",
          "type": "bool"
        }
      ],
      "stateMutability": "nonpayable",
      "type": "function"
    },
    {
      "inputs": [
        {
          "internalType": "uint256",
          "name": "_val",
          "type": "uint256"
        }
      ],
      "name": "setPrice",
      "outputs": [
        {
          "internalType": "bool",
          "name": "",
          "type": "bool"
        }
      ],
      "stateMutability": "nonpayable",
      "type": "function"
    },
    {
      "inputs": [
        {
          "internalType": "uint256",
          "name": "_val",
          "type": "uint256"
        }
      ],
      "name": "setROI",
      "outputs": [
        {
          "internalType": "bool",
          "name": "",
          "type": "bool"
        }
      ],
      "stateMutability": "nonpayable",
      "type": "function"
    },
    {
      "inputs": [
        {
          "internalType": "bool",
          "name": "_bool",
          "type": "bool"
        }
      ],
      "name": "setStateOpen",
      "outputs": [
        {
          "internalType": "bool",
          "name": "",
          "type": "bool"
        }
      ],
      "stateMutability": "nonpayable",
      "type": "function"
    },
    {
      "inputs": [
        {
          "internalType": "uint256",
          "name": "_val",
          "type": "uint256"
        }
      ],
      "name": "setStepSize",
      "outputs": [
        {
          "internalType": "bool",
          "name": "",
          "type": "bool"
        }
      ],
      "stateMutability": "nonpayable",
      "type": "function"
    },
    {
      "inputs": [
        {
          "internalType": "uint256",
          "name": "_val",
          "type": "uint256"
        }
      ],
      "name": "setTargetROI",
      "outputs": [
        {
          "internalType": "bool",
          "name": "",
          "type": "bool"
        }
      ],
      "stateMutability": "nonpayable",
      "type": "function"
    },
    {
      "inputs": [
        {
          "internalType": "uint256",
          "name": "_toDevPec",
          "type": "uint256"
        }
      ],
      "name": "setToDevPec",
      "outputs": [
        {
          "internalType": "bool",
          "name": "",
          "type": "bool"
        }
      ],
      "stateMutability": "nonpayable",
      "type": "function"
    },
    {
      "inputs": [
        {
          "internalType": "uint256",
          "name": "_toLiquidityPec",
          "type": "uint256"
        }
      ],
      "name": "setToLiquidityPec",
      "outputs": [
        {
          "internalType": "bool",
          "name": "",
          "type": "bool"
        }
      ],
      "stateMutability": "nonpayable",
      "type": "function"
    },
    {
      "inputs": [
        {
          "internalType": "uint256",
          "name": "_toOpPec",
          "type": "uint256"
        }
      ],
      "name": "setToOpPec",
      "outputs": [
        {
          "internalType": "bool",
          "name": "",
          "type": "bool"
        }
      ],
      "stateMutability": "nonpayable",
      "type": "function"
    },
    {
      "inputs": [
        {
          "internalType": "uint256",
          "name": "_val",
          "type": "uint256"
        },
        {
          "internalType": "uint256",
          "name": "_lev",
          "type": "uint256"
        }
      ],
      "name": "setWhitelistDiscount",
      "outputs": [
        {
          "internalType": "bool",
          "name": "",
          "type": "bool"
        }
      ],
      "stateMutability": "nonpayable",
      "type": "function"
    },
    {
      "inputs": [
        {
          "internalType": "address",
          "name": "_user",
          "type": "address"
        },
        {
          "internalType": "uint256",
          "name": "_lev",
          "type": "uint256"
        }
      ],
      "name": "setWhitelistLevel",
      "outputs": [
        {
          "internalType": "bool",
          "name": "",
          "type": "bool"
        }
      ],
      "stateMutability": "nonpayable",
      "type": "function"
    },
    {
      "inputs": [],
      "name": "stateOpen",
      "outputs": [
        {
          "internalType": "bool",
          "name": "",
          "type": "bool"
        }
      ],
      "stateMutability": "view",
      "type": "function"
    },
    {
      "inputs": [],
      "name": "stepSize",
      "outputs": [
        {
          "internalType": "uint256",
          "name": "",
          "type": "uint256"
        }
      ],
      "stateMutability": "view",
      "type": "function"
    },
    {
      "inputs": [],
      "name": "toDevPec",
      "outputs": [
        {
          "internalType": "uint256",
          "name": "",
          "type": "uint256"
        }
      ],
      "stateMutability": "view",
      "type": "function"
    },
    {
      "inputs": [],
      "name": "toLiquidityPec",
      "outputs": [
        {
          "internalType": "uint256",
          "name": "",
          "type": "uint256"
        }
      ],
      "stateMutability": "view",
      "type": "function"
    },
    {
      "inputs": [],
      "name": "toOpPec",
      "outputs": [
        {
          "internalType": "uint256",
          "name": "",
          "type": "uint256"
        }
      ],
      "stateMutability": "view",
      "type": "function"
    },
    {
      "inputs": [
        {
          "internalType": "address",
          "name": "newOwner",
          "type": "address"
        }
      ],
      "name": "transferOwnership",
      "outputs": [],
      "stateMutability": "nonpayable",
      "type": "function"
    },
    {
      "inputs": [],
      "name": "updateExchangeRate",
      "outputs": [
        {
          "internalType": "bool",
          "name": "updated",
          "type": "bool"
        },
        {
          "internalType": "uint256",
          "name": "rate",
          "type": "uint256"
        }
      ],
      "stateMutability": "nonpayable",
      "type": "function"
    },
    {
      "inputs": [
        {
          "internalType": "uint256",
          "name": "",
          "type": "uint256"
        }
      ],
      "name": "whitelistDiscount",
      "outputs": [
        {
          "internalType": "uint256",
          "name": "",
          "type": "uint256"
        }
      ],
      "stateMutability": "view",
      "type": "function"
    },
    {
      "inputs": [
        {
          "internalType": "address",
          "name": "",
          "type": "address"
        }
      ],
      "name": "whitelistLevel",
      "outputs": [
        {
          "internalType": "uint256",
          "name": "",
          "type": "uint256"
        }
      ],
      "stateMutability": "view",
      "type": "function"
    }
  ],
  "bytecode": "0x608060405234801561001057600080fd5b50612b50806100206000396000f3fe608060405234801561001057600080fd5b506004361061030c5760003560e01c806376902b831161019d578063aaf5eb68116100e9578063d477f05f116100a2578063f2fde38b1161007c578063f2fde38b1461067a578063f49c8b871461068d578063f6d7eade1461069f578063ffcff32c146106b257600080fd5b8063d477f05f1461064b578063d5c431591461065e578063ec1f1f691461066757600080fd5b8063aaf5eb68146105ed578063af4086f6146105f6578063b13b0847146105ff578063b378953314610612578063c83dd23114610625578063c85cd7121461063857600080fd5b806391cca3db11610156578063a235c42a11610130578063a235c42a146105ac578063a265e899146105bf578063a36a7526146105c7578063a9787fdc146105da57600080fd5b806391cca3db1461057d5780639836244014610590578063a035b1fe146105a357600080fd5b806376902b831461050d5780637dc0d1d01461052057806389a30271146105335780638af9e5cd146105465780638da5cb5b1461055957806391b7f5ed1461056a57600080fd5b806347e1ed881161025c5780636043903d116102155780636f0a5b1b116101ef5780636f0a5b1b146104c857806371261bf3146104db578063715018a6146104ee57806374645ff3146104f857600080fd5b80636043903d146104925780636263fc671461049f578063645539ed146104bf57600080fd5b806347e1ed881461040f578063498cb7f41461041857806349bdafc8146104385780634a9c83661461044b5780635693071414610476578063603988481461048957600080fd5b806333cdacd9116102c95780633b2d3e96116102a35780633b2d3e96146103cd5780633ba0b9a9146103e057806340e90a7e146103e957806340ee4d0c146103fc57600080fd5b806333cdacd9146103a857806336ebafe9146103b157806338207b16146103ba57600080fd5b806302ce728f146103115780630a0642c0146103355780631450acd21461034c57806317db7b701461036f5780631891381d14610382578063243adbdd14610395575b600080fd5b6103196106c5565b6040805192151583526020830191909152015b60405180910390f35b61033e607c5481565b60405190815260200161032c565b61035f61035a36600461237c565b610759565b604051901515815260200161032c565b61035f61037d366004612395565b61079d565b61035f61039036600461237c565b6107e0565b61035f6103a336600461237c565b610816565b61033e606f5481565b61033e60755481565b61035f6103c836600461237c565b610fd1565b61035f6103db3660046123d7565b611007565b61033e60655481565b61035f6103f736600461237c565b611055565b61035f61040a36600461237c565b61108b565b61033e607a5481565b61033e61042636600461237c565b60796020526000908152604090205481565b61035f610446366004612403565b6110c1565b60675461045e906001600160a01b031681565b6040516001600160a01b03909116815260200161032c565b61035f610484366004612403565b611113565b61033e607b5481565b607d5461035f9060ff1681565b61033e6104ad366004612403565b60786020526000908152604090205481565b61033e60745481565b60685461045e906001600160a01b031681565b60715461045e906001600160a01b031681565b6104f6611165565b005b61050061119b565b60405161032c9190612478565b6104f661051b36600461248b565b611229565b60665461045e906001600160a01b031681565b606e5461045e906001600160a01b031681565b61035f61055436600461237c565b61140f565b6033546001600160a01b031661045e565b61035f61057836600461237c565b611445565b606a5461045e906001600160a01b031681565b60695461045e906001600160a01b031681565b61033e60775481565b61035f6105ba366004612577565b61147b565b61033e6114bf565b61035f6105d5366004612403565b611544565b61035f6105e836600461237c565b611596565b61033e60735481565b61033e60765481565b61035f61060d3660046125db565b6115cc565b61035f61062036600461237c565b611631565b606d5461045e906001600160a01b031681565b61035f610646366004612577565b611667565b61035f610659366004612403565b6116b1565b61033e60725481565b606b5461045e906001600160a01b031681565b6104f6610688366004612403565b611703565b607d5461035f90610100900460ff1681565b606c5461045e906001600160a01b031681565b60705461045e906001600160a01b031681565b60665460405163d6d7d52560e01b815260009182916001600160a01b039091169063d6d7d525906106fb90607e906004016126b8565b60408051808303816000875af1158015610719573d6000803e3d6000fd5b505050506040513d601f19601f8201168201806040525081019061073d9190612760565b909250905081156107515760658190559091565b506065549091565b6033546000906001600160a01b0316331461078f5760405162461bcd60e51b81526004016107869061278e565b60405180910390fd5b50607581905560015b919050565b6033546000906001600160a01b031633146107ca5760405162461bcd60e51b81526004016107869061278e565b5060009182526079602052604090912055600190565b6033546000906001600160a01b0316331461080d5760405162461bcd60e51b81526004016107869061278e565b50607255600190565b6000813233146108535760405162461bcd60e51b81526020600482015260086024820152674f6e6c7920454f4160c01b6044820152606401610786565b607354336000908152607860209081526040808320548352607990915281205460775491926108989290916108929161088c908761179e565b9061179e565b906117b1565b606e549091506108b3906001600160a01b03163330846117bd565b60006108d0607354610892607a548561179e90919063ffffffff16565b905060006108ef607354610892607b548661179e90919063ffffffff16565b9050600061090e607354610892607c548761179e90919063ffffffff16565b90506000610928826109228581898961182e565b9061182e565b606d54606e5460705460405163e6a4390560e01b81526001600160a01b039283166004820152908216602482015292935060009291169063e6a4390590604401602060405180830381865afa158015610985573d6000803e3d6000fd5b505050506040513d601f19601f820116820180604052508101906109a991906127c3565b606e546070549192506000916109cb916001600160a01b03908116911661183a565b50607d54909150610100900460ff1615610c4257606c54606e546109fd916001600160a01b0391821691166000611930565b606c54606e54610a1c916001600160a01b039182169116600019611930565b606c54607054610a3a916001600160a01b0391821691166000611930565b606c54607054610a59916001600160a01b039182169116600019611930565b607054606e54610a789184916001600160a01b03918216911689611a4a565b606e546040516370a0823160e01b8152306004820152600091610af591869161092291899183918c916001600160a01b0316906370a0823190602401602060405180830381865afa158015610ad1573d6000803e3d6000fd5b505050506040513d601f19601f8201168201806040525081019061092291906127e0565b606c54606e546070546040516370a0823160e01b81523060048201529394506001600160a01b039283169363e8e33700939283169290911690859082906370a0823190602401602060405180830381865afa158015610b58573d6000803e3d6000fd5b505050506040513d601f19601f82011682018060405250810190610b7c91906127e0565b60685460009081906001600160a01b0316610b99426103e861280f565b60405160e08a901b6001600160e01b03191681526001600160a01b039889166004820152968816602488015260448701959095526064860193909352608485019190915260a484015290921660c482015260e4810191909152610104016060604051808303816000875af1158015610c15573d6000803e3d6000fd5b505050506040513d601f19601f82011682018060405250810190610c399190612827565b50505050610c5f565b606854606e54610c5f916001600160a01b03918216911688611c65565b606a54606e54610c7c916001600160a01b03918216911687611c65565b606b54606e54610c99916001600160a01b03918216911686611c65565b607d5460ff1615610e9557600080836001600160a01b0316630902f1ac6040518163ffffffff1660e01b8152600401606060405180830381865afa158015610ce5573d6000803e3d6000fd5b505050506040513d601f19601f82011682018060405250810190610d09919061286c565b50606e546001600160701b039283169450911691506001600160a01b03848116911614610d37578082610d3a565b81815b90925090506000610d4c868484611c95565b606e5490915060009081906001600160a01b03878116911614610d7157826000610d75565b6000835b606e549193509150610d91906001600160a01b0316888a611c65565b6040805160008152602081019182905263022c0d9f60e01b9091526001600160a01b0388169063022c0d9f90610dd090859085903090602481016128bc565b600060405180830381600087803b158015610dea57600080fd5b505af1158015610dfe573d6000803e3d6000fd5b50506067546070546040516370a0823160e01b8152306004820152610e8b94506001600160a01b0392831693509116906370a0823190602401602060405180830381865afa158015610e54573d6000803e3d6000fd5b505050506040513d601f19601f82011682018060405250810190610e7891906127e0565b6070546001600160a01b03169190611c65565b5050505050610eb2565b606954606e54610eb2916001600160a01b03918216911685611c65565b6000610ebc6106c5565b915050610ec7611ce3565b5060005b89811015610fbf576071546001600160a01b031663d405d32a33610eef844261280f565b607354607254610f0090829061280f565b670de0b6b3a764000088607754610f1791906128f3565b610f219190612912565b610f2b91906128f3565b610f359190612912565b6040516001600160e01b031960e086901b1681526001600160a01b039093166004840152602483019190915260448201526064016020604051808303816000875af1158015610f88573d6000803e3d6000fd5b505050506040513d601f19601f82011682018060405250810190610fac9190612934565b5080610fb781612951565b915050610ecb565b5060019b9a5050505050505050505050565b6033546000906001600160a01b03163314610ffe5760405162461bcd60e51b81526004016107869061278e565b50607455600190565b6033546000906001600160a01b031633146110345760405162461bcd60e51b81526004016107869061278e565b506001600160a01b0391909116600090815260786020526040902055600190565b6033546000906001600160a01b031633146110825760405162461bcd60e51b81526004016107869061278e565b50606f55600190565b6033546000906001600160a01b031633146110b85760405162461bcd60e51b81526004016107869061278e565b50607a55600190565b6033546000906001600160a01b031633146110ee5760405162461bcd60e51b81526004016107869061278e565b50606980546001600160a01b0383166001600160a01b03199091161790556001919050565b6033546000906001600160a01b031633146111405760405162461bcd60e51b81526004016107869061278e565b50606880546001600160a01b0383166001600160a01b03199091161790556001919050565b6033546001600160a01b0316331461118f5760405162461bcd60e51b81526004016107869061278e565b6111996000611d40565b565b607e80546111a890612683565b80601f01602080910402602001604051908101604052809291908181526020018280546111d490612683565b80156112215780601f106111f657610100808354040283529160200191611221565b820191906000526020600020905b81548152906001019060200180831161120457829003601f168201915b505050505081565b600054610100900460ff1680611242575060005460ff16155b61125e5760405162461bcd60e51b81526004016107869061296c565b600054610100900460ff16158015611280576000805461ffff19166101011790555b611288611d92565b606e80546001600160a01b03199081166001600160a01b0385811691909117909255606680548216868416179055606a80548216898416179055606b805482168884161790556068805482168b84161790556069805482168a8416179055606c805482168c8416179055606d805482168d84161790556070805482168f84161790556071805482168e841617905560678054909116918616919091179055612710607381905560728190556000607481905560646075556103e8607681905568056bc75e2d6310000060775560796020527fa16c87c7791af27ea6fd9620ff163aaff6138eac198fe485b0b3cad7774b97a7929092556123287fdf6d6ad01a16c6118cfd605fcb55ad218b43517981ef4cc6d63a492cf34990d95560029052611f407f7d4d2b02426547888e9185e69135196c4ed1edbc114060100a6ef94f8b5f60df55606f55611388607a556105dc607b819055607c55607d805461ffff19166101011790558015611401576000805461ff00191690555b505050505050505050505050565b6033546000906001600160a01b0316331461143c5760405162461bcd60e51b81526004016107869061278e565b50607b55600190565b6033546000906001600160a01b031633146114725760405162461bcd60e51b81526004016107869061278e565b50607755600190565b6033546000906001600160a01b031633146114a85760405162461bcd60e51b81526004016107869061278e565b50607d805460ff1916911515919091179055600190565b606654604051630d39bbef60e41b8152602060048201526002602482015261060f60f31b60448201526000916001600160a01b03169063d39bbef090606401602060405180830381865afa15801561151b573d6000803e3d6000fd5b505050506040513d601f19601f8201168201806040525081019061153f91906127e0565b905090565b6033546000906001600160a01b031633146115715760405162461bcd60e51b81526004016107869061278e565b50606b80546001600160a01b0383166001600160a01b03199091161790556001919050565b6033546000906001600160a01b031633146115c35760405162461bcd60e51b81526004016107869061278e565b50607c55600190565b6033546000906001600160a01b031633146115f95760405162461bcd60e51b81526004016107869061278e565b606680546001600160a01b0319166001600160a01b038516179055815161162790607e9060208501906122e3565b5060019392505050565b6033546000906001600160a01b0316331461165e5760405162461bcd60e51b81526004016107869061278e565b50607655600190565b6033546000906001600160a01b031633146116945760405162461bcd60e51b81526004016107869061278e565b50607d80548215156101000261ff00199091161790556001919050565b6033546000906001600160a01b031633146116de5760405162461bcd60e51b81526004016107869061278e565b50606a80546001600160a01b0383166001600160a01b03199091161790556001919050565b6033546001600160a01b0316331461172d5760405162461bcd60e51b81526004016107869061278e565b6001600160a01b0381166117925760405162461bcd60e51b815260206004820152602660248201527f4f776e61626c653a206e6577206f776e657220697320746865207a65726f206160448201526564647265737360d01b6064820152608401610786565b61179b81611d40565b50565b60006117aa82846128f3565b9392505050565b60006117aa8284612912565b6040516001600160a01b03808516602483015283166044820152606481018290526118289085906323b872dd60e01b906084015b60408051601f198184030181529190526020810180516001600160e01b03166001600160e01b031990931692909217909152611e0d565b50505050565b60006117aa82846129ba565b600080826001600160a01b0316846001600160a01b031614156118ab5760405162461bcd60e51b815260206004820152602360248201527f556e697377617056324c6962726172793a206964656e746963616c5f6164647260448201526265737360e81b6064820152608401610786565b826001600160a01b0316846001600160a01b0316106118cb5782846118ce565b83835b90925090506001600160a01b0382166119295760405162461bcd60e51b815260206004820152601e60248201527f556e697377617056324c6962726172793a207a65726f5f6164647265737300006044820152606401610786565b9250929050565b8015806119aa5750604051636eb1769f60e11b81523060048201526001600160a01b03838116602483015284169063dd62ed3e90604401602060405180830381865afa158015611984573d6000803e3d6000fd5b505050506040513d601f19601f820116820180604052508101906119a891906127e0565b155b611a155760405162461bcd60e51b815260206004820152603660248201527f5361666545524332303a20617070726f76652066726f6d206e6f6e2d7a65726f60448201527520746f206e6f6e2d7a65726f20616c6c6f77616e636560501b6064820152608401610786565b6040516001600160a01b038316602482015260448101829052611a4590849063095ea7b360e01b906064016117f1565b505050565b600080856001600160a01b0316630902f1ac6040518163ffffffff1660e01b8152600401606060405180830381865afa158015611a8b573d6000803e3d6000fd5b505050506040513d601f19601f82011682018060405250810190611aaf919061286c565b506001600160701b031691506001600160701b03169150600080876001600160a01b0316630dfe16816040518163ffffffff1660e01b8152600401602060405180830381865afa158015611b07573d6000803e3d6000fd5b505050506040513d601f19601f82011682018060405250810190611b2b91906127c3565b6070546001600160a01b03908116911614611b47578284611b4a565b83835b91509150600080611b5e6000888686611edf565b90925090508115611c595760408051600280825260608201835260009260208301908036833701905050905081611b96578989611b99565b888a5b82600081518110611bac57611bac6129d1565b6020026020010183600181518110611bc657611bc66129d1565b6001600160a01b039384166020918202929092010152918116909152606c546040516338ed173960e01b81529116906338ed173990611c129086906000908690309042906004016129e7565b6000604051808303816000875af1158015611c31573d6000803e3d6000fd5b505050506040513d6000823e601f3d908101601f191682016040526114019190810190612a58565b50505050505050505050565b6040516001600160a01b038316602482015260448101829052611a4590849063a9059cbb60e01b906064016117f1565b600080611ca4856103e561179e565b90506000611cb2828561179e565b90506000611ccc83611cc6886103e861179e565b90611f2e565b9050611cd88183612912565b979650505050505050565b600060745460011415611d14576076546072541015611d0f57607554607254611d0b91611f2e565b6072555b611d3a565b60745460021415611d3a576076546072541115611d0f57607554607254611d0b9161182e565b50600190565b603380546001600160a01b038381166001600160a01b0319831681179093556040519116919082907f8be0079c531659141344cd1fd0a4f28419497f9722a3daafe3b4186f6b6457e090600090a35050565b600054610100900460ff1680611dab575060005460ff16155b611dc75760405162461bcd60e51b81526004016107869061296c565b600054610100900460ff16158015611de9576000805461ffff19166101011790555b611df1611f3a565b611df9611fa4565b801561179b576000805461ff001916905550565b6000611e62826040518060400160405280602081526020017f5361666545524332303a206c6f772d6c6576656c2063616c6c206661696c6564815250856001600160a01b03166120049092919063ffffffff16565b805190915015611a455780806020019051810190611e809190612934565b611a455760405162461bcd60e51b815260206004820152602a60248201527f5361666545524332303a204552433230206f7065726174696f6e20646964206e6044820152691bdd081cdd58d8d9595960b21b6064820152608401610786565b600080611eec858561179e565b611ef6878561179e565b10611f1257611f078686868661201b565b915060009050611f25565b611f1e8587858761201b565b9150600190505b94509492505050565b60006117aa828461280f565b600054610100900460ff1680611f53575060005460ff16155b611f6f5760405162461bcd60e51b81526004016107869061296c565b600054610100900460ff16158015611df9576000805461ffff1916610101179055801561179b576000805461ff001916905550565b600054610100900460ff1680611fbd575060005460ff16155b611fd95760405162461bcd60e51b81526004016107869061296c565b600054610100900460ff16158015611ffb576000805461ffff19166101011790555b611df933611d40565b6060612013848460008561211e565b949350505050565b6000612027848461179e565b612031868461179e565b101561206a5760405162461bcd60e51b815260206004820152600860248201526714995d995c9cd95960c21b6044820152606401610786565b6103e5600061207b6107cd8661179e565b9050600061209661208c888861179e565b6109228a8861179e565b905060006120b78761088c6120ab8b8a611f2e565b610892866103e861179e565b905060006120ca600461088c878561179e565b905060006120e46120df83611cc6888061179e565b61223b565b905060006120f2828761182e565b9050600061210188600261179e565b905061210d82826117b1565b9d9c50505050505050505050505050565b60608247101561217f5760405162461bcd60e51b815260206004820152602660248201527f416464726573733a20696e73756666696369656e742062616c616e636520666f6044820152651c8818d85b1b60d21b6064820152608401610786565b843b6121cd5760405162461bcd60e51b815260206004820152601d60248201527f416464726573733a2063616c6c20746f206e6f6e2d636f6e74726163740000006044820152606401610786565b600080866001600160a01b031685876040516121e99190612afe565b60006040518083038185875af1925050503d8060008114612226576040519150601f19603f3d011682016040523d82523d6000602084013e61222b565b606091505b5091509150611cd88282866122aa565b6000600382111561229c5750806000612255600283612912565b61226090600161280f565b90505b818110156122965790508060028161227b8186612912565b612285919061280f565b61228f9190612912565b9050612263565b50919050565b811561079857506001919050565b606083156122b95750816117aa565b8251156122c95782518084602001fd5b8160405162461bcd60e51b81526004016107869190612478565b8280546122ef90612683565b90600052602060002090601f0160209004810192826123115760008555612357565b82601f1061232a57805160ff1916838001178555612357565b82800160010185558215612357579182015b8281111561235757825182559160200191906001019061233c565b50612363929150612367565b5090565b5b808211156123635760008155600101612368565b60006020828403121561238e57600080fd5b5035919050565b600080604083850312156123a857600080fd5b50508035926020909101359150565b6001600160a01b038116811461179b57600080fd5b8035610798816123b7565b600080604083850312156123ea57600080fd5b82356123f5816123b7565b946020939093013593505050565b60006020828403121561241557600080fd5b81356117aa816123b7565b60005b8381101561243b578181015183820152602001612423565b838111156118285750506000910152565b60008151808452612464816020860160208601612420565b601f01601f19169290920160200192915050565b6020815260006117aa602083018461244c565b60008060008060008060008060008060006101608c8e0312156124ad57600080fd5b8b356124b8816123b7565b9a5060208c01356124c8816123b7565b995060408c01356124d8816123b7565b985060608c01356124e8816123b7565b975060808c01356124f8816123b7565b965060a08c0135612508816123b7565b955060c08c0135612518816123b7565b945060e08c0135612528816123b7565b93506101008c0135612539816123b7565b92506125486101208d016123cc565b91506125576101408d016123cc565b90509295989b509295989b9093969950565b801515811461179b57600080fd5b60006020828403121561258957600080fd5b81356117aa81612569565b634e487b7160e01b600052604160045260246000fd5b604051601f8201601f1916810167ffffffffffffffff811182821017156125d3576125d3612594565b604052919050565b600080604083850312156125ee57600080fd5b82356125f9816123b7565b915060208381013567ffffffffffffffff8082111561261757600080fd5b818601915086601f83011261262b57600080fd5b81358181111561263d5761263d612594565b61264f601f8201601f191685016125aa565b9150808252878482850101111561266557600080fd5b80848401858401376000848284010152508093505050509250929050565b600181811c9082168061269757607f821691505b6020821081141561229657634e487b7160e01b600052602260045260246000fd5b600060208083526000845481600182811c9150808316806126da57607f831692505b8583108114156126f857634e487b7160e01b85526022600452602485fd5b878601838152602001818015612715576001811461272657612751565b60ff19861682528782019650612751565b60008b81526020902060005b8681101561274b57815484820152908501908901612732565b83019750505b50949998505050505050505050565b6000806040838503121561277357600080fd5b825161277e81612569565b6020939093015192949293505050565b6020808252818101527f4f776e61626c653a2063616c6c6572206973206e6f7420746865206f776e6572604082015260600190565b6000602082840312156127d557600080fd5b81516117aa816123b7565b6000602082840312156127f257600080fd5b5051919050565b634e487b7160e01b600052601160045260246000fd5b60008219821115612822576128226127f9565b500190565b60008060006060848603121561283c57600080fd5b8351925060208401519150604084015190509250925092565b80516001600160701b038116811461079857600080fd5b60008060006060848603121561288157600080fd5b61288a84612855565b925061289860208501612855565b9150604084015163ffffffff811681146128b157600080fd5b809150509250925092565b84815283602082015260018060a01b03831660408201526080606082015260006128e9608083018461244c565b9695505050505050565b600081600019048311821515161561290d5761290d6127f9565b500290565b60008261292f57634e487b7160e01b600052601260045260246000fd5b500490565b60006020828403121561294657600080fd5b81516117aa81612569565b6000600019821415612965576129656127f9565b5060010190565b6020808252602e908201527f496e697469616c697a61626c653a20636f6e747261637420697320616c72656160408201526d191e481a5b9a5d1a585b1a5e995960921b606082015260800190565b6000828210156129cc576129cc6127f9565b500390565b634e487b7160e01b600052603260045260246000fd5b600060a082018783526020878185015260a0604085015281875180845260c086019150828901935060005b81811015612a375784516001600160a01b031683529383019391830191600101612a12565b50506001600160a01b03969096166060850152505050608001529392505050565b60006020808385031215612a6b57600080fd5b825167ffffffffffffffff80821115612a8357600080fd5b818501915085601f830112612a9757600080fd5b815181811115612aa957612aa9612594565b8060051b9150612aba8483016125aa565b8181529183018401918481019088841115612ad457600080fd5b938501935b83851015612af257845182529385019390850190612ad9565b98975050505050505050565b60008251612b10818460208701612420565b919091019291505056fea2646970667358221220a57563ca6e6a88d5e48997b3d24f5d919885b92ac26657b268969f216991fb4b64736f6c634300080c0033",
  "linkReferences": {},
  "deployedLinkReferences": {}
}