{
  "_format": "hh-sol-artifact-1",
  "contractName": "sFish",
  "sourceName": "contracts/sFishToken.sol",
  "abi": [
    {
      "inputs": [
        {
          "internalType": "contract IERC20",
          "name": "_token",
          "type": "address"
        }
      ],
      "stateMutability": "nonpayable",
      "type": "constructor"
    },
    {
      "anonymous": false,
      "inputs": [
        {
          "indexed": true,
          "internalType": "address",
          "name": "_owner",
          "type": "address"
        },
        {
          "indexed": true,
          "internalType": "address",
          "name": "_spender",
          "type": "address"
        },
        {
          "indexed": false,
          "internalType": "uint256",
          "name": "_value",
          "type": "uint256"
        }
      ],
      "name": "Approval",
      "type": "event"
    },
    {
      "anonymous": false,
      "inputs": [
        {
          "indexed": true,
          "internalType": "address",
          "name": "_from",
          "type": "address"
        },
        {
          "indexed": true,
          "internalType": "address",
          "name": "_to",
          "type": "address"
        },
        {
          "indexed": false,
          "internalType": "uint256",
          "name": "_value",
          "type": "uint256"
        }
      ],
      "name": "Transfer",
      "type": "event"
    },
    {
      "inputs": [],
      "name": "DOMAIN_SEPARATOR",
      "outputs": [
        {
          "internalType": "bytes32",
          "name": "",
          "type": "bytes32"
        }
      ],
      "stateMutability": "view",
      "type": "function"
    },
    {
      "inputs": [],
      "name": "LOCK_TIME",
      "outputs": [
        {
          "internalType": "uint256",
          "name": "",
          "type": "uint256"
        }
      ],
      "stateMutability": "view",
      "type": "function"
    },
    {
      "inputs": [],
      "name": "_owner",
      "outputs": [
        {
          "internalType": "address",
          "name": "",
          "type": "address"
        }
      ],
      "stateMutability": "view",
      "type": "function"
    },
    {
      "inputs": [
        {
          "internalType": "address",
          "name": "",
          "type": "address"
        },
        {
          "internalType": "address",
          "name": "",
          "type": "address"
        }
      ],
      "name": "allowance",
      "outputs": [
        {
          "internalType": "uint256",
          "name": "",
          "type": "uint256"
        }
      ],
      "stateMutability": "view",
      "type": "function"
    },
    {
      "inputs": [
        {
          "internalType": "address",
          "name": "spender",
          "type": "address"
        },
        {
          "internalType": "uint256",
          "name": "amount",
          "type": "uint256"
        }
      ],
      "name": "approve",
      "outputs": [
        {
          "internalType": "bool",
          "name": "",
          "type": "bool"
        }
      ],
      "stateMutability": "nonpayable",
      "type": "function"
    },
    {
      "inputs": [
        {
          "internalType": "address",
          "name": "user",
          "type": "address"
        }
      ],
      "name": "balanceOf",
      "outputs": [
        {
          "internalType": "uint256",
          "name": "balance",
          "type": "uint256"
        }
      ],
      "stateMutability": "view",
      "type": "function"
    },
    {
      "inputs": [
        {
          "internalType": "address",
          "name": "to",
          "type": "address"
        },
        {
          "internalType": "uint256",
          "name": "shares",
          "type": "uint256"
        }
      ],
      "name": "burn",
      "outputs": [
        {
          "internalType": "bool",
          "name": "",
          "type": "bool"
        }
      ],
      "stateMutability": "nonpayable",
      "type": "function"
    },
    {
      "inputs": [
        {
          "internalType": "address",
          "name": "from",
          "type": "address"
        },
        {
          "internalType": "address",
          "name": "to",
          "type": "address"
        },
        {
          "internalType": "uint256",
          "name": "shares",
          "type": "uint256"
        }
      ],
      "name": "burnFrom",
      "outputs": [
        {
          "internalType": "bool",
          "name": "",
          "type": "bool"
        }
      ],
      "stateMutability": "nonpayable",
      "type": "function"
    },
    {
      "inputs": [],
      "name": "decimals",
      "outputs": [
        {
          "internalType": "uint8",
          "name": "",
          "type": "uint8"
        }
      ],
      "stateMutability": "view",
      "type": "function"
    },
    {
      "inputs": [
        {
          "internalType": "uint256",
          "name": "amount",
          "type": "uint256"
        }
      ],
      "name": "mint",
      "outputs": [
        {
          "internalType": "bool",
          "name": "",
          "type": "bool"
        }
      ],
      "stateMutability": "nonpayable",
      "type": "function"
    },
    {
      "inputs": [],
      "name": "name",
      "outputs": [
        {
          "internalType": "string",
          "name": "",
          "type": "string"
        }
      ],
      "stateMutability": "view",
      "type": "function"
    },
    {
      "inputs": [
        {
          "internalType": "address",
          "name": "",
          "type": "address"
        }
      ],
      "name": "nonces",
      "outputs": [
        {
          "internalType": "uint256",
          "name": "",
          "type": "uint256"
        }
      ],
      "stateMutability": "view",
      "type": "function"
    },
    {
      "inputs": [],
      "name": "owner",
      "outputs": [
        {
          "internalType": "address",
          "name": "",
          "type": "address"
        }
      ],
      "stateMutability": "view",
      "type": "function"
    },
    {
      "inputs": [
        {
          "internalType": "address",
          "name": "owner_",
          "type": "address"
        },
        {
          "internalType": "address",
          "name": "spender",
          "type": "address"
        },
        {
          "internalType": "uint256",
          "name": "value",
          "type": "uint256"
        },
        {
          "internalType": "uint256",
          "name": "deadline",
          "type": "uint256"
        },
        {
          "internalType": "uint8",
          "name": "v",
          "type": "uint8"
        },
        {
          "internalType": "bytes32",
          "name": "r",
          "type": "bytes32"
        },
        {
          "internalType": "bytes32",
          "name": "s",
          "type": "bytes32"
        }
      ],
      "name": "permit",
      "outputs": [],
      "stateMutability": "nonpayable",
      "type": "function"
    },
    {
      "inputs": [],
      "name": "symbol",
      "outputs": [
        {
          "internalType": "string",
          "name": "",
          "type": "string"
        }
      ],
      "stateMutability": "view",
      "type": "function"
    },
    {
      "inputs": [],
      "name": "token",
      "outputs": [
        {
          "internalType": "contract IERC20",
          "name": "",
          "type": "address"
        }
      ],
      "stateMutability": "view",
      "type": "function"
    },
    {
      "inputs": [],
      "name": "totalSupply",
      "outputs": [
        {
          "internalType": "uint256",
          "name": "",
          "type": "uint256"
        }
      ],
      "stateMutability": "view",
      "type": "function"
    },
    {
      "inputs": [
        {
          "internalType": "address",
          "name": "to",
          "type": "address"
        },
        {
          "internalType": "uint256",
          "name": "shares",
          "type": "uint256"
        }
      ],
      "name": "transfer",
      "outputs": [
        {
          "internalType": "bool",
          "name": "",
          "type": "bool"
        }
      ],
      "stateMutability": "nonpayable",
      "type": "function"
    },
    {
      "inputs": [
        {
          "internalType": "address",
          "name": "from",
          "type": "address"
        },
        {
          "internalType": "address",
          "name": "to",
          "type": "address"
        },
        {
          "internalType": "uint256",
          "name": "shares",
          "type": "uint256"
        }
      ],
      "name": "transferFrom",
      "outputs": [
        {
          "internalType": "bool",
          "name": "",
          "type": "bool"
        }
      ],
      "stateMutability": "nonpayable",
      "type": "function"
    },
    {
      "inputs": [
        {
          "internalType": "address",
          "name": "newOwner",
          "type": "address"
        }
      ],
      "name": "transferOwnership",
      "outputs": [],
      "stateMutability": "nonpayable",
      "type": "function"
    },
    {
      "inputs": [
        {
          "internalType": "address",
          "name": "",
          "type": "address"
        }
      ],
      "name": "users",
      "outputs": [
        {
          "internalType": "uint128",
          "name": "balance",
          "type": "uint128"
        },
        {
          "internalType": "uint128",
          "name": "lockedUntil",
          "type": "uint128"
        }
      ],
      "stateMutability": "view",
      "type": "function"
    }
  ],
  "bytecode": "0x60e06040526201518060015534801561001757600080fd5b506040516200180d3803806200180d833981016040819052610038916100c8565b4660a081905261004781610074565b6080525060601b6001600160601b03191660c05260028054336001600160a01b0319909116179055610115565b60007f47e79534a245952e8b16893a336b85a3d9ea9fa8c573f3d803afb92a7946921882306040516020016100ab939291906100f6565b604051602081830303815290604052805190602001209050919050565b6000602082840312156100d9578081fd5b81516001600160a01b03811681146100ef578182fd5b9392505050565b92835260208301919091526001600160a01b0316604082015260600190565b60805160a05160c05160601c6116b4620001596000398061049152806105c152806108b35280610c645280610d58525080610b5f525080610b9452506116b46000f3fe608060405234801561001057600080fd5b50600436106101375760003560e01c806395d89b41116100b8578063b2bdfa7b1161007c578063b2bdfa7b14610264578063d505accf1461026c578063dd62ed3e14610281578063ec60bcf314610294578063f2fde38b146102a7578063fc0c546a146102ba57610137565b806395d89b41146102025780639dc29fac1461020a578063a0712d681461021d578063a87430ba14610230578063a9059cbb1461025157610137565b80633644e515116100ff5780633644e515146101b7578063413d9c3a146101bf57806370a08231146101c75780637ecebe00146101da5780638da5cb5b146101ed57610137565b806306fdde031461013c578063095ea7b31461015a57806318160ddd1461017a57806323b872dd1461018f578063313ce567146101a2575b600080fd5b6101446102c2565b6040516101519190611395565b60405180910390f35b61016d610168366004611202565b6102f0565b6040516101519190611310565b61018261035b565b604051610151919061131b565b61016d61019d36600461114f565b610361565b6101aa610382565b604051610151919061162b565b610182610387565b610182610396565b6101826101d53660046110f9565b61039c565b6101826101e83660046110f9565b6103c0565b6101f56103d2565b60405161015191906112bf565b6101446103e1565b61016d610218366004611202565b610402565b61016d61022b36600461124c565b610418565b61024361023e3660046110f9565b610639565b604051610151929190611611565b61016d61025f366004611202565b61065f565b6101f561066c565b61027f61027a36600461118f565b61067b565b005b61018261028f36600461111b565b61081c565b61016d6102a236600461114f565b610839565b61027f6102b53660046110f9565b610850565b6101f56108b1565b604051806040016040528060128152602001715374616b6564204669736820546f6b656e7360701b81525081565b3360008181526004602090815260408083206001600160a01b038716808552925280832085905551919290917f8c5be1e5ebec7d5bd14f71427d1e84f3dd0314c0f7b2291e5b200ac8c7c3b9259061034990869061131b565b60405180910390a35060015b92915050565b60005481565b600061036d84836108d5565b610378848484610967565b5060019392505050565b601281565b6000610391610b5a565b905090565b60015481565b6001600160a01b03166000908152600360205260409020546001600160801b031690565b60056020526000908152604090205481565b6002546001600160a01b031690565b604051806040016040528060058152602001640e68cd2e6d60db1b81525081565b600061040f338484610bba565b50600192915050565b6000336104405760405162461bcd60e51b8152600401610437906114e0565b60405180910390fd5b6104486110cb565b503360009081526003602090815260408083208151808301835290546001600160801b038082168352600160801b9091041692810192909252516370a0823160e01b81529091907f00000000000000000000000000000000000000000000000000000000000000006001600160a01b0316906370a08231906104ce9030906004016112bf565b60206040518083038186803b1580156104e657600080fd5b505afa1580156104fa573d6000803e3d6000fd5b505050506040513d601f19601f8201168201806040525081019061051e9190611264565b90506000805460001461053e578160005486028161053857fe5b04610540565b845b905061054b81610dd2565b8351016001600160801b03168352600154610567904201610dd2565b6001600160801b0390811660208086019182523360008181526003909252604082208751815494518616600160801b029086166001600160801b03199095169490941790941692909217909255815483019091556105f1907f00000000000000000000000000000000000000000000000000000000000000006001600160a01b0316903088610dff565b60405133906000907fddf252ad1be2c89b69c2b068fc378daa952ba7f163c4a11628f55a4df523b3ef9061062690859061131b565b60405180910390a3506001949350505050565b6003602052600090815260409020546001600160801b0380821691600160801b90041682565b600061040f338484610967565b6002546001600160a01b031681565b6001600160a01b0387166106a15760405162461bcd60e51b8152600401610437906115cc565b8342106106c05760405162461bcd60e51b8152600401610437906115f0565b6001600160a01b038716600081815260056020908152604091829020805460018181019092559251909261073e92610723927f6e71edae12b1b97f4d1f60370fef10105fa2faae0126114a169c64845d6126c9928e928e928e92918e9101611324565b60405160208183030381529060405280519060200120610ef8565b8585856040516000815260200160405260405161075e9493929190611377565b6020604051602081039080840390855afa158015610780573d6000803e3d6000fd5b505050602060405103516001600160a01b0316146107b05760405162461bcd60e51b815260040161043790611572565b6001600160a01b038088166000818152600460209081526040808320948b168084529490915290819020889055517f8c5be1e5ebec7d5bd14f71427d1e84f3dd0314c0f7b2291e5b200ac8c7c3b9259061080b90899061131b565b60405180910390a350505050505050565b600460209081526000928352604080842090915290825290205481565b600061084584836108d5565b610378848484610bba565b336108596103d2565b6001600160a01b03161461087f5760405162461bcd60e51b81526004016104379061153d565b6001600160a01b0381166108a55760405162461bcd60e51b81526004016104379061144e565b6108ae81610f4d565b50565b7f000000000000000000000000000000000000000000000000000000000000000081565b336001600160a01b03831614156108eb57610963565b6001600160a01b0382166000908152600460209081526040808320338452909152902054600019811461096157818110156109385760405162461bcd60e51b815260040161043790611494565b6001600160a01b0383166000908152600460209081526040808320338452909152902082820390555b505b5050565b61096f6110cb565b506001600160a01b0383166000908152600360209081526040918290208251808401909352546001600160801b038082168452600160801b909104169082018190524210156109d05760405162461bcd60e51b8152600401610437906113f7565b8115610b095780516001600160801b0316821115610a005760405162461bcd60e51b8152600401610437906114bb565b826001600160a01b0316846001600160a01b031614610b09576001600160a01b038316610a3f5760405162461bcd60e51b8152600401610437906114e0565b610a476110cb565b506001600160a01b0383166000908152600360209081526040918290208251808401909352546001600160801b038082168452600160801b9091041690820152610a9083610dd2565b82516001600160a01b038716600090815260036020526040902080546001600160801b031916929091036001600160801b0316919091179055610ad283610dd2565b90516001600160a01b038516600090815260036020526040902080546001600160801b031916919092016001600160801b03161790555b826001600160a01b0316846001600160a01b03167fddf252ad1be2c89b69c2b068fc378daa952ba7f163c4a11628f55a4df523b3ef84604051610b4c919061131b565b60405180910390a350505050565b6000467f00000000000000000000000000000000000000000000000000000000000000008114610b9257610b8d81610f6f565b610bb4565b7f00000000000000000000000000000000000000000000000000000000000000005b91505090565b6001600160a01b038216610be05760405162461bcd60e51b8152600401610437906114e0565b610be86110cb565b506001600160a01b0383166000908152600360209081526040918290208251808401909352546001600160801b038082168452600160801b90910416908201819052421015610c495760405162461bcd60e51b8152600401610437906113f7565b600080546040516370a0823160e01b81526001600160a01b037f000000000000000000000000000000000000000000000000000000000000000016906370a0823190610c999030906004016112bf565b60206040518083038186803b158015610cb157600080fd5b505afa158015610cc5573d6000803e3d6000fd5b505050506040513d601f19601f82011682018060405250810190610ce99190611264565b840281610cf257fe5b049050610d12610d0184610dd2565b83516001600160801b031690610fa6565b6001600160a01b03868116600090815260036020526040812080546001600160801b0319166001600160801b0394909416939093179092558154859003909155610d7f907f0000000000000000000000000000000000000000000000000000000000000000168583610fd5565b60006001600160a01b0316856001600160a01b03167fddf252ad1be2c89b69c2b068fc378daa952ba7f163c4a11628f55a4df523b3ef85604051610dc3919061131b565b60405180910390a35050505050565b60006001600160801b03821115610dfb5760405162461bcd60e51b815260040161043790611506565b5090565b60006060856001600160a01b03166323b872dd60e01b868686604051602401610e2a939291906112d3565b60408051601f198184030181529181526020820180516001600160e01b03166001600160e01b0319909416939093179092529051610e68919061127c565b6000604051808303816000865af19150503d8060008114610ea5576040519150601f19603f3d011682016040523d82523d6000602084013e610eaa565b606091505b5091509150818015610ed4575080511580610ed4575080806020019051810190610ed4919061122c565b610ef05760405162461bcd60e51b815260040161043790611597565b505050505050565b600060405180604001604052806002815260200161190160f01b815250610f1d610b5a565b83604051602001610f3093929190611298565b604051602081830303815290604052805190602001209050919050565b600280546001600160a01b0319166001600160a01b0392909216919091179055565b60007f47e79534a245952e8b16893a336b85a3d9ea9fa8c573f3d803afb92a794692188230604051602001610f3093929190611358565b8082036001600160801b0380841690821611156103555760405162461bcd60e51b8152600401610437906113c8565b60006060846001600160a01b031663a9059cbb60e01b8585604051602401610ffe9291906112f7565b60408051601f198184030181529181526020820180516001600160e01b03166001600160e01b031990941693909317909252905161103c919061127c565b6000604051808303816000865af19150503d8060008114611079576040519150601f19603f3d011682016040523d82523d6000602084013e61107e565b606091505b50915091508180156110a85750805115806110a85750808060200190518101906110a8919061122c565b6110c45760405162461bcd60e51b815260040161043790611417565b5050505050565b604080518082019091526000808252602082015290565b80356001600160a01b038116811461035557600080fd5b60006020828403121561110a578081fd5b61111483836110e2565b9392505050565b6000806040838503121561112d578081fd5b61113784846110e2565b915061114684602085016110e2565b90509250929050565b600080600060608486031215611163578081fd5b833561116e81611669565b9250602084013561117e81611669565b929592945050506040919091013590565b600080600080600080600060e0888a0312156111a9578283fd5b6111b389896110e2565b96506111c28960208a016110e2565b95506040880135945060608801359350608088013560ff811681146111e5578384fd5b9699959850939692959460a0840135945060c09093013592915050565b60008060408385031215611214578182fd5b61121e84846110e2565b946020939093013593505050565b60006020828403121561123d578081fd5b81518015158114611114578182fd5b60006020828403121561125d578081fd5b5035919050565b600060208284031215611275578081fd5b5051919050565b6000825161128e818460208701611639565b9190910192915050565b600084516112aa818460208901611639565b91909101928352506020820152604001919050565b6001600160a01b0391909116815260200190565b6001600160a01b039384168152919092166020820152604081019190915260600190565b6001600160a01b03929092168252602082015260400190565b901515815260200190565b90815260200190565b9586526001600160a01b0394851660208701529290931660408501526060840152608083019190915260a082015260c00190565b92835260208301919091526001600160a01b0316604082015260600190565b93845260ff9290921660208401526040830152606082015260800190565b60006020825282518060208401526113b4816040850160208701611639565b601f01601f19169190910160400192915050565b602080825260159082015274426f72696e674d6174683a20556e646572666c6f7760581b604082015260600190565b602080825260069082015265131bd8dad95960d21b604082015260600190565b6020808252601c908201527f426f72696e6745524332303a205472616e73666572206661696c656400000000604082015260600190565b60208082526026908201527f4f776e61626c653a206e6577206f776e657220697320746865207a65726f206160408201526564647265737360d01b606082015260800190565b6020808252600d908201526c4c6f7720616c6c6f77616e636560981b604082015260600190565b6020808252600b908201526a4c6f772062616c616e636560a81b604082015260600190565b6020808252600c908201526b5a65726f206164647265737360a01b604082015260600190565b6020808252601c908201527f426f72696e674d6174683a2075696e74313238204f766572666c6f7700000000604082015260600190565b6020808252818101527f4f776e61626c653a2063616c6c6572206973206e6f7420746865206f776e6572604082015260600190565b6020808252600b908201526a496e76616c69642053696760a81b604082015260600190565b6020808252818101527f426f72696e6745524332303a205472616e7366657246726f6d206661696c6564604082015260600190565b6020808252600a90820152692d32b9379037bbb732b960b11b604082015260600190565b602080825260079082015266115e1c1a5c995960ca1b604082015260600190565b6001600160801b0392831681529116602082015260400190565b60ff91909116815260200190565b60005b8381101561165457818101518382015260200161163c565b83811115611663576000848401525b50505050565b6001600160a01b03811681146108ae57600080fdfea2646970667358221220da2a5d4b3e70742db7fcb8bbd45229cfbf1412b7ad0c0359b4d1fc25dafe7c3464736f6c634300060c0033",
  "linkReferences": {},
  "deployedLinkReferences": {}
}