{
	"data": {
		"bytecode": {
			"linkReferences": {},
			"object": "608060405234801561001057600080fd5b506159fa80620000216000396000f3fe608060405234801561001057600080fd5b506004361061030c5760003560e01c806376902b831161019d578063aaf5eb68116100e9578063d477f05f116100a2578063f2fde38b1161007c578063f2fde38b14610a16578063f49c8b8714610a32578063f6d7eade14610a50578063ffcff32c14610a6e5761030c565b8063d477f05f146109aa578063d5c43159146109da578063ec1f1f69146109f85761030c565b8063aaf5eb68146108c0578063af4086f6146108de578063b13b0847146108fc578063b37895331461092c578063c83dd2311461095c578063c85cd7121461097a5761030c565b806391cca3db11610156578063a235c42a11610130578063a235c42a14610812578063a265e89914610842578063a36a752614610860578063a9787fdc146108905761030c565b806391cca3db146107b857806398362440146107d6578063a035b1fe146107f45761030c565b806376902b83146106e25780637dc0d1d0146106fe57806389a302711461071c5780638af9e5cd1461073a5780638da5cb5b1461076a57806391b7f5ed146107885761030c565b806347e1ed881161025c5780636043903d116102155780636f0a5b1b116101ef5780636f0a5b1b1461067e57806371261bf31461069c578063715018a6146106ba57806374645ff3146106c45761030c565b80636043903d146106125780636263fc6714610630578063645539ed146106605761030c565b806347e1ed8814610528578063498cb7f41461054657806349bdafc8146105765780634a9c8366146105a657806356930714146105c457806360398848146105f45761030c565b806333cdacd9116102c95780633b2d3e96116102a35780633b2d3e961461047a5780633ba0b9a9146104aa57806340e90a7e146104c857806340ee4d0c146104f85761030c565b806333cdacd91461040e57806336ebafe91461042c57806338207b161461044a5761030c565b806302ce728f146103115780630a0642c0146103305780631450acd21461034e57806317db7b701461037e5780631891381d146103ae578063243adbdd146103de575b600080fd5b610319610a8c565b604051610327929190614fd0565b60405180910390f35b610338610b60565b6040516103459190615281565b60405180910390f35b61036860048036038101906103639190614746565b610b66565b6040516103759190614fb5565b60405180910390f35b61039860048036038101906103939190614798565b610bf4565b6040516103a59190614fb5565b60405180910390f35b6103c860048036038101906103c39190614746565b610c94565b6040516103d59190614fb5565b60405180910390f35b6103f860048036038101906103f39190614746565b610d22565b6040516104059190614fb5565b60405180910390f35b610416611ca7565b6040516104239190615281565b60405180910390f35b610434611cad565b6040516104419190615281565b60405180910390f35b610464600480360381019061045f9190614746565b611cb3565b6040516104719190614fb5565b60405180910390f35b610494600480360381019061048f91906144a8565b611d41565b6040516104a19190614fb5565b60405180910390f35b6104b2611e0d565b6040516104bf9190615281565b60405180910390f35b6104e260048036038101906104dd9190614746565b611e13565b6040516104ef9190614fb5565b60405180910390f35b610512600480360381019061050d9190614746565b611ea1565b60405161051f9190614fb5565b60405180910390f35b610530611f2f565b60405161053d9190615281565b60405180910390f35b610560600480360381019061055b9190614746565b611f35565b60405161056d9190615281565b60405180910390f35b610590600480360381019061058b9190614456565b611f4d565b60405161059d9190614fb5565b60405180910390f35b6105ae612015565b6040516105bb9190614e5c565b60405180910390f35b6105de60048036038101906105d99190614456565b61203b565b6040516105eb9190614fb5565b60405180910390f35b6105fc612103565b6040516106099190615281565b60405180910390f35b61061a612109565b6040516106279190614fb5565b60405180910390f35b61064a60048036038101906106459190614456565b61211c565b6040516106579190615281565b60405180910390f35b610668612134565b6040516106759190615281565b60405180910390f35b61068661213a565b6040516106939190614e5c565b60405180910390f35b6106a4612160565b6040516106b19190615058565b60405180910390f35b6106c2612186565b005b6106cc61220e565b6040516106d99190614ff9565b60405180910390f35b6106fc60048036038101906106f791906145b3565b61229c565b005b610706612738565b604051610713919061508e565b60405180910390f35b61072461275e565b604051610731919061503d565b60405180910390f35b610754600480360381019061074f9190614746565b612784565b6040516107619190614fb5565b60405180910390f35b610772612812565b60405161077f9190614e5c565b60405180910390f35b6107a2600480360381019061079d9190614746565b61283c565b6040516107af9190614fb5565b60405180910390f35b6107c06128ca565b6040516107cd9190614e5c565b60405180910390f35b6107de6128f0565b6040516107eb9190614e5c565b60405180910390f35b6107fc612916565b6040516108099190615281565b60405180910390f35b61082c60048036038101906108279190614525565b61291c565b6040516108399190614fb5565b60405180910390f35b61084a6129bd565b6040516108579190615281565b60405180910390f35b61087a60048036038101906108759190614456565b612a6d565b6040516108879190614fb5565b60405180910390f35b6108aa60048036038101906108a59190614746565b612b35565b6040516108b79190614fb5565b60405180910390f35b6108c8612bc3565b6040516108d59190615281565b60405180910390f35b6108e6612bc9565b6040516108f39190615281565b60405180910390f35b610916600480360381019061091191906146a3565b612bcf565b6040516109239190614fb5565b60405180910390f35b61094660048036038101906109419190614746565b612caf565b6040516109539190614fb5565b60405180910390f35b610964612d3d565b60405161097191906150a9565b60405180910390f35b610994600480360381019061098f9190614525565b612d63565b6040516109a19190614fb5565b60405180910390f35b6109c460048036038101906109bf9190614456565b612e04565b6040516109d19190614fb5565b60405180910390f35b6109e2612ecc565b6040516109ef9190615281565b60405180910390f35b610a00612ed2565b604051610a0d9190614e5c565b60405180910390f35b610a306004803603810190610a2b9190614456565b612ef8565b005b610a3a612ff0565b604051610a479190614fb5565b60405180910390f35b610a58613003565b604051610a6591906150c4565b60405180910390f35b610a76613029565b604051610a839190615073565b60405180910390f35b600080606660009054906101000a900473ffffffffffffffffffffffffffffffffffffffff1673ffffffffffffffffffffffffffffffffffffffff1663d6d7d525607e6040518263ffffffff1660e01b8152600401610aeb919061501b565b6040805180830381600087803b158015610b0457600080fd5b505af1158015610b18573d6000803e3d6000fd5b505050506040513d601f19601f82011682018060405250810190610b3c9190614577565b80925081935050508115610b565780606581905550610b5c565b60655490505b9091565b607c5481565b6000610b7061304f565b73ffffffffffffffffffffffffffffffffffffffff16610b8e612812565b73ffffffffffffffffffffffffffffffffffffffff1614610be4576040517f08c379a0000000000000000000000000000000000000000000000000000000008152600401610bdb906151e1565b60405180910390fd5b8160758190555060019050919050565b6000610bfe61304f565b73ffffffffffffffffffffffffffffffffffffffff16610c1c612812565b73ffffffffffffffffffffffffffffffffffffffff1614610c72576040517f08c379a0000000000000000000000000000000000000000000000000000000008152600401610c69906151e1565b60405180910390fd5b8160796000858152602001908152602001600020819055506001905092915050565b6000610c9e61304f565b73ffffffffffffffffffffffffffffffffffffffff16610cbc612812565b73ffffffffffffffffffffffffffffffffffffffff1614610d12576040517f08c379a0000000000000000000000000000000000000000000000000000000008152600401610d09906151e1565b60405180910390fd5b8160728190555060019050919050565b600080829050610d3061304f565b73ffffffffffffffffffffffffffffffffffffffff163273ffffffffffffffffffffffffffffffffffffffff1614610d9d576040517f08c379a0000000000000000000000000000000000000000000000000000000008152600401610d9490615141565b60405180910390fd5b6000610e2c607354610e1e60796000607860003373ffffffffffffffffffffffffffffffffffffffff1673ffffffffffffffffffffffffffffffffffffffff16815260200190815260200160002054815260200190815260200160002054610e108660775461305790919063ffffffff16565b61305790919063ffffffff16565b61306d90919063ffffffff16565b9050610e7d333083606e60009054906101000a900473ffffffffffffffffffffffffffffffffffffffff1673ffffffffffffffffffffffffffffffffffffffff16613083909392919063ffffffff16565b6000610ea8607354610e9a607a548561305790919063ffffffff16565b61306d90919063ffffffff16565b90506000610ed5607354610ec7607b548661305790919063ffffffff16565b61306d90919063ffffffff16565b90506000610f02607354610ef4607c548761305790919063ffffffff16565b61306d90919063ffffffff16565b90506000610f3d82610f2f85610f21888a61310c90919063ffffffff16565b61310c90919063ffffffff16565b61310c90919063ffffffff16565b90506000606d60009054906101000a900473ffffffffffffffffffffffffffffffffffffffff1673ffffffffffffffffffffffffffffffffffffffff1663e6a43905606e60009054906101000a900473ffffffffffffffffffffffffffffffffffffffff16607060009054906101000a900473ffffffffffffffffffffffffffffffffffffffff166040518363ffffffff1660e01b8152600401610fe2929190614e77565b60206040518083038186803b158015610ffa57600080fd5b505afa15801561100e573d6000803e3d6000fd5b505050506040513d601f19601f82011682018060405250810190611032919061447f565b90506000611084606e60009054906101000a900473ffffffffffffffffffffffffffffffffffffffff16607060009054906101000a900473ffffffffffffffffffffffffffffffffffffffff16613122565b509050607d60019054906101000a900460ff16156115b15761110c606c60009054906101000a900473ffffffffffffffffffffffffffffffffffffffff166000606e60009054906101000a900473ffffffffffffffffffffffffffffffffffffffff1673ffffffffffffffffffffffffffffffffffffffff166132509092919063ffffffff16565b61119b606c60009054906101000a900473ffffffffffffffffffffffffffffffffffffffff167fffffffffffffffffffffffffffffffffffffffffffffffffffffffffffffffff606e60009054906101000a900473ffffffffffffffffffffffffffffffffffffffff1673ffffffffffffffffffffffffffffffffffffffff166132509092919063ffffffff16565b61120b606c60009054906101000a900473ffffffffffffffffffffffffffffffffffffffff166000607060009054906101000a900473ffffffffffffffffffffffffffffffffffffffff1673ffffffffffffffffffffffffffffffffffffffff166132509092919063ffffffff16565b61129a606c60009054906101000a900473ffffffffffffffffffffffffffffffffffffffff167fffffffffffffffffffffffffffffffffffffffffffffffffffffffffffffffff607060009054906101000a900473ffffffffffffffffffffffffffffffffffffffff1673ffffffffffffffffffffffffffffffffffffffff166132509092919063ffffffff16565b6112ea82607060009054906101000a900473ffffffffffffffffffffffffffffffffffffffff16606e60009054906101000a900473ffffffffffffffffffffffffffffffffffffffff16896133ae565b60006113cd846113bf876113b18a606e60009054906101000a900473ffffffffffffffffffffffffffffffffffffffff1673ffffffffffffffffffffffffffffffffffffffff166370a08231306040518263ffffffff1660e01b81526004016113539190614e5c565b60206040518083038186803b15801561136b57600080fd5b505afa15801561137f573d6000803e3d6000fd5b505050506040513d601f19601f820116820180604052508101906113a3919061476f565b61310c90919063ffffffff16565b61310c90919063ffffffff16565b61310c90919063ffffffff16565b9050606c60009054906101000a900473ffffffffffffffffffffffffffffffffffffffff1673ffffffffffffffffffffffffffffffffffffffff1663e8e33700606e60009054906101000a900473ffffffffffffffffffffffffffffffffffffffff16607060009054906101000a900473ffffffffffffffffffffffffffffffffffffffff1684607060009054906101000a900473ffffffffffffffffffffffffffffffffffffffff1673ffffffffffffffffffffffffffffffffffffffff166370a08231306040518263ffffffff1660e01b81526004016114af9190614e5c565b60206040518083038186803b1580156114c757600080fd5b505afa1580156114db573d6000803e3d6000fd5b505050506040513d601f19601f820116820180604052508101906114ff919061476f565b600080606860009054906101000a900473ffffffffffffffffffffffffffffffffffffffff166103e8426115339190615460565b6040518963ffffffff1660e01b8152600401611556989796959493929190614ed7565b606060405180830381600087803b15801561157057600080fd5b505af1158015611584573d6000803e3d6000fd5b505050506040513d601f19601f820116820180604052508101906115a891906147d4565b50505050611621565b611620606860009054906101000a900473ffffffffffffffffffffffffffffffffffffffff1687606e60009054906101000a900473ffffffffffffffffffffffffffffffffffffffff1673ffffffffffffffffffffffffffffffffffffffff166137859092919063ffffffff16565b5b611690606a60009054906101000a900473ffffffffffffffffffffffffffffffffffffffff1686606e60009054906101000a900473ffffffffffffffffffffffffffffffffffffffff1673ffffffffffffffffffffffffffffffffffffffff166137859092919063ffffffff16565b6116ff606b60009054906101000a900473ffffffffffffffffffffffffffffffffffffffff1685606e60009054906101000a900473ffffffffffffffffffffffffffffffffffffffff1673ffffffffffffffffffffffffffffffffffffffff166137859092919063ffffffff16565b607d60009054906101000a900460ff1615611aec576000808373ffffffffffffffffffffffffffffffffffffffff16630902f1ac6040518163ffffffff1660e01b815260040160606040518083038186803b15801561175d57600080fd5b505afa158015611771573d6000803e3d6000fd5b505050506040513d601f19601f8201168201806040525081019061179591906146f7565b506dffffffffffffffffffffffffffff1691506dffffffffffffffffffffffffffff1691508273ffffffffffffffffffffffffffffffffffffffff16606e60009054906101000a900473ffffffffffffffffffffffffffffffffffffffff1673ffffffffffffffffffffffffffffffffffffffff1614611816578082611819565b81815b8092508193505050600061182e86848461380b565b90506000808573ffffffffffffffffffffffffffffffffffffffff16606e60009054906101000a900473ffffffffffffffffffffffffffffffffffffffff1673ffffffffffffffffffffffffffffffffffffffff161461189057826000611894565b6000835b915091506118e58789606e60009054906101000a900473ffffffffffffffffffffffffffffffffffffffff1673ffffffffffffffffffffffffffffffffffffffff166137859092919063ffffffff16565b8673ffffffffffffffffffffffffffffffffffffffff1663022c0d9f838330600067ffffffffffffffff811115611945577f4e487b7100000000000000000000000000000000000000000000000000000000600052604160045260246000fd5b6040519080825280601f01601f1916602001820160405280156119775781602001600182028036833780820191505090505b506040518563ffffffff1660e01b815260040161199794939291906152f6565b600060405180830381600087803b1580156119b157600080fd5b505af11580156119c5573d6000803e3d6000fd5b50505050611ae2606760009054906101000a900473ffffffffffffffffffffffffffffffffffffffff16607060009054906101000a900473ffffffffffffffffffffffffffffffffffffffff1673ffffffffffffffffffffffffffffffffffffffff166370a08231306040518263ffffffff1660e01b8152600401611a4a9190614e5c565b60206040518083038186803b158015611a6257600080fd5b505afa158015611a76573d6000803e3d6000fd5b505050506040513d601f19601f82011682018060405250810190611a9a919061476f565b607060009054906101000a900473ffffffffffffffffffffffffffffffffffffffff1673ffffffffffffffffffffffffffffffffffffffff166137859092919063ffffffff16565b5050505050611b5c565b611b5b606960009054906101000a900473ffffffffffffffffffffffffffffffffffffffff1684606e60009054906101000a900473ffffffffffffffffffffffffffffffffffffffff1673ffffffffffffffffffffffffffffffffffffffff166137859092919063ffffffff16565b5b6000611b66610a8c565b915050611b7161387f565b5060005b89811015611c9457607160009054906101000a900473ffffffffffffffffffffffffffffffffffffffff1673ffffffffffffffffffffffffffffffffffffffff1663d405d32a338342611bc89190615460565b607354607354607254611bdb9190615460565b670de0b6b3a764000088607754611bf291906154e7565b611bfc91906154b6565b611c0691906154e7565b611c1091906154b6565b6040518463ffffffff1660e01b8152600401611c2e93929190614f7e565b602060405180830381600087803b158015611c4857600080fd5b505af1158015611c5c573d6000803e3d6000fd5b505050506040513d601f19601f82011682018060405250810190611c80919061454e565b508080611c8c906157b1565b915050611b75565b5060019950505050505050505050919050565b606f5481565b60755481565b6000611cbd61304f565b73ffffffffffffffffffffffffffffffffffffffff16611cdb612812565b73ffffffffffffffffffffffffffffffffffffffff1614611d31576040517f08c379a0000000000000000000000000000000000000000000000000000000008152600401611d28906151e1565b60405180910390fd5b8160748190555060019050919050565b6000611d4b61304f565b73ffffffffffffffffffffffffffffffffffffffff16611d69612812565b73ffffffffffffffffffffffffffffffffffffffff1614611dbf576040517f08c379a0000000000000000000000000000000000000000000000000000000008152600401611db6906151e1565b60405180910390fd5b81607860008573ffffffffffffffffffffffffffffffffffffffff1673ffffffffffffffffffffffffffffffffffffffff168152602001908152602001600020819055506001905092915050565b60655481565b6000611e1d61304f565b73ffffffffffffffffffffffffffffffffffffffff16611e3b612812565b73ffffffffffffffffffffffffffffffffffffffff1614611e91576040517f08c379a0000000000000000000000000000000000000000000000000000000008152600401611e88906151e1565b60405180910390fd5b81606f8190555060019050919050565b6000611eab61304f565b73ffffffffffffffffffffffffffffffffffffffff16611ec9612812565b73ffffffffffffffffffffffffffffffffffffffff1614611f1f576040517f08c379a0000000000000000000000000000000000000000000000000000000008152600401611f16906151e1565b60405180910390fd5b81607a8190555060019050919050565b607a5481565b60796020528060005260406000206000915090505481565b6000611f5761304f565b73ffffffffffffffffffffffffffffffffffffffff16611f75612812565b73ffffffffffffffffffffffffffffffffffffffff1614611fcb576040517f08c379a0000000000000000000000000000000000000000000000000000000008152600401611fc2906151e1565b60405180910390fd5b81606960006101000a81548173ffffffffffffffffffffffffffffffffffffffff021916908373ffffffffffffffffffffffffffffffffffffffff16021790555060019050919050565b606760009054906101000a900473ffffffffffffffffffffffffffffffffffffffff1681565b600061204561304f565b73ffffffffffffffffffffffffffffffffffffffff16612063612812565b73ffffffffffffffffffffffffffffffffffffffff16146120b9576040517f08c379a00000000000000000000000000000000000000000000000000000000081526004016120b0906151e1565b60405180910390fd5b81606860006101000a81548173ffffffffffffffffffffffffffffffffffffffff021916908373ffffffffffffffffffffffffffffffffffffffff16021790555060019050919050565b607b5481565b607d60009054906101000a900460ff1681565b60786020528060005260406000206000915090505481565b60745481565b606860009054906101000a900473ffffffffffffffffffffffffffffffffffffffff1681565b607160009054906101000a900473ffffffffffffffffffffffffffffffffffffffff1681565b61218e61304f565b73ffffffffffffffffffffffffffffffffffffffff166121ac612812565b73ffffffffffffffffffffffffffffffffffffffff1614612202576040517f08c379a00000000000000000000000000000000000000000000000000000000081526004016121f9906151e1565b60405180910390fd5b61220c60006138fe565b565b607e805461221b9061577f565b80601f01602080910402602001604051908101604052809291908181526020018280546122479061577f565b80156122945780601f1061226957610100808354040283529160200191612294565b820191906000526020600020905b81548152906001019060200180831161227757829003601f168201915b505050505081565b600060019054906101000a900460ff16806122c2575060008054906101000a900460ff16155b612301576040517f08c379a00000000000000000000000000000000000000000000000000000000081526004016122f8906151c1565b60405180910390fd5b60008060019054906101000a900460ff161590508015612351576001600060016101000a81548160ff02191690831515021790555060016000806101000a81548160ff0219169083151502179055505b6123596139c4565b81606e60006101000a81548173ffffffffffffffffffffffffffffffffffffffff021916908373ffffffffffffffffffffffffffffffffffffffff16021790555082606660006101000a81548173ffffffffffffffffffffffffffffffffffffffff021916908373ffffffffffffffffffffffffffffffffffffffff16021790555085606a60006101000a81548173ffffffffffffffffffffffffffffffffffffffff021916908373ffffffffffffffffffffffffffffffffffffffff16021790555084606b60006101000a81548173ffffffffffffffffffffffffffffffffffffffff021916908373ffffffffffffffffffffffffffffffffffffffff16021790555087606860006101000a81548173ffffffffffffffffffffffffffffffffffffffff021916908373ffffffffffffffffffffffffffffffffffffffff16021790555086606960006101000a81548173ffffffffffffffffffffffffffffffffffffffff021916908373ffffffffffffffffffffffffffffffffffffffff16021790555088606c60006101000a81548173ffffffffffffffffffffffffffffffffffffffff021916908373ffffffffffffffffffffffffffffffffffffffff16021790555089606d60006101000a81548173ffffffffffffffffffffffffffffffffffffffff021916908373ffffffffffffffffffffffffffffffffffffffff1602179055508b607060006101000a81548173ffffffffffffffffffffffffffffffffffffffff021916908373ffffffffffffffffffffffffffffffffffffffff1602179055508a607160006101000a81548173ffffffffffffffffffffffffffffffffffffffff021916908373ffffffffffffffffffffffffffffffffffffffff16021790555083606760006101000a81548173ffffffffffffffffffffffffffffffffffffffff021916908373ffffffffffffffffffffffffffffffffffffffff160217905550612710607381905550612710607281905550600060748190555060646075819055506103e860768190555068056bc75e2d631000006077819055506127106079600080815260200190815260200160002081905550612328607960006001815260200190815260200160002081905550611f406079600060028152602001908152602001600020819055506103e8606f81905550611388607a819055506105dc607b819055506105dc607c819055506000607d60016101000a81548160ff0219169083151502179055506000607d60006101000a81548160ff021916908315150217905550801561272a5760008060016101000a81548160ff0219169083151502179055505b505050505050505050505050565b606660009054906101000a900473ffffffffffffffffffffffffffffffffffffffff1681565b606e60009054906101000a900473ffffffffffffffffffffffffffffffffffffffff1681565b600061278e61304f565b73ffffffffffffffffffffffffffffffffffffffff166127ac612812565b73ffffffffffffffffffffffffffffffffffffffff1614612802576040517f08c379a00000000000000000000000000000000000000000000000000000000081526004016127f9906151e1565b60405180910390fd5b81607b8190555060019050919050565b6000603360009054906101000a900473ffffffffffffffffffffffffffffffffffffffff16905090565b600061284661304f565b73ffffffffffffffffffffffffffffffffffffffff16612864612812565b73ffffffffffffffffffffffffffffffffffffffff16146128ba576040517f08c379a00000000000000000000000000000000000000000000000000000000081526004016128b1906151e1565b60405180910390fd5b8160778190555060019050919050565b606a60009054906101000a900473ffffffffffffffffffffffffffffffffffffffff1681565b606960009054906101000a900473ffffffffffffffffffffffffffffffffffffffff1681565b60775481565b600061292661304f565b73ffffffffffffffffffffffffffffffffffffffff16612944612812565b73ffffffffffffffffffffffffffffffffffffffff161461299a576040517f08c379a0000000000000000000000000000000000000000000000000000000008152600401612991906151e1565b60405180910390fd5b81607d60006101000a81548160ff02191690831515021790555060019050919050565b6000606660009054906101000a900473ffffffffffffffffffffffffffffffffffffffff1673ffffffffffffffffffffffffffffffffffffffff1663d39bbef06040518163ffffffff1660e01b8152600401612a1890615161565b60206040518083038186803b158015612a3057600080fd5b505afa158015612a44573d6000803e3d6000fd5b505050506040513d601f19601f82011682018060405250810190612a68919061476f565b905090565b6000612a7761304f565b73ffffffffffffffffffffffffffffffffffffffff16612a95612812565b73ffffffffffffffffffffffffffffffffffffffff1614612aeb576040517f08c379a0000000000000000000000000000000000000000000000000000000008152600401612ae2906151e1565b60405180910390fd5b81606b60006101000a81548173ffffffffffffffffffffffffffffffffffffffff021916908373ffffffffffffffffffffffffffffffffffffffff16021790555060019050919050565b6000612b3f61304f565b73ffffffffffffffffffffffffffffffffffffffff16612b5d612812565b73ffffffffffffffffffffffffffffffffffffffff1614612bb3576040517f08c379a0000000000000000000000000000000000000000000000000000000008152600401612baa906151e1565b60405180910390fd5b81607c8190555060019050919050565b60735481565b60765481565b6000612bd961304f565b73ffffffffffffffffffffffffffffffffffffffff16612bf7612812565b73ffffffffffffffffffffffffffffffffffffffff1614612c4d576040517f08c379a0000000000000000000000000000000000000000000000000000000008152600401612c44906151e1565b60405180910390fd5b82606660006101000a81548173ffffffffffffffffffffffffffffffffffffffff021916908373ffffffffffffffffffffffffffffffffffffffff16021790555081607e9080519060200190612ca492919061418f565b506001905092915050565b6000612cb961304f565b73ffffffffffffffffffffffffffffffffffffffff16612cd7612812565b73ffffffffffffffffffffffffffffffffffffffff1614612d2d576040517f08c379a0000000000000000000000000000000000000000000000000000000008152600401612d24906151e1565b60405180910390fd5b8160768190555060019050919050565b606d60009054906101000a900473ffffffffffffffffffffffffffffffffffffffff1681565b6000612d6d61304f565b73ffffffffffffffffffffffffffffffffffffffff16612d8b612812565b73ffffffffffffffffffffffffffffffffffffffff1614612de1576040517f08c379a0000000000000000000000000000000000000000000000000000000008152600401612dd8906151e1565b60405180910390fd5b81607d60016101000a81548160ff02191690831515021790555060019050919050565b6000612e0e61304f565b73ffffffffffffffffffffffffffffffffffffffff16612e2c612812565b73ffffffffffffffffffffffffffffffffffffffff1614612e82576040517f08c379a0000000000000000000000000000000000000000000000000000000008152600401612e79906151e1565b60405180910390fd5b81606a60006101000a81548173ffffffffffffffffffffffffffffffffffffffff021916908373ffffffffffffffffffffffffffffffffffffffff16021790555060019050919050565b60725481565b606b60009054906101000a900473ffffffffffffffffffffffffffffffffffffffff1681565b612f0061304f565b73ffffffffffffffffffffffffffffffffffffffff16612f1e612812565b73ffffffffffffffffffffffffffffffffffffffff1614612f74576040517f08c379a0000000000000000000000000000000000000000000000000000000008152600401612f6b906151e1565b60405180910390fd5b600073ffffffffffffffffffffffffffffffffffffffff168173ffffffffffffffffffffffffffffffffffffffff161415612fe4576040517f08c379a0000000000000000000000000000000000000000000000000000000008152600401612fdb90615121565b60405180910390fd5b612fed816138fe565b50565b607d60019054906101000a900460ff1681565b606c60009054906101000a900473ffffffffffffffffffffffffffffffffffffffff1681565b607060009054906101000a900473ffffffffffffffffffffffffffffffffffffffff1681565b600033905090565b6000818361306591906154e7565b905092915050565b6000818361307b91906154b6565b905092915050565b613106846323b872dd60e01b8585856040516024016130a493929190614ea0565b604051602081830303815290604052907bffffffffffffffffffffffffffffffffffffffffffffffffffffffff19166020820180517bffffffffffffffffffffffffffffffffffffffffffffffffffffffff8381831617835250505050613aad565b50505050565b6000818361311a9190615541565b905092915050565b6000808273ffffffffffffffffffffffffffffffffffffffff168473ffffffffffffffffffffffffffffffffffffffff161415613194576040517f08c379a000000000000000000000000000000000000000000000000000000000815260040161318b90615101565b60405180910390fd5b8273ffffffffffffffffffffffffffffffffffffffff168473ffffffffffffffffffffffffffffffffffffffff16106131ce5782846131d1565b83835b8092508193505050600073ffffffffffffffffffffffffffffffffffffffff168273ffffffffffffffffffffffffffffffffffffffff161415613249576040517f08c379a0000000000000000000000000000000000000000000000000000000008152600401613240906151a1565b60405180910390fd5b9250929050565b60008114806132e9575060008373ffffffffffffffffffffffffffffffffffffffff1663dd62ed3e30856040518363ffffffff1660e01b8152600401613297929190614e77565b60206040518083038186803b1580156132af57600080fd5b505afa1580156132c3573d6000803e3d6000fd5b505050506040513d601f19601f820116820180604052508101906132e7919061476f565b145b613328576040517f08c379a000000000000000000000000000000000000000000000000000000000815260040161331f90615261565b60405180910390fd5b6133a98363095ea7b360e01b8484604051602401613347929190614f55565b604051602081830303815290604052907bffffffffffffffffffffffffffffffffffffffffffffffffffffffff19166020820180517bffffffffffffffffffffffffffffffffffffffffffffffffffffffff8381831617835250505050613aad565b505050565b6000808573ffffffffffffffffffffffffffffffffffffffff16630902f1ac6040518163ffffffff1660e01b815260040160606040518083038186803b1580156133f757600080fd5b505afa15801561340b573d6000803e3d6000fd5b505050506040513d601f19601f8201168201806040525081019061342f91906146f7565b506dffffffffffffffffffffffffffff1691506dffffffffffffffffffffffffffff1691506000808773ffffffffffffffffffffffffffffffffffffffff16630dfe16816040518163ffffffff1660e01b815260040160206040518083038186803b15801561349d57600080fd5b505afa1580156134b1573d6000803e3d6000fd5b505050506040513d601f19601f820116820180604052508101906134d5919061447f565b73ffffffffffffffffffffffffffffffffffffffff16607060009054906101000a900473ffffffffffffffffffffffffffffffffffffffff1673ffffffffffffffffffffffffffffffffffffffff1614613530578284613533565b83835b915091506000806135476000888686613b74565b915091506000821115613779576000600267ffffffffffffffff811115613597577f4e487b7100000000000000000000000000000000000000000000000000000000600052604160045260246000fd5b6040519080825280602002602001820160405280156135c55781602001602082028036833780820191505090505b509050816135d45789896135d7565b888a5b82600081518110613611577f4e487b7100000000000000000000000000000000000000000000000000000000600052603260045260246000fd5b6020026020010183600181518110613652577f4e487b7100000000000000000000000000000000000000000000000000000000600052603260045260246000fd5b602002602001018273ffffffffffffffffffffffffffffffffffffffff1673ffffffffffffffffffffffffffffffffffffffff168152508273ffffffffffffffffffffffffffffffffffffffff1673ffffffffffffffffffffffffffffffffffffffff168152505050606c60009054906101000a900473ffffffffffffffffffffffffffffffffffffffff1673ffffffffffffffffffffffffffffffffffffffff166338ed17398460008430426040518663ffffffff1660e01b815260040161371f95949392919061529c565b600060405180830381600087803b15801561373957600080fd5b505af115801561374d573d6000803e3d6000fd5b505050506040513d6000823e3d601f19601f8201168201806040525081019061377691906144e4565b50505b50505050505050505050565b6138068363a9059cbb60e01b84846040516024016137a4929190614f55565b604051602081830303815290604052907bffffffffffffffffffffffffffffffffffffffffffffffffffffffff19166020820180517bffffffffffffffffffffffffffffffffffffffffffffffffffffffff8381831617835250505050613aad565b505050565b6000806138236103e58661305790919063ffffffff16565b9050600061383a848361305790919063ffffffff16565b90506000613865836138576103e88961305790919063ffffffff16565b613bd590919063ffffffff16565b9050808261387391906154b6565b93505050509392505050565b6000600160745414156138bb5760765460725410156138b6576138af607554607254613bd590919063ffffffff16565b6072819055505b6138f7565b600260745414156138f55760765460725411156138f0576138e960755460725461310c90919063ffffffff16565b6072819055505b6138f6565b5b5b6001905090565b6000603360009054906101000a900473ffffffffffffffffffffffffffffffffffffffff16905081603360006101000a81548173ffffffffffffffffffffffffffffffffffffffff021916908373ffffffffffffffffffffffffffffffffffffffff1602179055508173ffffffffffffffffffffffffffffffffffffffff168173ffffffffffffffffffffffffffffffffffffffff167f8be0079c531659141344cd1fd0a4f28419497f9722a3daafe3b4186f6b6457e060405160405180910390a35050565b600060019054906101000a900460ff16806139ea575060008054906101000a900460ff16155b613a29576040517f08c379a0000000000000000000000000000000000000000000000000000000008152600401613a20906151c1565b60405180910390fd5b60008060019054906101000a900460ff161590508015613a79576001600060016101000a81548160ff02191690831515021790555060016000806101000a81548160ff0219169083151502179055505b613a81613beb565b613a89613cc4565b8015613aaa5760008060016101000a81548160ff0219169083151502179055505b50565b6000613b0f826040518060400160405280602081526020017f5361666545524332303a206c6f772d6c6576656c2063616c6c206661696c65648152508573ffffffffffffffffffffffffffffffffffffffff16613dad9092919063ffffffff16565b9050600081511115613b6f5780806020019051810190613b2f919061454e565b613b6e576040517f08c379a0000000000000000000000000000000000000000000000000000000008152600401613b6590615241565b60405180910390fd5b5b505050565b600080613b8a848661305790919063ffffffff16565b613b9d848861305790919063ffffffff16565b10613bb957613bae86868686613dc5565b915060009050613bcc565b613bc585878587613dc5565b9150600190505b94509492505050565b60008183613be39190615460565b905092915050565b600060019054906101000a900460ff1680613c11575060008054906101000a900460ff16155b613c50576040517f08c379a0000000000000000000000000000000000000000000000000000000008152600401613c47906151c1565b60405180910390fd5b60008060019054906101000a900460ff161590508015613ca0576001600060016101000a81548160ff02191690831515021790555060016000806101000a81548160ff0219169083151502179055505b8015613cc15760008060016101000a81548160ff0219169083151502179055505b50565b600060019054906101000a900460ff1680613cea575060008054906101000a900460ff16155b613d29576040517f08c379a0000000000000000000000000000000000000000000000000000000008152600401613d20906151c1565b60405180910390fd5b60008060019054906101000a900460ff161590508015613d79576001600060016101000a81548160ff02191690831515021790555060016000806101000a81548160ff0219169083151502179055505b613d89613d8461304f565b6138fe565b8015613daa5760008060016101000a81548160ff0219169083151502179055505b50565b6060613dbc8484600085613f87565b90509392505050565b6000613dda838561305790919063ffffffff16565b613ded838761305790919063ffffffff16565b1015613e2e576040517f08c379a0000000000000000000000000000000000000000000000000000000008152600401613e2590615201565b60405180910390fd5b60006103e590506000613e4c856107cd61305790919063ffffffff16565b90506000613e87613e66878961305790919063ffffffff16565b613e79878b61305790919063ffffffff16565b61310c90919063ffffffff16565b90506000613ed687613ec8613ea5898c613bd590919063ffffffff16565b613eba6103e88761305790919063ffffffff16565b61306d90919063ffffffff16565b61305790919063ffffffff16565b90506000613f006004613ef2848861305790919063ffffffff16565b61305790919063ffffffff16565b90506000613f31613f2c83613f1e888961305790919063ffffffff16565b613bd590919063ffffffff16565b61409b565b90506000613f48868361310c90919063ffffffff16565b90506000613f6060028961305790919063ffffffff16565b9050613f75818361306d90919063ffffffff16565b98505050505050505050949350505050565b606082471015613fcc576040517f08c379a0000000000000000000000000000000000000000000000000000000008152600401613fc390615181565b60405180910390fd5b613fd585614115565b614014576040517f08c379a000000000000000000000000000000000000000000000000000000000815260040161400b90615221565b60405180910390fd5b6000808673ffffffffffffffffffffffffffffffffffffffff16858760405161403d9190614e45565b60006040518083038185875af1925050503d806000811461407a576040519150601f19603f3d011682016040523d82523d6000602084013e61407f565b606091505b509150915061408f828286614128565b92505050949350505050565b6000600382111561410257819050600060016002846140ba91906154b6565b6140c49190615460565b90505b818110156140fc5780915060028182856140e191906154b6565b6140eb9190615460565b6140f591906154b6565b90506140c7565b50614110565b6000821461410f57600190505b5b919050565b600080823b905060008111915050919050565b6060831561413857829050614188565b60008351111561414b5782518084602001fd5b816040517f08c379a000000000000000000000000000000000000000000000000000000000815260040161417f91906150df565b60405180910390fd5b9392505050565b82805461419b9061577f565b90600052602060002090601f0160209004810192826141bd5760008555614204565b82601f106141d657805160ff1916838001178555614204565b82800160010185558215614204579182015b828111156142035782518255916020019190600101906141e8565b5b5090506142119190614215565b5090565b5b8082111561422e576000816000905550600101614216565b5090565b600061424561424084615373565b615342565b9050808382526020820190508285602086028201111561426457600080fd5b60005b85811015614294578161427a888261442c565b845260208401935060208301925050600181019050614267565b5050509392505050565b60006142b16142ac8461539f565b615342565b9050828152602081018484840111156142c957600080fd5b6142d484828561573d565b509392505050565b6000813590506142eb816158c7565b92915050565b600081519050614300816158c7565b92915050565b600082601f83011261431757600080fd5b8151614327848260208601614232565b91505092915050565b60008135905061433f816158de565b92915050565b600081519050614354816158de565b92915050565b600082601f83011261436b57600080fd5b813561437b84826020860161429e565b91505092915050565b600081359050614393816158f5565b92915050565b6000813590506143a88161590c565b92915050565b6000813590506143bd81615923565b92915050565b6000813590506143d28161593a565b92915050565b6000813590506143e781615951565b92915050565b6000813590506143fc81615968565b92915050565b6000815190506144118161597f565b92915050565b60008135905061442681615996565b92915050565b60008151905061443b81615996565b92915050565b600081519050614450816159ad565b92915050565b60006020828403121561446857600080fd5b6000614476848285016142dc565b91505092915050565b60006020828403121561449157600080fd5b600061449f848285016142f1565b91505092915050565b600080604083850312156144bb57600080fd5b60006144c9858286016142dc565b92505060206144da85828601614417565b9150509250929050565b6000602082840312156144f657600080fd5b600082015167ffffffffffffffff81111561451057600080fd5b61451c84828501614306565b91505092915050565b60006020828403121561453757600080fd5b600061454584828501614330565b91505092915050565b60006020828403121561456057600080fd5b600061456e84828501614345565b91505092915050565b6000806040838503121561458a57600080fd5b600061459885828601614345565b92505060206145a98582860161442c565b9150509250929050565b60008060008060008060008060008060006101608c8e0312156145d557600080fd5b60006145e38e828f016143ae565b9b505060206145f48e828f01614399565b9a505060406146058e828f016143d8565b99505060606146168e828f016143ed565b98505060806146278e828f016142dc565b97505060a06146388e828f016142dc565b96505060c06146498e828f016142dc565b95505060e061465a8e828f016142dc565b94505061010061466c8e828f016142dc565b93505061012061467e8e828f016143c3565b9250506101406146908e828f01614384565b9150509295989b509295989b9093969950565b600080604083850312156146b657600080fd5b60006146c4858286016143c3565b925050602083013567ffffffffffffffff8111156146e157600080fd5b6146ed8582860161435a565b9150509250929050565b60008060006060848603121561470c57600080fd5b600061471a86828701614402565b935050602061472b86828701614402565b925050604061473c86828701614441565b9150509250925092565b60006020828403121561475857600080fd5b600061476684828501614417565b91505092915050565b60006020828403121561478157600080fd5b600061478f8482850161442c565b91505092915050565b600080604083850312156147ab57600080fd5b60006147b985828601614417565b92505060206147ca85828601614417565b9150509250929050565b6000806000606084860312156147e957600080fd5b60006147f78682870161442c565b93505060206148088682870161442c565b92505060406148198682870161442c565b9150509250925092565b600061482f838361483b565b60208301905092915050565b61484481615575565b82525050565b61485381615575565b82525050565b6000614864826153f4565b61486e8185615422565b9350614879836153cf565b8060005b838110156148aa5781516148918882614823565b975061489c83615415565b92505060018101905061487d565b5085935050505092915050565b6148c081615587565b82525050565b60006148d1826153ff565b6148db8185615433565b93506148eb81856020860161574c565b6148f4816158b6565b840191505092915050565b600061490a826153ff565b6149148185615444565b935061492481856020860161574c565b80840191505092915050565b6000815461493d8161577f565b6149478186615433565b945060018216600081146149625760018114614974576149a7565b60ff19831686526020860193506149a7565b61497d856153df565b60005b8381101561499f57815481890152600182019150602081019050614980565b808801955050505b50505092915050565b6149b981615653565b82525050565b6149c881615677565b82525050565b6149d78161569b565b82525050565b6149e6816156bf565b82525050565b6149f5816156e3565b82525050565b614a0481615707565b82525050565b614a138161572b565b82525050565b6000614a248261540a565b614a2e818561544f565b9350614a3e81856020860161574c565b614a47816158b6565b840191505092915050565b6000614a5f60238361544f565b91507f556e697377617056324c6962726172793a206964656e746963616c5f6164647260008301527f65737300000000000000000000000000000000000000000000000000000000006020830152604082019050919050565b6000614ac560268361544f565b91507f4f776e61626c653a206e6577206f776e657220697320746865207a65726f206160008301527f64647265737300000000000000000000000000000000000000000000000000006020830152604082019050919050565b6000614b2b60088361544f565b91507f4f6e6c7920454f410000000000000000000000000000000000000000000000006000830152602082019050919050565b6000614b6b600283615433565b91507f30780000000000000000000000000000000000000000000000000000000000006000830152602082019050919050565b6000614bab60268361544f565b91507f416464726573733a20696e73756666696369656e742062616c616e636520666f60008301527f722063616c6c00000000000000000000000000000000000000000000000000006020830152604082019050919050565b6000614c11601e8361544f565b91507f556e697377617056324c6962726172793a207a65726f5f6164647265737300006000830152602082019050919050565b6000614c51602e8361544f565b91507f496e697469616c697a61626c653a20636f6e747261637420697320616c72656160008301527f647920696e697469616c697a65640000000000000000000000000000000000006020830152604082019050919050565b6000614cb760208361544f565b91507f4f776e61626c653a2063616c6c6572206973206e6f7420746865206f776e65726000830152602082019050919050565b6000614cf760088361544f565b91507f52657665727365640000000000000000000000000000000000000000000000006000830152602082019050919050565b6000614d37601d8361544f565b91507f416464726573733a2063616c6c20746f206e6f6e2d636f6e74726163740000006000830152602082019050919050565b6000614d77602a8361544f565b91507f5361666545524332303a204552433230206f7065726174696f6e20646964206e60008301527f6f742073756363656564000000000000000000000000000000000000000000006020830152604082019050919050565b6000614ddd60368361544f565b91507f5361666545524332303a20617070726f76652066726f6d206e6f6e2d7a65726f60008301527f20746f206e6f6e2d7a65726f20616c6c6f77616e6365000000000000000000006020830152604082019050919050565b614e3f81615639565b82525050565b6000614e5182846148ff565b915081905092915050565b6000602082019050614e71600083018461484a565b92915050565b6000604082019050614e8c600083018561484a565b614e99602083018461484a565b9392505050565b6000606082019050614eb5600083018661484a565b614ec2602083018561484a565b614ecf6040830184614e36565b949350505050565b600061010082019050614eed600083018b61484a565b614efa602083018a61484a565b614f076040830189614e36565b614f146060830188614e36565b614f216080830187614a0a565b614f2e60a0830186614a0a565b614f3b60c083018561484a565b614f4860e0830184614e36565b9998505050505050505050565b6000604082019050614f6a600083018561484a565b614f776020830184614e36565b9392505050565b6000606082019050614f93600083018661484a565b614fa06020830185614e36565b614fad6040830184614e36565b949350505050565b6000602082019050614fca60008301846148b7565b92915050565b6000604082019050614fe560008301856148b7565b614ff26020830184614e36565b9392505050565b6000602082019050818103600083015261501381846148c6565b905092915050565b600060208201905081810360008301526150358184614930565b905092915050565b600060208201905061505260008301846149b0565b92915050565b600060208201905061506d60008301846149bf565b92915050565b600060208201905061508860008301846149ce565b92915050565b60006020820190506150a360008301846149dd565b92915050565b60006020820190506150be60008301846149ec565b92915050565b60006020820190506150d960008301846149fb565b92915050565b600060208201905081810360008301526150f98184614a19565b905092915050565b6000602082019050818103600083015261511a81614a52565b9050919050565b6000602082019050818103600083015261513a81614ab8565b9050919050565b6000602082019050818103600083015261515a81614b1e565b9050919050565b6000602082019050818103600083015261517a81614b5e565b9050919050565b6000602082019050818103600083015261519a81614b9e565b9050919050565b600060208201905081810360008301526151ba81614c04565b9050919050565b600060208201905081810360008301526151da81614c44565b9050919050565b600060208201905081810360008301526151fa81614caa565b9050919050565b6000602082019050818103600083015261521a81614cea565b9050919050565b6000602082019050818103600083015261523a81614d2a565b9050919050565b6000602082019050818103600083015261525a81614d6a565b9050919050565b6000602082019050818103600083015261527a81614dd0565b9050919050565b60006020820190506152966000830184614e36565b92915050565b600060a0820190506152b16000830188614e36565b6152be6020830187614a0a565b81810360408301526152d08186614859565b90506152df606083018561484a565b6152ec6080830184614e36565b9695505050505050565b600060808201905061530b6000830187614e36565b6153186020830186614e36565b615325604083018561484a565b818103606083015261533781846148c6565b905095945050505050565b6000604051905081810181811067ffffffffffffffff8211171561536957615368615887565b5b8060405250919050565b600067ffffffffffffffff82111561538e5761538d615887565b5b602082029050602081019050919050565b600067ffffffffffffffff8211156153ba576153b9615887565b5b601f19601f8301169050602081019050919050565b6000819050602082019050919050565b60008190508160005260206000209050919050565b600081519050919050565b600081519050919050565b600081519050919050565b6000602082019050919050565b600082825260208201905092915050565b600082825260208201905092915050565b600081905092915050565b600082825260208201905092915050565b600061546b82615639565b915061547683615639565b9250827fffffffffffffffffffffffffffffffffffffffffffffffffffffffffffffffff038211156154ab576154aa6157fa565b5b828201905092915050565b60006154c182615639565b91506154cc83615639565b9250826154dc576154db615829565b5b828204905092915050565b60006154f282615639565b91506154fd83615639565b9250817fffffffffffffffffffffffffffffffffffffffffffffffffffffffffffffffff0483118215151615615536576155356157fa565b5b828202905092915050565b600061554c82615639565b915061555783615639565b92508282101561556a576155696157fa565b5b828203905092915050565b600061558082615619565b9050919050565b60008115159050919050565b600061559e82615575565b9050919050565b60006155b082615575565b9050919050565b60006155c282615575565b9050919050565b60006155d482615575565b9050919050565b60006155e682615575565b9050919050565b60006155f882615575565b9050919050565b60006dffffffffffffffffffffffffffff82169050919050565b600073ffffffffffffffffffffffffffffffffffffffff82169050919050565b6000819050919050565b600063ffffffff82169050919050565b600061565e82615665565b9050919050565b600061567082615619565b9050919050565b600061568282615689565b9050919050565b600061569482615619565b9050919050565b60006156a6826156ad565b9050919050565b60006156b882615619565b9050919050565b60006156ca826156d1565b9050919050565b60006156dc82615619565b9050919050565b60006156ee826156f5565b9050919050565b600061570082615619565b9050919050565b600061571282615719565b9050919050565b600061572482615619565b9050919050565b600061573682615639565b9050919050565b82818337600083830152505050565b60005b8381101561576a57808201518184015260208101905061574f565b83811115615779576000848401525b50505050565b6000600282049050600182168061579757607f821691505b602082108114156157ab576157aa615858565b5b50919050565b60006157bc82615639565b91507fffffffffffffffffffffffffffffffffffffffffffffffffffffffffffffffff8214156157ef576157ee6157fa565b5b600182019050919050565b7f4e487b7100000000000000000000000000000000000000000000000000000000600052601160045260246000fd5b7f4e487b7100000000000000000000000000000000000000000000000000000000600052601260045260246000fd5b7f4e487b7100000000000000000000000000000000000000000000000000000000600052602260045260246000fd5b7f4e487b7100000000000000000000000000000000000000000000000000000000600052604160045260246000fd5b6000601f19601f8301169050919050565b6158d081615575565b81146158db57600080fd5b50565b6158e781615587565b81146158f257600080fd5b50565b6158fe81615593565b811461590957600080fd5b50565b615915816155a5565b811461592057600080fd5b50565b61592c816155b7565b811461593757600080fd5b50565b615943816155c9565b811461594e57600080fd5b50565b61595a816155db565b811461596557600080fd5b50565b615971816155ed565b811461597c57600080fd5b50565b615988816155ff565b811461599357600080fd5b50565b61599f81615639565b81146159aa57600080fd5b50565b6159b681615643565b81146159c157600080fd5b5056fea26469706673582212206b7c95c6e4076226731e1081e879dc072f1abfa93b4776ea4e21169aa7f609c964736f6c63430008000033",
			"opcodes": "PUSH1 0x80 PUSH1 0x40 MSTORE CALLVALUE DUP1 ISZERO PUSH2 0x10 JUMPI PUSH1 0x0 DUP1 REVERT JUMPDEST POP PUSH2 0x59FA DUP1 PUSH3 0x21 PUSH1 0x0 CODECOPY PUSH1 0x0 RETURN INVALID PUSH1 0x80 PUSH1 0x40 MSTORE CALLVALUE DUP1 ISZERO PUSH2 0x10 JUMPI PUSH1 0x0 DUP1 REVERT JUMPDEST POP PUSH1 0x4 CALLDATASIZE LT PUSH2 0x30C JUMPI PUSH1 0x0 CALLDATALOAD PUSH1 0xE0 SHR DUP1 PUSH4 0x76902B83 GT PUSH2 0x19D JUMPI DUP1 PUSH4 0xAAF5EB68 GT PUSH2 0xE9 JUMPI DUP1 PUSH4 0xD477F05F GT PUSH2 0xA2 JUMPI DUP1 PUSH4 0xF2FDE38B GT PUSH2 0x7C JUMPI DUP1 PUSH4 0xF2FDE38B EQ PUSH2 0xA16 JUMPI DUP1 PUSH4 0xF49C8B87 EQ PUSH2 0xA32 JUMPI DUP1 PUSH4 0xF6D7EADE EQ PUSH2 0xA50 JUMPI DUP1 PUSH4 0xFFCFF32C EQ PUSH2 0xA6E JUMPI PUSH2 0x30C JUMP JUMPDEST DUP1 PUSH4 0xD477F05F EQ PUSH2 0x9AA JUMPI DUP1 PUSH4 0xD5C43159 EQ PUSH2 0x9DA JUMPI DUP1 PUSH4 0xEC1F1F69 EQ PUSH2 0x9F8 JUMPI PUSH2 0x30C JUMP JUMPDEST DUP1 PUSH4 0xAAF5EB68 EQ PUSH2 0x8C0 JUMPI DUP1 PUSH4 0xAF4086F6 EQ PUSH2 0x8DE JUMPI DUP1 PUSH4 0xB13B0847 EQ PUSH2 0x8FC JUMPI DUP1 PUSH4 0xB3789533 EQ PUSH2 0x92C JUMPI DUP1 PUSH4 0xC83DD231 EQ PUSH2 0x95C JUMPI DUP1 PUSH4 0xC85CD712 EQ PUSH2 0x97A JUMPI PUSH2 0x30C JUMP JUMPDEST DUP1 PUSH4 0x91CCA3DB GT PUSH2 0x156 JUMPI DUP1 PUSH4 0xA235C42A GT PUSH2 0x130 JUMPI DUP1 PUSH4 0xA235C42A EQ PUSH2 0x812 JUMPI DUP1 PUSH4 0xA265E899 EQ PUSH2 0x842 JUMPI DUP1 PUSH4 0xA36A7526 EQ PUSH2 0x860 JUMPI DUP1 PUSH4 0xA9787FDC EQ PUSH2 0x890 JUMPI PUSH2 0x30C JUMP JUMPDEST DUP1 PUSH4 0x91CCA3DB EQ PUSH2 0x7B8 JUMPI DUP1 PUSH4 0x98362440 EQ PUSH2 0x7D6 JUMPI DUP1 PUSH4 0xA035B1FE EQ PUSH2 0x7F4 JUMPI PUSH2 0x30C JUMP JUMPDEST DUP1 PUSH4 0x76902B83 EQ PUSH2 0x6E2 JUMPI DUP1 PUSH4 0x7DC0D1D0 EQ PUSH2 0x6FE JUMPI DUP1 PUSH4 0x89A30271 EQ PUSH2 0x71C JUMPI DUP1 PUSH4 0x8AF9E5CD EQ PUSH2 0x73A JUMPI DUP1 PUSH4 0x8DA5CB5B EQ PUSH2 0x76A JUMPI DUP1 PUSH4 0x91B7F5ED EQ PUSH2 0x788 JUMPI PUSH2 0x30C JUMP JUMPDEST DUP1 PUSH4 0x47E1ED88 GT PUSH2 0x25C JUMPI DUP1 PUSH4 0x6043903D GT PUSH2 0x215 JUMPI DUP1 PUSH4 0x6F0A5B1B GT PUSH2 0x1EF JUMPI DUP1 PUSH4 0x6F0A5B1B EQ PUSH2 0x67E JUMPI DUP1 PUSH4 0x71261BF3 EQ PUSH2 0x69C JUMPI DUP1 PUSH4 0x715018A6 EQ PUSH2 0x6BA JUMPI DUP1 PUSH4 0x74645FF3 EQ PUSH2 0x6C4 JUMPI PUSH2 0x30C JUMP JUMPDEST DUP1 PUSH4 0x6043903D EQ PUSH2 0x612 JUMPI DUP1 PUSH4 0x6263FC67 EQ PUSH2 0x630 JUMPI DUP1 PUSH4 0x645539ED EQ PUSH2 0x660 JUMPI PUSH2 0x30C JUMP JUMPDEST DUP1 PUSH4 0x47E1ED88 EQ PUSH2 0x528 JUMPI DUP1 PUSH4 0x498CB7F4 EQ PUSH2 0x546 JUMPI DUP1 PUSH4 0x49BDAFC8 EQ PUSH2 0x576 JUMPI DUP1 PUSH4 0x4A9C8366 EQ PUSH2 0x5A6 JUMPI DUP1 PUSH4 0x56930714 EQ PUSH2 0x5C4 JUMPI DUP1 PUSH4 0x60398848 EQ PUSH2 0x5F4 JUMPI PUSH2 0x30C JUMP JUMPDEST DUP1 PUSH4 0x33CDACD9 GT PUSH2 0x2C9 JUMPI DUP1 PUSH4 0x3B2D3E96 GT PUSH2 0x2A3 JUMPI DUP1 PUSH4 0x3B2D3E96 EQ PUSH2 0x47A JUMPI DUP1 PUSH4 0x3BA0B9A9 EQ PUSH2 0x4AA JUMPI DUP1 PUSH4 0x40E90A7E EQ PUSH2 0x4C8 JUMPI DUP1 PUSH4 0x40EE4D0C EQ PUSH2 0x4F8 JUMPI PUSH2 0x30C JUMP JUMPDEST DUP1 PUSH4 0x33CDACD9 EQ PUSH2 0x40E JUMPI DUP1 PUSH4 0x36EBAFE9 EQ PUSH2 0x42C JUMPI DUP1 PUSH4 0x38207B16 EQ PUSH2 0x44A JUMPI PUSH2 0x30C JUMP JUMPDEST DUP1 PUSH4 0x2CE728F EQ PUSH2 0x311 JUMPI DUP1 PUSH4 0xA0642C0 EQ PUSH2 0x330 JUMPI DUP1 PUSH4 0x1450ACD2 EQ PUSH2 0x34E JUMPI DUP1 PUSH4 0x17DB7B70 EQ PUSH2 0x37E JUMPI DUP1 PUSH4 0x1891381D EQ PUSH2 0x3AE JUMPI DUP1 PUSH4 0x243ADBDD EQ PUSH2 0x3DE JUMPI JUMPDEST PUSH1 0x0 DUP1 REVERT JUMPDEST PUSH2 0x319 PUSH2 0xA8C JUMP JUMPDEST PUSH1 0x40 MLOAD PUSH2 0x327 SWAP3 SWAP2 SWAP1 PUSH2 0x4FD0 JUMP JUMPDEST PUSH1 0x40 MLOAD DUP1 SWAP2 SUB SWAP1 RETURN JUMPDEST PUSH2 0x338 PUSH2 0xB60 JUMP JUMPDEST PUSH1 0x40 MLOAD PUSH2 0x345 SWAP2 SWAP1 PUSH2 0x5281 JUMP JUMPDEST PUSH1 0x40 MLOAD DUP1 SWAP2 SUB SWAP1 RETURN JUMPDEST PUSH2 0x368 PUSH1 0x4 DUP1 CALLDATASIZE SUB DUP2 ADD SWAP1 PUSH2 0x363 SWAP2 SWAP1 PUSH2 0x4746 JUMP JUMPDEST PUSH2 0xB66 JUMP JUMPDEST PUSH1 0x40 MLOAD PUSH2 0x375 SWAP2 SWAP1 PUSH2 0x4FB5 JUMP JUMPDEST PUSH1 0x40 MLOAD DUP1 SWAP2 SUB SWAP1 RETURN JUMPDEST PUSH2 0x398 PUSH1 0x4 DUP1 CALLDATASIZE SUB DUP2 ADD SWAP1 PUSH2 0x393 SWAP2 SWAP1 PUSH2 0x4798 JUMP JUMPDEST PUSH2 0xBF4 JUMP JUMPDEST PUSH1 0x40 MLOAD PUSH2 0x3A5 SWAP2 SWAP1 PUSH2 0x4FB5 JUMP JUMPDEST PUSH1 0x40 MLOAD DUP1 SWAP2 SUB SWAP1 RETURN JUMPDEST PUSH2 0x3C8 PUSH1 0x4 DUP1 CALLDATASIZE SUB DUP2 ADD SWAP1 PUSH2 0x3C3 SWAP2 SWAP1 PUSH2 0x4746 JUMP JUMPDEST PUSH2 0xC94 JUMP JUMPDEST PUSH1 0x40 MLOAD PUSH2 0x3D5 SWAP2 SWAP1 PUSH2 0x4FB5 JUMP JUMPDEST PUSH1 0x40 MLOAD DUP1 SWAP2 SUB SWAP1 RETURN JUMPDEST PUSH2 0x3F8 PUSH1 0x4 DUP1 CALLDATASIZE SUB DUP2 ADD SWAP1 PUSH2 0x3F3 SWAP2 SWAP1 PUSH2 0x4746 JUMP JUMPDEST PUSH2 0xD22 JUMP JUMPDEST PUSH1 0x40 MLOAD PUSH2 0x405 SWAP2 SWAP1 PUSH2 0x4FB5 JUMP JUMPDEST PUSH1 0x40 MLOAD DUP1 SWAP2 SUB SWAP1 RETURN JUMPDEST PUSH2 0x416 PUSH2 0x1CA7 JUMP JUMPDEST PUSH1 0x40 MLOAD PUSH2 0x423 SWAP2 SWAP1 PUSH2 0x5281 JUMP JUMPDEST PUSH1 0x40 MLOAD DUP1 SWAP2 SUB SWAP1 RETURN JUMPDEST PUSH2 0x434 PUSH2 0x1CAD JUMP JUMPDEST PUSH1 0x40 MLOAD PUSH2 0x441 SWAP2 SWAP1 PUSH2 0x5281 JUMP JUMPDEST PUSH1 0x40 MLOAD DUP1 SWAP2 SUB SWAP1 RETURN JUMPDEST PUSH2 0x464 PUSH1 0x4 DUP1 CALLDATASIZE SUB DUP2 ADD SWAP1 PUSH2 0x45F SWAP2 SWAP1 PUSH2 0x4746 JUMP JUMPDEST PUSH2 0x1CB3 JUMP JUMPDEST PUSH1 0x40 MLOAD PUSH2 0x471 SWAP2 SWAP1 PUSH2 0x4FB5 JUMP JUMPDEST PUSH1 0x40 MLOAD DUP1 SWAP2 SUB SWAP1 RETURN JUMPDEST PUSH2 0x494 PUSH1 0x4 DUP1 CALLDATASIZE SUB DUP2 ADD SWAP1 PUSH2 0x48F SWAP2 SWAP1 PUSH2 0x44A8 JUMP JUMPDEST PUSH2 0x1D41 JUMP JUMPDEST PUSH1 0x40 MLOAD PUSH2 0x4A1 SWAP2 SWAP1 PUSH2 0x4FB5 JUMP JUMPDEST PUSH1 0x40 MLOAD DUP1 SWAP2 SUB SWAP1 RETURN JUMPDEST PUSH2 0x4B2 PUSH2 0x1E0D JUMP JUMPDEST PUSH1 0x40 MLOAD PUSH2 0x4BF SWAP2 SWAP1 PUSH2 0x5281 JUMP JUMPDEST PUSH1 0x40 MLOAD DUP1 SWAP2 SUB SWAP1 RETURN JUMPDEST PUSH2 0x4E2 PUSH1 0x4 DUP1 CALLDATASIZE SUB DUP2 ADD SWAP1 PUSH2 0x4DD SWAP2 SWAP1 PUSH2 0x4746 JUMP JUMPDEST PUSH2 0x1E13 JUMP JUMPDEST PUSH1 0x40 MLOAD PUSH2 0x4EF SWAP2 SWAP1 PUSH2 0x4FB5 JUMP JUMPDEST PUSH1 0x40 MLOAD DUP1 SWAP2 SUB SWAP1 RETURN JUMPDEST PUSH2 0x512 PUSH1 0x4 DUP1 CALLDATASIZE SUB DUP2 ADD SWAP1 PUSH2 0x50D SWAP2 SWAP1 PUSH2 0x4746 JUMP JUMPDEST PUSH2 0x1EA1 JUMP JUMPDEST PUSH1 0x40 MLOAD PUSH2 0x51F SWAP2 SWAP1 PUSH2 0x4FB5 JUMP JUMPDEST PUSH1 0x40 MLOAD DUP1 SWAP2 SUB SWAP1 RETURN JUMPDEST PUSH2 0x530 PUSH2 0x1F2F JUMP JUMPDEST PUSH1 0x40 MLOAD PUSH2 0x53D SWAP2 SWAP1 PUSH2 0x5281 JUMP JUMPDEST PUSH1 0x40 MLOAD DUP1 SWAP2 SUB SWAP1 RETURN JUMPDEST PUSH2 0x560 PUSH1 0x4 DUP1 CALLDATASIZE SUB DUP2 ADD SWAP1 PUSH2 0x55B SWAP2 SWAP1 PUSH2 0x4746 JUMP JUMPDEST PUSH2 0x1F35 JUMP JUMPDEST PUSH1 0x40 MLOAD PUSH2 0x56D SWAP2 SWAP1 PUSH2 0x5281 JUMP JUMPDEST PUSH1 0x40 MLOAD DUP1 SWAP2 SUB SWAP1 RETURN JUMPDEST PUSH2 0x590 PUSH1 0x4 DUP1 CALLDATASIZE SUB DUP2 ADD SWAP1 PUSH2 0x58B SWAP2 SWAP1 PUSH2 0x4456 JUMP JUMPDEST PUSH2 0x1F4D JUMP JUMPDEST PUSH1 0x40 MLOAD PUSH2 0x59D SWAP2 SWAP1 PUSH2 0x4FB5 JUMP JUMPDEST PUSH1 0x40 MLOAD DUP1 SWAP2 SUB SWAP1 RETURN JUMPDEST PUSH2 0x5AE PUSH2 0x2015 JUMP JUMPDEST PUSH1 0x40 MLOAD PUSH2 0x5BB SWAP2 SWAP1 PUSH2 0x4E5C JUMP JUMPDEST PUSH1 0x40 MLOAD DUP1 SWAP2 SUB SWAP1 RETURN JUMPDEST PUSH2 0x5DE PUSH1 0x4 DUP1 CALLDATASIZE SUB DUP2 ADD SWAP1 PUSH2 0x5D9 SWAP2 SWAP1 PUSH2 0x4456 JUMP JUMPDEST PUSH2 0x203B JUMP JUMPDEST PUSH1 0x40 MLOAD PUSH2 0x5EB SWAP2 SWAP1 PUSH2 0x4FB5 JUMP JUMPDEST PUSH1 0x40 MLOAD DUP1 SWAP2 SUB SWAP1 RETURN JUMPDEST PUSH2 0x5FC PUSH2 0x2103 JUMP JUMPDEST PUSH1 0x40 MLOAD PUSH2 0x609 SWAP2 SWAP1 PUSH2 0x5281 JUMP JUMPDEST PUSH1 0x40 MLOAD DUP1 SWAP2 SUB SWAP1 RETURN JUMPDEST PUSH2 0x61A PUSH2 0x2109 JUMP JUMPDEST PUSH1 0x40 MLOAD PUSH2 0x627 SWAP2 SWAP1 PUSH2 0x4FB5 JUMP JUMPDEST PUSH1 0x40 MLOAD DUP1 SWAP2 SUB SWAP1 RETURN JUMPDEST PUSH2 0x64A PUSH1 0x4 DUP1 CALLDATASIZE SUB DUP2 ADD SWAP1 PUSH2 0x645 SWAP2 SWAP1 PUSH2 0x4456 JUMP JUMPDEST PUSH2 0x211C JUMP JUMPDEST PUSH1 0x40 MLOAD PUSH2 0x657 SWAP2 SWAP1 PUSH2 0x5281 JUMP JUMPDEST PUSH1 0x40 MLOAD DUP1 SWAP2 SUB SWAP1 RETURN JUMPDEST PUSH2 0x668 PUSH2 0x2134 JUMP JUMPDEST PUSH1 0x40 MLOAD PUSH2 0x675 SWAP2 SWAP1 PUSH2 0x5281 JUMP JUMPDEST PUSH1 0x40 MLOAD DUP1 SWAP2 SUB SWAP1 RETURN JUMPDEST PUSH2 0x686 PUSH2 0x213A JUMP JUMPDEST PUSH1 0x40 MLOAD PUSH2 0x693 SWAP2 SWAP1 PUSH2 0x4E5C JUMP JUMPDEST PUSH1 0x40 MLOAD DUP1 SWAP2 SUB SWAP1 RETURN JUMPDEST PUSH2 0x6A4 PUSH2 0x2160 JUMP JUMPDEST PUSH1 0x40 MLOAD PUSH2 0x6B1 SWAP2 SWAP1 PUSH2 0x5058 JUMP JUMPDEST PUSH1 0x40 MLOAD DUP1 SWAP2 SUB SWAP1 RETURN JUMPDEST PUSH2 0x6C2 PUSH2 0x2186 JUMP JUMPDEST STOP JUMPDEST PUSH2 0x6CC PUSH2 0x220E JUMP JUMPDEST PUSH1 0x40 MLOAD PUSH2 0x6D9 SWAP2 SWAP1 PUSH2 0x4FF9 JUMP JUMPDEST PUSH1 0x40 MLOAD DUP1 SWAP2 SUB SWAP1 RETURN JUMPDEST PUSH2 0x6FC PUSH1 0x4 DUP1 CALLDATASIZE SUB DUP2 ADD SWAP1 PUSH2 0x6F7 SWAP2 SWAP1 PUSH2 0x45B3 JUMP JUMPDEST PUSH2 0x229C JUMP JUMPDEST STOP JUMPDEST PUSH2 0x706 PUSH2 0x2738 JUMP JUMPDEST PUSH1 0x40 MLOAD PUSH2 0x713 SWAP2 SWAP1 PUSH2 0x508E JUMP JUMPDEST PUSH1 0x40 MLOAD DUP1 SWAP2 SUB SWAP1 RETURN JUMPDEST PUSH2 0x724 PUSH2 0x275E JUMP JUMPDEST PUSH1 0x40 MLOAD PUSH2 0x731 SWAP2 SWAP1 PUSH2 0x503D JUMP JUMPDEST PUSH1 0x40 MLOAD DUP1 SWAP2 SUB SWAP1 RETURN JUMPDEST PUSH2 0x754 PUSH1 0x4 DUP1 CALLDATASIZE SUB DUP2 ADD SWAP1 PUSH2 0x74F SWAP2 SWAP1 PUSH2 0x4746 JUMP JUMPDEST PUSH2 0x2784 JUMP JUMPDEST PUSH1 0x40 MLOAD PUSH2 0x761 SWAP2 SWAP1 PUSH2 0x4FB5 JUMP JUMPDEST PUSH1 0x40 MLOAD DUP1 SWAP2 SUB SWAP1 RETURN JUMPDEST PUSH2 0x772 PUSH2 0x2812 JUMP JUMPDEST PUSH1 0x40 MLOAD PUSH2 0x77F SWAP2 SWAP1 PUSH2 0x4E5C JUMP JUMPDEST PUSH1 0x40 MLOAD DUP1 SWAP2 SUB SWAP1 RETURN JUMPDEST PUSH2 0x7A2 PUSH1 0x4 DUP1 CALLDATASIZE SUB DUP2 ADD SWAP1 PUSH2 0x79D SWAP2 SWAP1 PUSH2 0x4746 JUMP JUMPDEST PUSH2 0x283C JUMP JUMPDEST PUSH1 0x40 MLOAD PUSH2 0x7AF SWAP2 SWAP1 PUSH2 0x4FB5 JUMP JUMPDEST PUSH1 0x40 MLOAD DUP1 SWAP2 SUB SWAP1 RETURN JUMPDEST PUSH2 0x7C0 PUSH2 0x28CA JUMP JUMPDEST PUSH1 0x40 MLOAD PUSH2 0x7CD SWAP2 SWAP1 PUSH2 0x4E5C JUMP JUMPDEST PUSH1 0x40 MLOAD DUP1 SWAP2 SUB SWAP1 RETURN JUMPDEST PUSH2 0x7DE PUSH2 0x28F0 JUMP JUMPDEST PUSH1 0x40 MLOAD PUSH2 0x7EB SWAP2 SWAP1 PUSH2 0x4E5C JUMP JUMPDEST PUSH1 0x40 MLOAD DUP1 SWAP2 SUB SWAP1 RETURN JUMPDEST PUSH2 0x7FC PUSH2 0x2916 JUMP JUMPDEST PUSH1 0x40 MLOAD PUSH2 0x809 SWAP2 SWAP1 PUSH2 0x5281 JUMP JUMPDEST PUSH1 0x40 MLOAD DUP1 SWAP2 SUB SWAP1 RETURN JUMPDEST PUSH2 0x82C PUSH1 0x4 DUP1 CALLDATASIZE SUB DUP2 ADD SWAP1 PUSH2 0x827 SWAP2 SWAP1 PUSH2 0x4525 JUMP JUMPDEST PUSH2 0x291C JUMP JUMPDEST PUSH1 0x40 MLOAD PUSH2 0x839 SWAP2 SWAP1 PUSH2 0x4FB5 JUMP JUMPDEST PUSH1 0x40 MLOAD DUP1 SWAP2 SUB SWAP1 RETURN JUMPDEST PUSH2 0x84A PUSH2 0x29BD JUMP JUMPDEST PUSH1 0x40 MLOAD PUSH2 0x857 SWAP2 SWAP1 PUSH2 0x5281 JUMP JUMPDEST PUSH1 0x40 MLOAD DUP1 SWAP2 SUB SWAP1 RETURN JUMPDEST PUSH2 0x87A PUSH1 0x4 DUP1 CALLDATASIZE SUB DUP2 ADD SWAP1 PUSH2 0x875 SWAP2 SWAP1 PUSH2 0x4456 JUMP JUMPDEST PUSH2 0x2A6D JUMP JUMPDEST PUSH1 0x40 MLOAD PUSH2 0x887 SWAP2 SWAP1 PUSH2 0x4FB5 JUMP JUMPDEST PUSH1 0x40 MLOAD DUP1 SWAP2 SUB SWAP1 RETURN JUMPDEST PUSH2 0x8AA PUSH1 0x4 DUP1 CALLDATASIZE SUB DUP2 ADD SWAP1 PUSH2 0x8A5 SWAP2 SWAP1 PUSH2 0x4746 JUMP JUMPDEST PUSH2 0x2B35 JUMP JUMPDEST PUSH1 0x40 MLOAD PUSH2 0x8B7 SWAP2 SWAP1 PUSH2 0x4FB5 JUMP JUMPDEST PUSH1 0x40 MLOAD DUP1 SWAP2 SUB SWAP1 RETURN JUMPDEST PUSH2 0x8C8 PUSH2 0x2BC3 JUMP JUMPDEST PUSH1 0x40 MLOAD PUSH2 0x8D5 SWAP2 SWAP1 PUSH2 0x5281 JUMP JUMPDEST PUSH1 0x40 MLOAD DUP1 SWAP2 SUB SWAP1 RETURN JUMPDEST PUSH2 0x8E6 PUSH2 0x2BC9 JUMP JUMPDEST PUSH1 0x40 MLOAD PUSH2 0x8F3 SWAP2 SWAP1 PUSH2 0x5281 JUMP JUMPDEST PUSH1 0x40 MLOAD DUP1 SWAP2 SUB SWAP1 RETURN JUMPDEST PUSH2 0x916 PUSH1 0x4 DUP1 CALLDATASIZE SUB DUP2 ADD SWAP1 PUSH2 0x911 SWAP2 SWAP1 PUSH2 0x46A3 JUMP JUMPDEST PUSH2 0x2BCF JUMP JUMPDEST PUSH1 0x40 MLOAD PUSH2 0x923 SWAP2 SWAP1 PUSH2 0x4FB5 JUMP JUMPDEST PUSH1 0x40 MLOAD DUP1 SWAP2 SUB SWAP1 RETURN JUMPDEST PUSH2 0x946 PUSH1 0x4 DUP1 CALLDATASIZE SUB DUP2 ADD SWAP1 PUSH2 0x941 SWAP2 SWAP1 PUSH2 0x4746 JUMP JUMPDEST PUSH2 0x2CAF JUMP JUMPDEST PUSH1 0x40 MLOAD PUSH2 0x953 SWAP2 SWAP1 PUSH2 0x4FB5 JUMP JUMPDEST PUSH1 0x40 MLOAD DUP1 SWAP2 SUB SWAP1 RETURN JUMPDEST PUSH2 0x964 PUSH2 0x2D3D JUMP JUMPDEST PUSH1 0x40 MLOAD PUSH2 0x971 SWAP2 SWAP1 PUSH2 0x50A9 JUMP JUMPDEST PUSH1 0x40 MLOAD DUP1 SWAP2 SUB SWAP1 RETURN JUMPDEST PUSH2 0x994 PUSH1 0x4 DUP1 CALLDATASIZE SUB DUP2 ADD SWAP1 PUSH2 0x98F SWAP2 SWAP1 PUSH2 0x4525 JUMP JUMPDEST PUSH2 0x2D63 JUMP JUMPDEST PUSH1 0x40 MLOAD PUSH2 0x9A1 SWAP2 SWAP1 PUSH2 0x4FB5 JUMP JUMPDEST PUSH1 0x40 MLOAD DUP1 SWAP2 SUB SWAP1 RETURN JUMPDEST PUSH2 0x9C4 PUSH1 0x4 DUP1 CALLDATASIZE SUB DUP2 ADD SWAP1 PUSH2 0x9BF SWAP2 SWAP1 PUSH2 0x4456 JUMP JUMPDEST PUSH2 0x2E04 JUMP JUMPDEST PUSH1 0x40 MLOAD PUSH2 0x9D1 SWAP2 SWAP1 PUSH2 0x4FB5 JUMP JUMPDEST PUSH1 0x40 MLOAD DUP1 SWAP2 SUB SWAP1 RETURN JUMPDEST PUSH2 0x9E2 PUSH2 0x2ECC JUMP JUMPDEST PUSH1 0x40 MLOAD PUSH2 0x9EF SWAP2 SWAP1 PUSH2 0x5281 JUMP JUMPDEST PUSH1 0x40 MLOAD DUP1 SWAP2 SUB SWAP1 RETURN JUMPDEST PUSH2 0xA00 PUSH2 0x2ED2 JUMP JUMPDEST PUSH1 0x40 MLOAD PUSH2 0xA0D SWAP2 SWAP1 PUSH2 0x4E5C JUMP JUMPDEST PUSH1 0x40 MLOAD DUP1 SWAP2 SUB SWAP1 RETURN JUMPDEST PUSH2 0xA30 PUSH1 0x4 DUP1 CALLDATASIZE SUB DUP2 ADD SWAP1 PUSH2 0xA2B SWAP2 SWAP1 PUSH2 0x4456 JUMP JUMPDEST PUSH2 0x2EF8 JUMP JUMPDEST STOP JUMPDEST PUSH2 0xA3A PUSH2 0x2FF0 JUMP JUMPDEST PUSH1 0x40 MLOAD PUSH2 0xA47 SWAP2 SWAP1 PUSH2 0x4FB5 JUMP JUMPDEST PUSH1 0x40 MLOAD DUP1 SWAP2 SUB SWAP1 RETURN JUMPDEST PUSH2 0xA58 PUSH2 0x3003 JUMP JUMPDEST PUSH1 0x40 MLOAD PUSH2 0xA65 SWAP2 SWAP1 PUSH2 0x50C4 JUMP JUMPDEST PUSH1 0x40 MLOAD DUP1 SWAP2 SUB SWAP1 RETURN JUMPDEST PUSH2 0xA76 PUSH2 0x3029 JUMP JUMPDEST PUSH1 0x40 MLOAD PUSH2 0xA83 SWAP2 SWAP1 PUSH2 0x5073 JUMP JUMPDEST PUSH1 0x40 MLOAD DUP1 SWAP2 SUB SWAP1 RETURN JUMPDEST PUSH1 0x0 DUP1 PUSH1 0x66 PUSH1 0x0 SWAP1 SLOAD SWAP1 PUSH2 0x100 EXP SWAP1 DIV PUSH20 0xFFFFFFFFFFFFFFFFFFFFFFFFFFFFFFFFFFFFFFFF AND PUSH20 0xFFFFFFFFFFFFFFFFFFFFFFFFFFFFFFFFFFFFFFFF AND PUSH4 0xD6D7D525 PUSH1 0x7E PUSH1 0x40 MLOAD DUP3 PUSH4 0xFFFFFFFF AND PUSH1 0xE0 SHL DUP2 MSTORE PUSH1 0x4 ADD PUSH2 0xAEB SWAP2 SWAP1 PUSH2 0x501B JUMP JUMPDEST PUSH1 0x40 DUP1 MLOAD DUP1 DUP4 SUB DUP2 PUSH1 0x0 DUP8 DUP1 EXTCODESIZE ISZERO DUP1 ISZERO PUSH2 0xB04 JUMPI PUSH1 0x0 DUP1 REVERT JUMPDEST POP GAS CALL ISZERO DUP1 ISZERO PUSH2 0xB18 JUMPI RETURNDATASIZE PUSH1 0x0 DUP1 RETURNDATACOPY RETURNDATASIZE PUSH1 0x0 REVERT JUMPDEST POP POP POP POP PUSH1 0x40 MLOAD RETURNDATASIZE PUSH1 0x1F NOT PUSH1 0x1F DUP3 ADD AND DUP3 ADD DUP1 PUSH1 0x40 MSTORE POP DUP2 ADD SWAP1 PUSH2 0xB3C SWAP2 SWAP1 PUSH2 0x4577 JUMP JUMPDEST DUP1 SWAP3 POP DUP2 SWAP4 POP POP POP DUP2 ISZERO PUSH2 0xB56 JUMPI DUP1 PUSH1 0x65 DUP2 SWAP1 SSTORE POP PUSH2 0xB5C JUMP JUMPDEST PUSH1 0x65 SLOAD SWAP1 POP JUMPDEST SWAP1 SWAP2 JUMP JUMPDEST PUSH1 0x7C SLOAD DUP2 JUMP JUMPDEST PUSH1 0x0 PUSH2 0xB70 PUSH2 0x304F JUMP JUMPDEST PUSH20 0xFFFFFFFFFFFFFFFFFFFFFFFFFFFFFFFFFFFFFFFF AND PUSH2 0xB8E PUSH2 0x2812 JUMP JUMPDEST PUSH20 0xFFFFFFFFFFFFFFFFFFFFFFFFFFFFFFFFFFFFFFFF AND EQ PUSH2 0xBE4 JUMPI PUSH1 0x40 MLOAD PUSH32 0x8C379A000000000000000000000000000000000000000000000000000000000 DUP2 MSTORE PUSH1 0x4 ADD PUSH2 0xBDB SWAP1 PUSH2 0x51E1 JUMP JUMPDEST PUSH1 0x40 MLOAD DUP1 SWAP2 SUB SWAP1 REVERT JUMPDEST DUP2 PUSH1 0x75 DUP2 SWAP1 SSTORE POP PUSH1 0x1 SWAP1 POP SWAP2 SWAP1 POP JUMP JUMPDEST PUSH1 0x0 PUSH2 0xBFE PUSH2 0x304F JUMP JUMPDEST PUSH20 0xFFFFFFFFFFFFFFFFFFFFFFFFFFFFFFFFFFFFFFFF AND PUSH2 0xC1C PUSH2 0x2812 JUMP JUMPDEST PUSH20 0xFFFFFFFFFFFFFFFFFFFFFFFFFFFFFFFFFFFFFFFF AND EQ PUSH2 0xC72 JUMPI PUSH1 0x40 MLOAD PUSH32 0x8C379A000000000000000000000000000000000000000000000000000000000 DUP2 MSTORE PUSH1 0x4 ADD PUSH2 0xC69 SWAP1 PUSH2 0x51E1 JUMP JUMPDEST PUSH1 0x40 MLOAD DUP1 SWAP2 SUB SWAP1 REVERT JUMPDEST DUP2 PUSH1 0x79 PUSH1 0x0 DUP6 DUP2 MSTORE PUSH1 0x20 ADD SWAP1 DUP2 MSTORE PUSH1 0x20 ADD PUSH1 0x0 KECCAK256 DUP2 SWAP1 SSTORE POP PUSH1 0x1 SWAP1 POP SWAP3 SWAP2 POP POP JUMP JUMPDEST PUSH1 0x0 PUSH2 0xC9E PUSH2 0x304F JUMP JUMPDEST PUSH20 0xFFFFFFFFFFFFFFFFFFFFFFFFFFFFFFFFFFFFFFFF AND PUSH2 0xCBC PUSH2 0x2812 JUMP JUMPDEST PUSH20 0xFFFFFFFFFFFFFFFFFFFFFFFFFFFFFFFFFFFFFFFF AND EQ PUSH2 0xD12 JUMPI PUSH1 0x40 MLOAD PUSH32 0x8C379A000000000000000000000000000000000000000000000000000000000 DUP2 MSTORE PUSH1 0x4 ADD PUSH2 0xD09 SWAP1 PUSH2 0x51E1 JUMP JUMPDEST PUSH1 0x40 MLOAD DUP1 SWAP2 SUB SWAP1 REVERT JUMPDEST DUP2 PUSH1 0x72 DUP2 SWAP1 SSTORE POP PUSH1 0x1 SWAP1 POP SWAP2 SWAP1 POP JUMP JUMPDEST PUSH1 0x0 DUP1 DUP3 SWAP1 POP PUSH2 0xD30 PUSH2 0x304F JUMP JUMPDEST PUSH20 0xFFFFFFFFFFFFFFFFFFFFFFFFFFFFFFFFFFFFFFFF AND ORIGIN PUSH20 0xFFFFFFFFFFFFFFFFFFFFFFFFFFFFFFFFFFFFFFFF AND EQ PUSH2 0xD9D JUMPI PUSH1 0x40 MLOAD PUSH32 0x8C379A000000000000000000000000000000000000000000000000000000000 DUP2 MSTORE PUSH1 0x4 ADD PUSH2 0xD94 SWAP1 PUSH2 0x5141 JUMP JUMPDEST PUSH1 0x40 MLOAD DUP1 SWAP2 SUB SWAP1 REVERT JUMPDEST PUSH1 0x0 PUSH2 0xE2C PUSH1 0x73 SLOAD PUSH2 0xE1E PUSH1 0x79 PUSH1 0x0 PUSH1 0x78 PUSH1 0x0 CALLER PUSH20 0xFFFFFFFFFFFFFFFFFFFFFFFFFFFFFFFFFFFFFFFF AND PUSH20 0xFFFFFFFFFFFFFFFFFFFFFFFFFFFFFFFFFFFFFFFF AND DUP2 MSTORE PUSH1 0x20 ADD SWAP1 DUP2 MSTORE PUSH1 0x20 ADD PUSH1 0x0 KECCAK256 SLOAD DUP2 MSTORE PUSH1 0x20 ADD SWAP1 DUP2 MSTORE PUSH1 0x20 ADD PUSH1 0x0 KECCAK256 SLOAD PUSH2 0xE10 DUP7 PUSH1 0x77 SLOAD PUSH2 0x3057 SWAP1 SWAP2 SWAP1 PUSH4 0xFFFFFFFF AND JUMP JUMPDEST PUSH2 0x3057 SWAP1 SWAP2 SWAP1 PUSH4 0xFFFFFFFF AND JUMP JUMPDEST PUSH2 0x306D SWAP1 SWAP2 SWAP1 PUSH4 0xFFFFFFFF AND JUMP JUMPDEST SWAP1 POP PUSH2 0xE7D CALLER ADDRESS DUP4 PUSH1 0x6E PUSH1 0x0 SWAP1 SLOAD SWAP1 PUSH2 0x100 EXP SWAP1 DIV PUSH20 0xFFFFFFFFFFFFFFFFFFFFFFFFFFFFFFFFFFFFFFFF AND PUSH20 0xFFFFFFFFFFFFFFFFFFFFFFFFFFFFFFFFFFFFFFFF AND PUSH2 0x3083 SWAP1 SWAP4 SWAP3 SWAP2 SWAP1 PUSH4 0xFFFFFFFF AND JUMP JUMPDEST PUSH1 0x0 PUSH2 0xEA8 PUSH1 0x73 SLOAD PUSH2 0xE9A PUSH1 0x7A SLOAD DUP6 PUSH2 0x3057 SWAP1 SWAP2 SWAP1 PUSH4 0xFFFFFFFF AND JUMP JUMPDEST PUSH2 0x306D SWAP1 SWAP2 SWAP1 PUSH4 0xFFFFFFFF AND JUMP JUMPDEST SWAP1 POP PUSH1 0x0 PUSH2 0xED5 PUSH1 0x73 SLOAD PUSH2 0xEC7 PUSH1 0x7B SLOAD DUP7 PUSH2 0x3057 SWAP1 SWAP2 SWAP1 PUSH4 0xFFFFFFFF AND JUMP JUMPDEST PUSH2 0x306D SWAP1 SWAP2 SWAP1 PUSH4 0xFFFFFFFF AND JUMP JUMPDEST SWAP1 POP PUSH1 0x0 PUSH2 0xF02 PUSH1 0x73 SLOAD PUSH2 0xEF4 PUSH1 0x7C SLOAD DUP8 PUSH2 0x3057 SWAP1 SWAP2 SWAP1 PUSH4 0xFFFFFFFF AND JUMP JUMPDEST PUSH2 0x306D SWAP1 SWAP2 SWAP1 PUSH4 0xFFFFFFFF AND JUMP JUMPDEST SWAP1 POP PUSH1 0x0 PUSH2 0xF3D DUP3 PUSH2 0xF2F DUP6 PUSH2 0xF21 DUP9 DUP11 PUSH2 0x310C SWAP1 SWAP2 SWAP1 PUSH4 0xFFFFFFFF AND JUMP JUMPDEST PUSH2 0x310C SWAP1 SWAP2 SWAP1 PUSH4 0xFFFFFFFF AND JUMP JUMPDEST PUSH2 0x310C SWAP1 SWAP2 SWAP1 PUSH4 0xFFFFFFFF AND JUMP JUMPDEST SWAP1 POP PUSH1 0x0 PUSH1 0x6D PUSH1 0x0 SWAP1 SLOAD SWAP1 PUSH2 0x100 EXP SWAP1 DIV PUSH20 0xFFFFFFFFFFFFFFFFFFFFFFFFFFFFFFFFFFFFFFFF AND PUSH20 0xFFFFFFFFFFFFFFFFFFFFFFFFFFFFFFFFFFFFFFFF AND PUSH4 0xE6A43905 PUSH1 0x6E PUSH1 0x0 SWAP1 SLOAD SWAP1 PUSH2 0x100 EXP SWAP1 DIV PUSH20 0xFFFFFFFFFFFFFFFFFFFFFFFFFFFFFFFFFFFFFFFF AND PUSH1 0x70 PUSH1 0x0 SWAP1 SLOAD SWAP1 PUSH2 0x100 EXP SWAP1 DIV PUSH20 0xFFFFFFFFFFFFFFFFFFFFFFFFFFFFFFFFFFFFFFFF AND PUSH1 0x40 MLOAD DUP4 PUSH4 0xFFFFFFFF AND PUSH1 0xE0 SHL DUP2 MSTORE PUSH1 0x4 ADD PUSH2 0xFE2 SWAP3 SWAP2 SWAP1 PUSH2 0x4E77 JUMP JUMPDEST PUSH1 0x20 PUSH1 0x40 MLOAD DUP1 DUP4 SUB DUP2 DUP7 DUP1 EXTCODESIZE ISZERO DUP1 ISZERO PUSH2 0xFFA JUMPI PUSH1 0x0 DUP1 REVERT JUMPDEST POP GAS STATICCALL ISZERO DUP1 ISZERO PUSH2 0x100E JUMPI RETURNDATASIZE PUSH1 0x0 DUP1 RETURNDATACOPY RETURNDATASIZE PUSH1 0x0 REVERT JUMPDEST POP POP POP POP PUSH1 0x40 MLOAD RETURNDATASIZE PUSH1 0x1F NOT PUSH1 0x1F DUP3 ADD AND DUP3 ADD DUP1 PUSH1 0x40 MSTORE POP DUP2 ADD SWAP1 PUSH2 0x1032 SWAP2 SWAP1 PUSH2 0x447F JUMP JUMPDEST SWAP1 POP PUSH1 0x0 PUSH2 0x1084 PUSH1 0x6E PUSH1 0x0 SWAP1 SLOAD SWAP1 PUSH2 0x100 EXP SWAP1 DIV PUSH20 0xFFFFFFFFFFFFFFFFFFFFFFFFFFFFFFFFFFFFFFFF AND PUSH1 0x70 PUSH1 0x0 SWAP1 SLOAD SWAP1 PUSH2 0x100 EXP SWAP1 DIV PUSH20 0xFFFFFFFFFFFFFFFFFFFFFFFFFFFFFFFFFFFFFFFF AND PUSH2 0x3122 JUMP JUMPDEST POP SWAP1 POP PUSH1 0x7D PUSH1 0x1 SWAP1 SLOAD SWAP1 PUSH2 0x100 EXP SWAP1 DIV PUSH1 0xFF AND ISZERO PUSH2 0x15B1 JUMPI PUSH2 0x110C PUSH1 0x6C PUSH1 0x0 SWAP1 SLOAD SWAP1 PUSH2 0x100 EXP SWAP1 DIV PUSH20 0xFFFFFFFFFFFFFFFFFFFFFFFFFFFFFFFFFFFFFFFF AND PUSH1 0x0 PUSH1 0x6E PUSH1 0x0 SWAP1 SLOAD SWAP1 PUSH2 0x100 EXP SWAP1 DIV PUSH20 0xFFFFFFFFFFFFFFFFFFFFFFFFFFFFFFFFFFFFFFFF AND PUSH20 0xFFFFFFFFFFFFFFFFFFFFFFFFFFFFFFFFFFFFFFFF AND PUSH2 0x3250 SWAP1 SWAP3 SWAP2 SWAP1 PUSH4 0xFFFFFFFF AND JUMP JUMPDEST PUSH2 0x119B PUSH1 0x6C PUSH1 0x0 SWAP1 SLOAD SWAP1 PUSH2 0x100 EXP SWAP1 DIV PUSH20 0xFFFFFFFFFFFFFFFFFFFFFFFFFFFFFFFFFFFFFFFF AND PUSH32 0xFFFFFFFFFFFFFFFFFFFFFFFFFFFFFFFFFFFFFFFFFFFFFFFFFFFFFFFFFFFFFFFF PUSH1 0x6E PUSH1 0x0 SWAP1 SLOAD SWAP1 PUSH2 0x100 EXP SWAP1 DIV PUSH20 0xFFFFFFFFFFFFFFFFFFFFFFFFFFFFFFFFFFFFFFFF AND PUSH20 0xFFFFFFFFFFFFFFFFFFFFFFFFFFFFFFFFFFFFFFFF AND PUSH2 0x3250 SWAP1 SWAP3 SWAP2 SWAP1 PUSH4 0xFFFFFFFF AND JUMP JUMPDEST PUSH2 0x120B PUSH1 0x6C PUSH1 0x0 SWAP1 SLOAD SWAP1 PUSH2 0x100 EXP SWAP1 DIV PUSH20 0xFFFFFFFFFFFFFFFFFFFFFFFFFFFFFFFFFFFFFFFF AND PUSH1 0x0 PUSH1 0x70 PUSH1 0x0 SWAP1 SLOAD SWAP1 PUSH2 0x100 EXP SWAP1 DIV PUSH20 0xFFFFFFFFFFFFFFFFFFFFFFFFFFFFFFFFFFFFFFFF AND PUSH20 0xFFFFFFFFFFFFFFFFFFFFFFFFFFFFFFFFFFFFFFFF AND PUSH2 0x3250 SWAP1 SWAP3 SWAP2 SWAP1 PUSH4 0xFFFFFFFF AND JUMP JUMPDEST PUSH2 0x129A PUSH1 0x6C PUSH1 0x0 SWAP1 SLOAD SWAP1 PUSH2 0x100 EXP SWAP1 DIV PUSH20 0xFFFFFFFFFFFFFFFFFFFFFFFFFFFFFFFFFFFFFFFF AND PUSH32 0xFFFFFFFFFFFFFFFFFFFFFFFFFFFFFFFFFFFFFFFFFFFFFFFFFFFFFFFFFFFFFFFF PUSH1 0x70 PUSH1 0x0 SWAP1 SLOAD SWAP1 PUSH2 0x100 EXP SWAP1 DIV PUSH20 0xFFFFFFFFFFFFFFFFFFFFFFFFFFFFFFFFFFFFFFFF AND PUSH20 0xFFFFFFFFFFFFFFFFFFFFFFFFFFFFFFFFFFFFFFFF AND PUSH2 0x3250 SWAP1 SWAP3 SWAP2 SWAP1 PUSH4 0xFFFFFFFF AND JUMP JUMPDEST PUSH2 0x12EA DUP3 PUSH1 0x70 PUSH1 0x0 SWAP1 SLOAD SWAP1 PUSH2 0x100 EXP SWAP1 DIV PUSH20 0xFFFFFFFFFFFFFFFFFFFFFFFFFFFFFFFFFFFFFFFF AND PUSH1 0x6E PUSH1 0x0 SWAP1 SLOAD SWAP1 PUSH2 0x100 EXP SWAP1 DIV PUSH20 0xFFFFFFFFFFFFFFFFFFFFFFFFFFFFFFFFFFFFFFFF AND DUP10 PUSH2 0x33AE JUMP JUMPDEST PUSH1 0x0 PUSH2 0x13CD DUP5 PUSH2 0x13BF DUP8 PUSH2 0x13B1 DUP11 PUSH1 0x6E PUSH1 0x0 SWAP1 SLOAD SWAP1 PUSH2 0x100 EXP SWAP1 DIV PUSH20 0xFFFFFFFFFFFFFFFFFFFFFFFFFFFFFFFFFFFFFFFF AND PUSH20 0xFFFFFFFFFFFFFFFFFFFFFFFFFFFFFFFFFFFFFFFF AND PUSH4 0x70A08231 ADDRESS PUSH1 0x40 MLOAD DUP3 PUSH4 0xFFFFFFFF AND PUSH1 0xE0 SHL DUP2 MSTORE PUSH1 0x4 ADD PUSH2 0x1353 SWAP2 SWAP1 PUSH2 0x4E5C JUMP JUMPDEST PUSH1 0x20 PUSH1 0x40 MLOAD DUP1 DUP4 SUB DUP2 DUP7 DUP1 EXTCODESIZE ISZERO DUP1 ISZERO PUSH2 0x136B JUMPI PUSH1 0x0 DUP1 REVERT JUMPDEST POP GAS STATICCALL ISZERO DUP1 ISZERO PUSH2 0x137F JUMPI RETURNDATASIZE PUSH1 0x0 DUP1 RETURNDATACOPY RETURNDATASIZE PUSH1 0x0 REVERT JUMPDEST POP POP POP POP PUSH1 0x40 MLOAD RETURNDATASIZE PUSH1 0x1F NOT PUSH1 0x1F DUP3 ADD AND DUP3 ADD DUP1 PUSH1 0x40 MSTORE POP DUP2 ADD SWAP1 PUSH2 0x13A3 SWAP2 SWAP1 PUSH2 0x476F JUMP JUMPDEST PUSH2 0x310C SWAP1 SWAP2 SWAP1 PUSH4 0xFFFFFFFF AND JUMP JUMPDEST PUSH2 0x310C SWAP1 SWAP2 SWAP1 PUSH4 0xFFFFFFFF AND JUMP JUMPDEST PUSH2 0x310C SWAP1 SWAP2 SWAP1 PUSH4 0xFFFFFFFF AND JUMP JUMPDEST SWAP1 POP PUSH1 0x6C PUSH1 0x0 SWAP1 SLOAD SWAP1 PUSH2 0x100 EXP SWAP1 DIV PUSH20 0xFFFFFFFFFFFFFFFFFFFFFFFFFFFFFFFFFFFFFFFF AND PUSH20 0xFFFFFFFFFFFFFFFFFFFFFFFFFFFFFFFFFFFFFFFF AND PUSH4 0xE8E33700 PUSH1 0x6E PUSH1 0x0 SWAP1 SLOAD SWAP1 PUSH2 0x100 EXP SWAP1 DIV PUSH20 0xFFFFFFFFFFFFFFFFFFFFFFFFFFFFFFFFFFFFFFFF AND PUSH1 0x70 PUSH1 0x0 SWAP1 SLOAD SWAP1 PUSH2 0x100 EXP SWAP1 DIV PUSH20 0xFFFFFFFFFFFFFFFFFFFFFFFFFFFFFFFFFFFFFFFF AND DUP5 PUSH1 0x70 PUSH1 0x0 SWAP1 SLOAD SWAP1 PUSH2 0x100 EXP SWAP1 DIV PUSH20 0xFFFFFFFFFFFFFFFFFFFFFFFFFFFFFFFFFFFFFFFF AND PUSH20 0xFFFFFFFFFFFFFFFFFFFFFFFFFFFFFFFFFFFFFFFF AND PUSH4 0x70A08231 ADDRESS PUSH1 0x40 MLOAD DUP3 PUSH4 0xFFFFFFFF AND PUSH1 0xE0 SHL DUP2 MSTORE PUSH1 0x4 ADD PUSH2 0x14AF SWAP2 SWAP1 PUSH2 0x4E5C JUMP JUMPDEST PUSH1 0x20 PUSH1 0x40 MLOAD DUP1 DUP4 SUB DUP2 DUP7 DUP1 EXTCODESIZE ISZERO DUP1 ISZERO PUSH2 0x14C7 JUMPI PUSH1 0x0 DUP1 REVERT JUMPDEST POP GAS STATICCALL ISZERO DUP1 ISZERO PUSH2 0x14DB JUMPI RETURNDATASIZE PUSH1 0x0 DUP1 RETURNDATACOPY RETURNDATASIZE PUSH1 0x0 REVERT JUMPDEST POP POP POP POP PUSH1 0x40 MLOAD RETURNDATASIZE PUSH1 0x1F NOT PUSH1 0x1F DUP3 ADD AND DUP3 ADD DUP1 PUSH1 0x40 MSTORE POP DUP2 ADD SWAP1 PUSH2 0x14FF SWAP2 SWAP1 PUSH2 0x476F JUMP JUMPDEST PUSH1 0x0 DUP1 PUSH1 0x68 PUSH1 0x0 SWAP1 SLOAD SWAP1 PUSH2 0x100 EXP SWAP1 DIV PUSH20 0xFFFFFFFFFFFFFFFFFFFFFFFFFFFFFFFFFFFFFFFF AND PUSH2 0x3E8 TIMESTAMP PUSH2 0x1533 SWAP2 SWAP1 PUSH2 0x5460 JUMP JUMPDEST PUSH1 0x40 MLOAD DUP10 PUSH4 0xFFFFFFFF AND PUSH1 0xE0 SHL DUP2 MSTORE PUSH1 0x4 ADD PUSH2 0x1556 SWAP9 SWAP8 SWAP7 SWAP6 SWAP5 SWAP4 SWAP3 SWAP2 SWAP1 PUSH2 0x4ED7 JUMP JUMPDEST PUSH1 0x60 PUSH1 0x40 MLOAD DUP1 DUP4 SUB DUP2 PUSH1 0x0 DUP8 DUP1 EXTCODESIZE ISZERO DUP1 ISZERO PUSH2 0x1570 JUMPI PUSH1 0x0 DUP1 REVERT JUMPDEST POP GAS CALL ISZERO DUP1 ISZERO PUSH2 0x1584 JUMPI RETURNDATASIZE PUSH1 0x0 DUP1 RETURNDATACOPY RETURNDATASIZE PUSH1 0x0 REVERT JUMPDEST POP POP POP POP PUSH1 0x40 MLOAD RETURNDATASIZE PUSH1 0x1F NOT PUSH1 0x1F DUP3 ADD AND DUP3 ADD DUP1 PUSH1 0x40 MSTORE POP DUP2 ADD SWAP1 PUSH2 0x15A8 SWAP2 SWAP1 PUSH2 0x47D4 JUMP JUMPDEST POP POP POP POP PUSH2 0x1621 JUMP JUMPDEST PUSH2 0x1620 PUSH1 0x68 PUSH1 0x0 SWAP1 SLOAD SWAP1 PUSH2 0x100 EXP SWAP1 DIV PUSH20 0xFFFFFFFFFFFFFFFFFFFFFFFFFFFFFFFFFFFFFFFF AND DUP8 PUSH1 0x6E PUSH1 0x0 SWAP1 SLOAD SWAP1 PUSH2 0x100 EXP SWAP1 DIV PUSH20 0xFFFFFFFFFFFFFFFFFFFFFFFFFFFFFFFFFFFFFFFF AND PUSH20 0xFFFFFFFFFFFFFFFFFFFFFFFFFFFFFFFFFFFFFFFF AND PUSH2 0x3785 SWAP1 SWAP3 SWAP2 SWAP1 PUSH4 0xFFFFFFFF AND JUMP JUMPDEST JUMPDEST PUSH2 0x1690 PUSH1 0x6A PUSH1 0x0 SWAP1 SLOAD SWAP1 PUSH2 0x100 EXP SWAP1 DIV PUSH20 0xFFFFFFFFFFFFFFFFFFFFFFFFFFFFFFFFFFFFFFFF AND DUP7 PUSH1 0x6E PUSH1 0x0 SWAP1 SLOAD SWAP1 PUSH2 0x100 EXP SWAP1 DIV PUSH20 0xFFFFFFFFFFFFFFFFFFFFFFFFFFFFFFFFFFFFFFFF AND PUSH20 0xFFFFFFFFFFFFFFFFFFFFFFFFFFFFFFFFFFFFFFFF AND PUSH2 0x3785 SWAP1 SWAP3 SWAP2 SWAP1 PUSH4 0xFFFFFFFF AND JUMP JUMPDEST PUSH2 0x16FF PUSH1 0x6B PUSH1 0x0 SWAP1 SLOAD SWAP1 PUSH2 0x100 EXP SWAP1 DIV PUSH20 0xFFFFFFFFFFFFFFFFFFFFFFFFFFFFFFFFFFFFFFFF AND DUP6 PUSH1 0x6E PUSH1 0x0 SWAP1 SLOAD SWAP1 PUSH2 0x100 EXP SWAP1 DIV PUSH20 0xFFFFFFFFFFFFFFFFFFFFFFFFFFFFFFFFFFFFFFFF AND PUSH20 0xFFFFFFFFFFFFFFFFFFFFFFFFFFFFFFFFFFFFFFFF AND PUSH2 0x3785 SWAP1 SWAP3 SWAP2 SWAP1 PUSH4 0xFFFFFFFF AND JUMP JUMPDEST PUSH1 0x7D PUSH1 0x0 SWAP1 SLOAD SWAP1 PUSH2 0x100 EXP SWAP1 DIV PUSH1 0xFF AND ISZERO PUSH2 0x1AEC JUMPI PUSH1 0x0 DUP1 DUP4 PUSH20 0xFFFFFFFFFFFFFFFFFFFFFFFFFFFFFFFFFFFFFFFF AND PUSH4 0x902F1AC PUSH1 0x40 MLOAD DUP2 PUSH4 0xFFFFFFFF AND PUSH1 0xE0 SHL DUP2 MSTORE PUSH1 0x4 ADD PUSH1 0x60 PUSH1 0x40 MLOAD DUP1 DUP4 SUB DUP2 DUP7 DUP1 EXTCODESIZE ISZERO DUP1 ISZERO PUSH2 0x175D JUMPI PUSH1 0x0 DUP1 REVERT JUMPDEST POP GAS STATICCALL ISZERO DUP1 ISZERO PUSH2 0x1771 JUMPI RETURNDATASIZE PUSH1 0x0 DUP1 RETURNDATACOPY RETURNDATASIZE PUSH1 0x0 REVERT JUMPDEST POP POP POP POP PUSH1 0x40 MLOAD RETURNDATASIZE PUSH1 0x1F NOT PUSH1 0x1F DUP3 ADD AND DUP3 ADD DUP1 PUSH1 0x40 MSTORE POP DUP2 ADD SWAP1 PUSH2 0x1795 SWAP2 SWAP1 PUSH2 0x46F7 JUMP JUMPDEST POP PUSH14 0xFFFFFFFFFFFFFFFFFFFFFFFFFFFF AND SWAP2 POP PUSH14 0xFFFFFFFFFFFFFFFFFFFFFFFFFFFF AND SWAP2 POP DUP3 PUSH20 0xFFFFFFFFFFFFFFFFFFFFFFFFFFFFFFFFFFFFFFFF AND PUSH1 0x6E PUSH1 0x0 SWAP1 SLOAD SWAP1 PUSH2 0x100 EXP SWAP1 DIV PUSH20 0xFFFFFFFFFFFFFFFFFFFFFFFFFFFFFFFFFFFFFFFF AND PUSH20 0xFFFFFFFFFFFFFFFFFFFFFFFFFFFFFFFFFFFFFFFF AND EQ PUSH2 0x1816 JUMPI DUP1 DUP3 PUSH2 0x1819 JUMP JUMPDEST DUP2 DUP2 JUMPDEST DUP1 SWAP3 POP DUP2 SWAP4 POP POP POP PUSH1 0x0 PUSH2 0x182E DUP7 DUP5 DUP5 PUSH2 0x380B JUMP JUMPDEST SWAP1 POP PUSH1 0x0 DUP1 DUP6 PUSH20 0xFFFFFFFFFFFFFFFFFFFFFFFFFFFFFFFFFFFFFFFF AND PUSH1 0x6E PUSH1 0x0 SWAP1 SLOAD SWAP1 PUSH2 0x100 EXP SWAP1 DIV PUSH20 0xFFFFFFFFFFFFFFFFFFFFFFFFFFFFFFFFFFFFFFFF AND PUSH20 0xFFFFFFFFFFFFFFFFFFFFFFFFFFFFFFFFFFFFFFFF AND EQ PUSH2 0x1890 JUMPI DUP3 PUSH1 0x0 PUSH2 0x1894 JUMP JUMPDEST PUSH1 0x0 DUP4 JUMPDEST SWAP2 POP SWAP2 POP PUSH2 0x18E5 DUP8 DUP10 PUSH1 0x6E PUSH1 0x0 SWAP1 SLOAD SWAP1 PUSH2 0x100 EXP SWAP1 DIV PUSH20 0xFFFFFFFFFFFFFFFFFFFFFFFFFFFFFFFFFFFFFFFF AND PUSH20 0xFFFFFFFFFFFFFFFFFFFFFFFFFFFFFFFFFFFFFFFF AND PUSH2 0x3785 SWAP1 SWAP3 SWAP2 SWAP1 PUSH4 0xFFFFFFFF AND JUMP JUMPDEST DUP7 PUSH20 0xFFFFFFFFFFFFFFFFFFFFFFFFFFFFFFFFFFFFFFFF AND PUSH4 0x22C0D9F DUP4 DUP4 ADDRESS PUSH1 0x0 PUSH8 0xFFFFFFFFFFFFFFFF DUP2 GT ISZERO PUSH2 0x1945 JUMPI PUSH32 0x4E487B7100000000000000000000000000000000000000000000000000000000 PUSH1 0x0 MSTORE PUSH1 0x41 PUSH1 0x4 MSTORE PUSH1 0x24 PUSH1 0x0 REVERT JUMPDEST PUSH1 0x40 MLOAD SWAP1 DUP1 DUP3 MSTORE DUP1 PUSH1 0x1F ADD PUSH1 0x1F NOT AND PUSH1 0x20 ADD DUP3 ADD PUSH1 0x40 MSTORE DUP1 ISZERO PUSH2 0x1977 JUMPI DUP2 PUSH1 0x20 ADD PUSH1 0x1 DUP3 MUL DUP1 CALLDATASIZE DUP4 CALLDATACOPY DUP1 DUP3 ADD SWAP2 POP POP SWAP1 POP JUMPDEST POP PUSH1 0x40 MLOAD DUP6 PUSH4 0xFFFFFFFF AND PUSH1 0xE0 SHL DUP2 MSTORE PUSH1 0x4 ADD PUSH2 0x1997 SWAP5 SWAP4 SWAP3 SWAP2 SWAP1 PUSH2 0x52F6 JUMP JUMPDEST PUSH1 0x0 PUSH1 0x40 MLOAD DUP1 DUP4 SUB DUP2 PUSH1 0x0 DUP8 DUP1 EXTCODESIZE ISZERO DUP1 ISZERO PUSH2 0x19B1 JUMPI PUSH1 0x0 DUP1 REVERT JUMPDEST POP GAS CALL ISZERO DUP1 ISZERO PUSH2 0x19C5 JUMPI RETURNDATASIZE PUSH1 0x0 DUP1 RETURNDATACOPY RETURNDATASIZE PUSH1 0x0 REVERT JUMPDEST POP POP POP POP PUSH2 0x1AE2 PUSH1 0x67 PUSH1 0x0 SWAP1 SLOAD SWAP1 PUSH2 0x100 EXP SWAP1 DIV PUSH20 0xFFFFFFFFFFFFFFFFFFFFFFFFFFFFFFFFFFFFFFFF AND PUSH1 0x70 PUSH1 0x0 SWAP1 SLOAD SWAP1 PUSH2 0x100 EXP SWAP1 DIV PUSH20 0xFFFFFFFFFFFFFFFFFFFFFFFFFFFFFFFFFFFFFFFF AND PUSH20 0xFFFFFFFFFFFFFFFFFFFFFFFFFFFFFFFFFFFFFFFF AND PUSH4 0x70A08231 ADDRESS PUSH1 0x40 MLOAD DUP3 PUSH4 0xFFFFFFFF AND PUSH1 0xE0 SHL DUP2 MSTORE PUSH1 0x4 ADD PUSH2 0x1A4A SWAP2 SWAP1 PUSH2 0x4E5C JUMP JUMPDEST PUSH1 0x20 PUSH1 0x40 MLOAD DUP1 DUP4 SUB DUP2 DUP7 DUP1 EXTCODESIZE ISZERO DUP1 ISZERO PUSH2 0x1A62 JUMPI PUSH1 0x0 DUP1 REVERT JUMPDEST POP GAS STATICCALL ISZERO DUP1 ISZERO PUSH2 0x1A76 JUMPI RETURNDATASIZE PUSH1 0x0 DUP1 RETURNDATACOPY RETURNDATASIZE PUSH1 0x0 REVERT JUMPDEST POP POP POP POP PUSH1 0x40 MLOAD RETURNDATASIZE PUSH1 0x1F NOT PUSH1 0x1F DUP3 ADD AND DUP3 ADD DUP1 PUSH1 0x40 MSTORE POP DUP2 ADD SWAP1 PUSH2 0x1A9A SWAP2 SWAP1 PUSH2 0x476F JUMP JUMPDEST PUSH1 0x70 PUSH1 0x0 SWAP1 SLOAD SWAP1 PUSH2 0x100 EXP SWAP1 DIV PUSH20 0xFFFFFFFFFFFFFFFFFFFFFFFFFFFFFFFFFFFFFFFF AND PUSH20 0xFFFFFFFFFFFFFFFFFFFFFFFFFFFFFFFFFFFFFFFF AND PUSH2 0x3785 SWAP1 SWAP3 SWAP2 SWAP1 PUSH4 0xFFFFFFFF AND JUMP JUMPDEST POP POP POP POP POP PUSH2 0x1B5C JUMP JUMPDEST PUSH2 0x1B5B PUSH1 0x69 PUSH1 0x0 SWAP1 SLOAD SWAP1 PUSH2 0x100 EXP SWAP1 DIV PUSH20 0xFFFFFFFFFFFFFFFFFFFFFFFFFFFFFFFFFFFFFFFF AND DUP5 PUSH1 0x6E PUSH1 0x0 SWAP1 SLOAD SWAP1 PUSH2 0x100 EXP SWAP1 DIV PUSH20 0xFFFFFFFFFFFFFFFFFFFFFFFFFFFFFFFFFFFFFFFF AND PUSH20 0xFFFFFFFFFFFFFFFFFFFFFFFFFFFFFFFFFFFFFFFF AND PUSH2 0x3785 SWAP1 SWAP3 SWAP2 SWAP1 PUSH4 0xFFFFFFFF AND JUMP JUMPDEST JUMPDEST PUSH1 0x0 PUSH2 0x1B66 PUSH2 0xA8C JUMP JUMPDEST SWAP2 POP POP PUSH2 0x1B71 PUSH2 0x387F JUMP JUMPDEST POP PUSH1 0x0 JUMPDEST DUP10 DUP2 LT ISZERO PUSH2 0x1C94 JUMPI PUSH1 0x71 PUSH1 0x0 SWAP1 SLOAD SWAP1 PUSH2 0x100 EXP SWAP1 DIV PUSH20 0xFFFFFFFFFFFFFFFFFFFFFFFFFFFFFFFFFFFFFFFF AND PUSH20 0xFFFFFFFFFFFFFFFFFFFFFFFFFFFFFFFFFFFFFFFF AND PUSH4 0xD405D32A CALLER DUP4 TIMESTAMP PUSH2 0x1BC8 SWAP2 SWAP1 PUSH2 0x5460 JUMP JUMPDEST PUSH1 0x73 SLOAD PUSH1 0x73 SLOAD PUSH1 0x72 SLOAD PUSH2 0x1BDB SWAP2 SWAP1 PUSH2 0x5460 JUMP JUMPDEST PUSH8 0xDE0B6B3A7640000 DUP9 PUSH1 0x77 SLOAD PUSH2 0x1BF2 SWAP2 SWAP1 PUSH2 0x54E7 JUMP JUMPDEST PUSH2 0x1BFC SWAP2 SWAP1 PUSH2 0x54B6 JUMP JUMPDEST PUSH2 0x1C06 SWAP2 SWAP1 PUSH2 0x54E7 JUMP JUMPDEST PUSH2 0x1C10 SWAP2 SWAP1 PUSH2 0x54B6 JUMP JUMPDEST PUSH1 0x40 MLOAD DUP5 PUSH4 0xFFFFFFFF AND PUSH1 0xE0 SHL DUP2 MSTORE PUSH1 0x4 ADD PUSH2 0x1C2E SWAP4 SWAP3 SWAP2 SWAP1 PUSH2 0x4F7E JUMP JUMPDEST PUSH1 0x20 PUSH1 0x40 MLOAD DUP1 DUP4 SUB DUP2 PUSH1 0x0 DUP8 DUP1 EXTCODESIZE ISZERO DUP1 ISZERO PUSH2 0x1C48 JUMPI PUSH1 0x0 DUP1 REVERT JUMPDEST POP GAS CALL ISZERO DUP1 ISZERO PUSH2 0x1C5C JUMPI RETURNDATASIZE PUSH1 0x0 DUP1 RETURNDATACOPY RETURNDATASIZE PUSH1 0x0 REVERT JUMPDEST POP POP POP POP PUSH1 0x40 MLOAD RETURNDATASIZE PUSH1 0x1F NOT PUSH1 0x1F DUP3 ADD AND DUP3 ADD DUP1 PUSH1 0x40 MSTORE POP DUP2 ADD SWAP1 PUSH2 0x1C80 SWAP2 SWAP1 PUSH2 0x454E JUMP JUMPDEST POP DUP1 DUP1 PUSH2 0x1C8C SWAP1 PUSH2 0x57B1 JUMP JUMPDEST SWAP2 POP POP PUSH2 0x1B75 JUMP JUMPDEST POP PUSH1 0x1 SWAP10 POP POP POP POP POP POP POP POP POP POP SWAP2 SWAP1 POP JUMP JUMPDEST PUSH1 0x6F SLOAD DUP2 JUMP JUMPDEST PUSH1 0x75 SLOAD DUP2 JUMP JUMPDEST PUSH1 0x0 PUSH2 0x1CBD PUSH2 0x304F JUMP JUMPDEST PUSH20 0xFFFFFFFFFFFFFFFFFFFFFFFFFFFFFFFFFFFFFFFF AND PUSH2 0x1CDB PUSH2 0x2812 JUMP JUMPDEST PUSH20 0xFFFFFFFFFFFFFFFFFFFFFFFFFFFFFFFFFFFFFFFF AND EQ PUSH2 0x1D31 JUMPI PUSH1 0x40 MLOAD PUSH32 0x8C379A000000000000000000000000000000000000000000000000000000000 DUP2 MSTORE PUSH1 0x4 ADD PUSH2 0x1D28 SWAP1 PUSH2 0x51E1 JUMP JUMPDEST PUSH1 0x40 MLOAD DUP1 SWAP2 SUB SWAP1 REVERT JUMPDEST DUP2 PUSH1 0x74 DUP2 SWAP1 SSTORE POP PUSH1 0x1 SWAP1 POP SWAP2 SWAP1 POP JUMP JUMPDEST PUSH1 0x0 PUSH2 0x1D4B PUSH2 0x304F JUMP JUMPDEST PUSH20 0xFFFFFFFFFFFFFFFFFFFFFFFFFFFFFFFFFFFFFFFF AND PUSH2 0x1D69 PUSH2 0x2812 JUMP JUMPDEST PUSH20 0xFFFFFFFFFFFFFFFFFFFFFFFFFFFFFFFFFFFFFFFF AND EQ PUSH2 0x1DBF JUMPI PUSH1 0x40 MLOAD PUSH32 0x8C379A000000000000000000000000000000000000000000000000000000000 DUP2 MSTORE PUSH1 0x4 ADD PUSH2 0x1DB6 SWAP1 PUSH2 0x51E1 JUMP JUMPDEST PUSH1 0x40 MLOAD DUP1 SWAP2 SUB SWAP1 REVERT JUMPDEST DUP2 PUSH1 0x78 PUSH1 0x0 DUP6 PUSH20 0xFFFFFFFFFFFFFFFFFFFFFFFFFFFFFFFFFFFFFFFF AND PUSH20 0xFFFFFFFFFFFFFFFFFFFFFFFFFFFFFFFFFFFFFFFF AND DUP2 MSTORE PUSH1 0x20 ADD SWAP1 DUP2 MSTORE PUSH1 0x20 ADD PUSH1 0x0 KECCAK256 DUP2 SWAP1 SSTORE POP PUSH1 0x1 SWAP1 POP SWAP3 SWAP2 POP POP JUMP JUMPDEST PUSH1 0x65 SLOAD DUP2 JUMP JUMPDEST PUSH1 0x0 PUSH2 0x1E1D PUSH2 0x304F JUMP JUMPDEST PUSH20 0xFFFFFFFFFFFFFFFFFFFFFFFFFFFFFFFFFFFFFFFF AND PUSH2 0x1E3B PUSH2 0x2812 JUMP JUMPDEST PUSH20 0xFFFFFFFFFFFFFFFFFFFFFFFFFFFFFFFFFFFFFFFF AND EQ PUSH2 0x1E91 JUMPI PUSH1 0x40 MLOAD PUSH32 0x8C379A000000000000000000000000000000000000000000000000000000000 DUP2 MSTORE PUSH1 0x4 ADD PUSH2 0x1E88 SWAP1 PUSH2 0x51E1 JUMP JUMPDEST PUSH1 0x40 MLOAD DUP1 SWAP2 SUB SWAP1 REVERT JUMPDEST DUP2 PUSH1 0x6F DUP2 SWAP1 SSTORE POP PUSH1 0x1 SWAP1 POP SWAP2 SWAP1 POP JUMP JUMPDEST PUSH1 0x0 PUSH2 0x1EAB PUSH2 0x304F JUMP JUMPDEST PUSH20 0xFFFFFFFFFFFFFFFFFFFFFFFFFFFFFFFFFFFFFFFF AND PUSH2 0x1EC9 PUSH2 0x2812 JUMP JUMPDEST PUSH20 0xFFFFFFFFFFFFFFFFFFFFFFFFFFFFFFFFFFFFFFFF AND EQ PUSH2 0x1F1F JUMPI PUSH1 0x40 MLOAD PUSH32 0x8C379A000000000000000000000000000000000000000000000000000000000 DUP2 MSTORE PUSH1 0x4 ADD PUSH2 0x1F16 SWAP1 PUSH2 0x51E1 JUMP JUMPDEST PUSH1 0x40 MLOAD DUP1 SWAP2 SUB SWAP1 REVERT JUMPDEST DUP2 PUSH1 0x7A DUP2 SWAP1 SSTORE POP PUSH1 0x1 SWAP1 POP SWAP2 SWAP1 POP JUMP JUMPDEST PUSH1 0x7A SLOAD DUP2 JUMP JUMPDEST PUSH1 0x79 PUSH1 0x20 MSTORE DUP1 PUSH1 0x0 MSTORE PUSH1 0x40 PUSH1 0x0 KECCAK256 PUSH1 0x0 SWAP2 POP SWAP1 POP SLOAD DUP2 JUMP JUMPDEST PUSH1 0x0 PUSH2 0x1F57 PUSH2 0x304F JUMP JUMPDEST PUSH20 0xFFFFFFFFFFFFFFFFFFFFFFFFFFFFFFFFFFFFFFFF AND PUSH2 0x1F75 PUSH2 0x2812 JUMP JUMPDEST PUSH20 0xFFFFFFFFFFFFFFFFFFFFFFFFFFFFFFFFFFFFFFFF AND EQ PUSH2 0x1FCB JUMPI PUSH1 0x40 MLOAD PUSH32 0x8C379A000000000000000000000000000000000000000000000000000000000 DUP2 MSTORE PUSH1 0x4 ADD PUSH2 0x1FC2 SWAP1 PUSH2 0x51E1 JUMP JUMPDEST PUSH1 0x40 MLOAD DUP1 SWAP2 SUB SWAP1 REVERT JUMPDEST DUP2 PUSH1 0x69 PUSH1 0x0 PUSH2 0x100 EXP DUP2 SLOAD DUP2 PUSH20 0xFFFFFFFFFFFFFFFFFFFFFFFFFFFFFFFFFFFFFFFF MUL NOT AND SWAP1 DUP4 PUSH20 0xFFFFFFFFFFFFFFFFFFFFFFFFFFFFFFFFFFFFFFFF AND MUL OR SWAP1 SSTORE POP PUSH1 0x1 SWAP1 POP SWAP2 SWAP1 POP JUMP JUMPDEST PUSH1 0x67 PUSH1 0x0 SWAP1 SLOAD SWAP1 PUSH2 0x100 EXP SWAP1 DIV PUSH20 0xFFFFFFFFFFFFFFFFFFFFFFFFFFFFFFFFFFFFFFFF AND DUP2 JUMP JUMPDEST PUSH1 0x0 PUSH2 0x2045 PUSH2 0x304F JUMP JUMPDEST PUSH20 0xFFFFFFFFFFFFFFFFFFFFFFFFFFFFFFFFFFFFFFFF AND PUSH2 0x2063 PUSH2 0x2812 JUMP JUMPDEST PUSH20 0xFFFFFFFFFFFFFFFFFFFFFFFFFFFFFFFFFFFFFFFF AND EQ PUSH2 0x20B9 JUMPI PUSH1 0x40 MLOAD PUSH32 0x8C379A000000000000000000000000000000000000000000000000000000000 DUP2 MSTORE PUSH1 0x4 ADD PUSH2 0x20B0 SWAP1 PUSH2 0x51E1 JUMP JUMPDEST PUSH1 0x40 MLOAD DUP1 SWAP2 SUB SWAP1 REVERT JUMPDEST DUP2 PUSH1 0x68 PUSH1 0x0 PUSH2 0x100 EXP DUP2 SLOAD DUP2 PUSH20 0xFFFFFFFFFFFFFFFFFFFFFFFFFFFFFFFFFFFFFFFF MUL NOT AND SWAP1 DUP4 PUSH20 0xFFFFFFFFFFFFFFFFFFFFFFFFFFFFFFFFFFFFFFFF AND MUL OR SWAP1 SSTORE POP PUSH1 0x1 SWAP1 POP SWAP2 SWAP1 POP JUMP JUMPDEST PUSH1 0x7B SLOAD DUP2 JUMP JUMPDEST PUSH1 0x7D PUSH1 0x0 SWAP1 SLOAD SWAP1 PUSH2 0x100 EXP SWAP1 DIV PUSH1 0xFF AND DUP2 JUMP JUMPDEST PUSH1 0x78 PUSH1 0x20 MSTORE DUP1 PUSH1 0x0 MSTORE PUSH1 0x40 PUSH1 0x0 KECCAK256 PUSH1 0x0 SWAP2 POP SWAP1 POP SLOAD DUP2 JUMP JUMPDEST PUSH1 0x74 SLOAD DUP2 JUMP JUMPDEST PUSH1 0x68 PUSH1 0x0 SWAP1 SLOAD SWAP1 PUSH2 0x100 EXP SWAP1 DIV PUSH20 0xFFFFFFFFFFFFFFFFFFFFFFFFFFFFFFFFFFFFFFFF AND DUP2 JUMP JUMPDEST PUSH1 0x71 PUSH1 0x0 SWAP1 SLOAD SWAP1 PUSH2 0x100 EXP SWAP1 DIV PUSH20 0xFFFFFFFFFFFFFFFFFFFFFFFFFFFFFFFFFFFFFFFF AND DUP2 JUMP JUMPDEST PUSH2 0x218E PUSH2 0x304F JUMP JUMPDEST PUSH20 0xFFFFFFFFFFFFFFFFFFFFFFFFFFFFFFFFFFFFFFFF AND PUSH2 0x21AC PUSH2 0x2812 JUMP JUMPDEST PUSH20 0xFFFFFFFFFFFFFFFFFFFFFFFFFFFFFFFFFFFFFFFF AND EQ PUSH2 0x2202 JUMPI PUSH1 0x40 MLOAD PUSH32 0x8C379A000000000000000000000000000000000000000000000000000000000 DUP2 MSTORE PUSH1 0x4 ADD PUSH2 0x21F9 SWAP1 PUSH2 0x51E1 JUMP JUMPDEST PUSH1 0x40 MLOAD DUP1 SWAP2 SUB SWAP1 REVERT JUMPDEST PUSH2 0x220C PUSH1 0x0 PUSH2 0x38FE JUMP JUMPDEST JUMP JUMPDEST PUSH1 0x7E DUP1 SLOAD PUSH2 0x221B SWAP1 PUSH2 0x577F JUMP JUMPDEST DUP1 PUSH1 0x1F ADD PUSH1 0x20 DUP1 SWAP2 DIV MUL PUSH1 0x20 ADD PUSH1 0x40 MLOAD SWAP1 DUP2 ADD PUSH1 0x40 MSTORE DUP1 SWAP3 SWAP2 SWAP1 DUP2 DUP2 MSTORE PUSH1 0x20 ADD DUP3 DUP1 SLOAD PUSH2 0x2247 SWAP1 PUSH2 0x577F JUMP JUMPDEST DUP1 ISZERO PUSH2 0x2294 JUMPI DUP1 PUSH1 0x1F LT PUSH2 0x2269 JUMPI PUSH2 0x100 DUP1 DUP4 SLOAD DIV MUL DUP4 MSTORE SWAP2 PUSH1 0x20 ADD SWAP2 PUSH2 0x2294 JUMP JUMPDEST DUP3 ADD SWAP2 SWAP1 PUSH1 0x0 MSTORE PUSH1 0x20 PUSH1 0x0 KECCAK256 SWAP1 JUMPDEST DUP2 SLOAD DUP2 MSTORE SWAP1 PUSH1 0x1 ADD SWAP1 PUSH1 0x20 ADD DUP1 DUP4 GT PUSH2 0x2277 JUMPI DUP3 SWAP1 SUB PUSH1 0x1F AND DUP3 ADD SWAP2 JUMPDEST POP POP POP POP POP DUP2 JUMP JUMPDEST PUSH1 0x0 PUSH1 0x1 SWAP1 SLOAD SWAP1 PUSH2 0x100 EXP SWAP1 DIV PUSH1 0xFF AND DUP1 PUSH2 0x22C2 JUMPI POP PUSH1 0x0 DUP1 SLOAD SWAP1 PUSH2 0x100 EXP SWAP1 DIV PUSH1 0xFF AND ISZERO JUMPDEST PUSH2 0x2301 JUMPI PUSH1 0x40 MLOAD PUSH32 0x8C379A000000000000000000000000000000000000000000000000000000000 DUP2 MSTORE PUSH1 0x4 ADD PUSH2 0x22F8 SWAP1 PUSH2 0x51C1 JUMP JUMPDEST PUSH1 0x40 MLOAD DUP1 SWAP2 SUB SWAP1 REVERT JUMPDEST PUSH1 0x0 DUP1 PUSH1 0x1 SWAP1 SLOAD SWAP1 PUSH2 0x100 EXP SWAP1 DIV PUSH1 0xFF AND ISZERO SWAP1 POP DUP1 ISZERO PUSH2 0x2351 JUMPI PUSH1 0x1 PUSH1 0x0 PUSH1 0x1 PUSH2 0x100 EXP DUP2 SLOAD DUP2 PUSH1 0xFF MUL NOT AND SWAP1 DUP4 ISZERO ISZERO MUL OR SWAP1 SSTORE POP PUSH1 0x1 PUSH1 0x0 DUP1 PUSH2 0x100 EXP DUP2 SLOAD DUP2 PUSH1 0xFF MUL NOT AND SWAP1 DUP4 ISZERO ISZERO MUL OR SWAP1 SSTORE POP JUMPDEST PUSH2 0x2359 PUSH2 0x39C4 JUMP JUMPDEST DUP2 PUSH1 0x6E PUSH1 0x0 PUSH2 0x100 EXP DUP2 SLOAD DUP2 PUSH20 0xFFFFFFFFFFFFFFFFFFFFFFFFFFFFFFFFFFFFFFFF MUL NOT AND SWAP1 DUP4 PUSH20 0xFFFFFFFFFFFFFFFFFFFFFFFFFFFFFFFFFFFFFFFF AND MUL OR SWAP1 SSTORE POP DUP3 PUSH1 0x66 PUSH1 0x0 PUSH2 0x100 EXP DUP2 SLOAD DUP2 PUSH20 0xFFFFFFFFFFFFFFFFFFFFFFFFFFFFFFFFFFFFFFFF MUL NOT AND SWAP1 DUP4 PUSH20 0xFFFFFFFFFFFFFFFFFFFFFFFFFFFFFFFFFFFFFFFF AND MUL OR SWAP1 SSTORE POP DUP6 PUSH1 0x6A PUSH1 0x0 PUSH2 0x100 EXP DUP2 SLOAD DUP2 PUSH20 0xFFFFFFFFFFFFFFFFFFFFFFFFFFFFFFFFFFFFFFFF MUL NOT AND SWAP1 DUP4 PUSH20 0xFFFFFFFFFFFFFFFFFFFFFFFFFFFFFFFFFFFFFFFF AND MUL OR SWAP1 SSTORE POP DUP5 PUSH1 0x6B PUSH1 0x0 PUSH2 0x100 EXP DUP2 SLOAD DUP2 PUSH20 0xFFFFFFFFFFFFFFFFFFFFFFFFFFFFFFFFFFFFFFFF MUL NOT AND SWAP1 DUP4 PUSH20 0xFFFFFFFFFFFFFFFFFFFFFFFFFFFFFFFFFFFFFFFF AND MUL OR SWAP1 SSTORE POP DUP8 PUSH1 0x68 PUSH1 0x0 PUSH2 0x100 EXP DUP2 SLOAD DUP2 PUSH20 0xFFFFFFFFFFFFFFFFFFFFFFFFFFFFFFFFFFFFFFFF MUL NOT AND SWAP1 DUP4 PUSH20 0xFFFFFFFFFFFFFFFFFFFFFFFFFFFFFFFFFFFFFFFF AND MUL OR SWAP1 SSTORE POP DUP7 PUSH1 0x69 PUSH1 0x0 PUSH2 0x100 EXP DUP2 SLOAD DUP2 PUSH20 0xFFFFFFFFFFFFFFFFFFFFFFFFFFFFFFFFFFFFFFFF MUL NOT AND SWAP1 DUP4 PUSH20 0xFFFFFFFFFFFFFFFFFFFFFFFFFFFFFFFFFFFFFFFF AND MUL OR SWAP1 SSTORE POP DUP9 PUSH1 0x6C PUSH1 0x0 PUSH2 0x100 EXP DUP2 SLOAD DUP2 PUSH20 0xFFFFFFFFFFFFFFFFFFFFFFFFFFFFFFFFFFFFFFFF MUL NOT AND SWAP1 DUP4 PUSH20 0xFFFFFFFFFFFFFFFFFFFFFFFFFFFFFFFFFFFFFFFF AND MUL OR SWAP1 SSTORE POP DUP10 PUSH1 0x6D PUSH1 0x0 PUSH2 0x100 EXP DUP2 SLOAD DUP2 PUSH20 0xFFFFFFFFFFFFFFFFFFFFFFFFFFFFFFFFFFFFFFFF MUL NOT AND SWAP1 DUP4 PUSH20 0xFFFFFFFFFFFFFFFFFFFFFFFFFFFFFFFFFFFFFFFF AND MUL OR SWAP1 SSTORE POP DUP12 PUSH1 0x70 PUSH1 0x0 PUSH2 0x100 EXP DUP2 SLOAD DUP2 PUSH20 0xFFFFFFFFFFFFFFFFFFFFFFFFFFFFFFFFFFFFFFFF MUL NOT AND SWAP1 DUP4 PUSH20 0xFFFFFFFFFFFFFFFFFFFFFFFFFFFFFFFFFFFFFFFF AND MUL OR SWAP1 SSTORE POP DUP11 PUSH1 0x71 PUSH1 0x0 PUSH2 0x100 EXP DUP2 SLOAD DUP2 PUSH20 0xFFFFFFFFFFFFFFFFFFFFFFFFFFFFFFFFFFFFFFFF MUL NOT AND SWAP1 DUP4 PUSH20 0xFFFFFFFFFFFFFFFFFFFFFFFFFFFFFFFFFFFFFFFF AND MUL OR SWAP1 SSTORE POP DUP4 PUSH1 0x67 PUSH1 0x0 PUSH2 0x100 EXP DUP2 SLOAD DUP2 PUSH20 0xFFFFFFFFFFFFFFFFFFFFFFFFFFFFFFFFFFFFFFFF MUL NOT AND SWAP1 DUP4 PUSH20 0xFFFFFFFFFFFFFFFFFFFFFFFFFFFFFFFFFFFFFFFF AND MUL OR SWAP1 SSTORE POP PUSH2 0x2710 PUSH1 0x73 DUP2 SWAP1 SSTORE POP PUSH2 0x2710 PUSH1 0x72 DUP2 SWAP1 SSTORE POP PUSH1 0x0 PUSH1 0x74 DUP2 SWAP1 SSTORE POP PUSH1 0x64 PUSH1 0x75 DUP2 SWAP1 SSTORE POP PUSH2 0x3E8 PUSH1 0x76 DUP2 SWAP1 SSTORE POP PUSH9 0x56BC75E2D63100000 PUSH1 0x77 DUP2 SWAP1 SSTORE POP PUSH2 0x2710 PUSH1 0x79 PUSH1 0x0 DUP1 DUP2 MSTORE PUSH1 0x20 ADD SWAP1 DUP2 MSTORE PUSH1 0x20 ADD PUSH1 0x0 KECCAK256 DUP2 SWAP1 SSTORE POP PUSH2 0x2328 PUSH1 0x79 PUSH1 0x0 PUSH1 0x1 DUP2 MSTORE PUSH1 0x20 ADD SWAP1 DUP2 MSTORE PUSH1 0x20 ADD PUSH1 0x0 KECCAK256 DUP2 SWAP1 SSTORE POP PUSH2 0x1F40 PUSH1 0x79 PUSH1 0x0 PUSH1 0x2 DUP2 MSTORE PUSH1 0x20 ADD SWAP1 DUP2 MSTORE PUSH1 0x20 ADD PUSH1 0x0 KECCAK256 DUP2 SWAP1 SSTORE POP PUSH2 0x3E8 PUSH1 0x6F DUP2 SWAP1 SSTORE POP PUSH2 0x1388 PUSH1 0x7A DUP2 SWAP1 SSTORE POP PUSH2 0x5DC PUSH1 0x7B DUP2 SWAP1 SSTORE POP PUSH2 0x5DC PUSH1 0x7C DUP2 SWAP1 SSTORE POP PUSH1 0x0 PUSH1 0x7D PUSH1 0x1 PUSH2 0x100 EXP DUP2 SLOAD DUP2 PUSH1 0xFF MUL NOT AND SWAP1 DUP4 ISZERO ISZERO MUL OR SWAP1 SSTORE POP PUSH1 0x0 PUSH1 0x7D PUSH1 0x0 PUSH2 0x100 EXP DUP2 SLOAD DUP2 PUSH1 0xFF MUL NOT AND SWAP1 DUP4 ISZERO ISZERO MUL OR SWAP1 SSTORE POP DUP1 ISZERO PUSH2 0x272A JUMPI PUSH1 0x0 DUP1 PUSH1 0x1 PUSH2 0x100 EXP DUP2 SLOAD DUP2 PUSH1 0xFF MUL NOT AND SWAP1 DUP4 ISZERO ISZERO MUL OR SWAP1 SSTORE POP JUMPDEST POP POP POP POP POP POP POP POP POP POP POP POP JUMP JUMPDEST PUSH1 0x66 PUSH1 0x0 SWAP1 SLOAD SWAP1 PUSH2 0x100 EXP SWAP1 DIV PUSH20 0xFFFFFFFFFFFFFFFFFFFFFFFFFFFFFFFFFFFFFFFF AND DUP2 JUMP JUMPDEST PUSH1 0x6E PUSH1 0x0 SWAP1 SLOAD SWAP1 PUSH2 0x100 EXP SWAP1 DIV PUSH20 0xFFFFFFFFFFFFFFFFFFFFFFFFFFFFFFFFFFFFFFFF AND DUP2 JUMP JUMPDEST PUSH1 0x0 PUSH2 0x278E PUSH2 0x304F JUMP JUMPDEST PUSH20 0xFFFFFFFFFFFFFFFFFFFFFFFFFFFFFFFFFFFFFFFF AND PUSH2 0x27AC PUSH2 0x2812 JUMP JUMPDEST PUSH20 0xFFFFFFFFFFFFFFFFFFFFFFFFFFFFFFFFFFFFFFFF AND EQ PUSH2 0x2802 JUMPI PUSH1 0x40 MLOAD PUSH32 0x8C379A000000000000000000000000000000000000000000000000000000000 DUP2 MSTORE PUSH1 0x4 ADD PUSH2 0x27F9 SWAP1 PUSH2 0x51E1 JUMP JUMPDEST PUSH1 0x40 MLOAD DUP1 SWAP2 SUB SWAP1 REVERT JUMPDEST DUP2 PUSH1 0x7B DUP2 SWAP1 SSTORE POP PUSH1 0x1 SWAP1 POP SWAP2 SWAP1 POP JUMP JUMPDEST PUSH1 0x0 PUSH1 0x33 PUSH1 0x0 SWAP1 SLOAD SWAP1 PUSH2 0x100 EXP SWAP1 DIV PUSH20 0xFFFFFFFFFFFFFFFFFFFFFFFFFFFFFFFFFFFFFFFF AND SWAP1 POP SWAP1 JUMP JUMPDEST PUSH1 0x0 PUSH2 0x2846 PUSH2 0x304F JUMP JUMPDEST PUSH20 0xFFFFFFFFFFFFFFFFFFFFFFFFFFFFFFFFFFFFFFFF AND PUSH2 0x2864 PUSH2 0x2812 JUMP JUMPDEST PUSH20 0xFFFFFFFFFFFFFFFFFFFFFFFFFFFFFFFFFFFFFFFF AND EQ PUSH2 0x28BA JUMPI PUSH1 0x40 MLOAD PUSH32 0x8C379A000000000000000000000000000000000000000000000000000000000 DUP2 MSTORE PUSH1 0x4 ADD PUSH2 0x28B1 SWAP1 PUSH2 0x51E1 JUMP JUMPDEST PUSH1 0x40 MLOAD DUP1 SWAP2 SUB SWAP1 REVERT JUMPDEST DUP2 PUSH1 0x77 DUP2 SWAP1 SSTORE POP PUSH1 0x1 SWAP1 POP SWAP2 SWAP1 POP JUMP JUMPDEST PUSH1 0x6A PUSH1 0x0 SWAP1 SLOAD SWAP1 PUSH2 0x100 EXP SWAP1 DIV PUSH20 0xFFFFFFFFFFFFFFFFFFFFFFFFFFFFFFFFFFFFFFFF AND DUP2 JUMP JUMPDEST PUSH1 0x69 PUSH1 0x0 SWAP1 SLOAD SWAP1 PUSH2 0x100 EXP SWAP1 DIV PUSH20 0xFFFFFFFFFFFFFFFFFFFFFFFFFFFFFFFFFFFFFFFF AND DUP2 JUMP JUMPDEST PUSH1 0x77 SLOAD DUP2 JUMP JUMPDEST PUSH1 0x0 PUSH2 0x2926 PUSH2 0x304F JUMP JUMPDEST PUSH20 0xFFFFFFFFFFFFFFFFFFFFFFFFFFFFFFFFFFFFFFFF AND PUSH2 0x2944 PUSH2 0x2812 JUMP JUMPDEST PUSH20 0xFFFFFFFFFFFFFFFFFFFFFFFFFFFFFFFFFFFFFFFF AND EQ PUSH2 0x299A JUMPI PUSH1 0x40 MLOAD PUSH32 0x8C379A000000000000000000000000000000000000000000000000000000000 DUP2 MSTORE PUSH1 0x4 ADD PUSH2 0x2991 SWAP1 PUSH2 0x51E1 JUMP JUMPDEST PUSH1 0x40 MLOAD DUP1 SWAP2 SUB SWAP1 REVERT JUMPDEST DUP2 PUSH1 0x7D PUSH1 0x0 PUSH2 0x100 EXP DUP2 SLOAD DUP2 PUSH1 0xFF MUL NOT AND SWAP1 DUP4 ISZERO ISZERO MUL OR SWAP1 SSTORE POP PUSH1 0x1 SWAP1 POP SWAP2 SWAP1 POP JUMP JUMPDEST PUSH1 0x0 PUSH1 0x66 PUSH1 0x0 SWAP1 SLOAD SWAP1 PUSH2 0x100 EXP SWAP1 DIV PUSH20 0xFFFFFFFFFFFFFFFFFFFFFFFFFFFFFFFFFFFFFFFF AND PUSH20 0xFFFFFFFFFFFFFFFFFFFFFFFFFFFFFFFFFFFFFFFF AND PUSH4 0xD39BBEF0 PUSH1 0x40 MLOAD DUP2 PUSH4 0xFFFFFFFF AND PUSH1 0xE0 SHL DUP2 MSTORE PUSH1 0x4 ADD PUSH2 0x2A18 SWAP1 PUSH2 0x5161 JUMP JUMPDEST PUSH1 0x20 PUSH1 0x40 MLOAD DUP1 DUP4 SUB DUP2 DUP7 DUP1 EXTCODESIZE ISZERO DUP1 ISZERO PUSH2 0x2A30 JUMPI PUSH1 0x0 DUP1 REVERT JUMPDEST POP GAS STATICCALL ISZERO DUP1 ISZERO PUSH2 0x2A44 JUMPI RETURNDATASIZE PUSH1 0x0 DUP1 RETURNDATACOPY RETURNDATASIZE PUSH1 0x0 REVERT JUMPDEST POP POP POP POP PUSH1 0x40 MLOAD RETURNDATASIZE PUSH1 0x1F NOT PUSH1 0x1F DUP3 ADD AND DUP3 ADD DUP1 PUSH1 0x40 MSTORE POP DUP2 ADD SWAP1 PUSH2 0x2A68 SWAP2 SWAP1 PUSH2 0x476F JUMP JUMPDEST SWAP1 POP SWAP1 JUMP JUMPDEST PUSH1 0x0 PUSH2 0x2A77 PUSH2 0x304F JUMP JUMPDEST PUSH20 0xFFFFFFFFFFFFFFFFFFFFFFFFFFFFFFFFFFFFFFFF AND PUSH2 0x2A95 PUSH2 0x2812 JUMP JUMPDEST PUSH20 0xFFFFFFFFFFFFFFFFFFFFFFFFFFFFFFFFFFFFFFFF AND EQ PUSH2 0x2AEB JUMPI PUSH1 0x40 MLOAD PUSH32 0x8C379A000000000000000000000000000000000000000000000000000000000 DUP2 MSTORE PUSH1 0x4 ADD PUSH2 0x2AE2 SWAP1 PUSH2 0x51E1 JUMP JUMPDEST PUSH1 0x40 MLOAD DUP1 SWAP2 SUB SWAP1 REVERT JUMPDEST DUP2 PUSH1 0x6B PUSH1 0x0 PUSH2 0x100 EXP DUP2 SLOAD DUP2 PUSH20 0xFFFFFFFFFFFFFFFFFFFFFFFFFFFFFFFFFFFFFFFF MUL NOT AND SWAP1 DUP4 PUSH20 0xFFFFFFFFFFFFFFFFFFFFFFFFFFFFFFFFFFFFFFFF AND MUL OR SWAP1 SSTORE POP PUSH1 0x1 SWAP1 POP SWAP2 SWAP1 POP JUMP JUMPDEST PUSH1 0x0 PUSH2 0x2B3F PUSH2 0x304F JUMP JUMPDEST PUSH20 0xFFFFFFFFFFFFFFFFFFFFFFFFFFFFFFFFFFFFFFFF AND PUSH2 0x2B5D PUSH2 0x2812 JUMP JUMPDEST PUSH20 0xFFFFFFFFFFFFFFFFFFFFFFFFFFFFFFFFFFFFFFFF AND EQ PUSH2 0x2BB3 JUMPI PUSH1 0x40 MLOAD PUSH32 0x8C379A000000000000000000000000000000000000000000000000000000000 DUP2 MSTORE PUSH1 0x4 ADD PUSH2 0x2BAA SWAP1 PUSH2 0x51E1 JUMP JUMPDEST PUSH1 0x40 MLOAD DUP1 SWAP2 SUB SWAP1 REVERT JUMPDEST DUP2 PUSH1 0x7C DUP2 SWAP1 SSTORE POP PUSH1 0x1 SWAP1 POP SWAP2 SWAP1 POP JUMP JUMPDEST PUSH1 0x73 SLOAD DUP2 JUMP JUMPDEST PUSH1 0x76 SLOAD DUP2 JUMP JUMPDEST PUSH1 0x0 PUSH2 0x2BD9 PUSH2 0x304F JUMP JUMPDEST PUSH20 0xFFFFFFFFFFFFFFFFFFFFFFFFFFFFFFFFFFFFFFFF AND PUSH2 0x2BF7 PUSH2 0x2812 JUMP JUMPDEST PUSH20 0xFFFFFFFFFFFFFFFFFFFFFFFFFFFFFFFFFFFFFFFF AND EQ PUSH2 0x2C4D JUMPI PUSH1 0x40 MLOAD PUSH32 0x8C379A000000000000000000000000000000000000000000000000000000000 DUP2 MSTORE PUSH1 0x4 ADD PUSH2 0x2C44 SWAP1 PUSH2 0x51E1 JUMP JUMPDEST PUSH1 0x40 MLOAD DUP1 SWAP2 SUB SWAP1 REVERT JUMPDEST DUP3 PUSH1 0x66 PUSH1 0x0 PUSH2 0x100 EXP DUP2 SLOAD DUP2 PUSH20 0xFFFFFFFFFFFFFFFFFFFFFFFFFFFFFFFFFFFFFFFF MUL NOT AND SWAP1 DUP4 PUSH20 0xFFFFFFFFFFFFFFFFFFFFFFFFFFFFFFFFFFFFFFFF AND MUL OR SWAP1 SSTORE POP DUP2 PUSH1 0x7E SWAP1 DUP1 MLOAD SWAP1 PUSH1 0x20 ADD SWAP1 PUSH2 0x2CA4 SWAP3 SWAP2 SWAP1 PUSH2 0x418F JUMP JUMPDEST POP PUSH1 0x1 SWAP1 POP SWAP3 SWAP2 POP POP JUMP JUMPDEST PUSH1 0x0 PUSH2 0x2CB9 PUSH2 0x304F JUMP JUMPDEST PUSH20 0xFFFFFFFFFFFFFFFFFFFFFFFFFFFFFFFFFFFFFFFF AND PUSH2 0x2CD7 PUSH2 0x2812 JUMP JUMPDEST PUSH20 0xFFFFFFFFFFFFFFFFFFFFFFFFFFFFFFFFFFFFFFFF AND EQ PUSH2 0x2D2D JUMPI PUSH1 0x40 MLOAD PUSH32 0x8C379A000000000000000000000000000000000000000000000000000000000 DUP2 MSTORE PUSH1 0x4 ADD PUSH2 0x2D24 SWAP1 PUSH2 0x51E1 JUMP JUMPDEST PUSH1 0x40 MLOAD DUP1 SWAP2 SUB SWAP1 REVERT JUMPDEST DUP2 PUSH1 0x76 DUP2 SWAP1 SSTORE POP PUSH1 0x1 SWAP1 POP SWAP2 SWAP1 POP JUMP JUMPDEST PUSH1 0x6D PUSH1 0x0 SWAP1 SLOAD SWAP1 PUSH2 0x100 EXP SWAP1 DIV PUSH20 0xFFFFFFFFFFFFFFFFFFFFFFFFFFFFFFFFFFFFFFFF AND DUP2 JUMP JUMPDEST PUSH1 0x0 PUSH2 0x2D6D PUSH2 0x304F JUMP JUMPDEST PUSH20 0xFFFFFFFFFFFFFFFFFFFFFFFFFFFFFFFFFFFFFFFF AND PUSH2 0x2D8B PUSH2 0x2812 JUMP JUMPDEST PUSH20 0xFFFFFFFFFFFFFFFFFFFFFFFFFFFFFFFFFFFFFFFF AND EQ PUSH2 0x2DE1 JUMPI PUSH1 0x40 MLOAD PUSH32 0x8C379A000000000000000000000000000000000000000000000000000000000 DUP2 MSTORE PUSH1 0x4 ADD PUSH2 0x2DD8 SWAP1 PUSH2 0x51E1 JUMP JUMPDEST PUSH1 0x40 MLOAD DUP1 SWAP2 SUB SWAP1 REVERT JUMPDEST DUP2 PUSH1 0x7D PUSH1 0x1 PUSH2 0x100 EXP DUP2 SLOAD DUP2 PUSH1 0xFF MUL NOT AND SWAP1 DUP4 ISZERO ISZERO MUL OR SWAP1 SSTORE POP PUSH1 0x1 SWAP1 POP SWAP2 SWAP1 POP JUMP JUMPDEST PUSH1 0x0 PUSH2 0x2E0E PUSH2 0x304F JUMP JUMPDEST PUSH20 0xFFFFFFFFFFFFFFFFFFFFFFFFFFFFFFFFFFFFFFFF AND PUSH2 0x2E2C PUSH2 0x2812 JUMP JUMPDEST PUSH20 0xFFFFFFFFFFFFFFFFFFFFFFFFFFFFFFFFFFFFFFFF AND EQ PUSH2 0x2E82 JUMPI PUSH1 0x40 MLOAD PUSH32 0x8C379A000000000000000000000000000000000000000000000000000000000 DUP2 MSTORE PUSH1 0x4 ADD PUSH2 0x2E79 SWAP1 PUSH2 0x51E1 JUMP JUMPDEST PUSH1 0x40 MLOAD DUP1 SWAP2 SUB SWAP1 REVERT JUMPDEST DUP2 PUSH1 0x6A PUSH1 0x0 PUSH2 0x100 EXP DUP2 SLOAD DUP2 PUSH20 0xFFFFFFFFFFFFFFFFFFFFFFFFFFFFFFFFFFFFFFFF MUL NOT AND SWAP1 DUP4 PUSH20 0xFFFFFFFFFFFFFFFFFFFFFFFFFFFFFFFFFFFFFFFF AND MUL OR SWAP1 SSTORE POP PUSH1 0x1 SWAP1 POP SWAP2 SWAP1 POP JUMP JUMPDEST PUSH1 0x72 SLOAD DUP2 JUMP JUMPDEST PUSH1 0x6B PUSH1 0x0 SWAP1 SLOAD SWAP1 PUSH2 0x100 EXP SWAP1 DIV PUSH20 0xFFFFFFFFFFFFFFFFFFFFFFFFFFFFFFFFFFFFFFFF AND DUP2 JUMP JUMPDEST PUSH2 0x2F00 PUSH2 0x304F JUMP JUMPDEST PUSH20 0xFFFFFFFFFFFFFFFFFFFFFFFFFFFFFFFFFFFFFFFF AND PUSH2 0x2F1E PUSH2 0x2812 JUMP JUMPDEST PUSH20 0xFFFFFFFFFFFFFFFFFFFFFFFFFFFFFFFFFFFFFFFF AND EQ PUSH2 0x2F74 JUMPI PUSH1 0x40 MLOAD PUSH32 0x8C379A000000000000000000000000000000000000000000000000000000000 DUP2 MSTORE PUSH1 0x4 ADD PUSH2 0x2F6B SWAP1 PUSH2 0x51E1 JUMP JUMPDEST PUSH1 0x40 MLOAD DUP1 SWAP2 SUB SWAP1 REVERT JUMPDEST PUSH1 0x0 PUSH20 0xFFFFFFFFFFFFFFFFFFFFFFFFFFFFFFFFFFFFFFFF AND DUP2 PUSH20 0xFFFFFFFFFFFFFFFFFFFFFFFFFFFFFFFFFFFFFFFF AND EQ ISZERO PUSH2 0x2FE4 JUMPI PUSH1 0x40 MLOAD PUSH32 0x8C379A000000000000000000000000000000000000000000000000000000000 DUP2 MSTORE PUSH1 0x4 ADD PUSH2 0x2FDB SWAP1 PUSH2 0x5121 JUMP JUMPDEST PUSH1 0x40 MLOAD DUP1 SWAP2 SUB SWAP1 REVERT JUMPDEST PUSH2 0x2FED DUP2 PUSH2 0x38FE JUMP JUMPDEST POP JUMP JUMPDEST PUSH1 0x7D PUSH1 0x1 SWAP1 SLOAD SWAP1 PUSH2 0x100 EXP SWAP1 DIV PUSH1 0xFF AND DUP2 JUMP JUMPDEST PUSH1 0x6C PUSH1 0x0 SWAP1 SLOAD SWAP1 PUSH2 0x100 EXP SWAP1 DIV PUSH20 0xFFFFFFFFFFFFFFFFFFFFFFFFFFFFFFFFFFFFFFFF AND DUP2 JUMP JUMPDEST PUSH1 0x70 PUSH1 0x0 SWAP1 SLOAD SWAP1 PUSH2 0x100 EXP SWAP1 DIV PUSH20 0xFFFFFFFFFFFFFFFFFFFFFFFFFFFFFFFFFFFFFFFF AND DUP2 JUMP JUMPDEST PUSH1 0x0 CALLER SWAP1 POP SWAP1 JUMP JUMPDEST PUSH1 0x0 DUP2 DUP4 PUSH2 0x3065 SWAP2 SWAP1 PUSH2 0x54E7 JUMP JUMPDEST SWAP1 POP SWAP3 SWAP2 POP POP JUMP JUMPDEST PUSH1 0x0 DUP2 DUP4 PUSH2 0x307B SWAP2 SWAP1 PUSH2 0x54B6 JUMP JUMPDEST SWAP1 POP SWAP3 SWAP2 POP POP JUMP JUMPDEST PUSH2 0x3106 DUP5 PUSH4 0x23B872DD PUSH1 0xE0 SHL DUP6 DUP6 DUP6 PUSH1 0x40 MLOAD PUSH1 0x24 ADD PUSH2 0x30A4 SWAP4 SWAP3 SWAP2 SWAP1 PUSH2 0x4EA0 JUMP JUMPDEST PUSH1 0x40 MLOAD PUSH1 0x20 DUP2 DUP4 SUB SUB DUP2 MSTORE SWAP1 PUSH1 0x40 MSTORE SWAP1 PUSH28 0xFFFFFFFFFFFFFFFFFFFFFFFFFFFFFFFFFFFFFFFFFFFFFFFFFFFFFFFF NOT AND PUSH1 0x20 DUP3 ADD DUP1 MLOAD PUSH28 0xFFFFFFFFFFFFFFFFFFFFFFFFFFFFFFFFFFFFFFFFFFFFFFFFFFFFFFFF DUP4 DUP2 DUP4 AND OR DUP4 MSTORE POP POP POP POP PUSH2 0x3AAD JUMP JUMPDEST POP POP POP POP JUMP JUMPDEST PUSH1 0x0 DUP2 DUP4 PUSH2 0x311A SWAP2 SWAP1 PUSH2 0x5541 JUMP JUMPDEST SWAP1 POP SWAP3 SWAP2 POP POP JUMP JUMPDEST PUSH1 0x0 DUP1 DUP3 PUSH20 0xFFFFFFFFFFFFFFFFFFFFFFFFFFFFFFFFFFFFFFFF AND DUP5 PUSH20 0xFFFFFFFFFFFFFFFFFFFFFFFFFFFFFFFFFFFFFFFF AND EQ ISZERO PUSH2 0x3194 JUMPI PUSH1 0x40 MLOAD PUSH32 0x8C379A000000000000000000000000000000000000000000000000000000000 DUP2 MSTORE PUSH1 0x4 ADD PUSH2 0x318B SWAP1 PUSH2 0x5101 JUMP JUMPDEST PUSH1 0x40 MLOAD DUP1 SWAP2 SUB SWAP1 REVERT JUMPDEST DUP3 PUSH20 0xFFFFFFFFFFFFFFFFFFFFFFFFFFFFFFFFFFFFFFFF AND DUP5 PUSH20 0xFFFFFFFFFFFFFFFFFFFFFFFFFFFFFFFFFFFFFFFF AND LT PUSH2 0x31CE JUMPI DUP3 DUP5 PUSH2 0x31D1 JUMP JUMPDEST DUP4 DUP4 JUMPDEST DUP1 SWAP3 POP DUP2 SWAP4 POP POP POP PUSH1 0x0 PUSH20 0xFFFFFFFFFFFFFFFFFFFFFFFFFFFFFFFFFFFFFFFF AND DUP3 PUSH20 0xFFFFFFFFFFFFFFFFFFFFFFFFFFFFFFFFFFFFFFFF AND EQ ISZERO PUSH2 0x3249 JUMPI PUSH1 0x40 MLOAD PUSH32 0x8C379A000000000000000000000000000000000000000000000000000000000 DUP2 MSTORE PUSH1 0x4 ADD PUSH2 0x3240 SWAP1 PUSH2 0x51A1 JUMP JUMPDEST PUSH1 0x40 MLOAD DUP1 SWAP2 SUB SWAP1 REVERT JUMPDEST SWAP3 POP SWAP3 SWAP1 POP JUMP JUMPDEST PUSH1 0x0 DUP2 EQ DUP1 PUSH2 0x32E9 JUMPI POP PUSH1 0x0 DUP4 PUSH20 0xFFFFFFFFFFFFFFFFFFFFFFFFFFFFFFFFFFFFFFFF AND PUSH4 0xDD62ED3E ADDRESS DUP6 PUSH1 0x40 MLOAD DUP4 PUSH4 0xFFFFFFFF AND PUSH1 0xE0 SHL DUP2 MSTORE PUSH1 0x4 ADD PUSH2 0x3297 SWAP3 SWAP2 SWAP1 PUSH2 0x4E77 JUMP JUMPDEST PUSH1 0x20 PUSH1 0x40 MLOAD DUP1 DUP4 SUB DUP2 DUP7 DUP1 EXTCODESIZE ISZERO DUP1 ISZERO PUSH2 0x32AF JUMPI PUSH1 0x0 DUP1 REVERT JUMPDEST POP GAS STATICCALL ISZERO DUP1 ISZERO PUSH2 0x32C3 JUMPI RETURNDATASIZE PUSH1 0x0 DUP1 RETURNDATACOPY RETURNDATASIZE PUSH1 0x0 REVERT JUMPDEST POP POP POP POP PUSH1 0x40 MLOAD RETURNDATASIZE PUSH1 0x1F NOT PUSH1 0x1F DUP3 ADD AND DUP3 ADD DUP1 PUSH1 0x40 MSTORE POP DUP2 ADD SWAP1 PUSH2 0x32E7 SWAP2 SWAP1 PUSH2 0x476F JUMP JUMPDEST EQ JUMPDEST PUSH2 0x3328 JUMPI PUSH1 0x40 MLOAD PUSH32 0x8C379A000000000000000000000000000000000000000000000000000000000 DUP2 MSTORE PUSH1 0x4 ADD PUSH2 0x331F SWAP1 PUSH2 0x5261 JUMP JUMPDEST PUSH1 0x40 MLOAD DUP1 SWAP2 SUB SWAP1 REVERT JUMPDEST PUSH2 0x33A9 DUP4 PUSH4 0x95EA7B3 PUSH1 0xE0 SHL DUP5 DUP5 PUSH1 0x40 MLOAD PUSH1 0x24 ADD PUSH2 0x3347 SWAP3 SWAP2 SWAP1 PUSH2 0x4F55 JUMP JUMPDEST PUSH1 0x40 MLOAD PUSH1 0x20 DUP2 DUP4 SUB SUB DUP2 MSTORE SWAP1 PUSH1 0x40 MSTORE SWAP1 PUSH28 0xFFFFFFFFFFFFFFFFFFFFFFFFFFFFFFFFFFFFFFFFFFFFFFFFFFFFFFFF NOT AND PUSH1 0x20 DUP3 ADD DUP1 MLOAD PUSH28 0xFFFFFFFFFFFFFFFFFFFFFFFFFFFFFFFFFFFFFFFFFFFFFFFFFFFFFFFF DUP4 DUP2 DUP4 AND OR DUP4 MSTORE POP POP POP POP PUSH2 0x3AAD JUMP JUMPDEST POP POP POP JUMP JUMPDEST PUSH1 0x0 DUP1 DUP6 PUSH20 0xFFFFFFFFFFFFFFFFFFFFFFFFFFFFFFFFFFFFFFFF AND PUSH4 0x902F1AC PUSH1 0x40 MLOAD DUP2 PUSH4 0xFFFFFFFF AND PUSH1 0xE0 SHL DUP2 MSTORE PUSH1 0x4 ADD PUSH1 0x60 PUSH1 0x40 MLOAD DUP1 DUP4 SUB DUP2 DUP7 DUP1 EXTCODESIZE ISZERO DUP1 ISZERO PUSH2 0x33F7 JUMPI PUSH1 0x0 DUP1 REVERT JUMPDEST POP GAS STATICCALL ISZERO DUP1 ISZERO PUSH2 0x340B JUMPI RETURNDATASIZE PUSH1 0x0 DUP1 RETURNDATACOPY RETURNDATASIZE PUSH1 0x0 REVERT JUMPDEST POP POP POP POP PUSH1 0x40 MLOAD RETURNDATASIZE PUSH1 0x1F NOT PUSH1 0x1F DUP3 ADD AND DUP3 ADD DUP1 PUSH1 0x40 MSTORE POP DUP2 ADD SWAP1 PUSH2 0x342F SWAP2 SWAP1 PUSH2 0x46F7 JUMP JUMPDEST POP PUSH14 0xFFFFFFFFFFFFFFFFFFFFFFFFFFFF AND SWAP2 POP PUSH14 0xFFFFFFFFFFFFFFFFFFFFFFFFFFFF AND SWAP2 POP PUSH1 0x0 DUP1 DUP8 PUSH20 0xFFFFFFFFFFFFFFFFFFFFFFFFFFFFFFFFFFFFFFFF AND PUSH4 0xDFE1681 PUSH1 0x40 MLOAD DUP2 PUSH4 0xFFFFFFFF AND PUSH1 0xE0 SHL DUP2 MSTORE PUSH1 0x4 ADD PUSH1 0x20 PUSH1 0x40 MLOAD DUP1 DUP4 SUB DUP2 DUP7 DUP1 EXTCODESIZE ISZERO DUP1 ISZERO PUSH2 0x349D JUMPI PUSH1 0x0 DUP1 REVERT JUMPDEST POP GAS STATICCALL ISZERO DUP1 ISZERO PUSH2 0x34B1 JUMPI RETURNDATASIZE PUSH1 0x0 DUP1 RETURNDATACOPY RETURNDATASIZE PUSH1 0x0 REVERT JUMPDEST POP POP POP POP PUSH1 0x40 MLOAD RETURNDATASIZE PUSH1 0x1F NOT PUSH1 0x1F DUP3 ADD AND DUP3 ADD DUP1 PUSH1 0x40 MSTORE POP DUP2 ADD SWAP1 PUSH2 0x34D5 SWAP2 SWAP1 PUSH2 0x447F JUMP JUMPDEST PUSH20 0xFFFFFFFFFFFFFFFFFFFFFFFFFFFFFFFFFFFFFFFF AND PUSH1 0x70 PUSH1 0x0 SWAP1 SLOAD SWAP1 PUSH2 0x100 EXP SWAP1 DIV PUSH20 0xFFFFFFFFFFFFFFFFFFFFFFFFFFFFFFFFFFFFFFFF AND PUSH20 0xFFFFFFFFFFFFFFFFFFFFFFFFFFFFFFFFFFFFFFFF AND EQ PUSH2 0x3530 JUMPI DUP3 DUP5 PUSH2 0x3533 JUMP JUMPDEST DUP4 DUP4 JUMPDEST SWAP2 POP SWAP2 POP PUSH1 0x0 DUP1 PUSH2 0x3547 PUSH1 0x0 DUP9 DUP7 DUP7 PUSH2 0x3B74 JUMP JUMPDEST SWAP2 POP SWAP2 POP PUSH1 0x0 DUP3 GT ISZERO PUSH2 0x3779 JUMPI PUSH1 0x0 PUSH1 0x2 PUSH8 0xFFFFFFFFFFFFFFFF DUP2 GT ISZERO PUSH2 0x3597 JUMPI PUSH32 0x4E487B7100000000000000000000000000000000000000000000000000000000 PUSH1 0x0 MSTORE PUSH1 0x41 PUSH1 0x4 MSTORE PUSH1 0x24 PUSH1 0x0 REVERT JUMPDEST PUSH1 0x40 MLOAD SWAP1 DUP1 DUP3 MSTORE DUP1 PUSH1 0x20 MUL PUSH1 0x20 ADD DUP3 ADD PUSH1 0x40 MSTORE DUP1 ISZERO PUSH2 0x35C5 JUMPI DUP2 PUSH1 0x20 ADD PUSH1 0x20 DUP3 MUL DUP1 CALLDATASIZE DUP4 CALLDATACOPY DUP1 DUP3 ADD SWAP2 POP POP SWAP1 POP JUMPDEST POP SWAP1 POP DUP2 PUSH2 0x35D4 JUMPI DUP10 DUP10 PUSH2 0x35D7 JUMP JUMPDEST DUP9 DUP11 JUMPDEST DUP3 PUSH1 0x0 DUP2 MLOAD DUP2 LT PUSH2 0x3611 JUMPI PUSH32 0x4E487B7100000000000000000000000000000000000000000000000000000000 PUSH1 0x0 MSTORE PUSH1 0x32 PUSH1 0x4 MSTORE PUSH1 0x24 PUSH1 0x0 REVERT JUMPDEST PUSH1 0x20 MUL PUSH1 0x20 ADD ADD DUP4 PUSH1 0x1 DUP2 MLOAD DUP2 LT PUSH2 0x3652 JUMPI PUSH32 0x4E487B7100000000000000000000000000000000000000000000000000000000 PUSH1 0x0 MSTORE PUSH1 0x32 PUSH1 0x4 MSTORE PUSH1 0x24 PUSH1 0x0 REVERT JUMPDEST PUSH1 0x20 MUL PUSH1 0x20 ADD ADD DUP3 PUSH20 0xFFFFFFFFFFFFFFFFFFFFFFFFFFFFFFFFFFFFFFFF AND PUSH20 0xFFFFFFFFFFFFFFFFFFFFFFFFFFFFFFFFFFFFFFFF AND DUP2 MSTORE POP DUP3 PUSH20 0xFFFFFFFFFFFFFFFFFFFFFFFFFFFFFFFFFFFFFFFF AND PUSH20 0xFFFFFFFFFFFFFFFFFFFFFFFFFFFFFFFFFFFFFFFF AND DUP2 MSTORE POP POP POP PUSH1 0x6C PUSH1 0x0 SWAP1 SLOAD SWAP1 PUSH2 0x100 EXP SWAP1 DIV PUSH20 0xFFFFFFFFFFFFFFFFFFFFFFFFFFFFFFFFFFFFFFFF AND PUSH20 0xFFFFFFFFFFFFFFFFFFFFFFFFFFFFFFFFFFFFFFFF AND PUSH4 0x38ED1739 DUP5 PUSH1 0x0 DUP5 ADDRESS TIMESTAMP PUSH1 0x40 MLOAD DUP7 PUSH4 0xFFFFFFFF AND PUSH1 0xE0 SHL DUP2 MSTORE PUSH1 0x4 ADD PUSH2 0x371F SWAP6 SWAP5 SWAP4 SWAP3 SWAP2 SWAP1 PUSH2 0x529C JUMP JUMPDEST PUSH1 0x0 PUSH1 0x40 MLOAD DUP1 DUP4 SUB DUP2 PUSH1 0x0 DUP8 DUP1 EXTCODESIZE ISZERO DUP1 ISZERO PUSH2 0x3739 JUMPI PUSH1 0x0 DUP1 REVERT JUMPDEST POP GAS CALL ISZERO DUP1 ISZERO PUSH2 0x374D JUMPI RETURNDATASIZE PUSH1 0x0 DUP1 RETURNDATACOPY RETURNDATASIZE PUSH1 0x0 REVERT JUMPDEST POP POP POP POP PUSH1 0x40 MLOAD RETURNDATASIZE PUSH1 0x0 DUP3 RETURNDATACOPY RETURNDATASIZE PUSH1 0x1F NOT PUSH1 0x1F DUP3 ADD AND DUP3 ADD DUP1 PUSH1 0x40 MSTORE POP DUP2 ADD SWAP1 PUSH2 0x3776 SWAP2 SWAP1 PUSH2 0x44E4 JUMP JUMPDEST POP POP JUMPDEST POP POP POP POP POP POP POP POP POP POP JUMP JUMPDEST PUSH2 0x3806 DUP4 PUSH4 0xA9059CBB PUSH1 0xE0 SHL DUP5 DUP5 PUSH1 0x40 MLOAD PUSH1 0x24 ADD PUSH2 0x37A4 SWAP3 SWAP2 SWAP1 PUSH2 0x4F55 JUMP JUMPDEST PUSH1 0x40 MLOAD PUSH1 0x20 DUP2 DUP4 SUB SUB DUP2 MSTORE SWAP1 PUSH1 0x40 MSTORE SWAP1 PUSH28 0xFFFFFFFFFFFFFFFFFFFFFFFFFFFFFFFFFFFFFFFFFFFFFFFFFFFFFFFF NOT AND PUSH1 0x20 DUP3 ADD DUP1 MLOAD PUSH28 0xFFFFFFFFFFFFFFFFFFFFFFFFFFFFFFFFFFFFFFFFFFFFFFFFFFFFFFFF DUP4 DUP2 DUP4 AND OR DUP4 MSTORE POP POP POP POP PUSH2 0x3AAD JUMP JUMPDEST POP POP POP JUMP JUMPDEST PUSH1 0x0 DUP1 PUSH2 0x3823 PUSH2 0x3E5 DUP7 PUSH2 0x3057 SWAP1 SWAP2 SWAP1 PUSH4 0xFFFFFFFF AND JUMP JUMPDEST SWAP1 POP PUSH1 0x0 PUSH2 0x383A DUP5 DUP4 PUSH2 0x3057 SWAP1 SWAP2 SWAP1 PUSH4 0xFFFFFFFF AND JUMP JUMPDEST SWAP1 POP PUSH1 0x0 PUSH2 0x3865 DUP4 PUSH2 0x3857 PUSH2 0x3E8 DUP10 PUSH2 0x3057 SWAP1 SWAP2 SWAP1 PUSH4 0xFFFFFFFF AND JUMP JUMPDEST PUSH2 0x3BD5 SWAP1 SWAP2 SWAP1 PUSH4 0xFFFFFFFF AND JUMP JUMPDEST SWAP1 POP DUP1 DUP3 PUSH2 0x3873 SWAP2 SWAP1 PUSH2 0x54B6 JUMP JUMPDEST SWAP4 POP POP POP POP SWAP4 SWAP3 POP POP POP JUMP JUMPDEST PUSH1 0x0 PUSH1 0x1 PUSH1 0x74 SLOAD EQ ISZERO PUSH2 0x38BB JUMPI PUSH1 0x76 SLOAD PUSH1 0x72 SLOAD LT ISZERO PUSH2 0x38B6 JUMPI PUSH2 0x38AF PUSH1 0x75 SLOAD PUSH1 0x72 SLOAD PUSH2 0x3BD5 SWAP1 SWAP2 SWAP1 PUSH4 0xFFFFFFFF AND JUMP JUMPDEST PUSH1 0x72 DUP2 SWAP1 SSTORE POP JUMPDEST PUSH2 0x38F7 JUMP JUMPDEST PUSH1 0x2 PUSH1 0x74 SLOAD EQ ISZERO PUSH2 0x38F5 JUMPI PUSH1 0x76 SLOAD PUSH1 0x72 SLOAD GT ISZERO PUSH2 0x38F0 JUMPI PUSH2 0x38E9 PUSH1 0x75 SLOAD PUSH1 0x72 SLOAD PUSH2 0x310C SWAP1 SWAP2 SWAP1 PUSH4 0xFFFFFFFF AND JUMP JUMPDEST PUSH1 0x72 DUP2 SWAP1 SSTORE POP JUMPDEST PUSH2 0x38F6 JUMP JUMPDEST JUMPDEST JUMPDEST PUSH1 0x1 SWAP1 POP SWAP1 JUMP JUMPDEST PUSH1 0x0 PUSH1 0x33 PUSH1 0x0 SWAP1 SLOAD SWAP1 PUSH2 0x100 EXP SWAP1 DIV PUSH20 0xFFFFFFFFFFFFFFFFFFFFFFFFFFFFFFFFFFFFFFFF AND SWAP1 POP DUP2 PUSH1 0x33 PUSH1 0x0 PUSH2 0x100 EXP DUP2 SLOAD DUP2 PUSH20 0xFFFFFFFFFFFFFFFFFFFFFFFFFFFFFFFFFFFFFFFF MUL NOT AND SWAP1 DUP4 PUSH20 0xFFFFFFFFFFFFFFFFFFFFFFFFFFFFFFFFFFFFFFFF AND MUL OR SWAP1 SSTORE POP DUP2 PUSH20 0xFFFFFFFFFFFFFFFFFFFFFFFFFFFFFFFFFFFFFFFF AND DUP2 PUSH20 0xFFFFFFFFFFFFFFFFFFFFFFFFFFFFFFFFFFFFFFFF AND PUSH32 0x8BE0079C531659141344CD1FD0A4F28419497F9722A3DAAFE3B4186F6B6457E0 PUSH1 0x40 MLOAD PUSH1 0x40 MLOAD DUP1 SWAP2 SUB SWAP1 LOG3 POP POP JUMP JUMPDEST PUSH1 0x0 PUSH1 0x1 SWAP1 SLOAD SWAP1 PUSH2 0x100 EXP SWAP1 DIV PUSH1 0xFF AND DUP1 PUSH2 0x39EA JUMPI POP PUSH1 0x0 DUP1 SLOAD SWAP1 PUSH2 0x100 EXP SWAP1 DIV PUSH1 0xFF AND ISZERO JUMPDEST PUSH2 0x3A29 JUMPI PUSH1 0x40 MLOAD PUSH32 0x8C379A000000000000000000000000000000000000000000000000000000000 DUP2 MSTORE PUSH1 0x4 ADD PUSH2 0x3A20 SWAP1 PUSH2 0x51C1 JUMP JUMPDEST PUSH1 0x40 MLOAD DUP1 SWAP2 SUB SWAP1 REVERT JUMPDEST PUSH1 0x0 DUP1 PUSH1 0x1 SWAP1 SLOAD SWAP1 PUSH2 0x100 EXP SWAP1 DIV PUSH1 0xFF AND ISZERO SWAP1 POP DUP1 ISZERO PUSH2 0x3A79 JUMPI PUSH1 0x1 PUSH1 0x0 PUSH1 0x1 PUSH2 0x100 EXP DUP2 SLOAD DUP2 PUSH1 0xFF MUL NOT AND SWAP1 DUP4 ISZERO ISZERO MUL OR SWAP1 SSTORE POP PUSH1 0x1 PUSH1 0x0 DUP1 PUSH2 0x100 EXP DUP2 SLOAD DUP2 PUSH1 0xFF MUL NOT AND SWAP1 DUP4 ISZERO ISZERO MUL OR SWAP1 SSTORE POP JUMPDEST PUSH2 0x3A81 PUSH2 0x3BEB JUMP JUMPDEST PUSH2 0x3A89 PUSH2 0x3CC4 JUMP JUMPDEST DUP1 ISZERO PUSH2 0x3AAA JUMPI PUSH1 0x0 DUP1 PUSH1 0x1 PUSH2 0x100 EXP DUP2 SLOAD DUP2 PUSH1 0xFF MUL NOT AND SWAP1 DUP4 ISZERO ISZERO MUL OR SWAP1 SSTORE POP JUMPDEST POP JUMP JUMPDEST PUSH1 0x0 PUSH2 0x3B0F DUP3 PUSH1 0x40 MLOAD DUP1 PUSH1 0x40 ADD PUSH1 0x40 MSTORE DUP1 PUSH1 0x20 DUP2 MSTORE PUSH1 0x20 ADD PUSH32 0x5361666545524332303A206C6F772D6C6576656C2063616C6C206661696C6564 DUP2 MSTORE POP DUP6 PUSH20 0xFFFFFFFFFFFFFFFFFFFFFFFFFFFFFFFFFFFFFFFF AND PUSH2 0x3DAD SWAP1 SWAP3 SWAP2 SWAP1 PUSH4 0xFFFFFFFF AND JUMP JUMPDEST SWAP1 POP PUSH1 0x0 DUP2 MLOAD GT ISZERO PUSH2 0x3B6F JUMPI DUP1 DUP1 PUSH1 0x20 ADD SWAP1 MLOAD DUP2 ADD SWAP1 PUSH2 0x3B2F SWAP2 SWAP1 PUSH2 0x454E JUMP JUMPDEST PUSH2 0x3B6E JUMPI PUSH1 0x40 MLOAD PUSH32 0x8C379A000000000000000000000000000000000000000000000000000000000 DUP2 MSTORE PUSH1 0x4 ADD PUSH2 0x3B65 SWAP1 PUSH2 0x5241 JUMP JUMPDEST PUSH1 0x40 MLOAD DUP1 SWAP2 SUB SWAP1 REVERT JUMPDEST JUMPDEST POP POP POP JUMP JUMPDEST PUSH1 0x0 DUP1 PUSH2 0x3B8A DUP5 DUP7 PUSH2 0x3057 SWAP1 SWAP2 SWAP1 PUSH4 0xFFFFFFFF AND JUMP JUMPDEST PUSH2 0x3B9D DUP5 DUP9 PUSH2 0x3057 SWAP1 SWAP2 SWAP1 PUSH4 0xFFFFFFFF AND JUMP JUMPDEST LT PUSH2 0x3BB9 JUMPI PUSH2 0x3BAE DUP7 DUP7 DUP7 DUP7 PUSH2 0x3DC5 JUMP JUMPDEST SWAP2 POP PUSH1 0x0 SWAP1 POP PUSH2 0x3BCC JUMP JUMPDEST PUSH2 0x3BC5 DUP6 DUP8 DUP6 DUP8 PUSH2 0x3DC5 JUMP JUMPDEST SWAP2 POP PUSH1 0x1 SWAP1 POP JUMPDEST SWAP5 POP SWAP5 SWAP3 POP POP POP JUMP JUMPDEST PUSH1 0x0 DUP2 DUP4 PUSH2 0x3BE3 SWAP2 SWAP1 PUSH2 0x5460 JUMP JUMPDEST SWAP1 POP SWAP3 SWAP2 POP POP JUMP JUMPDEST PUSH1 0x0 PUSH1 0x1 SWAP1 SLOAD SWAP1 PUSH2 0x100 EXP SWAP1 DIV PUSH1 0xFF AND DUP1 PUSH2 0x3C11 JUMPI POP PUSH1 0x0 DUP1 SLOAD SWAP1 PUSH2 0x100 EXP SWAP1 DIV PUSH1 0xFF AND ISZERO JUMPDEST PUSH2 0x3C50 JUMPI PUSH1 0x40 MLOAD PUSH32 0x8C379A000000000000000000000000000000000000000000000000000000000 DUP2 MSTORE PUSH1 0x4 ADD PUSH2 0x3C47 SWAP1 PUSH2 0x51C1 JUMP JUMPDEST PUSH1 0x40 MLOAD DUP1 SWAP2 SUB SWAP1 REVERT JUMPDEST PUSH1 0x0 DUP1 PUSH1 0x1 SWAP1 SLOAD SWAP1 PUSH2 0x100 EXP SWAP1 DIV PUSH1 0xFF AND ISZERO SWAP1 POP DUP1 ISZERO PUSH2 0x3CA0 JUMPI PUSH1 0x1 PUSH1 0x0 PUSH1 0x1 PUSH2 0x100 EXP DUP2 SLOAD DUP2 PUSH1 0xFF MUL NOT AND SWAP1 DUP4 ISZERO ISZERO MUL OR SWAP1 SSTORE POP PUSH1 0x1 PUSH1 0x0 DUP1 PUSH2 0x100 EXP DUP2 SLOAD DUP2 PUSH1 0xFF MUL NOT AND SWAP1 DUP4 ISZERO ISZERO MUL OR SWAP1 SSTORE POP JUMPDEST DUP1 ISZERO PUSH2 0x3CC1 JUMPI PUSH1 0x0 DUP1 PUSH1 0x1 PUSH2 0x100 EXP DUP2 SLOAD DUP2 PUSH1 0xFF MUL NOT AND SWAP1 DUP4 ISZERO ISZERO MUL OR SWAP1 SSTORE POP JUMPDEST POP JUMP JUMPDEST PUSH1 0x0 PUSH1 0x1 SWAP1 SLOAD SWAP1 PUSH2 0x100 EXP SWAP1 DIV PUSH1 0xFF AND DUP1 PUSH2 0x3CEA JUMPI POP PUSH1 0x0 DUP1 SLOAD SWAP1 PUSH2 0x100 EXP SWAP1 DIV PUSH1 0xFF AND ISZERO JUMPDEST PUSH2 0x3D29 JUMPI PUSH1 0x40 MLOAD PUSH32 0x8C379A000000000000000000000000000000000000000000000000000000000 DUP2 MSTORE PUSH1 0x4 ADD PUSH2 0x3D20 SWAP1 PUSH2 0x51C1 JUMP JUMPDEST PUSH1 0x40 MLOAD DUP1 SWAP2 SUB SWAP1 REVERT JUMPDEST PUSH1 0x0 DUP1 PUSH1 0x1 SWAP1 SLOAD SWAP1 PUSH2 0x100 EXP SWAP1 DIV PUSH1 0xFF AND ISZERO SWAP1 POP DUP1 ISZERO PUSH2 0x3D79 JUMPI PUSH1 0x1 PUSH1 0x0 PUSH1 0x1 PUSH2 0x100 EXP DUP2 SLOAD DUP2 PUSH1 0xFF MUL NOT AND SWAP1 DUP4 ISZERO ISZERO MUL OR SWAP1 SSTORE POP PUSH1 0x1 PUSH1 0x0 DUP1 PUSH2 0x100 EXP DUP2 SLOAD DUP2 PUSH1 0xFF MUL NOT AND SWAP1 DUP4 ISZERO ISZERO MUL OR SWAP1 SSTORE POP JUMPDEST PUSH2 0x3D89 PUSH2 0x3D84 PUSH2 0x304F JUMP JUMPDEST PUSH2 0x38FE JUMP JUMPDEST DUP1 ISZERO PUSH2 0x3DAA JUMPI PUSH1 0x0 DUP1 PUSH1 0x1 PUSH2 0x100 EXP DUP2 SLOAD DUP2 PUSH1 0xFF MUL NOT AND SWAP1 DUP4 ISZERO ISZERO MUL OR SWAP1 SSTORE POP JUMPDEST POP JUMP JUMPDEST PUSH1 0x60 PUSH2 0x3DBC DUP5 DUP5 PUSH1 0x0 DUP6 PUSH2 0x3F87 JUMP JUMPDEST SWAP1 POP SWAP4 SWAP3 POP POP POP JUMP JUMPDEST PUSH1 0x0 PUSH2 0x3DDA DUP4 DUP6 PUSH2 0x3057 SWAP1 SWAP2 SWAP1 PUSH4 0xFFFFFFFF AND JUMP JUMPDEST PUSH2 0x3DED DUP4 DUP8 PUSH2 0x3057 SWAP1 SWAP2 SWAP1 PUSH4 0xFFFFFFFF AND JUMP JUMPDEST LT ISZERO PUSH2 0x3E2E JUMPI PUSH1 0x40 MLOAD PUSH32 0x8C379A000000000000000000000000000000000000000000000000000000000 DUP2 MSTORE PUSH1 0x4 ADD PUSH2 0x3E25 SWAP1 PUSH2 0x5201 JUMP JUMPDEST PUSH1 0x40 MLOAD DUP1 SWAP2 SUB SWAP1 REVERT JUMPDEST PUSH1 0x0 PUSH2 0x3E5 SWAP1 POP PUSH1 0x0 PUSH2 0x3E4C DUP6 PUSH2 0x7CD PUSH2 0x3057 SWAP1 SWAP2 SWAP1 PUSH4 0xFFFFFFFF AND JUMP JUMPDEST SWAP1 POP PUSH1 0x0 PUSH2 0x3E87 PUSH2 0x3E66 DUP8 DUP10 PUSH2 0x3057 SWAP1 SWAP2 SWAP1 PUSH4 0xFFFFFFFF AND JUMP JUMPDEST PUSH2 0x3E79 DUP8 DUP12 PUSH2 0x3057 SWAP1 SWAP2 SWAP1 PUSH4 0xFFFFFFFF AND JUMP JUMPDEST PUSH2 0x310C SWAP1 SWAP2 SWAP1 PUSH4 0xFFFFFFFF AND JUMP JUMPDEST SWAP1 POP PUSH1 0x0 PUSH2 0x3ED6 DUP8 PUSH2 0x3EC8 PUSH2 0x3EA5 DUP10 DUP13 PUSH2 0x3BD5 SWAP1 SWAP2 SWAP1 PUSH4 0xFFFFFFFF AND JUMP JUMPDEST PUSH2 0x3EBA PUSH2 0x3E8 DUP8 PUSH2 0x3057 SWAP1 SWAP2 SWAP1 PUSH4 0xFFFFFFFF AND JUMP JUMPDEST PUSH2 0x306D SWAP1 SWAP2 SWAP1 PUSH4 0xFFFFFFFF AND JUMP JUMPDEST PUSH2 0x3057 SWAP1 SWAP2 SWAP1 PUSH4 0xFFFFFFFF AND JUMP JUMPDEST SWAP1 POP PUSH1 0x0 PUSH2 0x3F00 PUSH1 0x4 PUSH2 0x3EF2 DUP5 DUP9 PUSH2 0x3057 SWAP1 SWAP2 SWAP1 PUSH4 0xFFFFFFFF AND JUMP JUMPDEST PUSH2 0x3057 SWAP1 SWAP2 SWAP1 PUSH4 0xFFFFFFFF AND JUMP JUMPDEST SWAP1 POP PUSH1 0x0 PUSH2 0x3F31 PUSH2 0x3F2C DUP4 PUSH2 0x3F1E DUP9 DUP10 PUSH2 0x3057 SWAP1 SWAP2 SWAP1 PUSH4 0xFFFFFFFF AND JUMP JUMPDEST PUSH2 0x3BD5 SWAP1 SWAP2 SWAP1 PUSH4 0xFFFFFFFF AND JUMP JUMPDEST PUSH2 0x409B JUMP JUMPDEST SWAP1 POP PUSH1 0x0 PUSH2 0x3F48 DUP7 DUP4 PUSH2 0x310C SWAP1 SWAP2 SWAP1 PUSH4 0xFFFFFFFF AND JUMP JUMPDEST SWAP1 POP PUSH1 0x0 PUSH2 0x3F60 PUSH1 0x2 DUP10 PUSH2 0x3057 SWAP1 SWAP2 SWAP1 PUSH4 0xFFFFFFFF AND JUMP JUMPDEST SWAP1 POP PUSH2 0x3F75 DUP2 DUP4 PUSH2 0x306D SWAP1 SWAP2 SWAP1 PUSH4 0xFFFFFFFF AND JUMP JUMPDEST SWAP9 POP POP POP POP POP POP POP POP POP SWAP5 SWAP4 POP POP POP POP JUMP JUMPDEST PUSH1 0x60 DUP3 SELFBALANCE LT ISZERO PUSH2 0x3FCC JUMPI PUSH1 0x40 MLOAD PUSH32 0x8C379A000000000000000000000000000000000000000000000000000000000 DUP2 MSTORE PUSH1 0x4 ADD PUSH2 0x3FC3 SWAP1 PUSH2 0x5181 JUMP JUMPDEST PUSH1 0x40 MLOAD DUP1 SWAP2 SUB SWAP1 REVERT JUMPDEST PUSH2 0x3FD5 DUP6 PUSH2 0x4115 JUMP JUMPDEST PUSH2 0x4014 JUMPI PUSH1 0x40 MLOAD PUSH32 0x8C379A000000000000000000000000000000000000000000000000000000000 DUP2 MSTORE PUSH1 0x4 ADD PUSH2 0x400B SWAP1 PUSH2 0x5221 JUMP JUMPDEST PUSH1 0x40 MLOAD DUP1 SWAP2 SUB SWAP1 REVERT JUMPDEST PUSH1 0x0 DUP1 DUP7 PUSH20 0xFFFFFFFFFFFFFFFFFFFFFFFFFFFFFFFFFFFFFFFF AND DUP6 DUP8 PUSH1 0x40 MLOAD PUSH2 0x403D SWAP2 SWAP1 PUSH2 0x4E45 JUMP JUMPDEST PUSH1 0x0 PUSH1 0x40 MLOAD DUP1 DUP4 SUB DUP2 DUP6 DUP8 GAS CALL SWAP3 POP POP POP RETURNDATASIZE DUP1 PUSH1 0x0 DUP2 EQ PUSH2 0x407A JUMPI PUSH1 0x40 MLOAD SWAP2 POP PUSH1 0x1F NOT PUSH1 0x3F RETURNDATASIZE ADD AND DUP3 ADD PUSH1 0x40 MSTORE RETURNDATASIZE DUP3 MSTORE RETURNDATASIZE PUSH1 0x0 PUSH1 0x20 DUP5 ADD RETURNDATACOPY PUSH2 0x407F JUMP JUMPDEST PUSH1 0x60 SWAP2 POP JUMPDEST POP SWAP2 POP SWAP2 POP PUSH2 0x408F DUP3 DUP3 DUP7 PUSH2 0x4128 JUMP JUMPDEST SWAP3 POP POP POP SWAP5 SWAP4 POP POP POP POP JUMP JUMPDEST PUSH1 0x0 PUSH1 0x3 DUP3 GT ISZERO PUSH2 0x4102 JUMPI DUP2 SWAP1 POP PUSH1 0x0 PUSH1 0x1 PUSH1 0x2 DUP5 PUSH2 0x40BA SWAP2 SWAP1 PUSH2 0x54B6 JUMP JUMPDEST PUSH2 0x40C4 SWAP2 SWAP1 PUSH2 0x5460 JUMP JUMPDEST SWAP1 POP JUMPDEST DUP2 DUP2 LT ISZERO PUSH2 0x40FC JUMPI DUP1 SWAP2 POP PUSH1 0x2 DUP2 DUP3 DUP6 PUSH2 0x40E1 SWAP2 SWAP1 PUSH2 0x54B6 JUMP JUMPDEST PUSH2 0x40EB SWAP2 SWAP1 PUSH2 0x5460 JUMP JUMPDEST PUSH2 0x40F5 SWAP2 SWAP1 PUSH2 0x54B6 JUMP JUMPDEST SWAP1 POP PUSH2 0x40C7 JUMP JUMPDEST POP PUSH2 0x4110 JUMP JUMPDEST PUSH1 0x0 DUP3 EQ PUSH2 0x410F JUMPI PUSH1 0x1 SWAP1 POP JUMPDEST JUMPDEST SWAP2 SWAP1 POP JUMP JUMPDEST PUSH1 0x0 DUP1 DUP3 EXTCODESIZE SWAP1 POP PUSH1 0x0 DUP2 GT SWAP2 POP POP SWAP2 SWAP1 POP JUMP JUMPDEST PUSH1 0x60 DUP4 ISZERO PUSH2 0x4138 JUMPI DUP3 SWAP1 POP PUSH2 0x4188 JUMP JUMPDEST PUSH1 0x0 DUP4 MLOAD GT ISZERO PUSH2 0x414B JUMPI DUP3 MLOAD DUP1 DUP5 PUSH1 0x20 ADD REVERT JUMPDEST DUP2 PUSH1 0x40 MLOAD PUSH32 0x8C379A000000000000000000000000000000000000000000000000000000000 DUP2 MSTORE PUSH1 0x4 ADD PUSH2 0x417F SWAP2 SWAP1 PUSH2 0x50DF JUMP JUMPDEST PUSH1 0x40 MLOAD DUP1 SWAP2 SUB SWAP1 REVERT JUMPDEST SWAP4 SWAP3 POP POP POP JUMP JUMPDEST DUP3 DUP1 SLOAD PUSH2 0x419B SWAP1 PUSH2 0x577F JUMP JUMPDEST SWAP1 PUSH1 0x0 MSTORE PUSH1 0x20 PUSH1 0x0 KECCAK256 SWAP1 PUSH1 0x1F ADD PUSH1 0x20 SWAP1 DIV DUP2 ADD SWAP3 DUP3 PUSH2 0x41BD JUMPI PUSH1 0x0 DUP6 SSTORE PUSH2 0x4204 JUMP JUMPDEST DUP3 PUSH1 0x1F LT PUSH2 0x41D6 JUMPI DUP1 MLOAD PUSH1 0xFF NOT AND DUP4 DUP1 ADD OR DUP6 SSTORE PUSH2 0x4204 JUMP JUMPDEST DUP3 DUP1 ADD PUSH1 0x1 ADD DUP6 SSTORE DUP3 ISZERO PUSH2 0x4204 JUMPI SWAP2 DUP3 ADD JUMPDEST DUP3 DUP2 GT ISZERO PUSH2 0x4203 JUMPI DUP3 MLOAD DUP3 SSTORE SWAP2 PUSH1 0x20 ADD SWAP2 SWAP1 PUSH1 0x1 ADD SWAP1 PUSH2 0x41E8 JUMP JUMPDEST JUMPDEST POP SWAP1 POP PUSH2 0x4211 SWAP2 SWAP1 PUSH2 0x4215 JUMP JUMPDEST POP SWAP1 JUMP JUMPDEST JUMPDEST DUP1 DUP3 GT ISZERO PUSH2 0x422E JUMPI PUSH1 0x0 DUP2 PUSH1 0x0 SWAP1 SSTORE POP PUSH1 0x1 ADD PUSH2 0x4216 JUMP JUMPDEST POP SWAP1 JUMP JUMPDEST PUSH1 0x0 PUSH2 0x4245 PUSH2 0x4240 DUP5 PUSH2 0x5373 JUMP JUMPDEST PUSH2 0x5342 JUMP JUMPDEST SWAP1 POP DUP1 DUP4 DUP3 MSTORE PUSH1 0x20 DUP3 ADD SWAP1 POP DUP3 DUP6 PUSH1 0x20 DUP7 MUL DUP3 ADD GT ISZERO PUSH2 0x4264 JUMPI PUSH1 0x0 DUP1 REVERT JUMPDEST PUSH1 0x0 JUMPDEST DUP6 DUP2 LT ISZERO PUSH2 0x4294 JUMPI DUP2 PUSH2 0x427A DUP9 DUP3 PUSH2 0x442C JUMP JUMPDEST DUP5 MSTORE PUSH1 0x20 DUP5 ADD SWAP4 POP PUSH1 0x20 DUP4 ADD SWAP3 POP POP PUSH1 0x1 DUP2 ADD SWAP1 POP PUSH2 0x4267 JUMP JUMPDEST POP POP POP SWAP4 SWAP3 POP POP POP JUMP JUMPDEST PUSH1 0x0 PUSH2 0x42B1 PUSH2 0x42AC DUP5 PUSH2 0x539F JUMP JUMPDEST PUSH2 0x5342 JUMP JUMPDEST SWAP1 POP DUP3 DUP2 MSTORE PUSH1 0x20 DUP2 ADD DUP5 DUP5 DUP5 ADD GT ISZERO PUSH2 0x42C9 JUMPI PUSH1 0x0 DUP1 REVERT JUMPDEST PUSH2 0x42D4 DUP5 DUP3 DUP6 PUSH2 0x573D JUMP JUMPDEST POP SWAP4 SWAP3 POP POP POP JUMP JUMPDEST PUSH1 0x0 DUP2 CALLDATALOAD SWAP1 POP PUSH2 0x42EB DUP2 PUSH2 0x58C7 JUMP JUMPDEST SWAP3 SWAP2 POP POP JUMP JUMPDEST PUSH1 0x0 DUP2 MLOAD SWAP1 POP PUSH2 0x4300 DUP2 PUSH2 0x58C7 JUMP JUMPDEST SWAP3 SWAP2 POP POP JUMP JUMPDEST PUSH1 0x0 DUP3 PUSH1 0x1F DUP4 ADD SLT PUSH2 0x4317 JUMPI PUSH1 0x0 DUP1 REVERT JUMPDEST DUP2 MLOAD PUSH2 0x4327 DUP5 DUP3 PUSH1 0x20 DUP7 ADD PUSH2 0x4232 JUMP JUMPDEST SWAP2 POP POP SWAP3 SWAP2 POP POP JUMP JUMPDEST PUSH1 0x0 DUP2 CALLDATALOAD SWAP1 POP PUSH2 0x433F DUP2 PUSH2 0x58DE JUMP JUMPDEST SWAP3 SWAP2 POP POP JUMP JUMPDEST PUSH1 0x0 DUP2 MLOAD SWAP1 POP PUSH2 0x4354 DUP2 PUSH2 0x58DE JUMP JUMPDEST SWAP3 SWAP2 POP POP JUMP JUMPDEST PUSH1 0x0 DUP3 PUSH1 0x1F DUP4 ADD SLT PUSH2 0x436B JUMPI PUSH1 0x0 DUP1 REVERT JUMPDEST DUP2 CALLDATALOAD PUSH2 0x437B DUP5 DUP3 PUSH1 0x20 DUP7 ADD PUSH2 0x429E JUMP JUMPDEST SWAP2 POP POP SWAP3 SWAP2 POP POP JUMP JUMPDEST PUSH1 0x0 DUP2 CALLDATALOAD SWAP1 POP PUSH2 0x4393 DUP2 PUSH2 0x58F5 JUMP JUMPDEST SWAP3 SWAP2 POP POP JUMP JUMPDEST PUSH1 0x0 DUP2 CALLDATALOAD SWAP1 POP PUSH2 0x43A8 DUP2 PUSH2 0x590C JUMP JUMPDEST SWAP3 SWAP2 POP POP JUMP JUMPDEST PUSH1 0x0 DUP2 CALLDATALOAD SWAP1 POP PUSH2 0x43BD DUP2 PUSH2 0x5923 JUMP JUMPDEST SWAP3 SWAP2 POP POP JUMP JUMPDEST PUSH1 0x0 DUP2 CALLDATALOAD SWAP1 POP PUSH2 0x43D2 DUP2 PUSH2 0x593A JUMP JUMPDEST SWAP3 SWAP2 POP POP JUMP JUMPDEST PUSH1 0x0 DUP2 CALLDATALOAD SWAP1 POP PUSH2 0x43E7 DUP2 PUSH2 0x5951 JUMP JUMPDEST SWAP3 SWAP2 POP POP JUMP JUMPDEST PUSH1 0x0 DUP2 CALLDATALOAD SWAP1 POP PUSH2 0x43FC DUP2 PUSH2 0x5968 JUMP JUMPDEST SWAP3 SWAP2 POP POP JUMP JUMPDEST PUSH1 0x0 DUP2 MLOAD SWAP1 POP PUSH2 0x4411 DUP2 PUSH2 0x597F JUMP JUMPDEST SWAP3 SWAP2 POP POP JUMP JUMPDEST PUSH1 0x0 DUP2 CALLDATALOAD SWAP1 POP PUSH2 0x4426 DUP2 PUSH2 0x5996 JUMP JUMPDEST SWAP3 SWAP2 POP POP JUMP JUMPDEST PUSH1 0x0 DUP2 MLOAD SWAP1 POP PUSH2 0x443B DUP2 PUSH2 0x5996 JUMP JUMPDEST SWAP3 SWAP2 POP POP JUMP JUMPDEST PUSH1 0x0 DUP2 MLOAD SWAP1 POP PUSH2 0x4450 DUP2 PUSH2 0x59AD JUMP JUMPDEST SWAP3 SWAP2 POP POP JUMP JUMPDEST PUSH1 0x0 PUSH1 0x20 DUP3 DUP5 SUB SLT ISZERO PUSH2 0x4468 JUMPI PUSH1 0x0 DUP1 REVERT JUMPDEST PUSH1 0x0 PUSH2 0x4476 DUP5 DUP3 DUP6 ADD PUSH2 0x42DC JUMP JUMPDEST SWAP2 POP POP SWAP3 SWAP2 POP POP JUMP JUMPDEST PUSH1 0x0 PUSH1 0x20 DUP3 DUP5 SUB SLT ISZERO PUSH2 0x4491 JUMPI PUSH1 0x0 DUP1 REVERT JUMPDEST PUSH1 0x0 PUSH2 0x449F DUP5 DUP3 DUP6 ADD PUSH2 0x42F1 JUMP JUMPDEST SWAP2 POP POP SWAP3 SWAP2 POP POP JUMP JUMPDEST PUSH1 0x0 DUP1 PUSH1 0x40 DUP4 DUP6 SUB SLT ISZERO PUSH2 0x44BB JUMPI PUSH1 0x0 DUP1 REVERT JUMPDEST PUSH1 0x0 PUSH2 0x44C9 DUP6 DUP3 DUP7 ADD PUSH2 0x42DC JUMP JUMPDEST SWAP3 POP POP PUSH1 0x20 PUSH2 0x44DA DUP6 DUP3 DUP7 ADD PUSH2 0x4417 JUMP JUMPDEST SWAP2 POP POP SWAP3 POP SWAP3 SWAP1 POP JUMP JUMPDEST PUSH1 0x0 PUSH1 0x20 DUP3 DUP5 SUB SLT ISZERO PUSH2 0x44F6 JUMPI PUSH1 0x0 DUP1 REVERT JUMPDEST PUSH1 0x0 DUP3 ADD MLOAD PUSH8 0xFFFFFFFFFFFFFFFF DUP2 GT ISZERO PUSH2 0x4510 JUMPI PUSH1 0x0 DUP1 REVERT JUMPDEST PUSH2 0x451C DUP5 DUP3 DUP6 ADD PUSH2 0x4306 JUMP JUMPDEST SWAP2 POP POP SWAP3 SWAP2 POP POP JUMP JUMPDEST PUSH1 0x0 PUSH1 0x20 DUP3 DUP5 SUB SLT ISZERO PUSH2 0x4537 JUMPI PUSH1 0x0 DUP1 REVERT JUMPDEST PUSH1 0x0 PUSH2 0x4545 DUP5 DUP3 DUP6 ADD PUSH2 0x4330 JUMP JUMPDEST SWAP2 POP POP SWAP3 SWAP2 POP POP JUMP JUMPDEST PUSH1 0x0 PUSH1 0x20 DUP3 DUP5 SUB SLT ISZERO PUSH2 0x4560 JUMPI PUSH1 0x0 DUP1 REVERT JUMPDEST PUSH1 0x0 PUSH2 0x456E DUP5 DUP3 DUP6 ADD PUSH2 0x4345 JUMP JUMPDEST SWAP2 POP POP SWAP3 SWAP2 POP POP JUMP JUMPDEST PUSH1 0x0 DUP1 PUSH1 0x40 DUP4 DUP6 SUB SLT ISZERO PUSH2 0x458A JUMPI PUSH1 0x0 DUP1 REVERT JUMPDEST PUSH1 0x0 PUSH2 0x4598 DUP6 DUP3 DUP7 ADD PUSH2 0x4345 JUMP JUMPDEST SWAP3 POP POP PUSH1 0x20 PUSH2 0x45A9 DUP6 DUP3 DUP7 ADD PUSH2 0x442C JUMP JUMPDEST SWAP2 POP POP SWAP3 POP SWAP3 SWAP1 POP JUMP JUMPDEST PUSH1 0x0 DUP1 PUSH1 0x0 DUP1 PUSH1 0x0 DUP1 PUSH1 0x0 DUP1 PUSH1 0x0 DUP1 PUSH1 0x0 PUSH2 0x160 DUP13 DUP15 SUB SLT ISZERO PUSH2 0x45D5 JUMPI PUSH1 0x0 DUP1 REVERT JUMPDEST PUSH1 0x0 PUSH2 0x45E3 DUP15 DUP3 DUP16 ADD PUSH2 0x43AE JUMP JUMPDEST SWAP12 POP POP PUSH1 0x20 PUSH2 0x45F4 DUP15 DUP3 DUP16 ADD PUSH2 0x4399 JUMP JUMPDEST SWAP11 POP POP PUSH1 0x40 PUSH2 0x4605 DUP15 DUP3 DUP16 ADD PUSH2 0x43D8 JUMP JUMPDEST SWAP10 POP POP PUSH1 0x60 PUSH2 0x4616 DUP15 DUP3 DUP16 ADD PUSH2 0x43ED JUMP JUMPDEST SWAP9 POP POP PUSH1 0x80 PUSH2 0x4627 DUP15 DUP3 DUP16 ADD PUSH2 0x42DC JUMP JUMPDEST SWAP8 POP POP PUSH1 0xA0 PUSH2 0x4638 DUP15 DUP3 DUP16 ADD PUSH2 0x42DC JUMP JUMPDEST SWAP7 POP POP PUSH1 0xC0 PUSH2 0x4649 DUP15 DUP3 DUP16 ADD PUSH2 0x42DC JUMP JUMPDEST SWAP6 POP POP PUSH1 0xE0 PUSH2 0x465A DUP15 DUP3 DUP16 ADD PUSH2 0x42DC JUMP JUMPDEST SWAP5 POP POP PUSH2 0x100 PUSH2 0x466C DUP15 DUP3 DUP16 ADD PUSH2 0x42DC JUMP JUMPDEST SWAP4 POP POP PUSH2 0x120 PUSH2 0x467E DUP15 DUP3 DUP16 ADD PUSH2 0x43C3 JUMP JUMPDEST SWAP3 POP POP PUSH2 0x140 PUSH2 0x4690 DUP15 DUP3 DUP16 ADD PUSH2 0x4384 JUMP JUMPDEST SWAP2 POP POP SWAP3 SWAP6 SWAP9 SWAP12 POP SWAP3 SWAP6 SWAP9 SWAP12 SWAP1 SWAP4 SWAP7 SWAP10 POP JUMP JUMPDEST PUSH1 0x0 DUP1 PUSH1 0x40 DUP4 DUP6 SUB SLT ISZERO PUSH2 0x46B6 JUMPI PUSH1 0x0 DUP1 REVERT JUMPDEST PUSH1 0x0 PUSH2 0x46C4 DUP6 DUP3 DUP7 ADD PUSH2 0x43C3 JUMP JUMPDEST SWAP3 POP POP PUSH1 0x20 DUP4 ADD CALLDATALOAD PUSH8 0xFFFFFFFFFFFFFFFF DUP2 GT ISZERO PUSH2 0x46E1 JUMPI PUSH1 0x0 DUP1 REVERT JUMPDEST PUSH2 0x46ED DUP6 DUP3 DUP7 ADD PUSH2 0x435A JUMP JUMPDEST SWAP2 POP POP SWAP3 POP SWAP3 SWAP1 POP JUMP JUMPDEST PUSH1 0x0 DUP1 PUSH1 0x0 PUSH1 0x60 DUP5 DUP7 SUB SLT ISZERO PUSH2 0x470C JUMPI PUSH1 0x0 DUP1 REVERT JUMPDEST PUSH1 0x0 PUSH2 0x471A DUP7 DUP3 DUP8 ADD PUSH2 0x4402 JUMP JUMPDEST SWAP4 POP POP PUSH1 0x20 PUSH2 0x472B DUP7 DUP3 DUP8 ADD PUSH2 0x4402 JUMP JUMPDEST SWAP3 POP POP PUSH1 0x40 PUSH2 0x473C DUP7 DUP3 DUP8 ADD PUSH2 0x4441 JUMP JUMPDEST SWAP2 POP POP SWAP3 POP SWAP3 POP SWAP3 JUMP JUMPDEST PUSH1 0x0 PUSH1 0x20 DUP3 DUP5 SUB SLT ISZERO PUSH2 0x4758 JUMPI PUSH1 0x0 DUP1 REVERT JUMPDEST PUSH1 0x0 PUSH2 0x4766 DUP5 DUP3 DUP6 ADD PUSH2 0x4417 JUMP JUMPDEST SWAP2 POP POP SWAP3 SWAP2 POP POP JUMP JUMPDEST PUSH1 0x0 PUSH1 0x20 DUP3 DUP5 SUB SLT ISZERO PUSH2 0x4781 JUMPI PUSH1 0x0 DUP1 REVERT JUMPDEST PUSH1 0x0 PUSH2 0x478F DUP5 DUP3 DUP6 ADD PUSH2 0x442C JUMP JUMPDEST SWAP2 POP POP SWAP3 SWAP2 POP POP JUMP JUMPDEST PUSH1 0x0 DUP1 PUSH1 0x40 DUP4 DUP6 SUB SLT ISZERO PUSH2 0x47AB JUMPI PUSH1 0x0 DUP1 REVERT JUMPDEST PUSH1 0x0 PUSH2 0x47B9 DUP6 DUP3 DUP7 ADD PUSH2 0x4417 JUMP JUMPDEST SWAP3 POP POP PUSH1 0x20 PUSH2 0x47CA DUP6 DUP3 DUP7 ADD PUSH2 0x4417 JUMP JUMPDEST SWAP2 POP POP SWAP3 POP SWAP3 SWAP1 POP JUMP JUMPDEST PUSH1 0x0 DUP1 PUSH1 0x0 PUSH1 0x60 DUP5 DUP7 SUB SLT ISZERO PUSH2 0x47E9 JUMPI PUSH1 0x0 DUP1 REVERT JUMPDEST PUSH1 0x0 PUSH2 0x47F7 DUP7 DUP3 DUP8 ADD PUSH2 0x442C JUMP JUMPDEST SWAP4 POP POP PUSH1 0x20 PUSH2 0x4808 DUP7 DUP3 DUP8 ADD PUSH2 0x442C JUMP JUMPDEST SWAP3 POP POP PUSH1 0x40 PUSH2 0x4819 DUP7 DUP3 DUP8 ADD PUSH2 0x442C JUMP JUMPDEST SWAP2 POP POP SWAP3 POP SWAP3 POP SWAP3 JUMP JUMPDEST PUSH1 0x0 PUSH2 0x482F DUP4 DUP4 PUSH2 0x483B JUMP JUMPDEST PUSH1 0x20 DUP4 ADD SWAP1 POP SWAP3 SWAP2 POP POP JUMP JUMPDEST PUSH2 0x4844 DUP2 PUSH2 0x5575 JUMP JUMPDEST DUP3 MSTORE POP POP JUMP JUMPDEST PUSH2 0x4853 DUP2 PUSH2 0x5575 JUMP JUMPDEST DUP3 MSTORE POP POP JUMP JUMPDEST PUSH1 0x0 PUSH2 0x4864 DUP3 PUSH2 0x53F4 JUMP JUMPDEST PUSH2 0x486E DUP2 DUP6 PUSH2 0x5422 JUMP JUMPDEST SWAP4 POP PUSH2 0x4879 DUP4 PUSH2 0x53CF JUMP JUMPDEST DUP1 PUSH1 0x0 JUMPDEST DUP4 DUP2 LT ISZERO PUSH2 0x48AA JUMPI DUP2 MLOAD PUSH2 0x4891 DUP9 DUP3 PUSH2 0x4823 JUMP JUMPDEST SWAP8 POP PUSH2 0x489C DUP4 PUSH2 0x5415 JUMP JUMPDEST SWAP3 POP POP PUSH1 0x1 DUP2 ADD SWAP1 POP PUSH2 0x487D JUMP JUMPDEST POP DUP6 SWAP4 POP POP POP POP SWAP3 SWAP2 POP POP JUMP JUMPDEST PUSH2 0x48C0 DUP2 PUSH2 0x5587 JUMP JUMPDEST DUP3 MSTORE POP POP JUMP JUMPDEST PUSH1 0x0 PUSH2 0x48D1 DUP3 PUSH2 0x53FF JUMP JUMPDEST PUSH2 0x48DB DUP2 DUP6 PUSH2 0x5433 JUMP JUMPDEST SWAP4 POP PUSH2 0x48EB DUP2 DUP6 PUSH1 0x20 DUP7 ADD PUSH2 0x574C JUMP JUMPDEST PUSH2 0x48F4 DUP2 PUSH2 0x58B6 JUMP JUMPDEST DUP5 ADD SWAP2 POP POP SWAP3 SWAP2 POP POP JUMP JUMPDEST PUSH1 0x0 PUSH2 0x490A DUP3 PUSH2 0x53FF JUMP JUMPDEST PUSH2 0x4914 DUP2 DUP6 PUSH2 0x5444 JUMP JUMPDEST SWAP4 POP PUSH2 0x4924 DUP2 DUP6 PUSH1 0x20 DUP7 ADD PUSH2 0x574C JUMP JUMPDEST DUP1 DUP5 ADD SWAP2 POP POP SWAP3 SWAP2 POP POP JUMP JUMPDEST PUSH1 0x0 DUP2 SLOAD PUSH2 0x493D DUP2 PUSH2 0x577F JUMP JUMPDEST PUSH2 0x4947 DUP2 DUP7 PUSH2 0x5433 JUMP JUMPDEST SWAP5 POP PUSH1 0x1 DUP3 AND PUSH1 0x0 DUP2 EQ PUSH2 0x4962 JUMPI PUSH1 0x1 DUP2 EQ PUSH2 0x4974 JUMPI PUSH2 0x49A7 JUMP JUMPDEST PUSH1 0xFF NOT DUP4 AND DUP7 MSTORE PUSH1 0x20 DUP7 ADD SWAP4 POP PUSH2 0x49A7 JUMP JUMPDEST PUSH2 0x497D DUP6 PUSH2 0x53DF JUMP JUMPDEST PUSH1 0x0 JUMPDEST DUP4 DUP2 LT ISZERO PUSH2 0x499F JUMPI DUP2 SLOAD DUP2 DUP10 ADD MSTORE PUSH1 0x1 DUP3 ADD SWAP2 POP PUSH1 0x20 DUP2 ADD SWAP1 POP PUSH2 0x4980 JUMP JUMPDEST DUP1 DUP9 ADD SWAP6 POP POP POP JUMPDEST POP POP POP SWAP3 SWAP2 POP POP JUMP JUMPDEST PUSH2 0x49B9 DUP2 PUSH2 0x5653 JUMP JUMPDEST DUP3 MSTORE POP POP JUMP JUMPDEST PUSH2 0x49C8 DUP2 PUSH2 0x5677 JUMP JUMPDEST DUP3 MSTORE POP POP JUMP JUMPDEST PUSH2 0x49D7 DUP2 PUSH2 0x569B JUMP JUMPDEST DUP3 MSTORE POP POP JUMP JUMPDEST PUSH2 0x49E6 DUP2 PUSH2 0x56BF JUMP JUMPDEST DUP3 MSTORE POP POP JUMP JUMPDEST PUSH2 0x49F5 DUP2 PUSH2 0x56E3 JUMP JUMPDEST DUP3 MSTORE POP POP JUMP JUMPDEST PUSH2 0x4A04 DUP2 PUSH2 0x5707 JUMP JUMPDEST DUP3 MSTORE POP POP JUMP JUMPDEST PUSH2 0x4A13 DUP2 PUSH2 0x572B JUMP JUMPDEST DUP3 MSTORE POP POP JUMP JUMPDEST PUSH1 0x0 PUSH2 0x4A24 DUP3 PUSH2 0x540A JUMP JUMPDEST PUSH2 0x4A2E DUP2 DUP6 PUSH2 0x544F JUMP JUMPDEST SWAP4 POP PUSH2 0x4A3E DUP2 DUP6 PUSH1 0x20 DUP7 ADD PUSH2 0x574C JUMP JUMPDEST PUSH2 0x4A47 DUP2 PUSH2 0x58B6 JUMP JUMPDEST DUP5 ADD SWAP2 POP POP SWAP3 SWAP2 POP POP JUMP JUMPDEST PUSH1 0x0 PUSH2 0x4A5F PUSH1 0x23 DUP4 PUSH2 0x544F JUMP JUMPDEST SWAP2 POP PUSH32 0x556E697377617056324C6962726172793A206964656E746963616C5F61646472 PUSH1 0x0 DUP4 ADD MSTORE PUSH32 0x6573730000000000000000000000000000000000000000000000000000000000 PUSH1 0x20 DUP4 ADD MSTORE PUSH1 0x40 DUP3 ADD SWAP1 POP SWAP2 SWAP1 POP JUMP JUMPDEST PUSH1 0x0 PUSH2 0x4AC5 PUSH1 0x26 DUP4 PUSH2 0x544F JUMP JUMPDEST SWAP2 POP PUSH32 0x4F776E61626C653A206E6577206F776E657220697320746865207A65726F2061 PUSH1 0x0 DUP4 ADD MSTORE PUSH32 0x6464726573730000000000000000000000000000000000000000000000000000 PUSH1 0x20 DUP4 ADD MSTORE PUSH1 0x40 DUP3 ADD SWAP1 POP SWAP2 SWAP1 POP JUMP JUMPDEST PUSH1 0x0 PUSH2 0x4B2B PUSH1 0x8 DUP4 PUSH2 0x544F JUMP JUMPDEST SWAP2 POP PUSH32 0x4F6E6C7920454F41000000000000000000000000000000000000000000000000 PUSH1 0x0 DUP4 ADD MSTORE PUSH1 0x20 DUP3 ADD SWAP1 POP SWAP2 SWAP1 POP JUMP JUMPDEST PUSH1 0x0 PUSH2 0x4B6B PUSH1 0x2 DUP4 PUSH2 0x5433 JUMP JUMPDEST SWAP2 POP PUSH32 0x3078000000000000000000000000000000000000000000000000000000000000 PUSH1 0x0 DUP4 ADD MSTORE PUSH1 0x20 DUP3 ADD SWAP1 POP SWAP2 SWAP1 POP JUMP JUMPDEST PUSH1 0x0 PUSH2 0x4BAB PUSH1 0x26 DUP4 PUSH2 0x544F JUMP JUMPDEST SWAP2 POP PUSH32 0x416464726573733A20696E73756666696369656E742062616C616E636520666F PUSH1 0x0 DUP4 ADD MSTORE PUSH32 0x722063616C6C0000000000000000000000000000000000000000000000000000 PUSH1 0x20 DUP4 ADD MSTORE PUSH1 0x40 DUP3 ADD SWAP1 POP SWAP2 SWAP1 POP JUMP JUMPDEST PUSH1 0x0 PUSH2 0x4C11 PUSH1 0x1E DUP4 PUSH2 0x544F JUMP JUMPDEST SWAP2 POP PUSH32 0x556E697377617056324C6962726172793A207A65726F5F616464726573730000 PUSH1 0x0 DUP4 ADD MSTORE PUSH1 0x20 DUP3 ADD SWAP1 POP SWAP2 SWAP1 POP JUMP JUMPDEST PUSH1 0x0 PUSH2 0x4C51 PUSH1 0x2E DUP4 PUSH2 0x544F JUMP JUMPDEST SWAP2 POP PUSH32 0x496E697469616C697A61626C653A20636F6E747261637420697320616C726561 PUSH1 0x0 DUP4 ADD MSTORE PUSH32 0x647920696E697469616C697A6564000000000000000000000000000000000000 PUSH1 0x20 DUP4 ADD MSTORE PUSH1 0x40 DUP3 ADD SWAP1 POP SWAP2 SWAP1 POP JUMP JUMPDEST PUSH1 0x0 PUSH2 0x4CB7 PUSH1 0x20 DUP4 PUSH2 0x544F JUMP JUMPDEST SWAP2 POP PUSH32 0x4F776E61626C653A2063616C6C6572206973206E6F7420746865206F776E6572 PUSH1 0x0 DUP4 ADD MSTORE PUSH1 0x20 DUP3 ADD SWAP1 POP SWAP2 SWAP1 POP JUMP JUMPDEST PUSH1 0x0 PUSH2 0x4CF7 PUSH1 0x8 DUP4 PUSH2 0x544F JUMP JUMPDEST SWAP2 POP PUSH32 0x5265766572736564000000000000000000000000000000000000000000000000 PUSH1 0x0 DUP4 ADD MSTORE PUSH1 0x20 DUP3 ADD SWAP1 POP SWAP2 SWAP1 POP JUMP JUMPDEST PUSH1 0x0 PUSH2 0x4D37 PUSH1 0x1D DUP4 PUSH2 0x544F JUMP JUMPDEST SWAP2 POP PUSH32 0x416464726573733A2063616C6C20746F206E6F6E2D636F6E7472616374000000 PUSH1 0x0 DUP4 ADD MSTORE PUSH1 0x20 DUP3 ADD SWAP1 POP SWAP2 SWAP1 POP JUMP JUMPDEST PUSH1 0x0 PUSH2 0x4D77 PUSH1 0x2A DUP4 PUSH2 0x544F JUMP JUMPDEST SWAP2 POP PUSH32 0x5361666545524332303A204552433230206F7065726174696F6E20646964206E PUSH1 0x0 DUP4 ADD MSTORE PUSH32 0x6F74207375636365656400000000000000000000000000000000000000000000 PUSH1 0x20 DUP4 ADD MSTORE PUSH1 0x40 DUP3 ADD SWAP1 POP SWAP2 SWAP1 POP JUMP JUMPDEST PUSH1 0x0 PUSH2 0x4DDD PUSH1 0x36 DUP4 PUSH2 0x544F JUMP JUMPDEST SWAP2 POP PUSH32 0x5361666545524332303A20617070726F76652066726F6D206E6F6E2D7A65726F PUSH1 0x0 DUP4 ADD MSTORE PUSH32 0x20746F206E6F6E2D7A65726F20616C6C6F77616E636500000000000000000000 PUSH1 0x20 DUP4 ADD MSTORE PUSH1 0x40 DUP3 ADD SWAP1 POP SWAP2 SWAP1 POP JUMP JUMPDEST PUSH2 0x4E3F DUP2 PUSH2 0x5639 JUMP JUMPDEST DUP3 MSTORE POP POP JUMP JUMPDEST PUSH1 0x0 PUSH2 0x4E51 DUP3 DUP5 PUSH2 0x48FF JUMP JUMPDEST SWAP2 POP DUP2 SWAP1 POP SWAP3 SWAP2 POP POP JUMP JUMPDEST PUSH1 0x0 PUSH1 0x20 DUP3 ADD SWAP1 POP PUSH2 0x4E71 PUSH1 0x0 DUP4 ADD DUP5 PUSH2 0x484A JUMP JUMPDEST SWAP3 SWAP2 POP POP JUMP JUMPDEST PUSH1 0x0 PUSH1 0x40 DUP3 ADD SWAP1 POP PUSH2 0x4E8C PUSH1 0x0 DUP4 ADD DUP6 PUSH2 0x484A JUMP JUMPDEST PUSH2 0x4E99 PUSH1 0x20 DUP4 ADD DUP5 PUSH2 0x484A JUMP JUMPDEST SWAP4 SWAP3 POP POP POP JUMP JUMPDEST PUSH1 0x0 PUSH1 0x60 DUP3 ADD SWAP1 POP PUSH2 0x4EB5 PUSH1 0x0 DUP4 ADD DUP7 PUSH2 0x484A JUMP JUMPDEST PUSH2 0x4EC2 PUSH1 0x20 DUP4 ADD DUP6 PUSH2 0x484A JUMP JUMPDEST PUSH2 0x4ECF PUSH1 0x40 DUP4 ADD DUP5 PUSH2 0x4E36 JUMP JUMPDEST SWAP5 SWAP4 POP POP POP POP JUMP JUMPDEST PUSH1 0x0 PUSH2 0x100 DUP3 ADD SWAP1 POP PUSH2 0x4EED PUSH1 0x0 DUP4 ADD DUP12 PUSH2 0x484A JUMP JUMPDEST PUSH2 0x4EFA PUSH1 0x20 DUP4 ADD DUP11 PUSH2 0x484A JUMP JUMPDEST PUSH2 0x4F07 PUSH1 0x40 DUP4 ADD DUP10 PUSH2 0x4E36 JUMP JUMPDEST PUSH2 0x4F14 PUSH1 0x60 DUP4 ADD DUP9 PUSH2 0x4E36 JUMP JUMPDEST PUSH2 0x4F21 PUSH1 0x80 DUP4 ADD DUP8 PUSH2 0x4A0A JUMP JUMPDEST PUSH2 0x4F2E PUSH1 0xA0 DUP4 ADD DUP7 PUSH2 0x4A0A JUMP JUMPDEST PUSH2 0x4F3B PUSH1 0xC0 DUP4 ADD DUP6 PUSH2 0x484A JUMP JUMPDEST PUSH2 0x4F48 PUSH1 0xE0 DUP4 ADD DUP5 PUSH2 0x4E36 JUMP JUMPDEST SWAP10 SWAP9 POP POP POP POP POP POP POP POP POP JUMP JUMPDEST PUSH1 0x0 PUSH1 0x40 DUP3 ADD SWAP1 POP PUSH2 0x4F6A PUSH1 0x0 DUP4 ADD DUP6 PUSH2 0x484A JUMP JUMPDEST PUSH2 0x4F77 PUSH1 0x20 DUP4 ADD DUP5 PUSH2 0x4E36 JUMP JUMPDEST SWAP4 SWAP3 POP POP POP JUMP JUMPDEST PUSH1 0x0 PUSH1 0x60 DUP3 ADD SWAP1 POP PUSH2 0x4F93 PUSH1 0x0 DUP4 ADD DUP7 PUSH2 0x484A JUMP JUMPDEST PUSH2 0x4FA0 PUSH1 0x20 DUP4 ADD DUP6 PUSH2 0x4E36 JUMP JUMPDEST PUSH2 0x4FAD PUSH1 0x40 DUP4 ADD DUP5 PUSH2 0x4E36 JUMP JUMPDEST SWAP5 SWAP4 POP POP POP POP JUMP JUMPDEST PUSH1 0x0 PUSH1 0x20 DUP3 ADD SWAP1 POP PUSH2 0x4FCA PUSH1 0x0 DUP4 ADD DUP5 PUSH2 0x48B7 JUMP JUMPDEST SWAP3 SWAP2 POP POP JUMP JUMPDEST PUSH1 0x0 PUSH1 0x40 DUP3 ADD SWAP1 POP PUSH2 0x4FE5 PUSH1 0x0 DUP4 ADD DUP6 PUSH2 0x48B7 JUMP JUMPDEST PUSH2 0x4FF2 PUSH1 0x20 DUP4 ADD DUP5 PUSH2 0x4E36 JUMP JUMPDEST SWAP4 SWAP3 POP POP POP JUMP JUMPDEST PUSH1 0x0 PUSH1 0x20 DUP3 ADD SWAP1 POP DUP2 DUP2 SUB PUSH1 0x0 DUP4 ADD MSTORE PUSH2 0x5013 DUP2 DUP5 PUSH2 0x48C6 JUMP JUMPDEST SWAP1 POP SWAP3 SWAP2 POP POP JUMP JUMPDEST PUSH1 0x0 PUSH1 0x20 DUP3 ADD SWAP1 POP DUP2 DUP2 SUB PUSH1 0x0 DUP4 ADD MSTORE PUSH2 0x5035 DUP2 DUP5 PUSH2 0x4930 JUMP JUMPDEST SWAP1 POP SWAP3 SWAP2 POP POP JUMP JUMPDEST PUSH1 0x0 PUSH1 0x20 DUP3 ADD SWAP1 POP PUSH2 0x5052 PUSH1 0x0 DUP4 ADD DUP5 PUSH2 0x49B0 JUMP JUMPDEST SWAP3 SWAP2 POP POP JUMP JUMPDEST PUSH1 0x0 PUSH1 0x20 DUP3 ADD SWAP1 POP PUSH2 0x506D PUSH1 0x0 DUP4 ADD DUP5 PUSH2 0x49BF JUMP JUMPDEST SWAP3 SWAP2 POP POP JUMP JUMPDEST PUSH1 0x0 PUSH1 0x20 DUP3 ADD SWAP1 POP PUSH2 0x5088 PUSH1 0x0 DUP4 ADD DUP5 PUSH2 0x49CE JUMP JUMPDEST SWAP3 SWAP2 POP POP JUMP JUMPDEST PUSH1 0x0 PUSH1 0x20 DUP3 ADD SWAP1 POP PUSH2 0x50A3 PUSH1 0x0 DUP4 ADD DUP5 PUSH2 0x49DD JUMP JUMPDEST SWAP3 SWAP2 POP POP JUMP JUMPDEST PUSH1 0x0 PUSH1 0x20 DUP3 ADD SWAP1 POP PUSH2 0x50BE PUSH1 0x0 DUP4 ADD DUP5 PUSH2 0x49EC JUMP JUMPDEST SWAP3 SWAP2 POP POP JUMP JUMPDEST PUSH1 0x0 PUSH1 0x20 DUP3 ADD SWAP1 POP PUSH2 0x50D9 PUSH1 0x0 DUP4 ADD DUP5 PUSH2 0x49FB JUMP JUMPDEST SWAP3 SWAP2 POP POP JUMP JUMPDEST PUSH1 0x0 PUSH1 0x20 DUP3 ADD SWAP1 POP DUP2 DUP2 SUB PUSH1 0x0 DUP4 ADD MSTORE PUSH2 0x50F9 DUP2 DUP5 PUSH2 0x4A19 JUMP JUMPDEST SWAP1 POP SWAP3 SWAP2 POP POP JUMP JUMPDEST PUSH1 0x0 PUSH1 0x20 DUP3 ADD SWAP1 POP DUP2 DUP2 SUB PUSH1 0x0 DUP4 ADD MSTORE PUSH2 0x511A DUP2 PUSH2 0x4A52 JUMP JUMPDEST SWAP1 POP SWAP2 SWAP1 POP JUMP JUMPDEST PUSH1 0x0 PUSH1 0x20 DUP3 ADD SWAP1 POP DUP2 DUP2 SUB PUSH1 0x0 DUP4 ADD MSTORE PUSH2 0x513A DUP2 PUSH2 0x4AB8 JUMP JUMPDEST SWAP1 POP SWAP2 SWAP1 POP JUMP JUMPDEST PUSH1 0x0 PUSH1 0x20 DUP3 ADD SWAP1 POP DUP2 DUP2 SUB PUSH1 0x0 DUP4 ADD MSTORE PUSH2 0x515A DUP2 PUSH2 0x4B1E JUMP JUMPDEST SWAP1 POP SWAP2 SWAP1 POP JUMP JUMPDEST PUSH1 0x0 PUSH1 0x20 DUP3 ADD SWAP1 POP DUP2 DUP2 SUB PUSH1 0x0 DUP4 ADD MSTORE PUSH2 0x517A DUP2 PUSH2 0x4B5E JUMP JUMPDEST SWAP1 POP SWAP2 SWAP1 POP JUMP JUMPDEST PUSH1 0x0 PUSH1 0x20 DUP3 ADD SWAP1 POP DUP2 DUP2 SUB PUSH1 0x0 DUP4 ADD MSTORE PUSH2 0x519A DUP2 PUSH2 0x4B9E JUMP JUMPDEST SWAP1 POP SWAP2 SWAP1 POP JUMP JUMPDEST PUSH1 0x0 PUSH1 0x20 DUP3 ADD SWAP1 POP DUP2 DUP2 SUB PUSH1 0x0 DUP4 ADD MSTORE PUSH2 0x51BA DUP2 PUSH2 0x4C04 JUMP JUMPDEST SWAP1 POP SWAP2 SWAP1 POP JUMP JUMPDEST PUSH1 0x0 PUSH1 0x20 DUP3 ADD SWAP1 POP DUP2 DUP2 SUB PUSH1 0x0 DUP4 ADD MSTORE PUSH2 0x51DA DUP2 PUSH2 0x4C44 JUMP JUMPDEST SWAP1 POP SWAP2 SWAP1 POP JUMP JUMPDEST PUSH1 0x0 PUSH1 0x20 DUP3 ADD SWAP1 POP DUP2 DUP2 SUB PUSH1 0x0 DUP4 ADD MSTORE PUSH2 0x51FA DUP2 PUSH2 0x4CAA JUMP JUMPDEST SWAP1 POP SWAP2 SWAP1 POP JUMP JUMPDEST PUSH1 0x0 PUSH1 0x20 DUP3 ADD SWAP1 POP DUP2 DUP2 SUB PUSH1 0x0 DUP4 ADD MSTORE PUSH2 0x521A DUP2 PUSH2 0x4CEA JUMP JUMPDEST SWAP1 POP SWAP2 SWAP1 POP JUMP JUMPDEST PUSH1 0x0 PUSH1 0x20 DUP3 ADD SWAP1 POP DUP2 DUP2 SUB PUSH1 0x0 DUP4 ADD MSTORE PUSH2 0x523A DUP2 PUSH2 0x4D2A JUMP JUMPDEST SWAP1 POP SWAP2 SWAP1 POP JUMP JUMPDEST PUSH1 0x0 PUSH1 0x20 DUP3 ADD SWAP1 POP DUP2 DUP2 SUB PUSH1 0x0 DUP4 ADD MSTORE PUSH2 0x525A DUP2 PUSH2 0x4D6A JUMP JUMPDEST SWAP1 POP SWAP2 SWAP1 POP JUMP JUMPDEST PUSH1 0x0 PUSH1 0x20 DUP3 ADD SWAP1 POP DUP2 DUP2 SUB PUSH1 0x0 DUP4 ADD MSTORE PUSH2 0x527A DUP2 PUSH2 0x4DD0 JUMP JUMPDEST SWAP1 POP SWAP2 SWAP1 POP JUMP JUMPDEST PUSH1 0x0 PUSH1 0x20 DUP3 ADD SWAP1 POP PUSH2 0x5296 PUSH1 0x0 DUP4 ADD DUP5 PUSH2 0x4E36 JUMP JUMPDEST SWAP3 SWAP2 POP POP JUMP JUMPDEST PUSH1 0x0 PUSH1 0xA0 DUP3 ADD SWAP1 POP PUSH2 0x52B1 PUSH1 0x0 DUP4 ADD DUP9 PUSH2 0x4E36 JUMP JUMPDEST PUSH2 0x52BE PUSH1 0x20 DUP4 ADD DUP8 PUSH2 0x4A0A JUMP JUMPDEST DUP2 DUP2 SUB PUSH1 0x40 DUP4 ADD MSTORE PUSH2 0x52D0 DUP2 DUP7 PUSH2 0x4859 JUMP JUMPDEST SWAP1 POP PUSH2 0x52DF PUSH1 0x60 DUP4 ADD DUP6 PUSH2 0x484A JUMP JUMPDEST PUSH2 0x52EC PUSH1 0x80 DUP4 ADD DUP5 PUSH2 0x4E36 JUMP JUMPDEST SWAP7 SWAP6 POP POP POP POP POP POP JUMP JUMPDEST PUSH1 0x0 PUSH1 0x80 DUP3 ADD SWAP1 POP PUSH2 0x530B PUSH1 0x0 DUP4 ADD DUP8 PUSH2 0x4E36 JUMP JUMPDEST PUSH2 0x5318 PUSH1 0x20 DUP4 ADD DUP7 PUSH2 0x4E36 JUMP JUMPDEST PUSH2 0x5325 PUSH1 0x40 DUP4 ADD DUP6 PUSH2 0x484A JUMP JUMPDEST DUP2 DUP2 SUB PUSH1 0x60 DUP4 ADD MSTORE PUSH2 0x5337 DUP2 DUP5 PUSH2 0x48C6 JUMP JUMPDEST SWAP1 POP SWAP6 SWAP5 POP POP POP POP POP JUMP JUMPDEST PUSH1 0x0 PUSH1 0x40 MLOAD SWAP1 POP DUP2 DUP2 ADD DUP2 DUP2 LT PUSH8 0xFFFFFFFFFFFFFFFF DUP3 GT OR ISZERO PUSH2 0x5369 JUMPI PUSH2 0x5368 PUSH2 0x5887 JUMP JUMPDEST JUMPDEST DUP1 PUSH1 0x40 MSTORE POP SWAP2 SWAP1 POP JUMP JUMPDEST PUSH1 0x0 PUSH8 0xFFFFFFFFFFFFFFFF DUP3 GT ISZERO PUSH2 0x538E JUMPI PUSH2 0x538D PUSH2 0x5887 JUMP JUMPDEST JUMPDEST PUSH1 0x20 DUP3 MUL SWAP1 POP PUSH1 0x20 DUP2 ADD SWAP1 POP SWAP2 SWAP1 POP JUMP JUMPDEST PUSH1 0x0 PUSH8 0xFFFFFFFFFFFFFFFF DUP3 GT ISZERO PUSH2 0x53BA JUMPI PUSH2 0x53B9 PUSH2 0x5887 JUMP JUMPDEST JUMPDEST PUSH1 0x1F NOT PUSH1 0x1F DUP4 ADD AND SWAP1 POP PUSH1 0x20 DUP2 ADD SWAP1 POP SWAP2 SWAP1 POP JUMP JUMPDEST PUSH1 0x0 DUP2 SWAP1 POP PUSH1 0x20 DUP3 ADD SWAP1 POP SWAP2 SWAP1 POP JUMP JUMPDEST PUSH1 0x0 DUP2 SWAP1 POP DUP2 PUSH1 0x0 MSTORE PUSH1 0x20 PUSH1 0x0 KECCAK256 SWAP1 POP SWAP2 SWAP1 POP JUMP JUMPDEST PUSH1 0x0 DUP2 MLOAD SWAP1 POP SWAP2 SWAP1 POP JUMP JUMPDEST PUSH1 0x0 DUP2 MLOAD SWAP1 POP SWAP2 SWAP1 POP JUMP JUMPDEST PUSH1 0x0 DUP2 MLOAD SWAP1 POP SWAP2 SWAP1 POP JUMP JUMPDEST PUSH1 0x0 PUSH1 0x20 DUP3 ADD SWAP1 POP SWAP2 SWAP1 POP JUMP JUMPDEST PUSH1 0x0 DUP3 DUP3 MSTORE PUSH1 0x20 DUP3 ADD SWAP1 POP SWAP3 SWAP2 POP POP JUMP JUMPDEST PUSH1 0x0 DUP3 DUP3 MSTORE PUSH1 0x20 DUP3 ADD SWAP1 POP SWAP3 SWAP2 POP POP JUMP JUMPDEST PUSH1 0x0 DUP2 SWAP1 POP SWAP3 SWAP2 POP POP JUMP JUMPDEST PUSH1 0x0 DUP3 DUP3 MSTORE PUSH1 0x20 DUP3 ADD SWAP1 POP SWAP3 SWAP2 POP POP JUMP JUMPDEST PUSH1 0x0 PUSH2 0x546B DUP3 PUSH2 0x5639 JUMP JUMPDEST SWAP2 POP PUSH2 0x5476 DUP4 PUSH2 0x5639 JUMP JUMPDEST SWAP3 POP DUP3 PUSH32 0xFFFFFFFFFFFFFFFFFFFFFFFFFFFFFFFFFFFFFFFFFFFFFFFFFFFFFFFFFFFFFFFF SUB DUP3 GT ISZERO PUSH2 0x54AB JUMPI PUSH2 0x54AA PUSH2 0x57FA JUMP JUMPDEST JUMPDEST DUP3 DUP3 ADD SWAP1 POP SWAP3 SWAP2 POP POP JUMP JUMPDEST PUSH1 0x0 PUSH2 0x54C1 DUP3 PUSH2 0x5639 JUMP JUMPDEST SWAP2 POP PUSH2 0x54CC DUP4 PUSH2 0x5639 JUMP JUMPDEST SWAP3 POP DUP3 PUSH2 0x54DC JUMPI PUSH2 0x54DB PUSH2 0x5829 JUMP JUMPDEST JUMPDEST DUP3 DUP3 DIV SWAP1 POP SWAP3 SWAP2 POP POP JUMP JUMPDEST PUSH1 0x0 PUSH2 0x54F2 DUP3 PUSH2 0x5639 JUMP JUMPDEST SWAP2 POP PUSH2 0x54FD DUP4 PUSH2 0x5639 JUMP JUMPDEST SWAP3 POP DUP2 PUSH32 0xFFFFFFFFFFFFFFFFFFFFFFFFFFFFFFFFFFFFFFFFFFFFFFFFFFFFFFFFFFFFFFFF DIV DUP4 GT DUP3 ISZERO ISZERO AND ISZERO PUSH2 0x5536 JUMPI PUSH2 0x5535 PUSH2 0x57FA JUMP JUMPDEST JUMPDEST DUP3 DUP3 MUL SWAP1 POP SWAP3 SWAP2 POP POP JUMP JUMPDEST PUSH1 0x0 PUSH2 0x554C DUP3 PUSH2 0x5639 JUMP JUMPDEST SWAP2 POP PUSH2 0x5557 DUP4 PUSH2 0x5639 JUMP JUMPDEST SWAP3 POP DUP3 DUP3 LT ISZERO PUSH2 0x556A JUMPI PUSH2 0x5569 PUSH2 0x57FA JUMP JUMPDEST JUMPDEST DUP3 DUP3 SUB SWAP1 POP SWAP3 SWAP2 POP POP JUMP JUMPDEST PUSH1 0x0 PUSH2 0x5580 DUP3 PUSH2 0x5619 JUMP JUMPDEST SWAP1 POP SWAP2 SWAP1 POP JUMP JUMPDEST PUSH1 0x0 DUP2 ISZERO ISZERO SWAP1 POP SWAP2 SWAP1 POP JUMP JUMPDEST PUSH1 0x0 PUSH2 0x559E DUP3 PUSH2 0x5575 JUMP JUMPDEST SWAP1 POP SWAP2 SWAP1 POP JUMP JUMPDEST PUSH1 0x0 PUSH2 0x55B0 DUP3 PUSH2 0x5575 JUMP JUMPDEST SWAP1 POP SWAP2 SWAP1 POP JUMP JUMPDEST PUSH1 0x0 PUSH2 0x55C2 DUP3 PUSH2 0x5575 JUMP JUMPDEST SWAP1 POP SWAP2 SWAP1 POP JUMP JUMPDEST PUSH1 0x0 PUSH2 0x55D4 DUP3 PUSH2 0x5575 JUMP JUMPDEST SWAP1 POP SWAP2 SWAP1 POP JUMP JUMPDEST PUSH1 0x0 PUSH2 0x55E6 DUP3 PUSH2 0x5575 JUMP JUMPDEST SWAP1 POP SWAP2 SWAP1 POP JUMP JUMPDEST PUSH1 0x0 PUSH2 0x55F8 DUP3 PUSH2 0x5575 JUMP JUMPDEST SWAP1 POP SWAP2 SWAP1 POP JUMP JUMPDEST PUSH1 0x0 PUSH14 0xFFFFFFFFFFFFFFFFFFFFFFFFFFFF DUP3 AND SWAP1 POP SWAP2 SWAP1 POP JUMP JUMPDEST PUSH1 0x0 PUSH20 0xFFFFFFFFFFFFFFFFFFFFFFFFFFFFFFFFFFFFFFFF DUP3 AND SWAP1 POP SWAP2 SWAP1 POP JUMP JUMPDEST PUSH1 0x0 DUP2 SWAP1 POP SWAP2 SWAP1 POP JUMP JUMPDEST PUSH1 0x0 PUSH4 0xFFFFFFFF DUP3 AND SWAP1 POP SWAP2 SWAP1 POP JUMP JUMPDEST PUSH1 0x0 PUSH2 0x565E DUP3 PUSH2 0x5665 JUMP JUMPDEST SWAP1 POP SWAP2 SWAP1 POP JUMP JUMPDEST PUSH1 0x0 PUSH2 0x5670 DUP3 PUSH2 0x5619 JUMP JUMPDEST SWAP1 POP SWAP2 SWAP1 POP JUMP JUMPDEST PUSH1 0x0 PUSH2 0x5682 DUP3 PUSH2 0x5689 JUMP JUMPDEST SWAP1 POP SWAP2 SWAP1 POP JUMP JUMPDEST PUSH1 0x0 PUSH2 0x5694 DUP3 PUSH2 0x5619 JUMP JUMPDEST SWAP1 POP SWAP2 SWAP1 POP JUMP JUMPDEST PUSH1 0x0 PUSH2 0x56A6 DUP3 PUSH2 0x56AD JUMP JUMPDEST SWAP1 POP SWAP2 SWAP1 POP JUMP JUMPDEST PUSH1 0x0 PUSH2 0x56B8 DUP3 PUSH2 0x5619 JUMP JUMPDEST SWAP1 POP SWAP2 SWAP1 POP JUMP JUMPDEST PUSH1 0x0 PUSH2 0x56CA DUP3 PUSH2 0x56D1 JUMP JUMPDEST SWAP1 POP SWAP2 SWAP1 POP JUMP JUMPDEST PUSH1 0x0 PUSH2 0x56DC DUP3 PUSH2 0x5619 JUMP JUMPDEST SWAP1 POP SWAP2 SWAP1 POP JUMP JUMPDEST PUSH1 0x0 PUSH2 0x56EE DUP3 PUSH2 0x56F5 JUMP JUMPDEST SWAP1 POP SWAP2 SWAP1 POP JUMP JUMPDEST PUSH1 0x0 PUSH2 0x5700 DUP3 PUSH2 0x5619 JUMP JUMPDEST SWAP1 POP SWAP2 SWAP1 POP JUMP JUMPDEST PUSH1 0x0 PUSH2 0x5712 DUP3 PUSH2 0x5719 JUMP JUMPDEST SWAP1 POP SWAP2 SWAP1 POP JUMP JUMPDEST PUSH1 0x0 PUSH2 0x5724 DUP3 PUSH2 0x5619 JUMP JUMPDEST SWAP1 POP SWAP2 SWAP1 POP JUMP JUMPDEST PUSH1 0x0 PUSH2 0x5736 DUP3 PUSH2 0x5639 JUMP JUMPDEST SWAP1 POP SWAP2 SWAP1 POP JUMP JUMPDEST DUP3 DUP2 DUP4 CALLDATACOPY PUSH1 0x0 DUP4 DUP4 ADD MSTORE POP POP POP JUMP JUMPDEST PUSH1 0x0 JUMPDEST DUP4 DUP2 LT ISZERO PUSH2 0x576A JUMPI DUP1 DUP3 ADD MLOAD DUP2 DUP5 ADD MSTORE PUSH1 0x20 DUP2 ADD SWAP1 POP PUSH2 0x574F JUMP JUMPDEST DUP4 DUP2 GT ISZERO PUSH2 0x5779 JUMPI PUSH1 0x0 DUP5 DUP5 ADD MSTORE JUMPDEST POP POP POP POP JUMP JUMPDEST PUSH1 0x0 PUSH1 0x2 DUP3 DIV SWAP1 POP PUSH1 0x1 DUP3 AND DUP1 PUSH2 0x5797 JUMPI PUSH1 0x7F DUP3 AND SWAP2 POP JUMPDEST PUSH1 0x20 DUP3 LT DUP2 EQ ISZERO PUSH2 0x57AB JUMPI PUSH2 0x57AA PUSH2 0x5858 JUMP JUMPDEST JUMPDEST POP SWAP2 SWAP1 POP JUMP JUMPDEST PUSH1 0x0 PUSH2 0x57BC DUP3 PUSH2 0x5639 JUMP JUMPDEST SWAP2 POP PUSH32 0xFFFFFFFFFFFFFFFFFFFFFFFFFFFFFFFFFFFFFFFFFFFFFFFFFFFFFFFFFFFFFFFF DUP3 EQ ISZERO PUSH2 0x57EF JUMPI PUSH2 0x57EE PUSH2 0x57FA JUMP JUMPDEST JUMPDEST PUSH1 0x1 DUP3 ADD SWAP1 POP SWAP2 SWAP1 POP JUMP JUMPDEST PUSH32 0x4E487B7100000000000000000000000000000000000000000000000000000000 PUSH1 0x0 MSTORE PUSH1 0x11 PUSH1 0x4 MSTORE PUSH1 0x24 PUSH1 0x0 REVERT JUMPDEST PUSH32 0x4E487B7100000000000000000000000000000000000000000000000000000000 PUSH1 0x0 MSTORE PUSH1 0x12 PUSH1 0x4 MSTORE PUSH1 0x24 PUSH1 0x0 REVERT JUMPDEST PUSH32 0x4E487B7100000000000000000000000000000000000000000000000000000000 PUSH1 0x0 MSTORE PUSH1 0x22 PUSH1 0x4 MSTORE PUSH1 0x24 PUSH1 0x0 REVERT JUMPDEST PUSH32 0x4E487B7100000000000000000000000000000000000000000000000000000000 PUSH1 0x0 MSTORE PUSH1 0x41 PUSH1 0x4 MSTORE PUSH1 0x24 PUSH1 0x0 REVERT JUMPDEST PUSH1 0x0 PUSH1 0x1F NOT PUSH1 0x1F DUP4 ADD AND SWAP1 POP SWAP2 SWAP1 POP JUMP JUMPDEST PUSH2 0x58D0 DUP2 PUSH2 0x5575 JUMP JUMPDEST DUP2 EQ PUSH2 0x58DB JUMPI PUSH1 0x0 DUP1 REVERT JUMPDEST POP JUMP JUMPDEST PUSH2 0x58E7 DUP2 PUSH2 0x5587 JUMP JUMPDEST DUP2 EQ PUSH2 0x58F2 JUMPI PUSH1 0x0 DUP1 REVERT JUMPDEST POP JUMP JUMPDEST PUSH2 0x58FE DUP2 PUSH2 0x5593 JUMP JUMPDEST DUP2 EQ PUSH2 0x5909 JUMPI PUSH1 0x0 DUP1 REVERT JUMPDEST POP JUMP JUMPDEST PUSH2 0x5915 DUP2 PUSH2 0x55A5 JUMP JUMPDEST DUP2 EQ PUSH2 0x5920 JUMPI PUSH1 0x0 DUP1 REVERT JUMPDEST POP JUMP JUMPDEST PUSH2 0x592C DUP2 PUSH2 0x55B7 JUMP JUMPDEST DUP2 EQ PUSH2 0x5937 JUMPI PUSH1 0x0 DUP1 REVERT JUMPDEST POP JUMP JUMPDEST PUSH2 0x5943 DUP2 PUSH2 0x55C9 JUMP JUMPDEST DUP2 EQ PUSH2 0x594E JUMPI PUSH1 0x0 DUP1 REVERT JUMPDEST POP JUMP JUMPDEST PUSH2 0x595A DUP2 PUSH2 0x55DB JUMP JUMPDEST DUP2 EQ PUSH2 0x5965 JUMPI PUSH1 0x0 DUP1 REVERT JUMPDEST POP JUMP JUMPDEST PUSH2 0x5971 DUP2 PUSH2 0x55ED JUMP JUMPDEST DUP2 EQ PUSH2 0x597C JUMPI PUSH1 0x0 DUP1 REVERT JUMPDEST POP JUMP JUMPDEST PUSH2 0x5988 DUP2 PUSH2 0x55FF JUMP JUMPDEST DUP2 EQ PUSH2 0x5993 JUMPI PUSH1 0x0 DUP1 REVERT JUMPDEST POP JUMP JUMPDEST PUSH2 0x599F DUP2 PUSH2 0x5639 JUMP JUMPDEST DUP2 EQ PUSH2 0x59AA JUMPI PUSH1 0x0 DUP1 REVERT JUMPDEST POP JUMP JUMPDEST PUSH2 0x59B6 DUP2 PUSH2 0x5643 JUMP JUMPDEST DUP2 EQ PUSH2 0x59C1 JUMPI PUSH1 0x0 DUP1 REVERT JUMPDEST POP JUMP INVALID LOG2 PUSH5 0x6970667358 0x22 SLT KECCAK256 PUSH12 0x7C95C6E4076226731E1081E8 PUSH26 0xDC072F1ABFA93B4776EA4E21169AA7F609C964736F6C63430008 STOP STOP CALLER "
		},
		"gasEstimates": {
			"creation": {
				"codeDepositCost": "4606800",
				"executionCost": "5383",
				"totalCost": "4612183"
			},
			"external": {
				"FISH()": "1389",
				"FISHNFT()": "1346",
				"Factory()": "1390",
				"PRECISION()": "1174",
				"ROI()": "1218",
				"Router()": "1367",
				"TargetROI()": "1196",
				"USDC()": "1347",
				"addLiquidityOpen()": "1309",
				"buyNft(uint256)": "infinite",
				"dev()": "1282",
				"direction()": "1241",
				"exchangeRate()": "1219",
				"initialize(address,address,address,address,address,address,address,address,address,address,address)": "infinite",
				"maxSellAmt()": "1198",
				"multiSignature()": "1281",
				"multiSignatureToSToken()": "1304",
				"op()": "1325",
				"oracle()": "1325",
				"oracleData()": "infinite",
				"owner()": "1356",
				"peekSpot()": "infinite",
				"price()": "1241",
				"renounceOwnership()": "24485",
				"sFISH()": "1326",
				"setAddLiquidityOpen(bool)": "infinite",
				"setDev(address)": "22531",
				"setDirection(uint256)": "21675",
				"setMaxSellAmt(uint256)": "21674",
				"setMultiSignature(address)": "22598",
				"setMultiSignatureToSToken(address)": "22554",
				"setOp(address)": "22575",
				"setOracle(address,bytes)": "infinite",
				"setPrice(uint256)": "21718",
				"setROI(uint256)": "21697",
				"setStateOpen(bool)": "infinite",
				"setStepSize(uint256)": "21653",
				"setTargetROI(uint256)": "21673",
				"setToDevPec(uint256)": "21674",
				"setToLiquidityPec(uint256)": "21696",
				"setToOpPec(uint256)": "21695",
				"setWhitelistDiscount(uint256,uint256)": "infinite",
				"setWhitelistLevel(address,uint256)": "21942",
				"stateOpen()": "1239",
				"stepSize()": "1220",
				"toDevPec()": "1285",
				"toLiquidityPec()": "1175",
				"toOpPec()": "1198",
				"transferOwnership(address)": "24789",
				"updateExchangeRate()": "infinite",
				"whitelistDiscount(uint256)": "infinite",
				"whitelistLevel(address)": "1604"
			},
			"internal": {
				"_optimalDepositA(uint256,uint256,uint256,uint256)": "infinite",
				"calAndSwap(contract IUniswapV2Pair,address,address,uint256)": "infinite",
				"getAmountOut(uint256,uint256,uint256)": "infinite",
				"optimalDeposit(uint256,uint256,uint256,uint256)": "infinite",
				"sortTokens(address,address)": "infinite",
				"updateRoi()": "infinite"
			}
		},
		"methodIdentifiers": {
			"FISH()": "ffcff32c",
			"FISHNFT()": "71261bf3",
			"Factory()": "c83dd231",
			"PRECISION()": "aaf5eb68",
			"ROI()": "d5c43159",
			"Router()": "f6d7eade",
			"TargetROI()": "af4086f6",
			"USDC()": "89a30271",
			"addLiquidityOpen()": "f49c8b87",
			"buyNft(uint256)": "243adbdd",
			"dev()": "91cca3db",
			"direction()": "645539ed",
			"exchangeRate()": "3ba0b9a9",
			"initialize(address,address,address,address,address,address,address,address,address,address,address)": "76902b83",
			"maxSellAmt()": "33cdacd9",
			"multiSignature()": "6f0a5b1b",
			"multiSignatureToSToken()": "98362440",
			"op()": "ec1f1f69",
			"oracle()": "7dc0d1d0",
			"oracleData()": "74645ff3",
			"owner()": "8da5cb5b",
			"peekSpot()": "a265e899",
			"price()": "a035b1fe",
			"renounceOwnership()": "715018a6",
			"sFISH()": "4a9c8366",
			"setAddLiquidityOpen(bool)": "c85cd712",
			"setDev(address)": "d477f05f",
			"setDirection(uint256)": "38207b16",
			"setMaxSellAmt(uint256)": "40e90a7e",
			"setMultiSignature(address)": "56930714",
			"setMultiSignatureToSToken(address)": "49bdafc8",
			"setOp(address)": "a36a7526",
			"setOracle(address,bytes)": "b13b0847",
			"setPrice(uint256)": "91b7f5ed",
			"setROI(uint256)": "1891381d",
			"setStateOpen(bool)": "a235c42a",
			"setStepSize(uint256)": "1450acd2",
			"setTargetROI(uint256)": "b3789533",
			"setToDevPec(uint256)": "8af9e5cd",
			"setToLiquidityPec(uint256)": "40ee4d0c",
			"setToOpPec(uint256)": "a9787fdc",
			"setWhitelistDiscount(uint256,uint256)": "17db7b70",
			"setWhitelistLevel(address,uint256)": "3b2d3e96",
			"stateOpen()": "6043903d",
			"stepSize()": "36ebafe9",
			"toDevPec()": "60398848",
			"toLiquidityPec()": "47e1ed88",
			"toOpPec()": "0a0642c0",
			"transferOwnership(address)": "f2fde38b",
			"updateExchangeRate()": "02ce728f",
			"whitelistDiscount(uint256)": "498cb7f4",
			"whitelistLevel(address)": "6263fc67"
		}
	},
	"abi": [
		{
			"anonymous": false,
			"inputs": [
				{
					"indexed": true,
					"internalType": "address",
					"name": "previousOwner",
					"type": "address"
				},
				{
					"indexed": true,
					"internalType": "address",
					"name": "newOwner",
					"type": "address"
				}
			],
			"name": "OwnershipTransferred",
			"type": "event"
		},
		{
			"inputs": [],
			"name": "FISH",
			"outputs": [
				{
					"internalType": "contract IFISH",
					"name": "",
					"type": "address"
				}
			],
			"stateMutability": "view",
			"type": "function"
		},
		{
			"inputs": [],
			"name": "FISHNFT",
			"outputs": [
				{
					"internalType": "contract IFISHNFT",
					"name": "",
					"type": "address"
				}
			],
			"stateMutability": "view",
			"type": "function"
		},
		{
			"inputs": [],
			"name": "Factory",
			"outputs": [
				{
					"internalType": "contract IUniswapV2Factory",
					"name": "",
					"type": "address"
				}
			],
			"stateMutability": "view",
			"type": "function"
		},
		{
			"inputs": [],
			"name": "PRECISION",
			"outputs": [
				{
					"internalType": "uint256",
					"name": "",
					"type": "uint256"
				}
			],
			"stateMutability": "view",
			"type": "function"
		},
		{
			"inputs": [],
			"name": "ROI",
			"outputs": [
				{
					"internalType": "uint256",
					"name": "",
					"type": "uint256"
				}
			],
			"stateMutability": "view",
			"type": "function"
		},
		{
			"inputs": [],
			"name": "Router",
			"outputs": [
				{
					"internalType": "contract IUniswapV2Router02",
					"name": "",
					"type": "address"
				}
			],
			"stateMutability": "view",
			"type": "function"
		},
		{
			"inputs": [],
			"name": "TargetROI",
			"outputs": [
				{
					"internalType": "uint256",
					"name": "",
					"type": "uint256"
				}
			],
			"stateMutability": "view",
			"type": "function"
		},
		{
			"inputs": [],
			"name": "USDC",
			"outputs": [
				{
					"internalType": "contract IERC20Upgradeable",
					"name": "",
					"type": "address"
				}
			],
			"stateMutability": "view",
			"type": "function"
		},
		{
			"inputs": [],
			"name": "addLiquidityOpen",
			"outputs": [
				{
					"internalType": "bool",
					"name": "",
					"type": "bool"
				}
			],
			"stateMutability": "view",
			"type": "function"
		},
		{
			"inputs": [
				{
					"internalType": "uint256",
					"name": "_amt",
					"type": "uint256"
				}
			],
			"name": "buyNft",
			"outputs": [
				{
					"internalType": "bool",
					"name": "",
					"type": "bool"
				}
			],
			"stateMutability": "nonpayable",
			"type": "function"
		},
		{
			"inputs": [],
			"name": "dev",
			"outputs": [
				{
					"internalType": "address",
					"name": "",
					"type": "address"
				}
			],
			"stateMutability": "view",
			"type": "function"
		},
		{
			"inputs": [],
			"name": "direction",
			"outputs": [
				{
					"internalType": "uint256",
					"name": "",
					"type": "uint256"
				}
			],
			"stateMutability": "view",
			"type": "function"
		},
		{
			"inputs": [],
			"name": "exchangeRate",
			"outputs": [
				{
					"internalType": "uint256",
					"name": "",
					"type": "uint256"
				}
			],
			"stateMutability": "view",
			"type": "function"
		},
		{
			"inputs": [
				{
					"internalType": "contract IFISH",
					"name": "_FISH",
					"type": "address"
				},
				{
					"internalType": "contract IFISHNFT",
					"name": "_FISHNFT",
					"type": "address"
				},
				{
					"internalType": "contract IUniswapV2Factory",
					"name": "_Factory",
					"type": "address"
				},
				{
					"internalType": "contract IUniswapV2Router02",
					"name": "_Router",
					"type": "address"
				},
				{
					"internalType": "address",
					"name": "_multiSignature",
					"type": "address"
				},
				{
					"internalType": "address",
					"name": "_multiSignatureToSToken",
					"type": "address"
				},
				{
					"internalType": "address",
					"name": "_dev",
					"type": "address"
				},
				{
					"internalType": "address",
					"name": "_op",
					"type": "address"
				},
				{
					"internalType": "address",
					"name": "_sFISH",
					"type": "address"
				},
				{
					"internalType": "contract IOracle",
					"name": "_oracle",
					"type": "address"
				},
				{
					"internalType": "contract IERC20Upgradeable",
					"name": "_USDC",
					"type": "address"
				}
			],
			"name": "initialize",
			"outputs": [],
			"stateMutability": "nonpayable",
			"type": "function"
		},
		{
			"inputs": [],
			"name": "maxSellAmt",
			"outputs": [
				{
					"internalType": "uint256",
					"name": "",
					"type": "uint256"
				}
			],
			"stateMutability": "view",
			"type": "function"
		},
		{
			"inputs": [],
			"name": "multiSignature",
			"outputs": [
				{
					"internalType": "address",
					"name": "",
					"type": "address"
				}
			],
			"stateMutability": "view",
			"type": "function"
		},
		{
			"inputs": [],
			"name": "multiSignatureToSToken",
			"outputs": [
				{
					"internalType": "address",
					"name": "",
					"type": "address"
				}
			],
			"stateMutability": "view",
			"type": "function"
		},
		{
			"inputs": [],
			"name": "op",
			"outputs": [
				{
					"internalType": "address",
					"name": "",
					"type": "address"
				}
			],
			"stateMutability": "view",
			"type": "function"
		},
		{
			"inputs": [],
			"name": "oracle",
			"outputs": [
				{
					"internalType": "contract IOracle",
					"name": "",
					"type": "address"
				}
			],
			"stateMutability": "view",
			"type": "function"
		},
		{
			"inputs": [],
			"name": "oracleData",
			"outputs": [
				{
					"internalType": "bytes",
					"name": "",
					"type": "bytes"
				}
			],
			"stateMutability": "view",
			"type": "function"
		},
		{
			"inputs": [],
			"name": "owner",
			"outputs": [
				{
					"internalType": "address",
					"name": "",
					"type": "address"
				}
			],
			"stateMutability": "view",
			"type": "function"
		},
		{
			"inputs": [],
			"name": "peekSpot",
			"outputs": [
				{
					"internalType": "uint256",
					"name": "",
					"type": "uint256"
				}
			],
			"stateMutability": "view",
			"type": "function"
		},
		{
			"inputs": [],
			"name": "price",
			"outputs": [
				{
					"internalType": "uint256",
					"name": "",
					"type": "uint256"
				}
			],
			"stateMutability": "view",
			"type": "function"
		},
		{
			"inputs": [],
			"name": "renounceOwnership",
			"outputs": [],
			"stateMutability": "nonpayable",
			"type": "function"
		},
		{
			"inputs": [],
			"name": "sFISH",
			"outputs": [
				{
					"internalType": "address",
					"name": "",
					"type": "address"
				}
			],
			"stateMutability": "view",
			"type": "function"
		},
		{
			"inputs": [
				{
					"internalType": "bool",
					"name": "_bool",
					"type": "bool"
				}
			],
			"name": "setAddLiquidityOpen",
			"outputs": [
				{
					"internalType": "bool",
					"name": "",
					"type": "bool"
				}
			],
			"stateMutability": "nonpayable",
			"type": "function"
		},
		{
			"inputs": [
				{
					"internalType": "address",
					"name": "_dev",
					"type": "address"
				}
			],
			"name": "setDev",
			"outputs": [
				{
					"internalType": "bool",
					"name": "",
					"type": "bool"
				}
			],
			"stateMutability": "nonpayable",
			"type": "function"
		},
		{
			"inputs": [
				{
					"internalType": "uint256",
					"name": "_val",
					"type": "uint256"
				}
			],
			"name": "setDirection",
			"outputs": [
				{
					"internalType": "bool",
					"name": "",
					"type": "bool"
				}
			],
			"stateMutability": "nonpayable",
			"type": "function"
		},
		{
			"inputs": [
				{
					"internalType": "uint256",
					"name": "_val",
					"type": "uint256"
				}
			],
			"name": "setMaxSellAmt",
			"outputs": [
				{
					"internalType": "bool",
					"name": "",
					"type": "bool"
				}
			],
			"stateMutability": "nonpayable",
			"type": "function"
		},
		{
			"inputs": [
				{
					"internalType": "address",
					"name": "_multiSignature",
					"type": "address"
				}
			],
			"name": "setMultiSignature",
			"outputs": [
				{
					"internalType": "bool",
					"name": "",
					"type": "bool"
				}
			],
			"stateMutability": "nonpayable",
			"type": "function"
		},
		{
			"inputs": [
				{
					"internalType": "address",
					"name": "_multiSignatureToSToken",
					"type": "address"
				}
			],
			"name": "setMultiSignatureToSToken",
			"outputs": [
				{
					"internalType": "bool",
					"name": "",
					"type": "bool"
				}
			],
			"stateMutability": "nonpayable",
			"type": "function"
		},
		{
			"inputs": [
				{
					"internalType": "address",
					"name": "_op",
					"type": "address"
				}
			],
			"name": "setOp",
			"outputs": [
				{
					"internalType": "bool",
					"name": "",
					"type": "bool"
				}
			],
			"stateMutability": "nonpayable",
			"type": "function"
		},
		{
			"inputs": [
				{
					"internalType": "contract IOracle",
					"name": "_newOracle",
					"type": "address"
				},
				{
					"internalType": "bytes",
					"name": "_newOracleData",
					"type": "bytes"
				}
			],
			"name": "setOracle",
			"outputs": [
				{
					"internalType": "bool",
					"name": "",
					"type": "bool"
				}
			],
			"stateMutability": "nonpayable",
			"type": "function"
		},
		{
			"inputs": [
				{
					"internalType": "uint256",
					"name": "_val",
					"type": "uint256"
				}
			],
			"name": "setPrice",
			"outputs": [
				{
					"internalType": "bool",
					"name": "",
					"type": "bool"
				}
			],
			"stateMutability": "nonpayable",
			"type": "function"
		},
		{
			"inputs": [
				{
					"internalType": "uint256",
					"name": "_val",
					"type": "uint256"
				}
			],
			"name": "setROI",
			"outputs": [
				{
					"internalType": "bool",
					"name": "",
					"type": "bool"
				}
			],
			"stateMutability": "nonpayable",
			"type": "function"
		},
		{
			"inputs": [
				{
					"internalType": "bool",
					"name": "_bool",
					"type": "bool"
				}
			],
			"name": "setStateOpen",
			"outputs": [
				{
					"internalType": "bool",
					"name": "",
					"type": "bool"
				}
			],
			"stateMutability": "nonpayable",
			"type": "function"
		},
		{
			"inputs": [
				{
					"internalType": "uint256",
					"name": "_val",
					"type": "uint256"
				}
			],
			"name": "setStepSize",
			"outputs": [
				{
					"internalType": "bool",
					"name": "",
					"type": "bool"
				}
			],
			"stateMutability": "nonpayable",
			"type": "function"
		},
		{
			"inputs": [
				{
					"internalType": "uint256",
					"name": "_val",
					"type": "uint256"
				}
			],
			"name": "setTargetROI",
			"outputs": [
				{
					"internalType": "bool",
					"name": "",
					"type": "bool"
				}
			],
			"stateMutability": "nonpayable",
			"type": "function"
		},
		{
			"inputs": [
				{
					"internalType": "uint256",
					"name": "_toDevPec",
					"type": "uint256"
				}
			],
			"name": "setToDevPec",
			"outputs": [
				{
					"internalType": "bool",
					"name": "",
					"type": "bool"
				}
			],
			"stateMutability": "nonpayable",
			"type": "function"
		},
		{
			"inputs": [
				{
					"internalType": "uint256",
					"name": "_toLiquidityPec",
					"type": "uint256"
				}
			],
			"name": "setToLiquidityPec",
			"outputs": [
				{
					"internalType": "bool",
					"name": "",
					"type": "bool"
				}
			],
			"stateMutability": "nonpayable",
			"type": "function"
		},
		{
			"inputs": [
				{
					"internalType": "uint256",
					"name": "_toOpPec",
					"type": "uint256"
				}
			],
			"name": "setToOpPec",
			"outputs": [
				{
					"internalType": "bool",
					"name": "",
					"type": "bool"
				}
			],
			"stateMutability": "nonpayable",
			"type": "function"
		},
		{
			"inputs": [
				{
					"internalType": "uint256",
					"name": "_val",
					"type": "uint256"
				},
				{
					"internalType": "uint256",
					"name": "_lev",
					"type": "uint256"
				}
			],
			"name": "setWhitelistDiscount",
			"outputs": [
				{
					"internalType": "bool",
					"name": "",
					"type": "bool"
				}
			],
			"stateMutability": "nonpayable",
			"type": "function"
		},
		{
			"inputs": [
				{
					"internalType": "address",
					"name": "_user",
					"type": "address"
				},
				{
					"internalType": "uint256",
					"name": "_lev",
					"type": "uint256"
				}
			],
			"name": "setWhitelistLevel",
			"outputs": [
				{
					"internalType": "bool",
					"name": "",
					"type": "bool"
				}
			],
			"stateMutability": "nonpayable",
			"type": "function"
		},
		{
			"inputs": [],
			"name": "stateOpen",
			"outputs": [
				{
					"internalType": "bool",
					"name": "",
					"type": "bool"
				}
			],
			"stateMutability": "view",
			"type": "function"
		},
		{
			"inputs": [],
			"name": "stepSize",
			"outputs": [
				{
					"internalType": "uint256",
					"name": "",
					"type": "uint256"
				}
			],
			"stateMutability": "view",
			"type": "function"
		},
		{
			"inputs": [],
			"name": "toDevPec",
			"outputs": [
				{
					"internalType": "uint256",
					"name": "",
					"type": "uint256"
				}
			],
			"stateMutability": "view",
			"type": "function"
		},
		{
			"inputs": [],
			"name": "toLiquidityPec",
			"outputs": [
				{
					"internalType": "uint256",
					"name": "",
					"type": "uint256"
				}
			],
			"stateMutability": "view",
			"type": "function"
		},
		{
			"inputs": [],
			"name": "toOpPec",
			"outputs": [
				{
					"internalType": "uint256",
					"name": "",
					"type": "uint256"
				}
			],
			"stateMutability": "view",
			"type": "function"
		},
		{
			"inputs": [
				{
					"internalType": "address",
					"name": "newOwner",
					"type": "address"
				}
			],
			"name": "transferOwnership",
			"outputs": [],
			"stateMutability": "nonpayable",
			"type": "function"
		},
		{
			"inputs": [],
			"name": "updateExchangeRate",
			"outputs": [
				{
					"internalType": "bool",
					"name": "updated",
					"type": "bool"
				},
				{
					"internalType": "uint256",
					"name": "rate",
					"type": "uint256"
				}
			],
			"stateMutability": "nonpayable",
			"type": "function"
		},
		{
			"inputs": [
				{
					"internalType": "uint256",
					"name": "",
					"type": "uint256"
				}
			],
			"name": "whitelistDiscount",
			"outputs": [
				{
					"internalType": "uint256",
					"name": "",
					"type": "uint256"
				}
			],
			"stateMutability": "view",
			"type": "function"
		},
		{
			"inputs": [
				{
					"internalType": "address",
					"name": "",
					"type": "address"
				}
			],
			"name": "whitelistLevel",
			"outputs": [
				{
					"internalType": "uint256",
					"name": "",
					"type": "uint256"
				}
			],
			"stateMutability": "view",
			"type": "function"
		}
	]
}