{
  "_format": "hh-sol-artifact-1",
  "contractName": "FishERC20",
  "sourceName": "contracts/FishToken.sol",
  "abi": [
    {
      "anonymous": false,
      "inputs": [
        {
          "indexed": true,
          "internalType": "address",
          "name": "owner",
          "type": "address"
        },
        {
          "indexed": true,
          "internalType": "address",
          "name": "spender",
          "type": "address"
        },
        {
          "indexed": false,
          "internalType": "uint256",
          "name": "value",
          "type": "uint256"
        }
      ],
      "name": "Approval",
      "type": "event"
    },
    {
      "anonymous": false,
      "inputs": [
        {
          "indexed": true,
          "internalType": "address",
          "name": "previousOwner",
          "type": "address"
        },
        {
          "indexed": true,
          "internalType": "address",
          "name": "newOwner",
          "type": "address"
        }
      ],
      "name": "OwnershipTransferred",
      "type": "event"
    },
    {
      "anonymous": false,
      "inputs": [
        {
          "indexed": true,
          "internalType": "address",
          "name": "from",
          "type": "address"
        },
        {
          "indexed": true,
          "internalType": "address",
          "name": "to",
          "type": "address"
        },
        {
          "indexed": false,
          "internalType": "uint256",
          "name": "value",
          "type": "uint256"
        }
      ],
      "name": "Transfer",
      "type": "event"
    },
    {
      "inputs": [
        {
          "internalType": "address",
          "name": "account_",
          "type": "address"
        },
        {
          "internalType": "uint256",
          "name": "amount_",
          "type": "uint256"
        }
      ],
      "name": "_burnFrom",
      "outputs": [],
      "stateMutability": "nonpayable",
      "type": "function"
    },
    {
      "inputs": [
        {
          "internalType": "address",
          "name": "owner",
          "type": "address"
        },
        {
          "internalType": "address",
          "name": "spender",
          "type": "address"
        }
      ],
      "name": "allowance",
      "outputs": [
        {
          "internalType": "uint256",
          "name": "",
          "type": "uint256"
        }
      ],
      "stateMutability": "view",
      "type": "function"
    },
    {
      "inputs": [
        {
          "internalType": "address",
          "name": "spender",
          "type": "address"
        },
        {
          "internalType": "uint256",
          "name": "amount",
          "type": "uint256"
        }
      ],
      "name": "approve",
      "outputs": [
        {
          "internalType": "bool",
          "name": "",
          "type": "bool"
        }
      ],
      "stateMutability": "nonpayable",
      "type": "function"
    },
    {
      "inputs": [
        {
          "internalType": "address",
          "name": "account",
          "type": "address"
        }
      ],
      "name": "balanceOf",
      "outputs": [
        {
          "internalType": "uint256",
          "name": "",
          "type": "uint256"
        }
      ],
      "stateMutability": "view",
      "type": "function"
    },
    {
      "inputs": [
        {
          "internalType": "uint256",
          "name": "_amount",
          "type": "uint256"
        }
      ],
      "name": "burn",
      "outputs": [],
      "stateMutability": "nonpayable",
      "type": "function"
    },
    {
      "inputs": [
        {
          "internalType": "address",
          "name": "account_",
          "type": "address"
        },
        {
          "internalType": "uint256",
          "name": "amount_",
          "type": "uint256"
        }
      ],
      "name": "burnFrom",
      "outputs": [],
      "stateMutability": "nonpayable",
      "type": "function"
    },
    {
      "inputs": [],
      "name": "decimals",
      "outputs": [
        {
          "internalType": "uint8",
          "name": "",
          "type": "uint8"
        }
      ],
      "stateMutability": "view",
      "type": "function"
    },
    {
      "inputs": [
        {
          "internalType": "address",
          "name": "spender",
          "type": "address"
        },
        {
          "internalType": "uint256",
          "name": "subtractedValue",
          "type": "uint256"
        }
      ],
      "name": "decreaseAllowance",
      "outputs": [
        {
          "internalType": "bool",
          "name": "",
          "type": "bool"
        }
      ],
      "stateMutability": "nonpayable",
      "type": "function"
    },
    {
      "inputs": [
        {
          "internalType": "address",
          "name": "",
          "type": "address"
        }
      ],
      "name": "executor",
      "outputs": [
        {
          "internalType": "bool",
          "name": "",
          "type": "bool"
        }
      ],
      "stateMutability": "view",
      "type": "function"
    },
    {
      "inputs": [
        {
          "internalType": "address",
          "name": "spender",
          "type": "address"
        },
        {
          "internalType": "uint256",
          "name": "addedValue",
          "type": "uint256"
        }
      ],
      "name": "increaseAllowance",
      "outputs": [
        {
          "internalType": "bool",
          "name": "",
          "type": "bool"
        }
      ],
      "stateMutability": "nonpayable",
      "type": "function"
    },
    {
      "inputs": [
        {
          "internalType": "string",
          "name": "_name",
          "type": "string"
        },
        {
          "internalType": "string",
          "name": "_symbol",
          "type": "string"
        },
        {
          "internalType": "address",
          "name": "_to",
          "type": "address"
        },
        {
          "internalType": "uint256",
          "name": "_totalSupply",
          "type": "uint256"
        }
      ],
      "name": "initialize",
      "outputs": [],
      "stateMutability": "nonpayable",
      "type": "function"
    },
    {
      "inputs": [
        {
          "internalType": "address",
          "name": "_account",
          "type": "address"
        },
        {
          "internalType": "uint256",
          "name": "_amount",
          "type": "uint256"
        }
      ],
      "name": "mint",
      "outputs": [
        {
          "internalType": "bool",
          "name": "",
          "type": "bool"
        }
      ],
      "stateMutability": "nonpayable",
      "type": "function"
    },
    {
      "inputs": [],
      "name": "name",
      "outputs": [
        {
          "internalType": "string",
          "name": "",
          "type": "string"
        }
      ],
      "stateMutability": "view",
      "type": "function"
    },
    {
      "inputs": [],
      "name": "owner",
      "outputs": [
        {
          "internalType": "address",
          "name": "",
          "type": "address"
        }
      ],
      "stateMutability": "view",
      "type": "function"
    },
    {
      "inputs": [],
      "name": "renounceOwnership",
      "outputs": [],
      "stateMutability": "nonpayable",
      "type": "function"
    },
    {
      "inputs": [
        {
          "internalType": "address",
          "name": "_address",
          "type": "address"
        },
        {
          "internalType": "bool",
          "name": "_type",
          "type": "bool"
        }
      ],
      "name": "setExecutor",
      "outputs": [
        {
          "internalType": "bool",
          "name": "",
          "type": "bool"
        }
      ],
      "stateMutability": "nonpayable",
      "type": "function"
    },
    {
      "inputs": [],
      "name": "symbol",
      "outputs": [
        {
          "internalType": "string",
          "name": "",
          "type": "string"
        }
      ],
      "stateMutability": "view",
      "type": "function"
    },
    {
      "inputs": [],
      "name": "totalSupply",
      "outputs": [
        {
          "internalType": "uint256",
          "name": "",
          "type": "uint256"
        }
      ],
      "stateMutability": "view",
      "type": "function"
    },
    {
      "inputs": [
        {
          "internalType": "address",
          "name": "recipient",
          "type": "address"
        },
        {
          "internalType": "uint256",
          "name": "amount",
          "type": "uint256"
        }
      ],
      "name": "transfer",
      "outputs": [
        {
          "internalType": "bool",
          "name": "",
          "type": "bool"
        }
      ],
      "stateMutability": "nonpayable",
      "type": "function"
    },
    {
      "inputs": [
        {
          "internalType": "address",
          "name": "sender",
          "type": "address"
        },
        {
          "internalType": "address",
          "name": "recipient",
          "type": "address"
        },
        {
          "internalType": "uint256",
          "name": "amount",
          "type": "uint256"
        }
      ],
      "name": "transferFrom",
      "outputs": [
        {
          "internalType": "bool",
          "name": "",
          "type": "bool"
        }
      ],
      "stateMutability": "nonpayable",
      "type": "function"
    },
    {
      "inputs": [
        {
          "internalType": "address",
          "name": "newOwner",
          "type": "address"
        }
      ],
      "name": "transferOwnership",
      "outputs": [],
      "stateMutability": "nonpayable",
      "type": "function"
    }
  ],
  "bytecode": "0x608060405234801561001057600080fd5b506114a6806100206000396000f3fe608060405234801561001057600080fd5b50600436106101375760003560e01c806370a08231116100b8578063a22b35ce1161007c578063a22b35ce14610289578063a457c2d71461029c578063a9059cbb146102af578063dd62ed3e146102c2578063f2fde38b146102fb578063f542033f1461030e57600080fd5b806370a0823114610222578063715018a61461024b57806379cc6790146102535780638da5cb5b1461026657806395d89b411461028157600080fd5b8063313ce567116100ff578063313ce567146101b557806339509351146101c457806340c10f19146101d757806342966c68146101ea57806348c7e528146101ff57600080fd5b806306fdde031461013c578063095ea7b31461015a57806318160ddd1461017d5780631e1bff3f1461018f57806323b872dd146101a2575b600080fd5b610144610321565b60405161015191906110a9565b60405180910390f35b61016d61016836600461111a565b6103b3565b6040519015158152602001610151565b6067545b604051908152602001610151565b61016d61019d366004611144565b6103c9565b61016d6101b0366004611180565b61042e565b60405160128152602001610151565b61016d6101d236600461111a565b6104d8565b61016d6101e536600461111a565b610514565b6101fd6101f83660046111bc565b610589565b005b61016d61020d3660046111d5565b60976020526000908152604090205460ff1681565b6101816102303660046111d5565b6001600160a01b031660009081526065602052604090205490565b6101fd610596565b6101fd61026136600461111a565b6105cc565b6033546040516001600160a01b039091168152602001610151565b6101446105da565b6101fd61029736600461111a565b6105e9565b61016d6102aa36600461111a565b61064f565b61016d6102bd36600461111a565b6106e8565b6101816102d03660046111f7565b6001600160a01b03918216600090815260666020908152604080832093909416825291909152205490565b6101fd6103093660046111d5565b6106f5565b6101fd61031c3660046112cd565b61078d565b60606068805461033090611349565b80601f016020809104026020016040519081016040528092919081815260200182805461035c90611349565b80156103a95780601f1061037e576101008083540402835291602001916103a9565b820191906000526020600020905b81548152906001019060200180831161038c57829003601f168201915b5050505050905090565b60006103c0338484610819565b50600192915050565b6033546000906001600160a01b031633146103ff5760405162461bcd60e51b81526004016103f690611384565b60405180910390fd5b506001600160a01b0382166000908152609760205260409020805482151560ff19909116179055600192915050565b600061043b84848461093d565b6001600160a01b0384166000908152606660209081526040808320338452909152902054828110156104c05760405162461bcd60e51b815260206004820152602860248201527f45524332303a207472616e7366657220616d6f756e74206578636565647320616044820152676c6c6f77616e636560c01b60648201526084016103f6565b6104cd8533858403610819565b506001949350505050565b3360008181526066602090815260408083206001600160a01b038716845290915281205490916103c091859061050f9086906113cf565b610819565b3360009081526097602052604081205460ff1661057f5760405162461bcd60e51b8152602060048201526024808201527f6578656375746f723a2063616c6c6572206973206e6f742074686520657865636044820152633aba37b960e11b60648201526084016103f6565b6103c08383610b0c565b6105933382610beb565b50565b6033546001600160a01b031633146105c05760405162461bcd60e51b81526004016103f690611384565b6105ca6000610d39565b565b6105d682826105e9565b5050565b60606069805461033090611349565b60006106338260405180606001604052806024815260200161144d602491396001600160a01b03861660009081526066602090815260408083203384529091529020549190610d8b565b9050610640833383610819565b61064a8383610beb565b505050565b3360009081526066602090815260408083206001600160a01b0386168452909152812054828110156106d15760405162461bcd60e51b815260206004820152602560248201527f45524332303a2064656372656173656420616c6c6f77616e63652062656c6f77604482015264207a65726f60d81b60648201526084016103f6565b6106de3385858403610819565b5060019392505050565b60006103c033848461093d565b6033546001600160a01b0316331461071f5760405162461bcd60e51b81526004016103f690611384565b6001600160a01b0381166107845760405162461bcd60e51b815260206004820152602660248201527f4f776e61626c653a206e6577206f776e657220697320746865207a65726f206160448201526564647265737360d01b60648201526084016103f6565b61059381610d39565b600054610100900460ff16806107a6575060005460ff16155b6107c25760405162461bcd60e51b81526004016103f6906113e7565b600054610100900460ff161580156107e4576000805461ffff19166101011790555b6107ec610db7565b6107f68585610e32565b6108008383610b0c565b8015610812576000805461ff00191690555b5050505050565b6001600160a01b03831661087b5760405162461bcd60e51b8152602060048201526024808201527f45524332303a20617070726f76652066726f6d20746865207a65726f206164646044820152637265737360e01b60648201526084016103f6565b6001600160a01b0382166108dc5760405162461bcd60e51b815260206004820152602260248201527f45524332303a20617070726f766520746f20746865207a65726f206164647265604482015261737360f01b60648201526084016103f6565b6001600160a01b0383811660008181526066602090815260408083209487168084529482529182902085905590518481527f8c5be1e5ebec7d5bd14f71427d1e84f3dd0314c0f7b2291e5b200ac8c7c3b925910160405180910390a3505050565b6001600160a01b0383166109a15760405162461bcd60e51b815260206004820152602560248201527f45524332303a207472616e736665722066726f6d20746865207a65726f206164604482015264647265737360d81b60648201526084016103f6565b6001600160a01b038216610a035760405162461bcd60e51b815260206004820152602360248201527f45524332303a207472616e7366657220746f20746865207a65726f206164647260448201526265737360e81b60648201526084016103f6565b6001600160a01b03831660009081526065602052604090205481811015610a7b5760405162461bcd60e51b815260206004820152602660248201527f45524332303a207472616e7366657220616d6f756e7420657863656564732062604482015265616c616e636560d01b60648201526084016103f6565b6001600160a01b03808516600090815260656020526040808220858503905591851681529081208054849290610ab29084906113cf565b92505081905550826001600160a01b0316846001600160a01b03167fddf252ad1be2c89b69c2b068fc378daa952ba7f163c4a11628f55a4df523b3ef84604051610afe91815260200190565b60405180910390a350505050565b6001600160a01b038216610b625760405162461bcd60e51b815260206004820152601f60248201527f45524332303a206d696e7420746f20746865207a65726f20616464726573730060448201526064016103f6565b8060676000828254610b7491906113cf565b90915550506001600160a01b03821660009081526065602052604081208054839290610ba19084906113cf565b90915550506040518181526001600160a01b038316906000907fddf252ad1be2c89b69c2b068fc378daa952ba7f163c4a11628f55a4df523b3ef9060200160405180910390a35050565b6001600160a01b038216610c4b5760405162461bcd60e51b815260206004820152602160248201527f45524332303a206275726e2066726f6d20746865207a65726f206164647265736044820152607360f81b60648201526084016103f6565b6001600160a01b03821660009081526065602052604090205481811015610cbf5760405162461bcd60e51b815260206004820152602260248201527f45524332303a206275726e20616d6f756e7420657863656564732062616c616e604482015261636560f01b60648201526084016103f6565b6001600160a01b0383166000908152606560205260408120838303905560678054849290610cee908490611435565b90915550506040518281526000906001600160a01b038516907fddf252ad1be2c89b69c2b068fc378daa952ba7f163c4a11628f55a4df523b3ef9060200160405180910390a3505050565b603380546001600160a01b038381166001600160a01b0319831681179093556040519116919082907f8be0079c531659141344cd1fd0a4f28419497f9722a3daafe3b4186f6b6457e090600090a35050565b60008184841115610daf5760405162461bcd60e51b81526004016103f691906110a9565b505050900390565b600054610100900460ff1680610dd0575060005460ff16155b610dec5760405162461bcd60e51b81526004016103f6906113e7565b600054610100900460ff16158015610e0e576000805461ffff19166101011790555b610e16610eb1565b610e1e610f1b565b8015610593576000805461ff001916905550565b600054610100900460ff1680610e4b575060005460ff16155b610e675760405162461bcd60e51b81526004016103f6906113e7565b600054610100900460ff16158015610e89576000805461ffff19166101011790555b610e91610eb1565b610e9b8383610f7b565b801561064a576000805461ff0019169055505050565b600054610100900460ff1680610eca575060005460ff16155b610ee65760405162461bcd60e51b81526004016103f6906113e7565b600054610100900460ff16158015610e1e576000805461ffff19166101011790558015610593576000805461ff001916905550565b600054610100900460ff1680610f34575060005460ff16155b610f505760405162461bcd60e51b81526004016103f6906113e7565b600054610100900460ff16158015610f72576000805461ffff19166101011790555b610e1e33610d39565b600054610100900460ff1680610f94575060005460ff16155b610fb05760405162461bcd60e51b81526004016103f6906113e7565b600054610100900460ff16158015610fd2576000805461ffff19166101011790555b8251610fe5906068906020860190611010565b508151610ff9906069906020850190611010565b50801561064a576000805461ff0019169055505050565b82805461101c90611349565b90600052602060002090601f01602090048101928261103e5760008555611084565b82601f1061105757805160ff1916838001178555611084565b82800160010185558215611084579182015b82811115611084578251825591602001919060010190611069565b50611090929150611094565b5090565b5b808211156110905760008155600101611095565b600060208083528351808285015260005b818110156110d6578581018301518582016040015282016110ba565b818111156110e8576000604083870101525b50601f01601f1916929092016040019392505050565b80356001600160a01b038116811461111557600080fd5b919050565b6000806040838503121561112d57600080fd5b611136836110fe565b946020939093013593505050565b6000806040838503121561115757600080fd5b611160836110fe565b91506020830135801515811461117557600080fd5b809150509250929050565b60008060006060848603121561119557600080fd5b61119e846110fe565b92506111ac602085016110fe565b9150604084013590509250925092565b6000602082840312156111ce57600080fd5b5035919050565b6000602082840312156111e757600080fd5b6111f0826110fe565b9392505050565b6000806040838503121561120a57600080fd5b611213836110fe565b9150611221602084016110fe565b90509250929050565b634e487b7160e01b600052604160045260246000fd5b600082601f83011261125157600080fd5b813567ffffffffffffffff8082111561126c5761126c61122a565b604051601f8301601f19908116603f011681019082821181831017156112945761129461122a565b816040528381528660208588010111156112ad57600080fd5b836020870160208301376000602085830101528094505050505092915050565b600080600080608085870312156112e357600080fd5b843567ffffffffffffffff808211156112fb57600080fd5b61130788838901611240565b9550602087013591508082111561131d57600080fd5b5061132a87828801611240565b935050611339604086016110fe565b9396929550929360600135925050565b600181811c9082168061135d57607f821691505b6020821081141561137e57634e487b7160e01b600052602260045260246000fd5b50919050565b6020808252818101527f4f776e61626c653a2063616c6c6572206973206e6f7420746865206f776e6572604082015260600190565b634e487b7160e01b600052601160045260246000fd5b600082198211156113e2576113e26113b9565b500190565b6020808252602e908201527f496e697469616c697a61626c653a20636f6e747261637420697320616c72656160408201526d191e481a5b9a5d1a585b1a5e995960921b606082015260800190565b600082821015611447576114476113b9565b50039056fe45524332303a206275726e20616d6f756e74206578636565647320616c6c6f77616e6365a2646970667358221220d41c689e5a4e5cf1f73875d2d5f5abb10e162a13f9b8827aa4b88c24880a941d64736f6c634300080c0033",
  "linkReferences": {},
  "deployedLinkReferences": {}
}